:10000000F8FF022095A2010079A2010031A20100AF
:1000100031A2010031A2010031A2010031A2010090
:1000200031A2010031A2010031A2010079A2010038
:1000300079A2010031A2010051960100C998010086
:1000400079A2010079A2010079A2010079A2010040
:1000500079A2010079A2010079A2010079A2010030
:1000600079A2010079A2010079A2010079A2010020
:1000700079A2010079A2010079A2010079A2010010
:1000800079A2010079A2010079A2010079A2010000
:1000900079A2010079A2010079A2010079A20100F0
:1000A00079840100D585010079A2010079A20100BF
:1000B00079A2010079A2010079A20100DDB301005B
:1000C00079A20100B1DB010079A201000DDD010080
:1000D00079A201003DDE010079A2010079A20100B0
:1000E00079A2010079A2010079A2010079A20100A0
:1000F00079A2010079A2010079A2010079A2010090
:1001000079A2010079A2010079A2010079A201007F
:1001100079A201008DBC010079A2010079A2010041
:1001200079A2010079A2010079A2010079A201005F
:1001300079A2010079A2010079A2010079A201004F
:100140009D93010079A201006DDF010079A20100F9
:100150009DE0010079A2010079A2010079A20100CD
:1001600079A2010079A201003187010079A2010082
:1001700079A2010079A2010079A2010079A201000F
:1001800079A20100A14F010079A2010079A201002A
:1001900079A2010079A20100FFFFFFFFFFFFFFFF2F
:1001A000FFFFFFFFFFFFFFFFFFFFFFFFFFFFFFFF5F
:1001B000FFFFFFFFFFFFFFFFFFFFFFFFFFFFFFFF4F
:1001C000FFFFFFFFFFFFFFFFFFFFFFFFFFFFFFFF3F
:1001D000FFFFFFFFFFFFFFFFFFFFFFFFFFFFFFFF2F
:10040000FFFFFFFFFFFFFFFFFFFFFFFFDEF9FFFF23
:1004100010B5054C237833B9044B13B10448AFF33E
:1004200000800123237010BDF4EB002000000000C9
:10043000CC4A0200084B10B51BB108490848AFF37D
:1004400000800848036803B910BD074B002BFBD0A0
:10045000BDE81040184700BF00000000F8EB002086
:10046000CC4A0200F4EB002000000000704700BFFF
:1004700010B54FF4097104461AF086F8204610BDF5
:1004800070B54FF06A522DED028B064642F6584386
:1004900008EE902A40F6DB72C0F202034FF20E45DE
:1004A00040F6DA70C4F24902C2F20005C3F64920F0
:1004B00008EE102A336000240FE007EE904AF8EEB1
:1004C000E77A77EE807A67EEA87A67EE887A27EE89
:1004D000800A1EF001F910EE100A21F0BFF841EC7D
:1004E000100B1DF061FF00230022CCF2900351ECB1
:1004F000100B21F007F941EC100B1DF069FF51ECD6
:10050000100B21F0D7FB0134B4F5806FB6EE000A72
:1005100025F8020FD1D14FF06A534EF60E4508EE82
:10052000103AC2F20005002407EE904AF8EEE77A8E
:10053000013467EE887A17EE900A21F08FF89FED6C
:10054000140B41EC110B1EF0C7F9002351EC100BFA
:100550000022C3F6F07320F021FF00230022C4F232
:10056000B00321F0CFF821F0C5FB21F077F841EC82
:10057000100B1DF02DFF51EC100B21F09BFBB4F57F
:10058000806F25F8020FCFD1BDEC028B304670BDD5
:100590000000000000000040704700BF10B54FF49D
:1005A0000971044619F0F0FF204610BD2DE9F04F07
:1005B0004DF66C66C2F200060A9D0B989DF83070ED
:1005C000B6F800C042F67044C0F20204C5EB000A5F
:1005D000002F18BF0C466FEA0C0B0AF1200A4DF6EB
:1005E0006C294DF66C48043A271FA1F1040E0FFA4E
:1005F0008BFB4FEAAA1AC2F20009C2F200080026D9
:1006000027E0B4F5007F02D08CB3C943C9B239F8F2
:1006100011104CEA010101EBC00080B20BEA0004AA
:10062000E143C9B2241238F8111001F58061490084
:10063000E14010EA0C0F18BFC94357F8044F09985E
:1006400009B2013604EB8131402E03444EF8041FF9
:1006500010D052F8041F1944891301F44074554412
:10066000B4F5807FC9B2A8B2CBD1C943C9B239F8B9
:100670001110D0E7BDE8F08F2DE9F04F4DF66C6515
:10068000C2F2000509982E880A9D9DF82C7042F64A
:100690007044C0F20204C0EB050E002F14BF0F46D9
:1006A00027466FEA06090EF1200E4DF66C284DF62E
:1006B0006C4C3C1F0D1F0FFA89F9FC374FEAAE1E38
:1006C000C2F20008C2F2000C2AE0BBF5007F04D0A1
:1006D000BBF1000F30D0C943C9B238F81110314313
:1006E00001EBCA0A1FFA8AFA09EA0A0B6FEA0B0140
:1006F000C9B24FEA2B2B3CF8111001F5806149007B
:100700001AEA060F21FA0BF154F804AF18BFC943D7
:1007100009B20AEB8131BC421A4445F8041F0ED0DD
:10072000911301F4407B7044BBF5807F1FFA80FA7F
:10073000C9B2CAD1C943C9B238F81110D0E7BDE86F
:10074000F08F00BF2DE9F04F4DF66C6083B0C2F220
:1007500000000D9EB0F800C00C9C9DF840A00F9FBB
:100760000E980E9D019342F6704EC0F2020EC4EB3D
:10077000060B6FEA0C06BAF1000F14BF8A46F24668
:1007800033B20BF1200B4DF66C294DF66C48AAF1F3
:10079000040600686D680093A1F1040E0AF1FC0ADA
:1007A0004FEAAB1B0137C2F20009C2F2000829E090
:1007B000B0F5007F02D098B3DB43DBB239F81330D9
:1007C0004CEA030303EBC101009B89B203EA010079
:1007D000C343DBB2001238F8133003F580635B00CB
:1007E000C34011EA0C0F18BFDB4356F8041F0198F1
:1007F0001BB29B031944564502444EF8041F284679
:1008000011D01D4643193B4113449B1303F4407020
:100810005C44B0F5807FDBB2A1B2C9D1DB43DBB26F
:1008200039F81330CEE70E9A1560536003B0BDE877
:10083000F08F00BF2DE9F04F43F6345403EB430330
:10084000C0F2020404EBC3050646144689460FCDE8
:1008500091B00AAF0FC795E80300002387E80300B3
:10086000012704F160088DF8247007978DF8253072
:100870008DF826300AAD48E00AF1FF3101EB011195
:1008800006EB0111133121F00F0194E80140C0146F
:10089000C0F500706060BEF1000F3FD0BEF5FE7F76
:1008A0003EDA10AFBA441AF81CCCBCF1000F04D0E9
:1008B00012F1000C18BF4FF0010CC3F301123AB152
:1008C00010AF07EB020B1BF81CBCBBF1000F34D1BF
:1008D00003F0C003C02B02D11B9B0F2B41DDA3688B
:1008E000E2680190CDF808C0CDF800E03046FFF78F
:1008F000C3FE9DF81C300AF81C3CE368A26803EBB9
:100900008213E3601034A04514D055F8043B13F073
:10091000030A03F00402AFD14946B6E740F2FF1ED6
:10092000B0F5FE7FBDDB002AE7D110AB9A440AF890
:100930001C2CE2E711B0BDE8F08F013A02EB021285
:10094000E368CDF80CC006EB02120290CDF804E08B
:10095000A0680090133222F00F023046FFF726FE07
:10096000C7E71F46E268A36803971A9F0190CDF876
:1009700010C00297CDF800E03046FFF7E3FEB8E77D
:1009800000207047704700BF704700BF10B5044695
:1009900018F086FC204610BD42F6EC5008B5162132
:1009A000C0F202001CF00AFF4FF20F601CF07CF84E
:1009B00042F60460C0F202000F211CF0FFFE4EF26E
:1009C0000020C2F20000BDE8084019F073B800BF73
:1009D00042F6146008B51021C0F202001CF0EEFED1
:1009E0004FF60F201CF060F842F60460C0F20200DF
:1009F0000F211CF0E3FE4EF20020C2F20000BDE821
:100A0000084019F057B800BF42F6286008B5132116
:100A1000C0F202001CF0D2FE4FF60F301CF044F87A
:100A200042F60460C0F202000F211CF0C7FE4EF235
:100A30000020C2F20000BDE8084019F03BB800BF3A
:100A400042F63C6008B50F21C0F202001CF0B6FE71
:100A50004FF60F401CF028F842F60460C0F2020086
:100A60000F211CF0ABFE4EF20020C2F20000BDE8E8
:100A7000084019F01FB800BF42F64C6008B51821B5
:100A8000C0F202001CF09AFE4FF60F601CF00CF84A
:100A900042F60460C0F202000F211CF08FFE4EF2FD
:100AA0000020C2F20000BDE8084019F003B800BF02
:100AB00042F6686008B50F21C0F202001CF07EFE0D
:100AC00040F67473C2F20103FC21986C03681B6842
:100AD000984742F67860C0F202000F211CF06EFECB
:100AE0004EF20020C2F20000BDE8084018F0E2BF5C
:100AF00042F6886008B51821C0F202001CF05EFEC4
:100B000040F67473C2F20103FE21986C03681B68FF
:100B1000984742F67860C0F202000F211CF04EFEAA
:100B20004EF20020C2F20000BDE8084018F0C2BF3B
:100B300042F6A46008B51021C0F202001CF03EFE8F
:100B400040F67473C2F20103FA21986C03681B68C3
:100B5000984742F67860C0F202000F211CF02EFE8A
:100B60004EF20020C2F20000BDE8084018F0A2BF1B
:100B700042F6B86008B51321C0F202001CF01EFE58
:100B800040F67473C2F20103FB21986C03681B6882
:100B9000984742F67860C0F202000F211CF00EFE6A
:100BA0004EF20020C2F20000BDE8084018F082BFFB
:100BB00038B542F6CC604EF2002540F66454102160
:100BC000C2F20104C2F20005C0F202001CF0F6FD00
:100BD000284618F06FFF20680FF00CF820680EF020
:100BE00015FF20680EF026FF42F6E0601621C0F2E5
:100BF00002001CF0E3FD4FF60F701BF055FF42F6AC
:100C00000460C0F202000F211CF0D8FD2846BDE8A8
:100C1000384018F04FBF00BF38B542F6CC604EF2F6
:100C2000002540F664541021C2F20104C2F200050E
:100C3000C0F202001CF0C2FD284618F03BFF2068FD
:100C40000EF0D8FF20680EF0E1FE20680EF0F2FEF4
:100C500042F6F8601621C0F202001CF0AFFD40F62B
:100C60007473C2F20103FF21986C03681B689847F4
:100C700042F67860C0F202000F211CF09FFD28466A
:100C8000BDE8384018F016BF10B5044642F61070A3
:100C90001521C0F202001CF091FD200400F4FE00BA
:100CA00040F4734040F002001BF0FEFE42F6046088
:100CB000C0F202000F211CF081FD4EF20020C2F2B2
:100CC0000000BDE8104018F0F5BE00BF10B50446A6
:100CD00042F628701F21C0F2020004F00F041CF03D
:100CE0006DFD44F010044FF2021040EA04401BF086
:100CF000DBFE42F60460C0F202000F211CF05EFD34
:100D00004EF20020C2F20000BDE8104018F0D2BE42
:100D100042F6487008B51621C0F202001CF04EFDE4
:100D200040F67473C2F20103F621986C0368DB6C21
:100D3000984742F67860C0F202000F211CF03EFD99
:100D40004EF20020C2F20000BDE8084018F0B2BE2A
:100D50001F2938B50C46054608D84DF67063C2F217
:100D6000000318790FF0B8FE0BF050FD42F66070EA
:100D70000D21C0F202001CF021FD2304681E03F4C3
:100D8000FE0343F44043000243F00C0300F47060A0
:100D900018431BF089FE42F60460C0F202000F21E6
:100DA0001CF00CFD4EF20020C2F20000BDE83840FD
:100DB00018F080BE70B5064642F670700C46C0F260
:100DC0000200122115461CF0F9FC6EB9681E0002E3
:100DD000240400F4706004F4FE04204340F4504006
:100DE00040F00D001BF060FE42F60460C0F202000D
:100DF0000F211CF0E3FC4EF20020C2F20000BDE81F
:100E0000704018F057BE00BF38B540F67474054600
:100E1000C2F2010442F684701F21C0F202001CF0ED
:100E2000CDFCA06C0368F1211B689847A06C036897
:100E300029461B68984742F67860C0F202000F21ED
:100E40001CF0BCFC4EF20020C2F20000BDE83840AD
:100E500018F030BE38B540F674740546C2F201048D
:100E600042F6A4701521C0F202001CF0A7FCA06C91
:100E70000368F3211B689847A06C036805F07F01A5
:100E8000DB6C984742F67860C0F202000F211CF03C
:100E900095FC4EF20020C2F20000BDE8384018F088
:100EA00009BE00BFF0B548F21C52C2F2010283B085
:100EB00040F2442311680091C2F2010300991E68B8
:100EC0001268019240F65C55C2F2010540F62852C4
:100ED000C2F20102891B42F6BC704EF20024C2F23B
:100EE0000004019F298000260C21C0F20200167028
:100EF0001F601CF063FC2B8820464EF6602191FB9E
:100F0000F3F118F079FD42F6CC700521C0F2020031
:100F10001CF054FC2988204618F06EFD42F6D4706F
:100F20000F21C0F202001CF049FC204618F0C2FD5F
:100F300003B0F0BD08B540F62851C2F201014AF6EF
:100F4000AB230A780132D2B2CAF6AA23A3FB02036A
:100F50001B0903EB4303A2EBC30313F0FF0F0A705B
:100F600001D1FFF79FFF42F6E4701021C0F20200AA
:100F70001CF024FC4FF60F001BF096FD42F60460B7
:100F8000C0F202000F211CF019FC4EF20020C2F248
:100F90000000BDE8084018F08DBD00BF08B540F660
:100FA0002851C2F201014AF6AB230A780132D2B2CB
:100FB000CAF6AA23A3FB02031B0903EB4303A2EB1C
:100FC000C30313F0FF0F0A7001D1FFF76BFF42F666
:100FD000F8701021C0F202001CF0F0FB40F67473B0
:100FE000C2F20103F821986C03681B68984742F627
:100FF0007860C0F202000F211CF0E0FB4EF20020EE
:10100000C2F20000BDE8084018F054BD38B540F603
:101010006453C2F2010301F500521B6805460C46F9
:1010200043F20C00C3F884200D21C0F2020004F347
:101030000D041CF0C3FB04F50054681E23040002D9
:1010400003F4FE0300F47060184340F4604064044D
:1010500004F0FE4440F00E0020431BF025FD42F654
:101060000460C0F202000F211CF0A8FB4EF2002029
:10107000C2F20000BDE8384018F01CBD1F2938B589
:101080000D46044608D84DF67063C2F20003187985
:101090000FF022FD0BF0BAFB43F21C000D21C0F251
:1010A00002001CF08BFB611EC9B20F290FD840F65D
:1010B0007474C2F2010441F0C001A06C03681B68A3
:1010C0009847A06C036805F07F011B68984742F6BB
:1010D0007860C0F202000F211CF070FB4EF200207D
:1010E000C2F20000BDE8384018F0E4BC48F290338A
:1010F000C2F2010310B49A6B13685068197804782F
:10110000507A137A044201EA03011AD0937A03F069
:10111000030309B143F0040343F008039910082BBB
:1011200091722AD8072B22D2032B2ED011D9042B4F
:1011300013D0062B14D1D3685DF8044B023BD36067
:101140007047937A03F003030029E7D043F00403C8
:10115000E4E7012B0BD0022B02D1D368013BD36013
:101160005DF8044B70470D2BF7D00E2BF8D1D368E8
:101170005DF8044B0133D36070470C2B05D0F2D8D7
:10118000092BD8D00B2BE8D0EAE7D3685DF8044BE5
:101190000233D360704700BF48F29033C2F20103BC
:1011A00010B4DA6B1368506819780478507A137A9F
:1011B000044201EA03011AD0937A03F0030309B150
:1011C00043F0040343F008039910082B91722AD8C6
:1011D000072B22D2032B2ED011D9042B13D0062B90
:1011E00014D1D3685DF8044B023BD3607047937A07
:1011F00003F003030029E7D043F00403E4E7012BE5
:101200000BD0022B02D1D368013BD3605DF8044BB5
:1012100070470D2BF7D00E2BF8D1D3685DF8044B37
:101220000133D36070470C2B05D0F2D8092BD8D0EE
:101230000B2BE8D0EAE7D3685DF8044B0233D360A8
:10124000704700BF48F29033C2F2010310B41A6C29
:101250001368506819780478507A137A044201EAC6
:1012600003011AD0937A03F0030309B143F0040396
:1012700043F008039910082B91722AD8072B22D229
:10128000032B2ED011D9042B13D0062B14D1D368E5
:101290005DF8044B023BD3607047937A03F003037D
:1012A0000029E7D043F00403E4E7012B0BD0022B25
:1012B00002D1D368013BD3605DF8044B70470D2B1E
:1012C000F7D00E2BF8D1D3685DF8044B0133D3600F
:1012D00070470C2B05D0F2D8092BD8D00B2BE8D0B7
:1012E000EAE7D3685DF8044B0233D360704700BF70
:1012F00048F29033C2F2010310B45A6C136850687C
:1013000019780478507A137A044201EA03011AD05A
:10131000937A03F0030309B143F0040343F0080395
:101320009910082B91722AD8072B22D2032B2ED08A
:1013300011D9042B13D0062B14D1D3685DF8044BBC
:10134000023BD3607047937A03F003030029E7D090
:1013500043F00403E4E7012B0BD0022B02D1D36846
:10136000013BD3605DF8044B70470D2BF7D00E2B7B
:10137000F8D1D3685DF8044B0133D36070470C2B70
:1013800005D0F2D8092BD8D00B2BE8D0EAE7D368E8
:101390005DF8044B0233D360704700BF48F29033CE
:1013A000C2F2010310B49A6C13685068197804787B
:1013B000507A137A044201EA03011AD0937A03F0B7
:1013C000030309B143F0040343F008039910082B09
:1013D00091722AD8072B22D2032B2ED011D9042B9D
:1013E00013D0062B14D1D3685DF8044B023BD360B5
:1013F0007047937A03F003030029E7D043F0040316
:10140000E4E7012B0BD0022B02D1D368013BD36060
:101410005DF8044B70470D2BF7D00E2BF8D1D36835
:101420005DF8044B0133D36070470C2B05D0F2D824
:10143000092BD8D00B2BE8D0EAE7D3685DF8044B32
:101440000233D360704700BF48F29033C2F2010309
:1014500010B4DA6C1368506819780478507A137AEB
:10146000044201EA03011AD0937A03F0030309B19D
:1014700043F0040343F008039910082B91722AD813
:10148000072B22D2032B2ED011D9042B13D0062BDD
:1014900014D1D3685DF8044B023BD3607047937A54
:1014A00003F003030029E7D043F00403E4E7012B32
:1014B0000BD0022B02D1D368013BD3605DF8044B03
:1014C00070470D2BF7D00E2BF8D1D3685DF8044B85
:1014D0000133D36070470C2B05D0F2D8092BD8D03C
:1014E0000B2BE8D0EAE7D3685DF8044B0233D360F6
:1014F000704700BF48F29033C2F2010310B41A6D76
:101500001368506819780478507A137A044201EA13
:1015100003011AD0937A03F0030309B143F00403E3
:1015200043F008039910082B91722AD8072B22D276
:10153000032B2ED011D9042B13D0062B14D1D36832
:101540005DF8044B023BD3607047937A03F00303CA
:101550000029E7D043F00403E4E7012B0BD0022B72
:1015600002D1D368013BD3605DF8044B70470D2B6B
:10157000F7D00E2BF8D1D3685DF8044B0133D3605C
:1015800070470C2B05D0F2D8092BD8D00B2BE8D004
:10159000EAE7D3685DF8044B0233D360704700BFBD
:1015A00048F29033C2F2010310B45A6D13685068C8
:1015B00019780478507A137A044201EA03011AD0A8
:1015C000937A03F0030309B143F0040343F00803E3
:1015D0009910082B91722AD8072B22D2032B2ED0D8
:1015E00011D9042B13D0062B14D1D3685DF8044B0A
:1015F000023BD3607047937A03F003030029E7D0DE
:1016000043F00403E4E7012B0BD0022B02D1D36893
:10161000013BD3605DF8044B70470D2BF7D00E2BC8
:10162000F8D1D3685DF8044B0133D36070470C2BBD
:1016300005D0F2D8092BD8D00B2BE8D0EAE7D36835
:101640005DF8044B0233D360704700BF48F290331B
:10165000C2F2010310B49A6D1368506819780478C7
:10166000507A137A044201EA03011AD0937A03F004
:10167000030309B143F0040343F008039910082B56
:1016800091722AD8072B22D2032B2ED011D9042BEA
:1016900013D0062B14D1D3685DF8044B023BD36002
:1016A0007047937A03F003030029E7D043F0040363
:1016B000E4E7012B0BD0022B02D1D368013BD360AE
:1016C0005DF8044B70470D2BF7D00E2BF8D1D36883
:1016D0005DF8044B0133D36070470C2B05D0F2D872
:1016E000092BD8D00B2BE8D0EAE7D3685DF8044B80
:1016F0000233D360704700BF48F29033C2F2010357
:1017000010B4DA6D1368506819780478507A137A37
:10171000044201EA03011AD0937A03F0030309B1EA
:1017200043F0040343F008039910082B91722AD860
:10173000072B22D2032B2ED011D9042B13D0062B2A
:1017400014D1D3685DF8044B023BD3607047937AA1
:1017500003F003030029E7D043F00403E4E7012B7F
:101760000BD0022B02D1D368013BD3605DF8044B50
:1017700070470D2BF7D00E2BF8D1D3685DF8044BD2
:101780000133D36070470C2B05D0F2D8092BD8D089
:101790000B2BE8D0EAE7D3685DF8044B0233D36043
:1017A000704700BF48F29033C2F2010310B41A6EC2
:1017B0001368506819780478507A137A044201EA61
:1017C00003011AD0937A03F0030309B143F0040331
:1017D00043F008039910082B91722AD8072B22D2C4
:1017E000032B2ED011D9042B13D0062B14D1D36880
:1017F0005DF8044B023BD3607047937A03F0030318
:101800000029E7D043F00403E4E7012B0BD0022BBF
:1018100002D1D368013BD3605DF8044B70470D2BB8
:10182000F7D00E2BF8D1D3685DF8044B0133D360A9
:1018300070470C2B05D0F2D8092BD8D00B2BE8D051
:10184000EAE7D3685DF8044B0233D360704700BF0A
:1018500048F29033C2F2010310B45A6E1368506814
:1018600019780478507A137A044201EA03011AD0F5
:10187000937A03F0030309B143F0040343F0080330
:101880009910082B91722AD8072B22D2032B2ED025
:1018900011D9042B13D0062B14D1D3685DF8044B57
:1018A000023BD3607047937A03F003030029E7D02B
:1018B00043F00403E4E7012B0BD0022B02D1D368E1
:1018C000013BD3605DF8044B70470D2BF7D00E2B16
:1018D000F8D1D3685DF8044B0133D36070470C2B0B
:1018E00005D0F2D8092BD8D00B2BE8D0EAE7D36883
:1018F0005DF8044B0233D360704700BF48F2903369
:10190000C2F2010310B49A6E136850681978047813
:10191000507A137A044201EA03011AD0937A03F051
:10192000030309B143F0040343F008039910082BA3
:1019300091722AD8072B22D2032B2ED011D9042B37
:1019400013D0062B14D1D3685DF8044B023BD3604F
:101950007047937A03F003030029E7D043F00403B0
:10196000E4E7012B0BD0022B02D1D368013BD360FB
:101970005DF8044B70470D2BF7D00E2BF8D1D368D0
:101980005DF8044B0133D36070470C2B05D0F2D8BF
:10199000092BD8D00B2BE8D0EAE7D3685DF8044BCD
:1019A0000233D360704700BF48F29033C2F20103A4
:1019B00010B4DA6E1368506819780478507A137A84
:1019C000044201EA03011AD0937A03F0030309B138
:1019D00043F0040343F008039910082B91722AD8AE
:1019E000072B22D2032B2ED011D9042B13D0062B78
:1019F00014D1D3685DF8044B023BD3607047937AEF
:101A000003F003030029E7D043F00403E4E7012BCC
:101A10000BD0022B02D1D368013BD3605DF8044B9D
:101A200070470D2BF7D00E2BF8D1D3685DF8044B1F
:101A30000133D36070470C2B05D0F2D8092BD8D0D6
:101A40000B2BE8D0EAE7D3685DF8044B0233D36090
:101A5000704700BF48F29033C2F2010310B41A6F0E
:101A60001368506819780478507A137A044201EAAE
:101A700003011AD0937A03F0030309B143F004037E
:101A800043F008039910082B91722AD8072B22D211
:101A9000032B2ED011D9042B13D0062B14D1D368CD
:101AA0005DF8044B023BD3607047937A03F0030365
:101AB0000029E7D043F00403E4E7012B0BD0022B0D
:101AC00002D1D368013BD3605DF8044B70470D2B06
:101AD000F7D00E2BF8D1D3685DF8044B0133D360F7
:101AE00070470C2B05D0F2D8092BD8D00B2BE8D09F
:101AF000EAE7D3685DF8044B0233D360704700BF58
:101B000048F29033C2F2010310B45A6F1368506860
:101B100019780478507A137A044201EA03011AD042
:101B2000937A03F0030309B143F0040343F008037D
:101B30009910082B91722AD8072B22D2032B2ED072
:101B400011D9042B13D0062B14D1D3685DF8044BA4
:101B5000023BD3607047937A03F003030029E7D078
:101B600043F00403E4E7012B0BD0022B02D1D3682E
:101B7000013BD3605DF8044B70470D2BF7D00E2B63
:101B8000F8D1D3685DF8044B0133D36070470C2B58
:101B900005D0F2D8092BD8D00B2BE8D0EAE7D368D0
:101BA0005DF8044B0233D360704700BF48F29033B6
:101BB000C2F2010310B49A6F136850681978047860
:101BC000507A137A044201EA03011AD0937A03F09F
:101BD000030309B143F0040343F008039910082BF1
:101BE00091722AD8072B22D2032B2ED011D9042B85
:101BF00013D0062B14D1D3685DF8044B023BD3609D
:101C00007047937A03F003030029E7D043F00403FD
:101C1000E4E7012B0BD0022B02D1D368013BD36048
:101C20005DF8044B70470D2BF7D00E2BF8D1D3681D
:101C30005DF8044B0133D36070470C2B05D0F2D80C
:101C4000092BD8D00B2BE8D0EAE7D3685DF8044B1A
:101C50000233D360704700BF48F29033C2F20103F1
:101C600010B4DA6F1368506819780478507A137AD0
:101C7000044201EA03011AD0937A03F0030309B185
:101C800043F0040343F008039910082B91722AD8FB
:101C9000072B22D2032B2ED011D9042B13D0062BC5
:101CA00014D1D3685DF8044B023BD3607047937A3C
:101CB00003F003030029E7D043F00403E4E7012B1A
:101CC0000BD0022B02D1D368013BD3605DF8044BEB
:101CD00070470D2BF7D00E2BF8D1D3685DF8044B6D
:101CE0000133D36070470C2B05D0F2D8092BD8D024
:101CF0000B2BE8D0EAE7D3685DF8044B0233D360DE
:101D0000704700BF48F29033C2F2010310B4D3F819
:101D100080201368506819780478507A137A044246
:101D200001EA03011AD0937A03F0030309B143F0E7
:101D3000040343F008039910082B91722AD8072B4B
:101D400022D2032B2ED011D9042B13D0062B14D161
:101D5000D3685DF8044B023BD3607047937A03F07D
:101D600003030029E7D043F00403E4E7012B0BD081
:101D7000022B02D1D368013BD3605DF8044B70475E
:101D80000D2BF7D00E2BF8D1D3685DF8044B01333F
:101D9000D36070470C2B05D0F2D8092BD8D00B2B71
:101DA000E8D0EAE7D3685DF8044B0233D3607047AC
:101DB00048F29033C2F2010310B4D3F884201368C0
:101DC000506819780478507A137A044201EA0301C2
:101DD0001AD0937A03F0030309B143F0040343F0EC
:101DE00008039910082B91722AD8072B22D2032BB3
:101DF0002ED011D9042B13D0062B14D1D3685DF843
:101E0000044B023BD3607047937A03F0030300292D
:101E1000E7D043F00403E4E7012B0BD0022B02D1FF
:101E2000D368013BD3605DF8044B70470D2BF7D0AE
:101E30000E2BF8D1D3685DF8044B0133D3607047A3
:101E40000C2B05D0F2D8092BD8D00B2BE8D0EAE721
:101E5000D3685DF8044B0233D360704748F2903387
:101E6000C2F2010310B4D3F88820136850681978BF
:101E70000478507A137A044201EA03011AD0937A63
:101E800003F0030309B143F0040343F0080399107E
:101E9000082B91722AD8072B22D2032B2ED011D9CE
:101EA000042B13D0062B14D1D3685DF8044B023BEE
:101EB000D3607047937A03F003030029E7D043F01F
:101EC0000403E4E7012B0BD0022B02D1D368013BC2
:101ED000D3605DF8044B70470D2BF7D00E2BF8D173
:101EE000D3685DF8044B0133D36070470C2B05D0E9
:101EF000F2D8092BD8D00B2BE8D0EAE7D3685DF8ED
:101F0000044B0233D360704748F29033C2F20103AE
:101F100010B4D3F88C201368506819780478507A7C
:101F2000137A044201EA03011AD0937A03F00303FF
:101F300009B143F0040343F008039910082B917290
:101F40002AD8072B22D2032B2ED011D9042B13D041
:101F5000062B14D1D3685DF8044B023BD360704765
:101F6000937A03F003030029E7D043F00403E4E786
:101F7000012B0BD0022B02D1D368013BD3605DF85B
:101F8000044B70470D2BF7D00E2BF8D1D3685DF8BA
:101F9000044B0133D36070470C2B05D0F2D8092BCA
:101FA000D8D00B2BE8D0EAE7D3685DF8044B0233B6
:101FB000D360704748F29033C2F2010310B4D3F8F3
:101FC00090201368506819780478507A137A044284
:101FD00001EA03011AD0937A03F0030309B143F035
:101FE000040343F008039910082B91722AD8072B99
:101FF00022D2032B2ED011D9042B13D0062B14D1AF
:10200000D3685DF8044B023BD3607047937A03F0CA
:1020100003030029E7D043F00403E4E7012B0BD0CE
:10202000022B02D1D368013BD3605DF8044B7047AB
:102030000D2BF7D00E2BF8D1D3685DF8044B01338C
:10204000D36070470C2B05D0F2D8092BD8D00B2BBE
:10205000E8D0EAE7D3685DF8044B0233D3607047F9
:1020600048F29033C2F2010310B4D3F894201368FD
:10207000506819780478507A137A044201EA03010F
:102080001AD0937A03F0030309B143F0040343F039
:1020900008039910082B91722AD8072B22D2032B00
:1020A0002ED011D9042B13D0062B14D1D3685DF890
:1020B000044B023BD3607047937A03F0030300297B
:1020C000E7D043F00403E4E7012B0BD0022B02D14D
:1020D000D368013BD3605DF8044B70470D2BF7D0FC
:1020E0000E2BF8D1D3685DF8044B0133D3607047F1
:1020F0000C2B05D0F2D8092BD8D00B2BE8D0EAE76F
:10210000D3685DF8044B0233D360704748F29033D4
:10211000C2F2010310B4D3F89820136850681978FC
:102120000478507A137A044201EA03011AD0937AB0
:1021300003F0030309B143F0040343F008039910CB
:10214000082B91722AD8072B22D2032B2ED011D91B
:10215000042B13D0062B14D1D3685DF8044B023B3B
:10216000D3607047937A03F003030029E7D043F06C
:102170000403E4E7012B0BD0022B02D1D368013B0F
:10218000D3605DF8044B70470D2BF7D00E2BF8D1C0
:10219000D3685DF8044B0133D36070470C2B05D036
:1021A000F2D8092BD8D00B2BE8D0EAE7D3685DF83A
:1021B000044B0233D360704748F29033C2F20103FC
:1021C00010B4D3F89C201368506819780478507ABA
:1021D000137A044201EA03011AD0937A03F003034D
:1021E00009B143F0040343F008039910082B9172DE
:1021F0002AD8072B22D2032B2ED011D9042B13D08F
:10220000062B14D1D3685DF8044B023BD3607047B2
:10221000937A03F003030029E7D043F00403E4E7D3
:10222000012B0BD0022B02D1D368013BD3605DF8A8
:10223000044B70470D2BF7D00E2BF8D1D3685DF807
:10224000044B0133D36070470C2B05D0F2D8092B17
:10225000D8D00B2BE8D0EAE7D3685DF8044B023303
:10226000D360704748F29033C2F2010310B4D3F840
:10227000A0201368506819780478507A137A0442C1
:1022800001EA03011AD0937A03F0030309B143F082
:10229000040343F008039910082B91722AD8072BE6
:1022A00022D2032B2ED011D9042B13D0062B14D1FC
:1022B000D3685DF8044B023BD3607047937A03F018
:1022C00003030029E7D043F00403E4E7012B0BD01C
:1022D000022B02D1D368013BD3605DF8044B7047F9
:1022E0000D2BF7D00E2BF8D1D3685DF8044B0133DA
:1022F000D36070470C2B05D0F2D8092BD8D00B2B0C
:10230000E8D0EAE7D3685DF8044B0233D360704746
:1023100048F29033C2F2010310B4D3F8A42013683A
:10232000506819780478507A137A044201EA03015C
:102330001AD0937A03F0030309B143F0040343F086
:1023400008039910082B91722AD8072B22D2032B4D
:102350002ED011D9042B13D0062B14D1D3685DF8DD
:10236000044B023BD3607047937A03F003030029C8
:10237000E7D043F00403E4E7012B0BD0022B02D19A
:10238000D368013BD3605DF8044B70470D2BF7D049
:102390000E2BF8D1D3685DF8044B0133D36070473E
:1023A0000C2B05D0F2D8092BD8D00B2BE8D0EAE7BC
:1023B000D3685DF8044B0233D360704748F2903322
:1023C000C2F2010310B4D3F8A8201368506819783A
:1023D0000478507A137A044201EA03011AD0937AFE
:1023E00003F0030309B143F0040343F00803991019
:1023F000082B91722AD8072B22D2032B2ED011D969
:10240000042B13D0062B14D1D3685DF8044B023B88
:10241000D3607047937A03F003030029E7D043F0B9
:102420000403E4E7012B0BD0022B02D1D368013B5C
:10243000D3605DF8044B70470D2BF7D00E2BF8D10D
:10244000D3685DF8044B0133D36070470C2B05D083
:10245000F2D8092BD8D00B2BE8D0EAE7D3685DF887
:10246000044B0233D360704748F29033C2F2010349
:1024700010B4D3F8AC201368506819780478507AF7
:10248000137A044201EA03011AD0937A03F003039A
:1024900009B143F0040343F008039910082B91722B
:1024A0002AD8072B22D2032B2ED011D9042B13D0DC
:1024B000062B14D1D3685DF8044B023BD360704700
:1024C000937A03F003030029E7D043F00403E4E721
:1024D000012B0BD0022B02D1D368013BD3605DF8F6
:1024E000044B70470D2BF7D00E2BF8D1D3685DF855
:1024F000044B0133D36070470C2B05D0F2D8092B65
:10250000D8D00B2BE8D0EAE7D3685DF8044B023350
:10251000D360704748F29033C2F2010310B4D3F88D
:10252000B0201368506819780478507A137A0442FE
:1025300001EA03011AD0937A03F0030309B143F0CF
:10254000040343F008039910082B91722AD8072B33
:1025500022D2032B2ED011D9042B13D0062B14D149
:10256000D3685DF8044B023BD3607047937A03F065
:1025700003030029E7D043F00403E4E7012B0BD069
:10258000022B02D1D368013BD3605DF8044B704746
:102590000D2BF7D00E2BF8D1D3685DF8044B013327
:1025A000D36070470C2B05D0F2D8092BD8D00B2B59
:1025B000E8D0EAE7D3685DF8044B0233D360704794
:1025C00048F29033C2F2010310B4D3F8B420136878
:1025D000506819780478507A137A044201EA0301AA
:1025E0001AD0937A03F0030309B143F0040343F0D4
:1025F00008039910082B91722AD8072B22D2032B9B
:102600002ED011D9042B13D0062B14D1D3685DF82A
:10261000044B023BD3607047937A03F00303002915
:10262000E7D043F00403E4E7012B0BD0022B02D1E7
:10263000D368013BD3605DF8044B70470D2BF7D096
:102640000E2BF8D1D3685DF8044B0133D36070478B
:102650000C2B05D0F2D8092BD8D00B2BE8D0EAE709
:10266000D3685DF8044B0233D360704748F290336F
:10267000C2F2010310B41A6813685068197804781C
:10268000507A137A044201EA03011AD0937A03F0D4
:10269000030309B143F0040343F008039910082B26
:1026A00091722AD8072B22D2032B2ED011D9042BBA
:1026B00013D0062B14D1D3685DF8044B023BD360D2
:1026C0007047937A03F003030029E7D043F0040333
:1026D000E4E7012B0BD0022B02D1D368013BD3607E
:1026E0005DF8044B70470D2BF7D00E2BF8D1D36853
:1026F0005DF8044B0133D36070470C2B05D0F2D842
:10270000092BD8D00B2BE8D0EAE7D3685DF8044B4F
:102710000233D360704700BF48F29033C2F2010326
:1027200010B45A681368506819780478507A137A8C
:10273000044201EA03011AD0937A03F0030309B1BA
:1027400043F0040343F008039910082B91722AD830
:10275000072B22D2032B2ED011D9042B13D0062BFA
:1027600014D1D3685DF8044B023BD3607047937A71
:1027700003F003030029E7D043F00403E4E7012B4F
:102780000BD0022B02D1D368013BD3605DF8044B20
:1027900070470D2BF7D00E2BF8D1D3685DF8044BA2
:1027A0000133D36070470C2B05D0F2D8092BD8D059
:1027B0000B2BE8D0EAE7D3685DF8044B0233D36013
:1027C000704700BF48F29033C2F2010310B49A6818
:1027D0001368506819780478507A137A044201EA31
:1027E00003011AD0937A03F0030309B143F0040301
:1027F00043F008039910082B91722AD8072B22D294
:10280000032B2ED011D9042B13D0062B14D1D3684F
:102810005DF8044B023BD3607047937A03F00303E7
:102820000029E7D043F00403E4E7012B0BD0022B8F
:1028300002D1D368013BD3605DF8044B70470D2B88
:10284000F7D00E2BF8D1D3685DF8044B0133D36079
:1028500070470C2B05D0F2D8092BD8D00B2BE8D021
:10286000EAE7D3685DF8044B0233D360704700BFDA
:1028700048F29033C2F2010310B4DA68136850686A
:1028800019780478507A137A044201EA03011AD0C5
:10289000937A03F0030309B143F0040343F0080300
:1028A0009910082B91722AD8072B22D2032B2ED0F5
:1028B00011D9042B13D0062B14D1D3685DF8044B27
:1028C000023BD3607047937A03F003030029E7D0FB
:1028D00043F00403E4E7012B0BD0022B02D1D368B1
:1028E000013BD3605DF8044B70470D2BF7D00E2BE6
:1028F000F8D1D3685DF8044B0133D36070470C2BDB
:1029000005D0F2D8092BD8D00B2BE8D0EAE7D36852
:102910005DF8044B0233D360704700BF48F2903338
:10292000C2F2010310B41A69136850681978047868
:10293000507A137A044201EA03011AD0937A03F021
:10294000030309B143F0040343F008039910082B73
:1029500091722AD8072B22D2032B2ED011D9042B07
:1029600013D0062B14D1D3685DF8044B023BD3601F
:102970007047937A03F003030029E7D043F0040380
:10298000E4E7012B0BD0022B02D1D368013BD360CB
:102990005DF8044B70470D2BF7D00E2BF8D1D368A0
:1029A0005DF8044B0133D36070470C2B05D0F2D88F
:1029B000092BD8D00B2BE8D0EAE7D3685DF8044B9D
:1029C0000233D360704700BF48F29033C2F2010374
:1029D00010B45A691368506819780478507A137AD9
:1029E000044201EA03011AD0937A03F0030309B108
:1029F00043F0040343F008039910082B91722AD87E
:102A0000072B22D2032B2ED011D9042B13D0062B47
:102A100014D1D3685DF8044B023BD3607047937ABE
:102A200003F003030029E7D043F00403E4E7012B9C
:102A30000BD0022B02D1D368013BD3605DF8044B6D
:102A400070470D2BF7D00E2BF8D1D3685DF8044BEF
:102A50000133D36070470C2B05D0F2D8092BD8D0A6
:102A60000B2BE8D0EAE7D3685DF8044B0233D36060
:102A7000704700BF48F29033C2F2010310B49A6964
:102A80001368506819780478507A137A044201EA7E
:102A900003011AD0937A03F0030309B143F004034E
:102AA00043F008039910082B91722AD8072B22D2E1
:102AB000032B2ED011D9042B13D0062B14D1D3689D
:102AC0005DF8044B023BD3607047937A03F0030335
:102AD0000029E7D043F00403E4E7012B0BD0022BDD
:102AE00002D1D368013BD3605DF8044B70470D2BD6
:102AF000F7D00E2BF8D1D3685DF8044B0133D360C7
:102B000070470C2B05D0F2D8092BD8D00B2BE8D06E
:102B1000EAE7D3685DF8044B0233D360704700BF27
:102B200048F29033C2F2010310B4DA6913685068B6
:102B300019780478507A137A044201EA03011AD012
:102B4000937A03F0030309B143F0040343F008034D
:102B50009910082B91722AD8072B22D2032B2ED042
:102B600011D9042B13D0062B14D1D3685DF8044B74
:102B7000023BD3607047937A03F003030029E7D048
:102B800043F00403E4E7012B0BD0022B02D1D368FE
:102B9000013BD3605DF8044B70470D2BF7D00E2B33
:102BA000F8D1D3685DF8044B0133D36070470C2B28
:102BB00005D0F2D8092BD8D00B2BE8D0EAE7D368A0
:102BC0005DF8044B0233D360704700BF48F2903386
:102BD000C2F2010310B41A6A1368506819780478B5
:102BE000507A137A044201EA03011AD0937A03F06F
:102BF000030309B143F0040343F008039910082BC1
:102C000091722AD8072B22D2032B2ED011D9042B54
:102C100013D0062B14D1D3685DF8044B023BD3606C
:102C20007047937A03F003030029E7D043F00403CD
:102C3000E4E7012B0BD0022B02D1D368013BD36018
:102C40005DF8044B70470D2BF7D00E2BF8D1D368ED
:102C50005DF8044B0133D36070470C2B05D0F2D8DC
:102C6000092BD8D00B2BE8D0EAE7D3685DF8044BEA
:102C70000233D360704700BF48F29033C2F20103C1
:102C800010B45A6A1368506819780478507A137A25
:102C9000044201EA03011AD0937A03F0030309B155
:102CA00043F0040343F008039910082B91722AD8CB
:102CB000072B22D2032B2ED011D9042B13D0062B95
:102CC00014D1D3685DF8044B023BD3607047937A0C
:102CD00003F003030029E7D043F00403E4E7012BEA
:102CE0000BD0022B02D1D368013BD3605DF8044BBB
:102CF00070470D2BF7D00E2BF8D1D3685DF8044B3D
:102D00000133D36070470C2B05D0F2D8092BD8D0F3
:102D10000B2BE8D0EAE7D3685DF8044B0233D360AD
:102D2000704700BF48F29033C2F2010310B49A6AB0
:102D30001368506819780478507A137A044201EACB
:102D400003011AD0937A03F0030309B143F004039B
:102D500043F008039910082B91722AD8072B22D22E
:102D6000032B2ED011D9042B13D0062B14D1D368EA
:102D70005DF8044B023BD3607047937A03F0030382
:102D80000029E7D043F00403E4E7012B0BD0022B2A
:102D900002D1D368013BD3605DF8044B70470D2B23
:102DA000F7D00E2BF8D1D3685DF8044B0133D36014
:102DB00070470C2B05D0F2D8092BD8D00B2BE8D0BC
:102DC000EAE7D3685DF8044B0233D360704700BF75
:102DD00048F29033C2F2010310B4DA6A1368506803
:102DE00019780478507A137A044201EA03011AD060
:102DF000937A03F0030309B143F0040343F008039B
:102E00009910082B91722AD8072B22D2032B2ED08F
:102E100011D9042B13D0062B14D1D3685DF8044BC1
:102E2000023BD3607047937A03F003030029E7D095
:102E300043F00403E4E7012B0BD0022B02D1D3684B
:102E4000013BD3605DF8044B70470D2BF7D00E2B80
:102E5000F8D1D3685DF8044B0133D36070470C2B75
:102E600005D0F2D8092BD8D00B2BE8D0EAE7D368ED
:102E70005DF8044B0233D360704700BF48F29033D3
:102E8000C2F2010310B41A6B136850681978047801
:102E9000507A137A044201EA03011AD0937A03F0BC
:102EA000030309B143F0040343F008039910082B0E
:102EB00091722AD8072B22D2032B2ED011D9042BA2
:102EC00013D0062B14D1D3685DF8044B023BD360BA
:102ED0007047937A03F003030029E7D043F004031B
:102EE000E4E7012B0BD0022B02D1D368013BD36066
:102EF0005DF8044B70470D2BF7D00E2BF8D1D3683B
:102F00005DF8044B0133D36070470C2B05D0F2D829
:102F1000092BD8D00B2BE8D0EAE7D3685DF8044B37
:102F20000233D360704700BF48F29033C2F201030E
:102F300010B45A6B1368506819780478507A137A71
:102F4000044201EA03011AD0937A03F0030309B1A2
:102F500043F0040343F008039910082B91722AD818
:102F6000072B22D2032B2ED011D9042B13D0062BE2
:102F700014D1D3685DF8044B023BD3607047937A59
:102F800003F003030029E7D043F00403E4E7012B37
:102F90000BD0022B02D1D368013BD3605DF8044B08
:102FA00070470D2BF7D00E2BF8D1D3685DF8044B8A
:102FB0000133D36070470C2B05D0F2D8092BD8D041
:102FC0000B2BE8D0EAE7D3685DF8044B0233D360FB
:102FD000704700BF48F29033C2F2010310B4D3F837
:102FE000E8201368506819780478507A137A0442FC
:102FF00001EA03011AD0937A03F0030309B143F005
:10300000040343F008039910082B91722AD8072B68
:1030100022D2032B2ED011D9042B13D0062B14D17E
:10302000D3685DF8044B023BD3607047937A03F09A
:1030300003030029E7D043F00403E4E7012B0BD09E
:10304000022B02D1D368013BD3605DF8044B70477B
:103050000D2BF7D00E2BF8D1D3685DF8044B01335C
:10306000D36070470C2B05D0F2D8092BD8D00B2B8E
:10307000E8D0EAE7D3685DF8044B0233D3607047C9
:1030800048F29033C2F2010310B4D3F8EC20136875
:10309000506819780478507A137A044201EA0301DF
:1030A0001AD0937A03F0030309B143F0040343F009
:1030B00008039910082B91722AD8072B22D2032BD0
:1030C0002ED011D9042B13D0062B14D1D3685DF860
:1030D000044B023BD3607047937A03F0030300294B
:1030E000E7D043F00403E4E7012B0BD0022B02D11D
:1030F000D368013BD3605DF8044B70470D2BF7D0CC
:103100000E2BF8D1D3685DF8044B0133D3607047C0
:103110000C2B05D0F2D8092BD8D00B2BE8D0EAE73E
:10312000D3685DF8044B0233D360704748F29033A4
:10313000C2F2010310B4D3F8D8201368506819788C
:103140000478507A137A044201EA03011AD0937A80
:1031500003F0030309B143F0040343F0080399109B
:10316000082B91722AD8072B22D2032B2ED011D9EB
:10317000042B13D0062B14D1D3685DF8044B023B0B
:10318000D3607047937A03F003030029E7D043F03C
:103190000403E4E7012B0BD0022B02D1D368013BDF
:1031A000D3605DF8044B70470D2BF7D00E2BF8D190
:1031B000D3685DF8044B0133D36070470C2B05D006
:1031C000F2D8092BD8D00B2BE8D0EAE7D3685DF80A
:1031D000044B0233D360704748F29033C2F20103CC
:1031E00010B4D3F8DC201368506819780478507A4A
:1031F000137A044201EA03011AD0937A03F003031D
:1032000009B143F0040343F008039910082B9172AD
:103210002AD8072B22D2032B2ED011D9042B13D05E
:10322000062B14D1D3685DF8044B023BD360704782
:10323000937A03F003030029E7D043F00403E4E7A3
:10324000012B0BD0022B02D1D368013BD3605DF878
:10325000044B70470D2BF7D00E2BF8D1D3685DF8D7
:10326000044B0133D36070470C2B05D0F2D8092BE7
:10327000D8D00B2BE8D0EAE7D3685DF8044B0233D3
:10328000D360704748F29033C2F2010310B4D3F810
:10329000E0201368506819780478507A137A044251
:1032A00001EA03011AD0937A03F0030309B143F052
:1032B000040343F008039910082B91722AD8072BB6
:1032C00022D2032B2ED011D9042B13D0062B14D1CC
:1032D000D3685DF8044B023BD3607047937A03F0E8
:1032E00003030029E7D043F00403E4E7012B0BD0EC
:1032F000022B02D1D368013BD3605DF8044B7047C9
:103300000D2BF7D00E2BF8D1D3685DF8044B0133A9
:10331000D36070470C2B05D0F2D8092BD8D00B2BDB
:10332000E8D0EAE7D3685DF8044B0233D360704716
:1033300048F29033C2F2010310B4D3F8E4201368CA
:10334000506819780478507A137A044201EA03012C
:103350001AD0937A03F0030309B143F0040343F056
:1033600008039910082B91722AD8072B22D2032B1D
:103370002ED011D9042B13D0062B14D1D3685DF8AD
:10338000044B023BD3607047937A03F00303002998
:10339000E7D043F00403E4E7012B0BD0022B02D16A
:1033A000D368013BD3605DF8044B70470D2BF7D019
:1033B0000E2BF8D1D3685DF8044B0133D36070470E
:1033C0000C2B05D0F2D8092BD8D00B2BE8D0EAE78C
:1033D000D3685DF8044B0233D360704748F29033F2
:1033E000C2F2010310B4D3F8B820136850681978FA
:1033F0000478507A137A044201EA03011AD0937ACE
:1034000003F0030309B143F0040343F008039910E8
:10341000082B91722AD8072B22D2032B2ED011D938
:10342000042B13D0062B14D1D3685DF8044B023B58
:10343000D3607047937A03F003030029E7D043F089
:103440000403E4E7012B0BD0022B02D1D368013B2C
:10345000D3605DF8044B70470D2BF7D00E2BF8D1DD
:10346000D3685DF8044B0133D36070470C2B05D053
:10347000F2D8092BD8D00B2BE8D0EAE7D3685DF857
:10348000044B0233D360704748F29033C2F2010319
:1034900010B4D3F8BC201368506819780478507AB7
:1034A000137A044201EA03011AD0937A03F003036A
:1034B00009B143F0040343F008039910082B9172FB
:1034C0002AD8072B22D2032B2ED011D9042B13D0AC
:1034D000062B14D1D3685DF8044B023BD3607047D0
:1034E000937A03F003030029E7D043F00403E4E7F1
:1034F000012B0BD0022B02D1D368013BD3605DF8C6
:10350000044B70470D2BF7D00E2BF8D1D3685DF824
:10351000044B0133D36070470C2B05D0F2D8092B34
:10352000D8D00B2BE8D0EAE7D3685DF8044B023320
:10353000D360704748F29033C2F2010310B4D3F85D
:10354000C0201368506819780478507A137A0442BE
:1035500001EA03011AD0937A03F0030309B143F09F
:10356000040343F008039910082B91722AD8072B03
:1035700022D2032B2ED011D9042B13D0062B14D119
:10358000D3685DF8044B023BD3607047937A03F035
:1035900003030029E7D043F00403E4E7012B0BD039
:1035A000022B02D1D368013BD3605DF8044B704716
:1035B0000D2BF7D00E2BF8D1D3685DF8044B0133F7
:1035C000D36070470C2B05D0F2D8092BD8D00B2B29
:1035D000E8D0EAE7D3685DF8044B0233D360704764
:1035E00048F29033C2F2010310B4D3F8C420136838
:1035F000506819780478507A137A044201EA03017A
:103600001AD0937A03F0030309B143F0040343F0A3
:1036100008039910082B91722AD8072B22D2032B6A
:103620002ED011D9042B13D0062B14D1D3685DF8FA
:10363000044B023BD3607047937A03F003030029E5
:10364000E7D043F00403E4E7012B0BD0022B02D1B7
:10365000D368013BD3605DF8044B70470D2BF7D066
:103660000E2BF8D1D3685DF8044B0133D36070475B
:103670000C2B05D0F2D8092BD8D00B2BE8D0EAE7D9
:10368000D3685DF8044B0233D360704748F290333F
:10369000C2F2010310B4D3F8C82013685068197837
:1036A0000478507A137A044201EA03011AD0937A1B
:1036B00003F0030309B143F0040343F00803991036
:1036C000082B91722AD8072B22D2032B2ED011D986
:1036D000042B13D0062B14D1D3685DF8044B023BA6
:1036E000D3607047937A03F003030029E7D043F0D7
:1036F0000403E4E7012B0BD0022B02D1D368013B7A
:10370000D3605DF8044B70470D2BF7D00E2BF8D12A
:10371000D3685DF8044B0133D36070470C2B05D0A0
:10372000F2D8092BD8D00B2BE8D0EAE7D3685DF8A4
:10373000044B0233D360704748F29033C2F2010366
:1037400010B4D3F8CC201368506819780478507AF4
:10375000137A044201EA03011AD0937A03F00303B7
:1037600009B143F0040343F008039910082B917248
:103770002AD8072B22D2032B2ED011D9042B13D0F9
:10378000062B14D1D3685DF8044B023BD36070471D
:10379000937A03F003030029E7D043F00403E4E73E
:1037A000012B0BD0022B02D1D368013BD3605DF813
:1037B000044B70470D2BF7D00E2BF8D1D3685DF872
:1037C000044B0133D36070470C2B05D0F2D8092B82
:1037D000D8D00B2BE8D0EAE7D3685DF8044B02336E
:1037E000D360704748F29033C2F2010310B4D3F8AB
:1037F000D0201368506819780478507A137A0442FC
:1038000001EA03011AD0937A03F0030309B143F0EC
:10381000040343F008039910082B91722AD8072B50
:1038200022D2032B2ED011D9042B13D0062B14D166
:10383000D3685DF8044B023BD3607047937A03F082
:1038400003030029E7D043F00403E4E7012B0BD086
:10385000022B02D1D368013BD3605DF8044B704763
:103860000D2BF7D00E2BF8D1D3685DF8044B013344
:10387000D36070470C2B05D0F2D8092BD8D00B2B76
:10388000E8D0EAE7D3685DF8044B0233D3607047B1
:1038900048F29033C2F2010310B4D3F8D420136875
:1038A000506819780478507A137A044201EA0301C7
:1038B0001AD0937A03F0030309B143F0040343F0F1
:1038C00008039910082B91722AD8072B22D2032BB8
:1038D0002ED011D9042B13D0062B14D1D3685DF848
:1038E000044B023BD3607047937A03F00303002933
:1038F000E7D043F00403E4E7012B0BD0022B02D105
:10390000D368013BD3605DF8044B70470D2BF7D0B3
:103910000E2BF8D1D3685DF8044B0133D3607047A8
:103920000C2B05D0F2D8092BD8D00B2BE8D0EAE726
:10393000D3685DF8044B0233D3607047F0B540F6AE
:103940006453C2F201034DF20A721B68C3F62342AC
:1039500006EE102A93F89D2093F89F6007EE102A38
:1039600093F89620B8EEC77A07EE902A27EE067AEB
:10397000F8EEE76A83B067EE267A0D46FCEEE77A4A
:103980000021CDED017A044683F893509DF8042080
:1039900083F8921083F8911083F890100EB183F899
:1039A000902093F89E1009B183F8912093F8A0100D
:1039B00009B183F8922093F8A52093F8A70007EEA9
:1039C000102A4DF20A72C3F6234206EE102A93F82B
:1039D0009420B8EEC77A07EE902A27EE067AF8EE22
:1039E000E76A67EE267AFCEEE77ACDED017A9DF87C
:1039F000042030B193F89000904238BF104683F80D
:103A0000900093F8A60030B193F89100904238BF2F
:103A1000104683F8910093F8A80030B193F89260B3
:103A2000B24238BF324683F8922093F8A12093F82F
:103A3000A36007EE102A4DF20A72C3F6234206EE87
:103A4000102A93F89520B8EEC77A07EE902A27EE51
:103A5000067AF8EEE76A67EE267AFCEEE77ACDEDB5
:103A6000017A9DF8042036B193F89060964238BFF1
:103A7000164683F8906093F8A26036B193F891608F
:103A8000964238BF164683F8916093F8A46036B129
:103A900093F89270BA4238BF3A4683F8922093F86E
:103AA000A92093F8AB7007EE902A4DF20A72C3F684
:103AB000234207EE102AF8EEE77A67EE877A07EEE0
:103AC000105AB8EEC77A67EE877AFCEEE77ACDED4A
:103AD000017A9DF8042037B193F89070974238BF6F
:103AE000174683F8907093F8AA7037B193F89170E5
:103AF000974238BF174683F8917093F8AC7037B18E
:103B000093F892E0724538BF724683F8922029B943
:103B100026B918B917B97F2283F8922043F22C00F6
:103B20000D21C0F2020019F049FE611EC9B20F2931
:103B30000FD840F67474C2F2010441F0D001A06CB9
:103B400003681B689847A06C036805F07F011B6839
:103B5000984742F678600F21C0F2020019F02EFE5D
:103B60004EF20020C2F2000003B0BDE8F04015F0B4
:103B7000A1BF00BFF0B540F66453C2F201034DF29D
:103B80000A721B68C3F6234206EE102A93F89D20A2
:103B900093F89F6007EE102A93F89620B8EEC77A44
:103BA00007EE902A27EE067AF8EEE76A83B067EE12
:103BB000267A0C46FCEEE77A0021CDED017A054627
:103BC00083F893409DF8042083F8921083F89110B5
:103BD00083F890100EB183F8902093F89E1009B1ED
:103BE00083F8912093F8A01009B183F8922093F8FC
:103BF000A52093F8A70007EE102A4DF20A72C3F62B
:103C0000234206EE102A93F89420B8EEC77A07EE06
:103C1000902A27EE067AF8EEE76A67EE267AFCEE3F
:103C2000E77ACDED017A9DF8042030B193F8900049
:103C3000904238BF104683F8900093F8A60030B148
:103C400093F89100904238BF104683F8910093F8A2
:103C5000A80030B193F89260B24238BF324683F880
:103C6000922093F8A12093F8A36007EE102A4DF25A
:103C70000A72C3F6234206EE102A93F89520B8EE96
:103C8000C77A07EE902A27EE067AF8EEE76A67EE23
:103C9000267AFCEEE77ACDED017A9DF8042036B164
:103CA00093F89060964238BF164683F8906093F878
:103CB000A26036B193F89160964238BF164683F8F9
:103CC000916093F8A46036B193F89270BA4238BF0D
:103CD0003A4683F8922093F8A92093F8AB7007EE48
:103CE000902A4DF20A72C3F6234207EE102AF8EE2C
:103CF000E77A67EE877A07EE104AB8EEC77A67EE82
:103D0000877AFCEEE77ACDED017A9DF8042037B191
:103D100093F89070974238BF174683F8907093F8E5
:103D2000AA7037B193F89170974238BF174683F85D
:103D3000917093F8AC7037B193F892E0724538BF48
:103D4000724683F8922029B926B918B917B97F228B
:103D500083F8922043F23C000D21C0F202002404BB
:103D600019F02CFD04F4FE04681E44F450440002D3
:103D700044F00D0400F47060204318F095FE42F604
:103D800004600F21C0F2020019F018FD4EF200206D
:103D9000C2F2000003B0BDE8F04015F08BBE00BFDA
:103DA00070B5044643F24C000E46C0F202001221E8
:103DB000154619F003FD611EC9B20F2915D840F64A
:103DC0007474C2F2010441F0A001A06C03681B6886
:103DD0009847A06C036806F07F011B689847A06CA9
:103DE000036805F07F011B68984743F26000C0F24A
:103DF00002000A2119F0E2FC4EF20020C2F200009B
:103E0000BDE8704015F056BEF8B54DF67067C2F2C9
:103E1000000705463B7C0E4614467BB398422DD0E6
:103E200043F26C001E21C0F2020019F0C7FC4EF2F2
:103E3000002000230A222946C2F2000015F04CFEA1
:103E400043F28C000E21C0F2020019F0B7FC4EF2D2
:103E50000020397C00230A22C2F2000015F03CFE4B
:103E600043F29C000121C0F2020019F0A7FC4EF2BF
:103E70000020C2F2000015F01DFE08E040F6645379
:103E8000C2F201032246186831460BF009FB43F2E7
:103E9000A0001121C0F2020019F090FC230603F0EB
:103EA000FE43300443F41043013D43F0090300F4A2
:103EB000FE002D02184305F47065284318F0F4FD48
:103EC00042F60460C0F202000F2119F077FC4EF2B6
:103ED0000020C2F20000BDE8F84015F0EBBD00BFC5
:103EE000F8B54DF67067C2F2000705463B7C0E46FA
:103EF00014467BB398422DD043F26C001E21C0F2D1
:103F0000020019F05BFC4EF2002000230A22294631
:103F1000C2F2000015F0E0FD43F28C000E21C0F269
:103F2000020019F04BFC4EF20020397C00230A22DB
:103F3000C2F2000015F0D0FD43F29C000121C0F256
:103F4000020019F03BFC4EF20020C2F2000015F016
:103F5000B1FD07E040F66453C2F201033146186830
:103F60000BF066FC43F2B4001221C0F2020019F01B
:103F700025FC230603F0FE43300443F40043013DD7
:103F800043F0080300F4FE002D02184305F47065A9
:103F9000284318F089FD42F60460C0F202000F21A8
:103FA00019F00CFC4EF20020C2F20000BDE8F8400F
:103FB00015F080BDF8B54DF67065C2F200050446F7
:103FC0002B7C0E4617467BB398422DD043F26C00F3
:103FD0001E21C0F2020019F0F1FB4EF20020002376
:103FE0000A222146C2F2000015F076FD43F28C0051
:103FF0000E21C0F2020019F0E1FB4EF20020297CF4
:1040000000230A22C2F2000015F066FD43F29C0074
:104010000121C0F2020019F0D1FB4EF20020C2F2E1
:10402000000015F047FD07E040F66453C2F20103BB
:10403000314618680BF0FCFB43F2C8001221C0F2B5
:104040000200013C19F0BAFBE1B20F2915D840F685
:104050007475C2F2010541F08001A86C03681B6809
:104060009847A86C036806F07F011B689847A86C06
:10407000036807F07F011B68984742F67860C0F23A
:1040800002000F2119F09AFB4EF20020C2F200004C
:10409000BDE8F84015F00EBDF8B54DF67065C2F2FA
:1040A000000504462B7C0E4617467BB398422DD064
:1040B00043F26C001E21C0F2020019F07FFB4EF2A9
:1040C000002000230A222146C2F2000015F004FD60
:1040D00043F28C000E21C0F2020019F06FFB4EF289
:1040E0000020297C00230A22C2F2000015F0F4FC13
:1040F00043F29C000121C0F2020019F05FFB4EF276
:104100000020C2F2000015F0D5FC08E040F6645330
:10411000C2F201033A46186831460BF0C1F943F286
:10412000DC001121C0F20200013C19F047FBE1B2B2
:104130000F2915D840F67475C2F2010541F09001BF
:10414000A86C03681B689847A86C036806F07F0199
:104150001B689847A86C036807F07F011B689847A5
:1041600042F67860C0F202000F2119F027FB4EF2F0
:104170000020C2F20000BDE8F84015F09BBC00BF73
:1041800038B540F66453C2F2010304461B6801F5DA
:10419000005543F2F0000D21C3F88450C0F2020034
:1041A00019F00CFB611EC9B20F2915D840F67474C2
:1041B000C2F2010441F0E001A06C03681B6898475B
:1041C000A06C036805F07F011B689847A06C03682A
:1041D000C5F3C6111B68984742F67860C0F202002A
:1041E0000F2119F0EBFA4EF20020C2F20000BDE8F8
:1041F000384015F05FBC00BF10B442F69054002365
:10420000C0F202044172026104600372C36041B1F2
:10421000194600E0026942F82310427A01339A42BB
:10422000F8DC48F29043C2F201031A680AB90CE0C4
:104230001A465369002BFBD15061002343618380F0
:10424000C38083725DF8044B70471860F5E700BFC8
:10425000F8B540F67474C2F2010447F61221A06C5E
:104260000368DB69984743F6E167032043F6096377
:1042700046F6990143F6753641F20D0284F8640062
:10428000C0F20003C0F20007C0F20001C0F2000655
:10429000C0F2000240F6515063602760E160666141
:1042A000A261C0F2000045F6853340F6CD4740F6E6
:1042B000B55140F6894640F699122061C0F20003DC
:1042C000C0F20007C0F20001C0F20006C0F2000216
:1042D00040F63570E3612762A160A662E262C0F237
:1042E000000040F6D11340F6092740F6412140F680
:1042F000792640F6B132C0F200022063C0F200031A
:10430000C0F20007C0F20001C0F200064EF2002524
:1043100043F200106264C2F200056363A7630023E6
:104320004FF6FF77E16326641721C0F2020084F89C
:104330004C3084F84E3084F84D30A365636584F8C2
:10434000E93084F8663084F8653084F8673084F8A2
:104350006830E765276619F031FA284615F0AAFBA0
:1043600048F27071C2F2010144F2990EC0F2000EDF
:1043700048F26874C1F800E0C2F2010443F6B57E69
:10438000C0F2000E48F26C73C4F800E0C2F2010300
:1043900046F2BD7EC0F2000E48F24077C3F800E05E
:1043A000C2F2010743F63D1EC0F2000E48F2307023
:1043B000C7F800E0C2F2010044F2811EC0F2000E14
:1043C00048F22C76C0F800E0C2F2010641F27D0E00
:1043D000C0F2000E48F25072C6F800E0C2F20102CC
:1043E00045F6C53EC0F2000E48F24871C2F800E042
:1043F000C2F2010140F6096EC0F2000E48F23C74B0
:10440000C1F800E0C2F2010443F6A15EC0F2000E62
:1044100048F26473C4F800E0C2F2010340F6556E3E
:10442000C0F2000E48F24C77C3F800E0C2F2010778
:1044300040F6115EC0F2000E48F21470C7F800E0BA
:10444000C2F2010040F69D77C0F2000748F24476C0
:104450000760C2F2010648F2247240F63137C2F218
:104460000102C0F2000748F25C7140F6713037601B
:10447000C2F20101C0F2000048F21C7448F2187345
:1044800040F6B127C2F201031060C2F20104C0F28B
:10449000000740F6F12640F6194243F218100F606B
:1044A000C0F20006C0F20002C0F20200182126602D
:1044B0001A6019F083F92846BDE8F84015F0FABAF9
:1044C0001D2810B50B4600F0E983024622D92C289E
:1044D00000F064813FD8242800F0EE8340F2A880E9
:1044E000282800F0748300F2D680262800F0F58199
:1044F00040F2D58248F29034C2F2010442F2B9117E
:10450000C0F2000104222720C4F89C3016F06EF897
:10451000012010BD0E2800F097833AD8062800F03D
:10452000A1836CD90A2800F0058300F207810828CE
:1045300000F07E8140F2758248F29034C2F20104AC
:1045400042F67941C0F2000104220920636216F0AC
:104550004DF8012010BD342800F0BD8336D8302836
:1045600000F0638300F2D6802E2800F0528140F2E2
:10457000018248F29034C2F2010443F28941C0F250
:10458000000104222F20C4F8BC3016F02FF80120BF
:1045900010BD152800F0748364D9192800F0FA8141
:1045A00000F2A580172800F08A8140F2D18248F2FB
:1045B0009034C2F2010441F2A571C0F2000104225C
:1045C0001820236616F012F8012010BD382800F0DC
:1045D000CE8275D8362800F0398140F27F8248F2C9
:1045E0009034C2F2010443F2D911C0F20001042256
:1045F0003720C4F8DC3015F0F9FF012010BD022887
:1046000000F0018240F27881042800F04B8140F2F2
:10461000BD8248F29034C2F2010442F6C911C0F2E0
:10462000000104220520636115F0E0FF012010BDA8
:10463000202800F0448240F28981222800F0238162
:1046400040F2D48248F29034C2F2010441F609717A
:10465000C0F2000104222320C4F88C3015F0C6FFFC
:10466000012010BD112800F0B18140F25A811328B9
:1046700000F0FB8040F2B88148F29034C2F20104AD
:1046800041F2F541C0F2000104221420236515F027
:10469000ADFF012010BD2A2800F0AC8040F2E0817F
:1046A00048F29034C2F2010442F26941C0F20001C2
:1046B00004222B20C4F8AC3015F098FF012010BD67
:1046C0003A2800F08880C0F072823B2840F06D826A
:1046D00048F29034C2F2010443F28101C0F20001B9
:1046E0000422C4F8EC3015F081FF012010BD1B2816
:1046F00063D040F28B8248F29034C2F2010441F65A
:104700005521C0F2000104221C20236715F06EFF22
:10471000012010BD322824D040F2928148F290341A
:10472000C2F2010443F23971C0F2000104223320C5
:10473000C4F8CC3015F05AFF012010BD0C281FD052
:1047400040F29E8148F29034C2F2010442F629718F
:10475000C0F2000104220D20636315F047FF012021
:1047600010BD48F29034C2F2010443F28D61C0F2F0
:1047700000010422C4F8C83015F038FF012010BD34
:1047800048F29034C2F2010442F67D61C0F20001A9
:104790000422236315F02AFF012010BD48F2903453
:1047A000C2F2010442F21551C0F200010422C4F821
:1047B000B03015F01BFF012010BD48F29034C2F25A
:1047C000010441F6A911C0F200010422E36615F0CC
:1047D0000DFF012010BD48F29034C2F2010442F6F0
:1047E000D571C0F200010422C4F8E83015F0FEFED5
:1047F000012010BD48F29034C2F2010442F2BD31F2
:10480000C0F200010422C4F8A83015F0EFFE012028
:1048100010BD48F29034C2F2010443F2DD31C0F21F
:1048200000010422C4F8B83015F0E0FE012010BDEC
:1048300048F29034C2F2010442F6CD31C0F20001D8
:104840000422236215F0D2FE012010BD48F29034FC
:10485000C2F2010443F22D11C0F200010422C4F897
:10486000D83015F0C3FE012010BD48F29034C2F2DA
:10487000010441F24941C0F200010422E36415F051
:10488000B5FE012010BD48F29034C2F2010441F699
:104890005D61C0F200010422C4F8883015F0A6FE64
:1048A000012010BD48F29034C2F2010442F61D11FD
:1048B000C0F20001236115F099FE012010BD48F2FD
:1048C0009034C2F2010441F2F961C0F20001042205
:1048D000E36515F08BFE012010BD48F29034C2F262
:1048E000010442F20D11C0F200010422C4F8983014
:1048F00015F07CFE012010BD002800F0FF8001288B
:1049000040F0538148F29034C2F2010442F219712E
:10491000C0F2000104220120636015F067FE01204F
:1049200010BD0F2800F0F880102840F03E8148F2BA
:104930009034C2F2010441F24521C0F20001042288
:104940001020236415F052FE012010BD1E282FD028
:104950001F2840F02A8148F29034C2F2010441F647
:104960005941C0F2000104221F20E36715F03EFE0A
:10497000012010BD48F29034C2F2010442F2C1514C
:10498000C0F2000104222D20C4F8B43015F02EFE30
:10499000012010BD48F29034C2F2010441F65101E9
:1049A000C0F200010422636615F020FE012010BD54
:1049B00048F29034C2F2010441F6AD31C0F2000178
:1049C0000422A36715F012FE012010BD48F29034B6
:1049D000C2F2010441F2F121C0F200010422636439
:1049E00015F004FE012010BD48F29034C2F201041B
:1049F00041F29D31C0F2000104221220A36415F09F
:104A0000F5FD012010BD48F29034C2F2010442F2DB
:104A1000C571C0F200010422A36015F0E7FD01207A
:104A200010BD48F29034C2F2010442F62131C0F2C6
:104A3000000104220720E36115F0D8FD012010BD1C
:104A400048F29034C2F2010443F2E151C0F2000195
:104A500004223120C4F8C43015F0C8FD012010BD77
:104A600048F29034C2F2010442F21131C0F2000166
:104A700004222920C4F8A43015F0B8FD012010BD8F
:104A800048F29034C2F2010442F6D151C0F2000162
:104A900004220B20E36215F0A9FD012010BD48F2AD
:104AA0009034C2F2010442F26101C0F2000104221A
:104AB0002520C4F8943015F099FD012010BD48F26E
:104AC0009034C2F2010441F60551C0F20001042203
:104AD000C4F8803015F08AFD012010BD48F29034F2
:104AE000C2F2010443F69101C0F200010422352014
:104AF000C4F8D43015F07AFD012010BD48F290348E
:104B0000C2F2010442F26D61C0F20001042223608E
:104B100015F06CFD012010BD48F29034C2F2010482
:104B200041F29911C0F200010422E36315F05EFD29
:104B3000012010BD48F29034C2F2010442F6255122
:104B4000C0F200010422A36215F050FD012010BD47
:104B500048F29034C2F2010441F24D61C0F200010A
:104B600004221620A36515F041FD012010BD48F276
:104B70009034C2F2010443F28521C0F20001042204
:104B8000C4F8E03015F032FD012010BD48F2903439
:104B9000C2F2010442F67101C0F2000104220320B6
:104BA000E36015F023FD012010BD002010BD48F288
:104BB0009034C2F2010443F23131C0F20001042208
:104BC0003920C4F8E43015F011FD012010BD48F281
:104BD0009034C2F2010442F26521C0F200010422C5
:104BE000C4F8A03015F002FD012010BD48F2903449
:104BF000C2F2010441F6B151C0F2000104222120A9
:104C0000C4F8843015F0F2FC012010BD48F2903455
:104C1000C2F2010441F6FD01C0F2000104221A2093
:104C2000A36615F0E3FC012010BD48F29034C2F2F7
:104C3000010443F23551C0F200010422C4F8C0302F
:104C400015F0D4FC012010BD48F29034C2F20104EA
:104C500041F2ED01C0F200010422A36315F0C6FC8D
:104C6000012010BD48F29034C2F2010442F67521D1
:104C7000C0F200010422A36115F0B8FC012010BDB0
:104C800048F29034C2F2010441F2A151C0F2000195
:104C90000422636515F0AAFC012010BD48F290348F
:104CA000C2F2010441F60131C0F20001042263673F
:104CB00015F09CFC012010BD48F29034C2F20104B2
:104CC00041F6B571C0F200010422C4F8903015F02D
:104CD0008DFC012010BD48F29034C2F2010443F271
:104CE000E571C0F200010422C4F8D03015F07EFC5A
:104CF000012010BDF8B5044616460D4608460221AF
:104D000015F0B8FE3046022115F0B4FE44F26C33C3
:104D1000C0F20203012253F83500227200F500713F
:104D2000216053F8361062724FF4625301F5007738
:104D300062F31F4300226760E260013BFDD190F8FF
:104D4000003291F8002203F00103D20744BF43F080
:104D50000203DBB21D2DA37200F00F8422D92C2D8B
:104D600000F070813FD8242D00F0168440F2A88016
:104D7000282D00F0968300F2D680262D00F00D82BB
:104D800040F2F28248F29033C2F2010342F2B911CA
:104D9000C0F2000104222720C3F89C4015F026FC35
:104DA000012326E10E2D00F0BB833AD8062D00F03A
:104DB000C6836CD90A2D00F0258300F20881082DE6
:104DC00000F08F8140F2928248F29033C2F20103E8
:104DD00042F67941C0F20001042209205C6215F01C
:104DE00005FC012305E1342D00F0E68336D8302D93
:104DF00000F0868300F2D7802E2D00F0628140F211
:104E00001A8248F29033C2F2010343F28941C0F2A0
:104E1000000104222F20C3F8BC4015F0E7FB01235A
:104E2000E7E0152D00F09A8364D9192D00F0138264
:104E300000F2A680172D00F0A18140F2F28248F224
:104E40009033C2F2010341F2A571C0F200010422C5
:104E500018201C6615F0CAFB0123CAE0382D00F0AB
:104E6000EF8275D8362D00F04B8140F29D8248F2DA
:104E70009033C2F2010343F2D911C0F200010422BF
:104E80003720C3F8DC4015F0B1FB0123B1E0022D5F
:104E900000F01D8240F29181042D00F0608140F20B
:104EA000DF8248F29033C2F2010342F6C911C0F228
:104EB0000001042205205C6115F098FB012398E0B5
:104EC000202D00F0618240F2A281222D00F0378176
:104ED00040F2F78248F29033C2F2010341F60971C1
:104EE000C0F2000104222320C3F88C4015F07EFBA1
:104EF00001237EE0112D00F0CC8140F27381132D4F
:104F000000F00E8140F2D48148F29033C2F20103E6
:104F100041F2F541C0F20001042214201C6515F095
:104F200065FB012365E02A2D00F0BB8040F2FD8186
:104F300048F29033C2F2010342F26941C0F200012B
:104F400004222B20C3F8AC4015F050FB012350E0A5
:104F50003A2D00F09680C0F094823B2D40F08F8275
:104F600048F29033C2F2010343F281012846C0F2B5
:104F700000010422C3F8EC4015F038FB012338E0AF
:104F80001B2D6FD040F2AD8248F29033C2F2010384
:104F900041F65521C0F2000104221C201C6715F0C7
:104FA00025FB012325E0322D2DD040F2AE8148F2C1
:104FB0009033C2F2010343F23971C0F200010422BE
:104FC0003320C3F8CC4015F011FB012311E00C2D68
:104FD00029D040F2BA8148F29033C2F2010342F67E
:104FE0002971C0F2000104220D205C6315F0FEFA65
:104FF0000123237430462146FFF762FA237C1844CC
:1050000020742046F8BD48F29033C2F2010343F207
:105010008D612846C0F200010422C3F8C84015F093
:10502000E5FA0123E5E748F29033C2F2010342F6C4
:105030007D612846C0F2000104221C6315F0D6FAF7
:105040000123D6E748F29033C2F2010342F2155130
:105050002846C0F200010422C3F8B04015F0C6FA99
:105060000123C6E748F29033C2F2010341F6A911C9
:105070002846C0F200010422DC6615F0B7FA0123CD
:10508000B7E748F29033C2F2010342F6D5712846E1
:10509000C0F200010422C3F8E84015F0A7FA01238A
:1050A000A7E748F29033C2F2010342F2BD3128462D
:1050B000C0F200010422C3F8A84015F097FA0123BA
:1050C00097E748F29033C2F2010343F2DD312846FC
:1050D000C0F200010422C3F8B84015F087FA01239A
:1050E00087E748F29033C2F2010342F6CD312846F9
:1050F000C0F2000104221C6215F078FA012378E75F
:1051000048F29033C2F2010343F22D112846C0F257
:1051100000010422C3F8D84015F068FA012368E7BB
:1051200048F29033C2F2010341F249412846C0F2ED
:1051300000010422DC6415F059FA012359E748F212
:105140009033C2F2010341F65D612846C0F20001CE
:105150000422C3F8884015F049FA012349E748F2D0
:105160009033C2F2010342F61D11C0F200012A463B
:1051700028461C6115F03AFA01233AE748F29033C9
:10518000C2F2010341F2F9612846C0F20001042293
:10519000DC6515F02BFA01232BE748F29033C2F2BD
:1051A000010342F20D112846C0F200010422C3F8A7
:1051B000984015F01BFA01231BE7002D00F0048135
:1051C000012D40F05C8148F29033C2F2010342F2BB
:1051D0001971C0F20001042201205C6015F006FA8A
:1051E000012306E70F2D00F0FE80102D40F04781CF
:1051F00048F29033C2F2010341F24521C0F20001AE
:10520000042210201C6415F0F1F90123F1E61E2D93
:1052100030D01F2D40F0338148F29033C2F20103A9
:1052200041F65941C0F2000104221F20DC6715F04D
:10523000DDF90123DDE648F29033C2F2010342F2C8
:10524000C151C0F2000104222D20C3F8B44015F072
:10525000CDF90123CDE648F29033C2F2010341F6C5
:1052600051012846C0F2000104225C6615F0BEF927
:105270000123BEE648F29033C2F2010341F6AD319C
:105280002846C0F2000104229C6715F0AFF9012303
:10529000AFE648F29033C2F2010341F2F121284611
:1052A000C0F2000104225C6415F0A0F90123A0E61D
:1052B00048F29033C2F2010341F29D31C0F2000185
:1052C000042212209C6415F091F9012391E648F222
:1052D0009033C2F2010342F2C5712846C0F20001C8
:1052E00004229C6015F082F9012382E648F2903393
:1052F000C2F2010342F62131C0F20001042207206C
:10530000DC6115F073F9012373E648F29033C2F2C1
:10531000010343F2E151C0F2000104223120C3F83D
:10532000C44015F063F9012363E648F29033C2F2FA
:10533000010342F21131C0F2000104222920C3F816
:10534000A44015F053F9012353E648F29033C2F21A
:10535000010342F6D151C0F2000104220B20DC62AD
:1053600015F044F9012344E648F29033C2F20103F8
:1053700042F26101C0F2000104222520C3F89440EA
:1053800015F034F9012334E648F29033C2F20103F8
:1053900041F605512846C0F200010422C3F88040BE
:1053A00015F024F9012324E648F29033C2F20103F8
:1053B00043F69101C0F2000104223520C3F8D44025
:1053C00015F014F9012314E648F29033C2F20103F8
:1053D00042F26D612846C0F2000104221C6015F003
:1053E00005F9012305E648F29033C2F2010341F2C8
:1053F00099112846C0F200010422DC6315F0F6F88A
:105400000123F6E548F29033C2F2010342F625513A
:105410002846C0F2000104229C6215F0E7F801233F
:10542000E7E548F29033C2F2010341F24D61C0F268
:105430000001042216209C6515F0D8F80123D8E558
:1054400048F29033C2F2010343F285212846C0F2AC
:1054500000010422C3F8E04015F0C8F80123C8E5B4
:1054600048F29033C2F2010342F67101C0F200012A
:1054700004220320DC6015F0B9F80123B9E500230C
:10548000B7E548F29033C2F2010343F23131C0F282
:10549000000104223920C3F8E44015F0A7F80123E5
:1054A000A7E548F29033C2F2010342F26521284693
:1054B000C0F200010422C3F8A04015F097F80123C0
:1054C00097E548F29033C2F2010341F6B151C0F2C0
:1054D000000104222120C3F8844015F087F801233D
:1054E00087E548F29033C2F2010341F6FD01C0F2B4
:1054F000000104221A209C6615F078F8012378E553
:1055000048F29033C2F2010343F235512846C0F20B
:1055100000010422C3F8C04015F068F8012368E5D3
:1055200048F29033C2F2010341F2ED012846C0F285
:10553000000104229C6315F059F8012359E548F253
:105540009033C2F2010342F675212846C0F20001F1
:1055500004229C6115F04AF801234AE548F2903391
:10556000C2F2010341F2A1512846C0F20001042217
:105570005C6515F03BF801233BE548F29033C2F23D
:10558000010341F601312846C0F2000104225C67A4
:1055900015F02CF801232CE548F29033C2F20103F8
:1055A00041F6B5712846C0F200010422C3F89040CC
:1055B00015F01CF801231CE548F29033C2F20103F8
:1055C00043F2E5712846C0F200010422C3F8D0403E
:1055D00015F00CF801230CE52DE9F04F044643F2D9
:1055E000341089B00F46C0F202000B2118F0E6F823
:1055F0004EF200203946C2F2000000230A2214F0C5
:105600006BFA43F24010C0F20200012118F0D6F804
:10561000B7B10026354643F240400121C0F20200F6
:1056200018F0CCF801354EF20020A15DEDB2C2F2C7
:10563000000000230A2214F04FFAAF422E46EAD8A7
:105640004DF670654EF20020C2F20005C2F2000075
:1056500014F030FA2B7CC3B3A67806F00F0601369F
:10566000B34232D043F26C001E21C0F2020018F0A7
:10567000A5F84EF2002000230A223146C2F20000B3
:1056800014F02AFA43F28C000E21C0F2020018F046
:1056900095F84EF2002000230A22297CC2F2000075
:1056A00014F01AFA43F29C000121C0F2020018F033
:1056B00085F84EF20020C2F2000014F0FBF943F22C
:1056C0004410C0F202001B2107E06378432B0FD087
:1056D00043F26010C0F202001B2118F06FF84EF286
:1056E0000020C2F2000009B0BDE8F04F14F0E2B9AA
:1056F00043F27C100C21C0F2020018F05FF8A17890
:105700004EF20020C1F30211C2F2000014F074F94D
:1057100043F240100121C0F2020018F04FF84EF29F
:105720000020C2F2000014F0C5F9072F05D043F2A3
:105730001C20C0F202002021CFE7E378C3F38403EA
:10574000002B00F0AA81022B40F01582A379F72BE1
:1057500040F0A68140F66453C2F201034AF6AB2042
:1057600021791B686279C3F6AA5005EE900A4DF2C2
:105770000A7001F07F01C3F6234006EE100A5818A4
:1057800002F07F022171627180F88C2193F8CE11B2
:1057900093F8CF7193F8D421019793F8D1710092C7
:1057A00093F8CB6193F8CD21029701F00407049799
:1057B0000592C3F88860009A93F8D00193F8D2510B
:1057C00093F8CCB193F8D3E1CDF80CE001F00206E8
:1057D00016F100090696049EC3F88CB002F0020C84
:1057E000624600F0020A18BF4FF0010916F1000CE2
:1057F00000F0040E18BF4FF0010C1AF1000B05F079
:10580000020818BF4FF0010B83F89F901EF10009AA
:1058100005F0040718BF4FF0010983F8A0C018F184
:10582000000C18BF4FF0010C01F0010100F0010065
:1058300083F8A3B017F1000B18BF4FF0010B83F8EA
:105840009E1083F8A20083F8A49012F1000918BFFB
:105850004FF0010983F8AB9093F8D59183F8A8B085
:10586000DDF814B007924FEA496907EE10BA07EE67
:10587000909A93F896909DF80420009E83F8A120BA
:10588000F8EEC76AF8EEE77A07EE109A67EEA57AA7
:1058900066EE866AB8EEC77A9DF8082083F8A520E0
:1058A000C9B29DF80C200091FDEEE77A079983F8C4
:1058B000A92026EE877A06F004020AF0FF0A83F890
:1058C000A7C083F89DB006F0010C12F1000B049EF6
:1058D000C3ED267ACDF810A0FCEEC77A01F0FF0ADE
:1058E000069983F8AAC04FF0000905F0010518BF1A
:1058F0004FF0010B83F8A65083F8ACB006F0FF061A
:10590000C0B20EF0FF0E08F0FF08EDB207F0FF077F
:105910005FFA8CFC02F0FF0217EE90BA83F89290C7
:1059200083F8919083F8909009B183F890B0009932
:1059300009B183F891B00EB183F892B0029907EEE5
:10594000901A4DF20A71C3F6234106EE901A93F8AD
:105950009410B8EEE77A07EE901A27EE267AF8EE62
:10596000E77A67EE277AFCEEE77ACDED007A9DF8CC
:105970000010B8F1000F06D093F89080884538BF2A
:10598000884683F8908035B193F891508D4238BFA6
:105990000D4683F8915037B193F89250A94238BF21
:1059A000294683F892100199049D07EE901A4DF252
:1059B0000A71C3F6234106EE901A93F89510B8EEDB
:1059C000E77A07EE901A27EE267AF8EEE77A67EE86
:1059D000277AFCEEE77ACDED007A9DF8001035B11C
:1059E00093F890508D4238BF0D4683F8905030B1F7
:1059F00093F89100884238BF084683F89100BEF1C1
:105A0000000F06D093F89200814238BF014683F818
:105A10009210039907EE901A4DF20A71C3F62341D2
:105A200006EE901A93F89310B8EEE77A07EE901A04
:105A300027EE267AF8EEE77A67EE277AFCEEE77A29
:105A4000CDED007A9DF80010BAF1000F06D093F862
:105A50009000884238BF084683F89000BCF1000FE0
:105A600006D093F89100884238BF084683F8910029
:105A700032B193F89200814238BF014683F8921008
:105A80003EB9BEF1000F04D11FB912B97F2283F8CD
:105A9000922025795C35EDB22AE0A379F72B05D069
:105AA00043F2C410C0F20200262116E6227963797F
:105AB00040F66455C2F2010502F07F0203F07F0355
:105AC0002868227163710AF095F8E27823792868D2
:105AD000617902F0030203EBC213034483F830112F
:105AE00009F07CFFE578237903EBC51505F0FF0588
:105AF00043F2EC10C0F20200052117F05FFEE378DC
:105B000013F07C0F06D143F2F410C0F20200092119
:105B100017F054FE43F200200B21C0F2020017F0F0
:105B20004DFE4EF2002000230A222179C2F200002D
:105B300013F0D2FF43F218200321C0F2020017F045
:105B40003DFE4EF20020617900230A22C2F20000DD
:105B500013F0C2FF43F20C200F21C0F2020017F035
:105B60002DFE4EF20020294600230A22C2F2000038
:105B700013F0B2FFB3E543F28C10C0F202003621FD
:105B8000ABE500BF38B504460D46FFF725FD43F2EF
:105B900040201021C0F2020017F010FE29462046D6
:105BA000002216F0D5FF42F60460C0F202000F2179
:105BB00017F004FE4EF20020C2F20000BDE83840AB
:105BC00013F078BF70B540F674750E460446C2F205
:105BD0000105FFF701FD43F254201021C0F202003D
:105BE00017F0ECFDA86C0368F021DB6C984746B118
:105BF0002644A86C14F8011B03681B689847A6424A
:105C0000F7D1A86C0368F721DB6C984742F67860FF
:105C1000C0F202000F2117F0D1FD4EF20020C2F2B7
:105C20000000BDE8704013F045BF00BFFFFFFFFF5D
:105C300038B543F2682010EE105A4DF670642DED21
:105C4000048BC2F200041421C0F20200B0EE608A9C
:105C5000C4ED030A84ED020A17F0B0FD28461BF0DC
:105C6000FDFC41EC100B4EF200200A21C2F20000B4
:105C700013F072FF43F280200121C0F2020017F0FE
:105C80009DFD40F6DB73C4F24903A06809EE103AAB
:105C90001BF0E4FC41EC100B4EF200200A21C2F292
:105CA000000013F059FF43F284200621C0F20200E5
:105CB00017F084FD43F280200121C0F2020017F0AA
:105CC0007DFDE0681BF0CAFC41EC100B4EF2002099
:105CD0000A21C2F2000013F03FFF43F28C200221A0
:105CE000C0F2020017F06AFDE36807EE903A27EE73
:105CF000890AF6EE008A20EE280A18F0EDFCA36867
