:10000000F8FF0220A99501008D950100459501009A
:100010004595010045950100459501004595010074
:100020004595010045950100459501008D9501001C
:100030008D950100459501000DC5010085C70100A2
:100040008D9501008D9501008D9501008D95010024
:100050008D9501008D9501008D9501008D95010014
:100060008D9501008D9501008D9501008D95010004
:100070008D9501008D9501008D9501008D950100F4
:100080008D9501008D9501008D9501008D950100E4
:100090008D9501008D9501008D9501008D950100D4
:1000A000A1850100FD8601008D9501008D9501005F
:1000B0008D9501008D9501008D95010059DB0100A2
:1000C0008D950100B5DC01008D95010011DE010068
:1000D0008D95010041DF01008D9501008D95010096
:1000E0008D9501008D9501008D9501008D95010084
:1000F0008D9501008D9501008D9501008D95010074
:100100008D9501008D9501008D9501008D95010063
:100110008D95010049A001008D9501008D9501008C
:100120008D9501008D9501008D9501008D95010043
:100130008D9501008D9501008D9501008D95010033
:1001400059C201008D95010071E001008D950100FB
:10015000A1E101008D9501008D9501008D950100B3
:100160008D9501008D950100598801008D95010044
:100170008D9501008D9501008D9501008D950100F3
:100180008D9501008D9501008D9501008D950100E3
:100190008D9501008D950100FFFFFFFFFFFFFFFF21
:1001A000FFFFFFFFFFFFFFFFFFFFFFFFFFFFFFFF5F
:1001B000FFFFFFFFFFFFFFFFFFFFFFFFFFFFFFFF4F
:1001C000FFFFFFFFFFFFFFFFFFFFFFFFFFFFFFFF3F
:1001D000FFFFFFFFFFFFFFFFFFFFFFFFFFFFFFFF2F
:10040000FFFFFFFFFFFFFFFFFFFFFFFFDEF9FFFF23
:1004100010B5054C237833B9044B13B10448AFF33E
:1004200000800123237010BDF4EB002000000000C9
:10043000844C0200084B10B51BB108490848AFF3C3
:1004400000800848036803B910BD074B002BFBD0A0
:10045000BDE81040184700BF00000000F8EB002086
:10046000844C0200F4EB002000000000704700BF45
:1004700010B54FF4097104461CF0EAFB204610BD8C
:1004800070B54FF06A522DED028B064642F6585376
:1004900008EE902A40F6DB72C0F202034FF20E45DE
:1004A00040F6DA70C4F24902C2F20005C3F64920F0
:1004B00008EE102A336000240FE007EE904AF8EEB1
:1004C000E77A77EE807A67EEA87A67EE887A27EE89
:1004D000800A1EF08DF910EE100A21F04BF941EC64
:1004E000100B1DF0EDFF00230022CCF2900351EC25
:1004F000100B21F093F941EC100B1DF0F5FF51ECBE
:10050000100B21F063FC0134B4F5806FB6EE000AE5
:1005100025F8020FD1D14FF06A534EF60E4508EE82
:10052000103AC2F20005002407EE904AF8EEE77A8E
:10053000013467EE887A17EE900A21F01BF99FEDDF
:10054000140B41EC110B1EF053FA002351EC100B6D
:100550000022C3F6F07320F0ADFF00230022C4F2A6
:10056000B00321F05BF921F051FC21F003F941ECDB
:10057000100B1DF0B9FF51EC100B21F027FCB4F566
:10058000806F25F8020FCFD1BDEC028B304670BDD5
:100590000000000000000040704700BF10B54FF49D
:1005A000097104461CF054FB204610BD2DE9F04FA4
:1005B0004DF68466C2F200060A9D0B989DF83070D5
:1005C000B6F800C042F67054C0F20204C5EB000A4F
:1005D000002F18BF0C466FEA0C0B0AF1200A4DF6EB
:1005E00084294DF68448043A271FA1F1040E0FFA1E
:1005F0008BFB4FEAAA1AC2F20009C2F200080026D9
:1006000027E0B4F5007F02D08CB3C943C9B239F8F2
:1006100011104CEA010101EBC00080B20BEA0004AA
:10062000E143C9B2241238F8111001F58061490084
:10063000E14010EA0C0F18BFC94357F8044F09985E
:1006400009B2013604EB8131402E03444EF8041FF9
:1006500010D052F8041F1944891301F44074554412
:10066000B4F5807FC9B2A8B2CBD1C943C9B239F8B9
:100670001110D0E7BDE8F08F2DE9F04F4DF68465FD
:10068000C2F2000509982E880A9D9DF82C7042F64A
:100690007054C0F20204C0EB050E002F14BF0F46C9
:1006A00027466FEA06090EF1200E4DF684284DF616
:1006B000844C3C1F0D1F0FFA89F9FC374FEAAE1E20
:1006C000C2F20008C2F2000C2AE0BBF5007F04D0A1
:1006D000BBF1000F30D0C943C9B238F81110314313
:1006E00001EBCA0A1FFA8AFA09EA0A0B6FEA0B0140
:1006F000C9B24FEA2B2B3CF8111001F5806149007B
:100700001AEA060F21FA0BF154F804AF18BFC943D7
:1007100009B20AEB8131BC421A4445F8041F0ED0DD
:10072000911301F4407B7044BBF5807F1FFA80FA7F
:10073000C9B2CAD1C943C9B238F81110D0E7BDE86F
:10074000F08F00BF2DE9F04F4DF6846083B0C2F208
:1007500000000D9EB0F800C00C9C9DF840A00F9FBB
:100760000E980E9D019342F6705EC0F2020EC4EB2D
:10077000060B6FEA0C06BAF1000F14BF8A46F24668
:1007800033B20BF1200B4DF684294DF68448AAF1C3
:10079000040600686D680093A1F1040E0AF1FC0ADA
:1007A0004FEAAB1B0137C2F20009C2F2000829E090
:1007B000B0F5007F02D098B3DB43DBB239F81330D9
:1007C0004CEA030303EBC101009B89B203EA010079
:1007D000C343DBB2001238F8133003F580635B00CB
:1007E000C34011EA0C0F18BFDB4356F8041F0198F1
:1007F0001BB29B031944564502444EF8041F284679
:1008000011D01D4643193B4113449B1303F4407020
:100810005C44B0F5807FDBB2A1B2C9D1DB43DBB26F
:1008200039F81330CEE70E9A1560536003B0BDE877
:10083000F08F00BF2DE9F04F43F6EC6403EB430368
:10084000C0F2020404EBC3050646144689460FCDE8
:1008500091B00AAF0FC795E80300002387E80300B3
:10086000012704F160088DF8247007978DF8253072
:100870008DF826300AAD48E00AF1FF3101EB011195
:1008800006EB0111133121F00F0194E80140C0146F
:10089000C0F500706060BEF1000F3FD0BEF5FE7F76
:1008A0003EDA10AFBA441AF81CCCBCF1000F04D0E9
:1008B00012F1000C18BF4FF0010CC3F301123AB152
:1008C00010AF07EB020B1BF81CBCBBF1000F34D1BF
:1008D00003F0C003C02B02D11B9B0F2B41DDA3688B
:1008E000E2680190CDF808C0CDF800E03046FFF78F
:1008F000C3FE9DF81C300AF81C3CE368A26803EBB9
:100900008213E3601034A04514D055F8043B13F073
:10091000030A03F00402AFD14946B6E740F2FF1ED6
:10092000B0F5FE7FBDDB002AE7D110AB9A440AF890
:100930001C2CE2E711B0BDE8F08F013A02EB021285
:10094000E368CDF80CC006EB02120290CDF804E08B
:10095000A0680090133222F00F023046FFF726FE07
:10096000C7E71F46E268A36803971A9F0190CDF876
:1009700010C00297CDF800E03046FFF7E3FEB8E77D
:1009800000207047704700BF704700BF10B5044695
:100990001BF0E4FB204610BD10B5044621F010FF0B
:1009A00001462046BDE810401BF0D0B842F6EC608E
:1009B00008B51021C0F202001BF0C8F84FF60F2056
:1009C0001AF03AFA42F60070C0F202000F211BF052
:1009D000BDF84EF20020C2F20000BDE808401BF056
:1009E000C7BF00BF42F6107008B51621C0F2020062
:1009F0001BF0ACF84FF20F601AF01EFA42F60070CE
:100A0000C0F202000F211BF0A1F84EF20020C2F24A
:100A10000000BDE808401BF0ABBF00BF42F62870E5
:100A200008B51321C0F202001BF090F84FF60F300A
:100A30001AF002FA42F60070C0F202000F211BF019
:100A400085F84EF20020C2F20000BDE808401BF01D
:100A50008FBF00BF42F63C7008B50F21C0F2020004
:100A60001BF074F84FF60F401AF0E6F942F60070EA
:100A7000C0F202000F211BF069F84EF20020C2F212
:100A80000000BDE808401BF073BF00BF42F64C7089
:100A900008B51821C0F202001BF058F84FF60F609D
:100AA0001AF0CAF942F60070C0F202000F211BF0E2
:100AB0004DF84EF20020C2F20000BDE808401BF0E5
:100AC00057BF00BF38B542F668704EF2002540F6B9
:100AD00064541021C2F20104C2F20005C0F2020007
:100AE0001BF034F828461BF043FF20680FF0EEF8A7
:100AF00020680EF0F7FF20680FF008F842F67C70CF
:100B00001621C0F202001BF021F84FF60F701AF008
:100B100093F942F60070C0F202000F211BF016F8A4
:100B20002846BDE838401BF023BF00BF42F6947052
:100B300008B51021C0F202001BF008F840F67473EB
:100B4000C2F20103FA21986C03681B68984742F6C9
:100B5000A870C0F202000F211AF0F8FF4EF2002038
:100B6000C2F20000BDE808401BF002BF42F6B870B8
:100B700008B51321C0F202001AF0E8FF40F67473C2
:100B8000C2F20103FB21986C03681B68984742F688
:100B9000A870C0F202000F211AF0D8FF4EF2002018
:100BA000C2F20000BDE808401BF0E2BE42F6CC7085
:100BB00008B50F21C0F202001AF0C8FF40F67473A6
:100BC000C2F20103FC21986C03681B68984742F647
:100BD000A870C0F202000F211AF0B8FF4EF20020F8
:100BE000C2F20000BDE808401BF0C2BE42F6DC7055
:100BF00008B51821C0F202001AF0A8FF40F674737D
:100C0000C2F20103FE21986C03681B68984742F604
:100C1000A870C0F202000F211AF098FF4EF20020D7
:100C2000C2F20000BDE808401BF0A2BE38B542F693
:100C300068704EF2002540F664541021C2F201049F
:100C4000C2F20005C0F202001AF080FF28461BF035
:100C50008FFE20680FF03AF820680EF043FF2068FE
:100C60000EF054FF42F6F8701621C0F202001AF09E
:100C70006DFF40F67473C2F20103FF21986C0368A4
:100C80001B68984742F6A870C0F202000F211AF0C4
:100C90005DFF2846BDE838401BF06ABE10B504462B
:100CA00043F210001521C0F202001AF04FFF200499
:100CB00000F4FE0040F4734040F002001AF0BCF86B
:100CC00042F60070C0F202000F211AF03FFF4EF210
:100CD0000020C2F20000BDE810401BF049BE00BF7A
:100CE00010B5044643F228001F21C0F2020004F0B0
:100CF0000F041AF02BFF44F010044FF2021040EAE8
:100D000004401AF099F842F60070C0F202000F2178
:100D10001AF01CFF4EF20020C2F20000BDE81040A5
:100D20001BF026BE43F2480008B51621C0F20200AF
:100D30001AF00CFF40F67473C2F20103F621986CAE
:100D40000368DB6C984742F6A870C0F202000F21DE
:100D50001AF0FCFE4EF20020C2F20000BDE808408E
:100D60001BF006BE1F2938B50C46054608D84DF6BF
:100D70008863C2F2000318790FF01AFF0BF0B2FD7E
:100D800043F260000D21C0F202001AF0DFFE2304DE
:100D9000681E03F4FE0343F44043000243F00C03D7
:100DA00000F4706018431AF047F842F60070C0F281
:100DB00002000F211AF0CAFE4EF20020C2F200001B
:100DC000BDE838401BF0D4BD70B5064643F2700054
:100DD0000C46C0F20200122115461AF0B7FE6EB999
:100DE000681E0002240400F4706004F4FE04204332
:100DF00040F4504040F00D001AF01EF842F600702A
:100E0000C0F202000F211AF0A1FE4EF20020C2F241
:100E10000000BDE870401BF0ABBD00BF38B540F628
:100E200074740546C2F2010443F284001F21C0F22B
:100E300002001AF08BFEA06C0368F1211B68984732
:100E4000A06C036829461B68984742F6A870C0F258
:100E500002000F211AF07AFE4EF20020C2F20000CA
:100E6000BDE838401BF084BD38B540F674740546C3
:100E7000C2F2010443F2A4001521C0F202001AF0EC
:100E800065FEA06C0368F3211B689847A06C03689B
:100E900005F07F01DB6C984742F6A870C0F20200B3
:100EA0000F211AF053FE4EF20020C2F20000BDE8FE
:100EB00038401BF05DBD00BF38B540F66453C2F248
:100EC000010301F500521B6805460C4643F2BC00C5
:100ED000C3F884200D21C0F2020004F30D041AF0BF
:100EE00035FE04F50054681E2304000203F4FE03DB
:100EF00000F47060184340F46040640404F0FE4461
:100F000040F00E00204319F097FF42F60070C0F247
:100F100002000F211AF01AFE4EF20020C2F2000069
:100F2000BDE838401BF024BDF0B548F29042C2F253
:100F3000010283B040F2442311680091C2F2010320
:100F400000991E681268019240F65C55C2F20105D4
:100F500040F62852C2F20102891B43F2CC004EF245
:100F60000024C2F20004019F298000260C21C0F257
:100F7000020016701F601AF0E9FD2B8820464EF61D
:100F8000602191FBF3F11BF095FC43F2DC0005219D
:100F9000C0F202001AF0DAFD298820461BF08AFC14
:100FA00043F2E4000F21C0F202001AF0CFFD204608
:100FB0001BF0DEFC03B0F0BD08B540F62851C2F2CC
:100FC00001014AF6AB230A780132D2B2CAF6AA234B
:100FD000A3FB02031B0903EB4303A2EBC30313F0C0
:100FE000FF0F0A7001D1FFF79FFF43F2F4001021B9
:100FF000C0F202001AF0AAFD4FF60F0019F01CFF14
:1010000042F60070C0F202000F211AF09FFD4EF26E
:101010000020C2F20000BDE808401BF0A9BC00BFE0
:1010200008B540F62851C2F201014AF6AB230A780E
:101030000132D2B2CAF6AA23A3FB02031B0903EBB7
:101040004303A2EBC30313F0FF0F0A7001D1FFF7B4
:101050006BFF43F208101021C0F202001AF076FD77
:1010600040F67473C2F20103F821986C03681B68A0
:10107000984742F6A870C0F202000F211AF066FDF0
:101080004EF20020C2F20000BDE808401BF070BC28
:101090001F2938B50D46044608D84DF68863C2F2BC
:1010A000000318790FF084FD0BF01CFC43F21C10B8
:1010B0000D21C0F202001AF049FD611EC9B20F29CC
:1010C0000FD840F67474C2F2010441F0C001A06C64
:1010D00003681B689847A06C036805F07F011B68D4
:1010E000984742F6A870C0F202000F211AF02EFDB8
:1010F0004EF20020C2F20000BDE838401BF038BCC0
:1011000048F28C33C2F2010310B41A6813685068B5
:1011100019780478507A137A044201EA03011AD04C
:10112000937A03F0030309B143F0040343F0080387
:101130009910082B91722AD8072B22D2032B2ED07C
:1011400011D9042B13D0062B14D1D3685DF8044BAE
:10115000023BD3607047937A03F003030029E7D082
:1011600043F00403E4E7012B0BD0022B02D1D36838
:10117000013BD3605DF8044B70470D2BF7D00E2B6D
:10118000F8D1D3685DF8044B0133D36070470C2B62
:1011900005D0F2D8092BD8D00B2BE8D0EAE7D368DA
:1011A0005DF8044B0233D360704700BF48F28C33C4
:1011B000C2F2010310B45A681368506819780478B1
:1011C000507A137A044201EA03011AD0937A03F0A9
:1011D000030309B143F0040343F008039910082BFB
:1011E00091722AD8072B22D2032B2ED011D9042B8F
:1011F00013D0062B14D1D3685DF8044B023BD360A7
:101200007047937A03F003030029E7D043F0040307
:10121000E4E7012B0BD0022B02D1D368013BD36052
:101220005DF8044B70470D2BF7D00E2BF8D1D36827
:101230005DF8044B0133D36070470C2B05D0F2D816
:10124000092BD8D00B2BE8D0EAE7D3685DF8044B24
:101250000233D360704700BF48F28C33C2F20103FF
:1012600010B49A681368506819780478507A137A21
:10127000044201EA03011AD0937A03F0030309B18F
:1012800043F0040343F008039910082B91722AD805
:10129000072B22D2032B2ED011D9042B13D0062BCF
:1012A00014D1D3685DF8044B023BD3607047937A46
:1012B00003F003030029E7D043F00403E4E7012B24
:1012C0000BD0022B02D1D368013BD3605DF8044BF5
:1012D00070470D2BF7D00E2BF8D1D3685DF8044B77
:1012E0000133D36070470C2B05D0F2D8092BD8D02E
:1012F0000B2BE8D0EAE7D3685DF8044B0233D360E8
:10130000704700BF48F28C33C2F2010310B4DA68B0
:101310001368506819780478507A137A044201EA05
:1013200003011AD0937A03F0030309B143F00403D5
:1013300043F008039910082B91722AD8072B22D268
:10134000032B2ED011D9042B13D0062B14D1D36824
:101350005DF8044B023BD3607047937A03F00303BC
:101360000029E7D043F00403E4E7012B0BD0022B64
:1013700002D1D368013BD3605DF8044B70470D2B5D
:10138000F7D00E2BF8D1D3685DF8044B0133D3604E
:1013900070470C2B05D0F2D8092BD8D00B2BE8D0F6
:1013A000EAE7D3685DF8044B0233D360704700BFAF
:1013B00048F28C33C2F2010310B41A691368506802
:1013C00019780478507A137A044201EA03011AD09A
:1013D000937A03F0030309B143F0040343F00803D5
:1013E0009910082B91722AD8072B22D2032B2ED0CA
:1013F00011D9042B13D0062B14D1D3685DF8044BFC
:10140000023BD3607047937A03F003030029E7D0CF
:1014100043F00403E4E7012B0BD0022B02D1D36885
:10142000013BD3605DF8044B70470D2BF7D00E2BBA
:10143000F8D1D3685DF8044B0133D36070470C2BAF
:1014400005D0F2D8092BD8D00B2BE8D0EAE7D36827
:101450005DF8044B0233D360704700BF48F28C3311
:10146000C2F2010310B45A691368506819780478FD
:10147000507A137A044201EA03011AD0937A03F0F6
:10148000030309B143F0040343F008039910082B48
:1014900091722AD8072B22D2032B2ED011D9042BDC
:1014A00013D0062B14D1D3685DF8044B023BD360F4
:1014B0007047937A03F003030029E7D043F0040355
:1014C000E4E7012B0BD0022B02D1D368013BD360A0
:1014D0005DF8044B70470D2BF7D00E2BF8D1D36875
:1014E0005DF8044B0133D36070470C2B05D0F2D864
:1014F000092BD8D00B2BE8D0EAE7D3685DF8044B72
:101500000233D360704700BF48F28C33C2F201034C
:1015100010B49A691368506819780478507A137A6D
:10152000044201EA03011AD0937A03F0030309B1DC
:1015300043F0040343F008039910082B91722AD852
:10154000072B22D2032B2ED011D9042B13D0062B1C
:1015500014D1D3685DF8044B023BD3607047937A93
:1015600003F003030029E7D043F00403E4E7012B71
:101570000BD0022B02D1D368013BD3605DF8044B42
:1015800070470D2BF7D00E2BF8D1D3685DF8044BC4
:101590000133D36070470C2B05D0F2D8092BD8D07B
:1015A0000B2BE8D0EAE7D3685DF8044B0233D36035
:1015B000704700BF48F28C33C2F2010310B4DA69FD
:1015C0001368506819780478507A137A044201EA53
:1015D00003011AD0937A03F0030309B143F0040323
:1015E00043F008039910082B91722AD8072B22D2B6
:1015F000032B2ED011D9042B13D0062B14D1D36872
:101600005DF8044B023BD3607047937A03F0030309
:101610000029E7D043F00403E4E7012B0BD0022BB1
:1016200002D1D368013BD3605DF8044B70470D2BAA
:10163000F7D00E2BF8D1D3685DF8044B0133D3609B
:1016400070470C2B05D0F2D8092BD8D00B2BE8D043
:10165000EAE7D3685DF8044B0233D360704700BFFC
:1016600048F28C33C2F2010310B41A6E136850684A
:1016700019780478507A137A044201EA03011AD0E7
:10168000937A03F0030309B143F0040343F0080322
:101690009910082B91722AD8072B22D2032B2ED017
:1016A00011D9042B13D0062B14D1D3685DF8044B49
:1016B000023BD3607047937A03F003030029E7D01D
:1016C00043F00403E4E7012B0BD0022B02D1D368D3
:1016D000013BD3605DF8044B70470D2BF7D00E2B08
:1016E000F8D1D3685DF8044B0133D36070470C2BFD
:1016F00005D0F2D8092BD8D00B2BE8D0EAE7D36875
:101700005DF8044B0233D360704700BF48F28C335E
:10171000C2F2010310B45A6E136850681978047845
:10172000507A137A044201EA03011AD0937A03F043
:10173000030309B143F0040343F008039910082B95
:1017400091722AD8072B22D2032B2ED011D9042B29
:1017500013D0062B14D1D3685DF8044B023BD36041
:101760007047937A03F003030029E7D043F00403A2
:10177000E4E7012B0BD0022B02D1D368013BD360ED
:101780005DF8044B70470D2BF7D00E2BF8D1D368C2
:101790005DF8044B0133D36070470C2B05D0F2D8B1
:1017A000092BD8D00B2BE8D0EAE7D3685DF8044BBF
:1017B0000233D360704700BF48F28C33C2F201039A
:1017C00010B49A6E1368506819780478507A137AB6
:1017D000044201EA03011AD0937A03F0030309B12A
:1017E00043F0040343F008039910082B91722AD8A0
:1017F000072B22D2032B2ED011D9042B13D0062B6A
:1018000014D1D3685DF8044B023BD3607047937AE0
:1018100003F003030029E7D043F00403E4E7012BBE
:101820000BD0022B02D1D368013BD3605DF8044B8F
:1018300070470D2BF7D00E2BF8D1D3685DF8044B11
:101840000133D36070470C2B05D0F2D8092BD8D0C8
:101850000B2BE8D0EAE7D3685DF8044B0233D36082
:10186000704700BF48F28C33C2F2010310B4DA6E45
:101870001368506819780478507A137A044201EAA0
:1018800003011AD0937A03F0030309B143F0040370
:1018900043F008039910082B91722AD8072B22D203
:1018A000032B2ED011D9042B13D0062B14D1D368BF
:1018B0005DF8044B023BD3607047937A03F0030357
:1018C0000029E7D043F00403E4E7012B0BD0022BFF
:1018D00002D1D368013BD3605DF8044B70470D2BF8
:1018E000F7D00E2BF8D1D3685DF8044B0133D360E9
:1018F00070470C2B05D0F2D8092BD8D00B2BE8D091
:10190000EAE7D3685DF8044B0233D360704700BF49
:1019100048F28C33C2F2010310B41A6F1368506896
:1019200019780478507A137A044201EA03011AD034
:10193000937A03F0030309B143F0040343F008036F
:101940009910082B91722AD8072B22D2032B2ED064
:1019500011D9042B13D0062B14D1D3685DF8044B96
:10196000023BD3607047937A03F003030029E7D06A
:1019700043F00403E4E7012B0BD0022B02D1D36820
:10198000013BD3605DF8044B70470D2BF7D00E2B55
:10199000F8D1D3685DF8044B0133D36070470C2B4A
:1019A00005D0F2D8092BD8D00B2BE8D0EAE7D368C2
:1019B0005DF8044B0233D360704700BF48F28C33AC
:1019C000C2F2010310B45A6F136850681978047892
:1019D000507A137A044201EA03011AD0937A03F091
:1019E000030309B143F0040343F008039910082BE3
:1019F00091722AD8072B22D2032B2ED011D9042B77
:101A000013D0062B14D1D3685DF8044B023BD3608E
:101A10007047937A03F003030029E7D043F00403EF
:101A2000E4E7012B0BD0022B02D1D368013BD3603A
:101A30005DF8044B70470D2BF7D00E2BF8D1D3680F
:101A40005DF8044B0133D36070470C2B05D0F2D8FE
:101A5000092BD8D00B2BE8D0EAE7D3685DF8044B0C
:101A60000233D360704700BF48F28C33C2F20103E7
:101A700010B49A6F1368506819780478507A137A02
:101A8000044201EA03011AD0937A03F0030309B177
:101A900043F0040343F008039910082B91722AD8ED
:101AA000072B22D2032B2ED011D9042B13D0062BB7
:101AB00014D1D3685DF8044B023BD3607047937A2E
:101AC00003F003030029E7D043F00403E4E7012B0C
:101AD0000BD0022B02D1D368013BD3605DF8044BDD
:101AE00070470D2BF7D00E2BF8D1D3685DF8044B5F
:101AF0000133D36070470C2B05D0F2D8092BD8D016
:101B00000B2BE8D0EAE7D3685DF8044B0233D360CF
:101B1000704700BF48F28C33C2F2010310B4DA6F91
:101B20001368506819780478507A137A044201EAED
:101B300003011AD0937A03F0030309B143F00403BD
:101B400043F008039910082B91722AD8072B22D250
:101B5000032B2ED011D9042B13D0062B14D1D3680C
:101B60005DF8044B023BD3607047937A03F00303A4
:101B70000029E7D043F00403E4E7012B0BD0022B4C
:101B800002D1D368013BD3605DF8044B70470D2B45
:101B9000F7D00E2BF8D1D3685DF8044B0133D36036
:101BA00070470C2B05D0F2D8092BD8D00B2BE8D0DE
:101BB000EAE7D3685DF8044B0233D360704700BF97
:101BC00048F28C33C2F2010310B4D3F880201368BA
:101BD000506819780478507A137A044201EA0301B4
:101BE0001AD0937A03F0030309B143F0040343F0DE
:101BF00008039910082B91722AD8072B22D2032BA5
:101C00002ED011D9042B13D0062B14D1D3685DF834
:101C1000044B023BD3607047937A03F0030300291F
:101C2000E7D043F00403E4E7012B0BD0022B02D1F1
:101C3000D368013BD3605DF8044B70470D2BF7D0A0
:101C40000E2BF8D1D3685DF8044B0133D360704795
:101C50000C2B05D0F2D8092BD8D00B2BE8D0EAE713
:101C6000D3685DF8044B0233D360704748F28C337D
:101C7000C2F2010310B4D3F88420136850681978B5
:101C80000478507A137A044201EA03011AD0937A55
:101C900003F0030309B143F0040343F00803991070
:101CA000082B91722AD8072B22D2032B2ED011D9C0
:101CB000042B13D0062B14D1D3685DF8044B023BE0
:101CC000D3607047937A03F003030029E7D043F011
:101CD0000403E4E7012B0BD0022B02D1D368013BB4
:101CE000D3605DF8044B70470D2BF7D00E2BF8D165
:101CF000D3685DF8044B0133D36070470C2B05D0DB
:101D0000F2D8092BD8D00B2BE8D0EAE7D3685DF8DE
:101D1000044B0233D360704748F28C33C2F20103A4
:101D200010B4D3F888201368506819780478507A72
:101D3000137A044201EA03011AD0937A03F00303F1
:101D400009B143F0040343F008039910082B917282
:101D50002AD8072B22D2032B2ED011D9042B13D033
:101D6000062B14D1D3685DF8044B023BD360704757
:101D7000937A03F003030029E7D043F00403E4E778
:101D8000012B0BD0022B02D1D368013BD3605DF84D
:101D9000044B70470D2BF7D00E2BF8D1D3685DF8AC
:101DA000044B0133D36070470C2B05D0F2D8092BBC
:101DB000D8D00B2BE8D0EAE7D3685DF8044B0233A8
:101DC000D360704748F28C33C2F2010310B4D3F8E9
:101DD0008C201368506819780478507A137A04427A
:101DE00001EA03011AD0937A03F0030309B143F027
:101DF000040343F008039910082B91722AD8072B8B
:101E000022D2032B2ED011D9042B13D0062B14D1A0
:101E1000D3685DF8044B023BD3607047937A03F0BC
:101E200003030029E7D043F00403E4E7012B0BD0C0
:101E3000022B02D1D368013BD3605DF8044B70479D
:101E40000D2BF7D00E2BF8D1D3685DF8044B01337E
:101E5000D36070470C2B05D0F2D8092BD8D00B2BB0
:101E6000E8D0EAE7D3685DF8044B0233D3607047EB
:101E700048F28C33C2F2010310B4D3F890201368F7
:101E8000506819780478507A137A044201EA030101
:101E90001AD0937A03F0030309B143F0040343F02B
:101EA00008039910082B91722AD8072B22D2032BF2
:101EB0002ED011D9042B13D0062B14D1D3685DF882
:101EC000044B023BD3607047937A03F0030300296D
:101ED000E7D043F00403E4E7012B0BD0022B02D13F
:101EE000D368013BD3605DF8044B70470D2BF7D0EE
:101EF0000E2BF8D1D3685DF8044B0133D3607047E3
:101F00000C2B05D0F2D8092BD8D00B2BE8D0EAE760
:101F1000D3685DF8044B0233D360704748F28C33CA
:101F2000C2F2010310B4D3F89420136850681978F2
:101F30000478507A137A044201EA03011AD0937AA2
:101F400003F0030309B143F0040343F008039910BD
:101F5000082B91722AD8072B22D2032B2ED011D90D
:101F6000042B13D0062B14D1D3685DF8044B023B2D
:101F7000D3607047937A03F003030029E7D043F05E
:101F80000403E4E7012B0BD0022B02D1D368013B01
:101F9000D3605DF8044B70470D2BF7D00E2BF8D1B2
:101FA000D3685DF8044B0133D36070470C2B05D028
:101FB000F2D8092BD8D00B2BE8D0EAE7D3685DF82C
:101FC000044B0233D360704748F28C33C2F20103F2
:101FD00010B4D3F898201368506819780478507AB0
:101FE000137A044201EA03011AD0937A03F003033F
:101FF00009B143F0040343F008039910082B9172D0
:102000002AD8072B22D2032B2ED011D9042B13D080
:10201000062B14D1D3685DF8044B023BD3607047A4
:10202000937A03F003030029E7D043F00403E4E7C5
:10203000012B0BD0022B02D1D368013BD3605DF89A
:10204000044B70470D2BF7D00E2BF8D1D3685DF8F9
:10205000044B0133D36070470C2B05D0F2D8092B09
:10206000D8D00B2BE8D0EAE7D3685DF8044B0233F5
:10207000D360704748F28C33C2F2010310B4D3F836
:102080009C201368506819780478507A137A0442B7
:1020900001EA03011AD0937A03F0030309B143F074
:1020A000040343F008039910082B91722AD8072BD8
:1020B00022D2032B2ED011D9042B13D0062B14D1EE
:1020C000D3685DF8044B023BD3607047937A03F00A
:1020D00003030029E7D043F00403E4E7012B0BD00E
:1020E000022B02D1D368013BD3605DF8044B7047EB
:1020F0000D2BF7D00E2BF8D1D3685DF8044B0133CC
:10210000D36070470C2B05D0F2D8092BD8D00B2BFD
:10211000E8D0EAE7D3685DF8044B0233D360704738
:1021200048F28C33C2F2010310B4D3F8A020136834
:10213000506819780478507A137A044201EA03014E
:102140001AD0937A03F0030309B143F0040343F078
:1021500008039910082B91722AD8072B22D2032B3F
:102160002ED011D9042B13D0062B14D1D3685DF8CF
:10217000044B023BD3607047937A03F003030029BA
:10218000E7D043F00403E4E7012B0BD0022B02D18C
:10219000D368013BD3605DF8044B70470D2BF7D03B
:1021A0000E2BF8D1D3685DF8044B0133D360704730
:1021B0000C2B05D0F2D8092BD8D00B2BE8D0EAE7AE
:1021C000D3685DF8044B0233D360704748F28C3318
:1021D000C2F2010310B4D3F8A42013685068197830
:1021E0000478507A137A044201EA03011AD0937AF0
:1021F00003F0030309B143F0040343F0080399100B
:10220000082B91722AD8072B22D2032B2ED011D95A
:10221000042B13D0062B14D1D3685DF8044B023B7A
:10222000D3607047937A03F003030029E7D043F0AB
:102230000403E4E7012B0BD0022B02D1D368013B4E
:10224000D3605DF8044B70470D2BF7D00E2BF8D1FF
:10225000D3685DF8044B0133D36070470C2B05D075
:10226000F2D8092BD8D00B2BE8D0EAE7D3685DF879
:10227000044B0233D360704748F28C33C2F201033F
:1022800010B4D3F8A8201368506819780478507AED
:10229000137A044201EA03011AD0937A03F003038C
:1022A00009B143F0040343F008039910082B91721D
:1022B0002AD8072B22D2032B2ED011D9042B13D0CE
:1022C000062B14D1D3685DF8044B023BD3607047F2
:1022D000937A03F003030029E7D043F00403E4E713
:1022E000012B0BD0022B02D1D368013BD3605DF8E8
:1022F000044B70470D2BF7D00E2BF8D1D3685DF847
:10230000044B0133D36070470C2B05D0F2D8092B56
:10231000D8D00B2BE8D0EAE7D3685DF8044B023342
:10232000D360704748F28C33C2F2010310B4D3F883
:10233000AC201368506819780478507A137A0442F4
:1023400001EA03011AD0937A03F0030309B143F0C1
:10235000040343F008039910082B91722AD8072B25
:1023600022D2032B2ED011D9042B13D0062B14D13B
:10237000D3685DF8044B023BD3607047937A03F057
:1023800003030029E7D043F00403E4E7012B0BD05B
:10239000022B02D1D368013BD3605DF8044B704738
:1023A0000D2BF7D00E2BF8D1D3685DF8044B013319
:1023B000D36070470C2B05D0F2D8092BD8D00B2B4B
:1023C000E8D0EAE7D3685DF8044B0233D360704786
:1023D00048F28C33C2F2010310B4D3F8B020136872
:1023E000506819780478507A137A044201EA03019C
:1023F0001AD0937A03F0030309B143F0040343F0C6
:1024000008039910082B91722AD8072B22D2032B8C
:102410002ED011D9042B13D0062B14D1D3685DF81C
:10242000044B023BD3607047937A03F00303002907
:10243000E7D043F00403E4E7012B0BD0022B02D1D9
:10244000D368013BD3605DF8044B70470D2BF7D088
:102450000E2BF8D1D3685DF8044B0133D36070477D
:102460000C2B05D0F2D8092BD8D00B2BE8D0EAE7FB
:10247000D3685DF8044B0233D360704748F28C3365
:10248000C2F2010310B4D3F8B4201368506819786D
:102490000478507A137A044201EA03011AD0937A3D
:1024A00003F0030309B143F0040343F00803991058
:1024B000082B91722AD8072B22D2032B2ED011D9A8
:1024C000042B13D0062B14D1D3685DF8044B023BC8
:1024D000D3607047937A03F003030029E7D043F0F9
:1024E0000403E4E7012B0BD0022B02D1D368013B9C
:1024F000D3605DF8044B70470D2BF7D00E2BF8D14D
:10250000D3685DF8044B0133D36070470C2B05D0C2
:10251000F2D8092BD8D00B2BE8D0EAE7D3685DF8C6
:10252000044B0233D360704748F28C33C2F201038C
:1025300010B4D3F8B8201368506819780478507A2A
:10254000137A044201EA03011AD0937A03F00303D9
:1025500009B143F0040343F008039910082B91726A
:102560002AD8072B22D2032B2ED011D9042B13D01B
:10257000062B14D1D3685DF8044B023BD36070473F
:10258000937A03F003030029E7D043F00403E4E760
:10259000012B0BD0022B02D1D368013BD3605DF835
:1025A000044B70470D2BF7D00E2BF8D1D3685DF894
:1025B000044B0133D36070470C2B05D0F2D8092BA4
:1025C000D8D00B2BE8D0EAE7D3685DF8044B023390
:1025D000D360704748F28C33C2F2010310B4D3F8D1
:1025E000BC201368506819780478507A137A044232
:1025F00001EA03011AD0937A03F0030309B143F00F
:10260000040343F008039910082B91722AD8072B72
:1026100022D2032B2ED011D9042B13D0062B14D188
:10262000D3685DF8044B023BD3607047937A03F0A4
:1026300003030029E7D043F00403E4E7012B0BD0A8
:10264000022B02D1D368013BD3605DF8044B704785
:102650000D2BF7D00E2BF8D1D3685DF8044B013366
:10266000D36070470C2B05D0F2D8092BD8D00B2B98
:10267000E8D0EAE7D3685DF8044B0233D3607047D3
:1026800048F28C33C2F2010310B4D3F8C0201368AF
:10269000506819780478507A137A044201EA0301E9
:1026A0001AD0937A03F0030309B143F0040343F013
:1026B00008039910082B91722AD8072B22D2032BDA
:1026C0002ED011D9042B13D0062B14D1D3685DF86A
:1026D000044B023BD3607047937A03F00303002955
:1026E000E7D043F00403E4E7012B0BD0022B02D127
:1026F000D368013BD3605DF8044B70470D2BF7D0D6
:102700000E2BF8D1D3685DF8044B0133D3607047CA
:102710000C2B05D0F2D8092BD8D00B2BE8D0EAE748
:10272000D3685DF8044B0233D360704748F28C33B2
:10273000C2F2010310B4D3F8C420136850681978AA
:102740000478507A137A044201EA03011AD0937A8A
:1027500003F0030309B143F0040343F008039910A5
:10276000082B91722AD8072B22D2032B2ED011D9F5
:10277000042B13D0062B14D1D3685DF8044B023B15
:10278000D3607047937A03F003030029E7D043F046
:102790000403E4E7012B0BD0022B02D1D368013BE9
:1027A000D3605DF8044B70470D2BF7D00E2BF8D19A
:1027B000D3685DF8044B0133D36070470C2B05D010
:1027C000F2D8092BD8D00B2BE8D0EAE7D3685DF814
:1027D000044B0233D360704748F28C33C2F20103DA
:1027E00010B4D3F8C8201368506819780478507A68
:1027F000137A044201EA03011AD0937A03F0030327
:1028000009B143F0040343F008039910082B9172B7
:102810002AD8072B22D2032B2ED011D9042B13D068
:10282000062B14D1D3685DF8044B023BD36070478C
:10283000937A03F003030029E7D043F00403E4E7AD
:10284000012B0BD0022B02D1D368013BD3605DF882
:10285000044B70470D2BF7D00E2BF8D1D3685DF8E1
:10286000044B0133D36070470C2B05D0F2D8092BF1
:10287000D8D00B2BE8D0EAE7D3685DF8044B0233DD
:10288000D360704748F28C33C2F2010310B4D3F81E
:10289000CC201368506819780478507A137A04426F
:1028A00001EA03011AD0937A03F0030309B143F05C
:1028B000040343F008039910082B91722AD8072BC0
:1028C00022D2032B2ED011D9042B13D0062B14D1D6
:1028D000D3685DF8044B023BD3607047937A03F0F2
:1028E00003030029E7D043F00403E4E7012B0BD0F6
:1028F000022B02D1D368013BD3605DF8044B7047D3
:102900000D2BF7D00E2BF8D1D3685DF8044B0133B3
:10291000D36070470C2B05D0F2D8092BD8D00B2BE5
:10292000E8D0EAE7D3685DF8044B0233D360704720
:1029300048F28C33C2F2010310B4D3F8D0201368EC
:10294000506819780478507A137A044201EA030136
:102950001AD0937A03F0030309B143F0040343F060
:1029600008039910082B91722AD8072B22D2032B27
:102970002ED011D9042B13D0062B14D1D3685DF8B7
:10298000044B023BD3607047937A03F003030029A2
:10299000E7D043F00403E4E7012B0BD0022B02D174
:1029A000D368013BD3605DF8044B70470D2BF7D023
:1029B0000E2BF8D1D3685DF8044B0133D360704718
:1029C0000C2B05D0F2D8092BD8D00B2BE8D0EAE796
:1029D000D3685DF8044B0233D360704748F28C3300
:1029E000C2F2010310B4D3F8D420136850681978E8
:1029F0000478507A137A044201EA03011AD0937AD8
:102A000003F0030309B143F0040343F008039910F2
:102A1000082B91722AD8072B22D2032B2ED011D942
:102A2000042B13D0062B14D1D3685DF8044B023B62
:102A3000D3607047937A03F003030029E7D043F093
:102A40000403E4E7012B0BD0022B02D1D368013B36
:102A5000D3605DF8044B70470D2BF7D00E2BF8D1E7
:102A6000D3685DF8044B0133D36070470C2B05D05D
:102A7000F2D8092BD8D00B2BE8D0EAE7D3685DF861
:102A8000044B0233D360704748F28C33C2F2010327
:102A900010B4D3F8D8201368506819780478507AA5
:102AA000137A044201EA03011AD0937A03F0030374
:102AB00009B143F0040343F008039910082B917205
:102AC0002AD8072B22D2032B2ED011D9042B13D0B6
:102AD000062B14D1D3685DF8044B023BD3607047DA
:102AE000937A03F003030029E7D043F00403E4E7FB
:102AF000012B0BD0022B02D1D368013BD3605DF8D0
:102B0000044B70470D2BF7D00E2BF8D1D3685DF82E
:102B1000044B0133D36070470C2B05D0F2D8092B3E
:102B2000D8D00B2BE8D0EAE7D3685DF8044B02332A
:102B3000D360704748F28C33C2F2010310B4D3F86B
:102B4000DC201368506819780478507A137A0442AC
:102B500001EA03011AD0937A03F0030309B143F0A9
:102B6000040343F008039910082B91722AD8072B0D
:102B700022D2032B2ED011D9042B13D0062B14D123
:102B8000D3685DF8044B023BD3607047937A03F03F
:102B900003030029E7D043F00403E4E7012B0BD043
:102BA000022B02D1D368013BD3605DF8044B704720
:102BB0000D2BF7D00E2BF8D1D3685DF8044B013301
:102BC000D36070470C2B05D0F2D8092BD8D00B2B33
:102BD000E8D0EAE7D3685DF8044B0233D36070476E
:102BE00048F28C33C2F2010310B41A6A13685068B9
:102BF00019780478507A137A044201EA03011AD052
:102C0000937A03F0030309B143F0040343F008038C
:102C10009910082B91722AD8072B22D2032B2ED081
:102C200011D9042B13D0062B14D1D3685DF8044BB3
:102C3000023BD3607047937A03F003030029E7D087
:102C400043F00403E4E7012B0BD0022B02D1D3683D
:102C5000013BD3605DF8044B70470D2BF7D00E2B72
:102C6000F8D1D3685DF8044B0133D36070470C2B67
:102C700005D0F2D8092BD8D00B2BE8D0EAE7D368DF
:102C80005DF8044B0233D360704700BF48F28C33C9
:102C9000C2F2010310B45A6A1368506819780478B4
:102CA000507A137A044201EA03011AD0937A03F0AE
:102CB000030309B143F0040343F008039910082B00
:102CC00091722AD8072B22D2032B2ED011D9042B94
:102CD00013D0062B14D1D3685DF8044B023BD360AC
:102CE0007047937A03F003030029E7D043F004030D
:102CF000E4E7012B0BD0022B02D1D368013BD36058
:102D00005DF8044B70470D2BF7D00E2BF8D1D3682C
:102D10005DF8044B0133D36070470C2B05D0F2D81B
:102D2000092BD8D00B2BE8D0EAE7D3685DF8044B29
:102D30000233D360704700BF48F28C33C2F2010304
:102D400010B49A6A1368506819780478507A137A24
:102D5000044201EA03011AD0937A03F0030309B194
:102D600043F0040343F008039910082B91722AD80A
:102D7000072B22D2032B2ED011D9042B13D0062BD4
:102D800014D1D3685DF8044B023BD3607047937A4B
:102D900003F003030029E7D043F00403E4E7012B29
:102DA0000BD0022B02D1D368013BD3605DF8044BFA
:102DB00070470D2BF7D00E2BF8D1D3685DF8044B7C
:102DC0000133D36070470C2B05D0F2D8092BD8D033
:102DD0000B2BE8D0EAE7D3685DF8044B0233D360ED
:102DE000704700BF48F28C33C2F2010310B4DA6AB4
:102DF0001368506819780478507A137A044201EA0B
:102E000003011AD0937A03F0030309B143F00403DA
:102E100043F008039910082B91722AD8072B22D26D
:102E2000032B2ED011D9042B13D0062B14D1D36829
:102E30005DF8044B023BD3607047937A03F00303C1
:102E40000029E7D043F00403E4E7012B0BD0022B69
:102E500002D1D368013BD3605DF8044B70470D2B62
:102E6000F7D00E2BF8D1D3685DF8044B0133D36053
:102E700070470C2B05D0F2D8092BD8D00B2BE8D0FB
:102E8000EAE7D3685DF8044B0233D360704700BFB4
:102E900048F28C33C2F2010310B41A6B1368506805
:102EA00019780478507A137A044201EA03011AD09F
:102EB000937A03F0030309B143F0040343F00803DA
:102EC0009910082B91722AD8072B22D2032B2ED0CF
:102ED00011D9042B13D0062B14D1D3685DF8044B01
:102EE000023BD3607047937A03F003030029E7D0D5
:102EF00043F00403E4E7012B0BD0022B02D1D3688B
:102F0000013BD3605DF8044B70470D2BF7D00E2BBF
:102F1000F8D1D3685DF8044B0133D36070470C2BB4
:102F200005D0F2D8092BD8D00B2BE8D0EAE7D3682C
:102F30005DF8044B0233D360704700BF48F28C3316
:102F4000C2F2010310B45A6B136850681978047800
:102F5000507A137A044201EA03011AD0937A03F0FB
:102F6000030309B143F0040343F008039910082B4D
:102F700091722AD8072B22D2032B2ED011D9042BE1
:102F800013D0062B14D1D3685DF8044B023BD360F9
:102F90007047937A03F003030029E7D043F004035A
:102FA000E4E7012B0BD0022B02D1D368013BD360A5
:102FB0005DF8044B70470D2BF7D00E2BF8D1D3687A
:102FC0005DF8044B0133D36070470C2B05D0F2D869
:102FD000092BD8D00B2BE8D0EAE7D3685DF8044B77
:102FE0000233D360704700BF48F28C33C2F2010352
:102FF00010B49A6B1368506819780478507A137A71
:10300000044201EA03011AD0937A03F0030309B1E1
:1030100043F0040343F008039910082B91722AD857
:10302000072B22D2032B2ED011D9042B13D0062B21
:1030300014D1D3685DF8044B023BD3607047937A98
:1030400003F003030029E7D043F00403E4E7012B76
:103050000BD0022B02D1D368013BD3605DF8044B47
:1030600070470D2BF7D00E2BF8D1D3685DF8044BC9
:103070000133D36070470C2B05D0F2D8092BD8D080
:103080000B2BE8D0EAE7D3685DF8044B0233D3603A
:10309000704700BF48F28C33C2F2010310B4DA6B00
:1030A0001368506819780478507A137A044201EA58
:1030B00003011AD0937A03F0030309B143F0040328
:1030C00043F008039910082B91722AD8072B22D2BB
:1030D000032B2ED011D9042B13D0062B14D1D36877
:1030E0005DF8044B023BD3607047937A03F003030F
:1030F0000029E7D043F00403E4E7012B0BD0022BB7
:1031000002D1D368013BD3605DF8044B70470D2BAF
:10311000F7D00E2BF8D1D3685DF8044B0133D360A0
:1031200070470C2B05D0F2D8092BD8D00B2BE8D048
:10313000EAE7D3685DF8044B0233D360704700BF01
:1031400048F28C33C2F2010310B41A6C1368506851
:1031500019780478507A137A044201EA03011AD0EC
:10316000937A03F0030309B143F0040343F0080327
:103170009910082B91722AD8072B22D2032B2ED01C
:1031800011D9042B13D0062B14D1D3685DF8044B4E
:10319000023BD3607047937A03F003030029E7D022
:1031A00043F00403E4E7012B0BD0022B02D1D368D8
:1031B000013BD3605DF8044B70470D2BF7D00E2B0D
:1031C000F8D1D3685DF8044B0133D36070470C2B02
:1031D00005D0F2D8092BD8D00B2BE8D0EAE7D3687A
:1031E0005DF8044B0233D360704700BF48F28C3364
:1031F000C2F2010310B45A6C13685068197804784D
:10320000507A137A044201EA03011AD0937A03F048
:10321000030309B143F0040343F008039910082B9A
:1032200091722AD8072B22D2032B2ED011D9042B2E
:1032300013D0062B14D1D3685DF8044B023BD36046
:103240007047937A03F003030029E7D043F00403A7
:10325000E4E7012B0BD0022B02D1D368013BD360F2
:103260005DF8044B70470D2BF7D00E2BF8D1D368C7
:103270005DF8044B0133D36070470C2B05D0F2D8B6
:10328000092BD8D00B2BE8D0EAE7D3685DF8044BC4
:103290000233D360704700BF48F28C33C2F201039F
:1032A00010B49A6C1368506819780478507A137ABD
:1032B000044201EA03011AD0937A03F0030309B12F
:1032C00043F0040343F008039910082B91722AD8A5
:1032D000072B22D2032B2ED011D9042B13D0062B6F
:1032E00014D1D3685DF8044B023BD3607047937AE6
:1032F00003F003030029E7D043F00403E4E7012BC4
:103300000BD0022B02D1D368013BD3605DF8044B94
:1033100070470D2BF7D00E2BF8D1D3685DF8044B16
:103320000133D36070470C2B05D0F2D8092BD8D0CD
:103330000B2BE8D0EAE7D3685DF8044B0233D36087
:10334000704700BF48F28C33C2F2010310B4DA6C4C
:103350001368506819780478507A137A044201EAA5
:1033600003011AD0937A03F0030309B143F0040375
:1033700043F008039910082B91722AD8072B22D208
:10338000032B2ED011D9042B13D0062B14D1D368C4
:103390005DF8044B023BD3607047937A03F003035C
:1033A0000029E7D043F00403E4E7012B0BD0022B04
:1033B00002D1D368013BD3605DF8044B70470D2BFD
:1033C000F7D00E2BF8D1D3685DF8044B0133D360EE
:1033D00070470C2B05D0F2D8092BD8D00B2BE8D096
:1033E000EAE7D3685DF8044B0233D360704700BF4F
:1033F00048F28C33C2F2010310B41A6D136850689E
:1034000019780478507A137A044201EA03011AD039
:10341000937A03F0030309B143F0040343F0080374
:103420009910082B91722AD8072B22D2032B2ED069
:1034300011D9042B13D0062B14D1D3685DF8044B9B
:10344000023BD3607047937A03F003030029E7D06F
:1034500043F00403E4E7012B0BD0022B02D1D36825
:10346000013BD3605DF8044B70470D2BF7D00E2B5A
:10347000F8D1D3685DF8044B0133D36070470C2B4F
:1034800005D0F2D8092BD8D00B2BE8D0EAE7D368C7
:103490005DF8044B0233D360704700BF48F28C33B1
:1034A000C2F2010310B45A6D136850681978047899
:1034B000507A137A044201EA03011AD0937A03F096
:1034C000030309B143F0040343F008039910082BE8
:1034D00091722AD8072B22D2032B2ED011D9042B7C
:1034E00013D0062B14D1D3685DF8044B023BD36094
:1034F0007047937A03F003030029E7D043F00403F5
:10350000E4E7012B0BD0022B02D1D368013BD3603F
:103510005DF8044B70470D2BF7D00E2BF8D1D36814
:103520005DF8044B0133D36070470C2B05D0F2D803
:10353000092BD8D00B2BE8D0EAE7D3685DF8044B11
:103540000233D360704700BF48F28C33C2F20103EC
:1035500010B49A6D1368506819780478507A137A09
:10356000044201EA03011AD0937A03F0030309B17C
:1035700043F0040343F008039910082B91722AD8F2
:10358000072B22D2032B2ED011D9042B13D0062BBC
:1035900014D1D3685DF8044B023BD3607047937A33
:1035A00003F003030029E7D043F00403E4E7012B11
:1035B0000BD0022B02D1D368013BD3605DF8044BE2
:1035C00070470D2BF7D00E2BF8D1D3685DF8044B64
:1035D0000133D36070470C2B05D0F2D8092BD8D01B
:1035E0000B2BE8D0EAE7D3685DF8044B0233D360D5
:1035F000704700BF48F28C33C2F2010310B4DA6D99
:103600001368506819780478507A137A044201EAF2
:1036100003011AD0937A03F0030309B143F00403C2
:1036200043F008039910082B91722AD8072B22D255
:10363000032B2ED011D9042B13D0062B14D1D36811
:103640005DF8044B023BD3607047937A03F00303A9
:103650000029E7D043F00403E4E7012B0BD0022B51
:1036600002D1D368013BD3605DF8044B70470D2B4A
:10367000F7D00E2BF8D1D3685DF8044B0133D3603B
:1036800070470C2B05D0F2D8092BD8D00B2BE8D0E3
:10369000EAE7D3685DF8044B0233D360704700BF9C
:1036A00048F28C33C2F2010310B4D3F8E02013685F
:1036B000506819780478507A137A044201EA0301B9
:1036C0001AD0937A03F0030309B143F0040343F0E3
:1036D00008039910082B91722AD8072B22D2032BAA
:1036E0002ED011D9042B13D0062B14D1D3685DF83A
:1036F000044B023BD3607047937A03F00303002925
:10370000E7D043F00403E4E7012B0BD0022B02D1F6
:10371000D368013BD3605DF8044B70470D2BF7D0A5
:103720000E2BF8D1D3685DF8044B0133D36070479A
:103730000C2B05D0F2D8092BD8D00B2BE8D0EAE718
:10374000D3685DF8044B0233D360704748F28C3382
:10375000C2F2010310B4D3F8E4201368506819785A
:103760000478507A137A044201EA03011AD0937A5A
:1037700003F0030309B143F0040343F00803991075
:10378000082B91722AD8072B22D2032B2ED011D9C5
:10379000042B13D0062B14D1D3685DF8044B023BE5
:1037A000D3607047937A03F003030029E7D043F016
:1037B0000403E4E7012B0BD0022B02D1D368013BB9
:1037C000D3605DF8044B70470D2BF7D00E2BF8D16A
:1037D000D3685DF8044B0133D36070470C2B05D0E0
:1037E000F2D8092BD8D00B2BE8D0EAE7D3685DF8E4
:1037F000044B0233D360704748F28C33C2F20103AA
:1038000010B4D3F8E8201368506819780478507A17
:10381000137A044201EA03011AD0937A03F00303F6
:1038200009B143F0040343F008039910082B917287
:103830002AD8072B22D2032B2ED011D9042B13D038
:10384000062B14D1D3685DF8044B023BD36070475C
:10385000937A03F003030029E7D043F00403E4E77D
:10386000012B0BD0022B02D1D368013BD3605DF852
:10387000044B70470D2BF7D00E2BF8D1D3685DF8B1
:10388000044B0133D36070470C2B05D0F2D8092BC1
:10389000D8D00B2BE8D0EAE7D3685DF8044B0233AD
:1038A000D360704748F28C33C2F2010310B4D3F8EE
:1038B000EC201368506819780478507A137A04421F
:1038C00001EA03011AD0937A03F0030309B143F02C
:1038D000040343F008039910082B91722AD8072B90
:1038E00022D2032B2ED011D9042B13D0062B14D1A6
:1038F000D3685DF8044B023BD3607047937A03F0C2
:1039000003030029E7D043F00403E4E7012B0BD0C5
:10391000022B02D1D368013BD3605DF8044B7047A2
:103920000D2BF7D00E2BF8D1D3685DF8044B013383
:10393000D36070470C2B05D0F2D8092BD8D00B2BB5
:10394000E8D0EAE7D3685DF8044B0233D3607047F0
:10395000F0B540F66453C2F201034DF20A721B68DF
:10396000C3F6234206EE102A93F89D2093F89F6039
:1039700007EE102A93F89620B8EEC77A07EE902A41
:1039800027EE067AF8EEE76A83B067EE267A0D46F0
:10399000FCEEE77A0021CDED017A044683F89350DE
:1039A0009DF8042083F8921083F8911083F890100A
:1039B0000EB183F8902093F89E1009B183F89120FE
:1039C00093F8A01009B183F8922093F8A52093F8FA
:1039D000A70007EE102A4DF20A72C3F6234206EE44
:1039E000102A93F89420B8EEC77A07EE902A27EEB3
:1039F000067AF8EEE76A67EE267AFCEEE77ACDED16
:103A0000017A9DF8042030B193F89000904238BFBD
:103A1000104683F8900093F8A60030B193F8910017
:103A2000904238BF104683F8910093F8A80030B157
:103A300093F89260B24238BF324683F8922093F8EE
:103A4000A12093F8A36007EE102A4DF20A72C3F684
:103A5000234206EE102A93F89520B8EEC77A07EEB7
:103A6000902A27EE067AF8EEE76A67EE267AFCEEF1
:103A7000E77ACDED017A9DF8042036B193F8906095
:103A8000964238BF164683F8906093F8A26036B12C
:103A900093F89160964238BF164683F8916093F888
:103AA000A46036B193F89270BA4238BF3A4683F8B0
:103AB000922093F8A92093F8AB7007EE902A4DF26C
:103AC0000A72C3F6234207EE102AF8EEE77A67EE91
:103AD000877A07EE105AB8EEC77A67EE877AFCEE5F
:103AE000E77ACDED017A9DF8042037B193F8907014
:103AF000974238BF174683F8907093F8AA7037B191
:103B000093F89170974238BF174683F8917093F8F5
:103B1000AC7037B193F892E0724538BF724683F8C3
:103B2000922029B926B918B917B97F2283F89220B3
:103B300043F22C100D21C0F2020018F007F8611EAC
:103B4000C9B20F290FD840F67474C2F2010441F0D3
:103B5000D001A06C03681B689847A06C036805F04F
:103B60007F011B68984742F6A8700F21C0F202003F
:103B700017F0ECFF4EF20020C2F2000003B0BDE8E7
:103B8000F04018F0F5BE00BFF0B540F66453C2F245
:103B900001034DF20A721B68C3F6234206EE102A97
:103BA00093F89D2093F89F6007EE102A93F89620D3
:103BB000B8EEC77A07EE902A27EE067AF8EEE76AA3
:103BC00083B067EE267A0C46FCEEE77A0021CDED55
:103BD000017A054683F893409DF8042083F89210FB
:103BE00083F8911083F890100EB183F8902093F829
:103BF0009E1009B183F8912093F8A01009B183F8C1
:103C0000922093F8A52093F8A70007EE102A4DF212
:103C10000A72C3F6234206EE102A93F89420B8EEF7
:103C2000C77A07EE902A27EE067AF8EEE76A67EE83
:103C3000267AFCEEE77ACDED017A9DF8042030B1CA
:103C400093F89000904238BF104683F8900093F8A4
:103C5000A60030B193F89100904238BF104683F827
:103C6000910093F8A80030B193F89260B24238BF47
:103C7000324683F8922093F8A12093F8A36007EED0
:103C8000102A4DF20A72C3F6234206EE102A93F868
:103C90009520B8EEC77A07EE902A27EE067AF8EE5E
:103CA000E76A67EE267AFCEEE77ACDED017A9DF8B9
:103CB000042036B193F89060964238BF164683F8D8
:103CC000906093F8A26036B193F89160964238BF45
:103CD000164683F8916093F8A46036B193F8927019
:103CE000BA4238BF3A4683F8922093F8A92093F855
:103CF000AB7007EE902A4DF20A72C3F6234207EE2C
:103D0000102AF8EEE77A67EE877A07EE104AB8EEE7
:103D1000C77A67EE877AFCEEE77ACDED017A9DF8F7
:103D2000042037B193F89070974238BF174683F854
:103D3000907093F8AA7037B193F89170974238BF9A
:103D4000174683F8917093F8AC7037B193F892E00E
:103D5000724538BF724683F8922029B926B918B93E
:103D600017B97F2283F8922043F23C100D21C0F254
:103D70000200240417F0EAFE04F4FE04681E44F472
:103D80005044000244F00D0400F47060204317F02A
:103D900053F842F600700F21C0F2020017F0D6FE71
:103DA0004EF20020C2F2000003B0BDE8F04018F06F
:103DB000DFBD00BF70B5044643F24C100E46C0F2A2
:103DC00002001221154617F0C1FE611EC9B20F296B
:103DD00015D840F67474C2F2010441F0A001A06C41
:103DE00003681B689847A06C036806F07F011B6896
:103DF0009847A06C036805F07F011B68984743F261
:103E00006010C0F202000A2117F0A0FE4EF200205E
:103E1000C2F20000BDE8704018F0AABDF8B54DF63A
:103E20008867C2F2000705463B7C0E4614467BB30A
:103E300098422DD043F26C101E21C0F2020017F000
:103E400085FE4EF2002000230A222946C2F200001D
:103E500018F0A0FD43F28C100E21C0F2020017F002
:103E600075FE4EF20020397C00230A22C2F20000C7
:103E700018F090FD43F29C100121C0F2020017F0EF
:103E800065FE4EF20020C2F2000018F071FD08E05D
:103E900040F66453C2F201032246186831460BF023
:103EA0006BFB43F2A0101121C0F2020017F04EFE8E
:103EB000230603F0FE43300443F41043013D43F076
:103EC000090300F4FE002D02184305F47065284331
:103ED00016F0B2FF42F60070C0F202000F2117F098
:103EE00035FE4EF20020C2F20000BDE8F84018F0A6
:103EF0003FBD00BFF8B54DF68867C2F20007054622
:103F00003B7C0E4614467BB398422DD043F26C1096
:103F10001E21C0F2020017F019FE4EF2002000230D
:103F20000A222946C2F2000018F034FD43F28C1038
:103F30000E21C0F2020017F009FE4EF20020397C7B
:103F400000230A22C2F2000018F024FD43F29C1064
:103F50000121C0F2020017F0F9FD4EF20020C2F27A
:103F6000000018F005FD07E040F66453C2F20103BB
:103F7000314618680BF0C8FC43F2B4101221C0F2AD
:103F8000020017F0E3FD230603F0FE43300443F480
:103F90000043013D43F0080300F4FE002D021843E6
:103FA00005F47065284316F047FF42F60070C0F232
:103FB00002000F2117F0CAFD4EF20020C2F20000ED
:103FC000BDE8F84018F0D4BCF8B54DF68865C2F2EB
:103FD000000504462B7C0E4617467BB398422DD035
:103FE00043F26C101E21C0F2020017F0AFFD4EF23A
:103FF000002000230A222146C2F2000018F0CAFC69
:1040000043F28C100E21C0F2020017F09FFD4EF219
:104010000020297C00230A22C2F2000018F0BAFC1A
:1040200043F29C100121C0F2020017F08FFD4EF206
:104030000020C2F2000018F09BFC08E040F6645338
:10404000C2F201033A46186831460BF095FA43F282
:10405000C8101121C0F20200013C17F077FDE1B257
:104060000F2915D840F67475C2F2010541F0900190
:10407000A86C03681B689847A86C036806F07F016A
:104080001B689847A86C036807F07F011B68984776
:1040900042F6A870C0F202000F2117F057FD4EF251
:1040A0000020C2F20000BDE8F84018F061BC00BF7B
:1040B000F8B54DF68865C2F2000504462B7C0E4625
:1040C00017467BB398422DD043F26C101E21C0F2EC
:1040D000020017F03BFD4EF2002000230A22214689
:1040E000C2F2000018F056FC43F28C100E21C0F210
:1040F000020017F02BFD4EF20020297C00230A223B
:10410000C2F2000018F046FC43F29C100121C0F2FC
:10411000020017F01BFD4EF20020C2F2000018F062
:1041200027FC07E040F66453C2F2010331461868E9
:104130000BF0EAFB43F2DC101221C0F20200013C5A
:1041400017F004FDE1B20F2915D840F67475C2F2DC
:10415000010541F08001A86C03681B689847A86CB2
:10416000036806F07F011B689847A86C036807F096
:104170007F011B68984742F6A870C0F202000F2129
:1041800017F0E4FC4EF20020C2F20000BDE8F84057
:1041900018F0EEBB38B540F66453C2F20103044692
:1041A0001B6801F5005543F2F0100D21C3F884504F
:1041B000C0F2020017F0CAFC611EC9B20F2915D85F
:1041C00040F67474C2F2010441F0E001A06C03688F
:1041D0001B689847A06C036805F07F011B6898472F
:1041E000A06C0368C5F3C6111B68984742F6A87017
:1041F000C0F202000F2117F0A9FC4EF20020C2F21B
:104200000000BDE8384018F0B3BB00BF10B442F660
:1042100090640023C0F202044172026104600372E0
:10422000C36041B1194600E0026942F82310427AA6
:1042300001339A42F8DC48F23463C2F201031A688F
:104240000AB90CE01A465369002BFBD150610023D8
:1042500043618380C38083725DF8044B70471860AC
:10426000F5E700BFF8B540F67474C2F2010447F6F2
:104270001221A06C0368DB69984743F6F5670320B9
:1042800043F61D6346F6711143F6893640F6B9626E
:1042900084F86400C0F20003C0F20007C0F200011D
:1042A000C0F20006C0F2000240F66550636027606D
:1042B000E1606661A261C0F2000045F65D4340F630
:1042C000E14740F6C95140F69D4640F6E5122061AF
:1042D000C0F20003C0F20007C0F20001C0F2000605
:1042E000C0F2000240F6B970E3612762A160A662E5
:1042F000E262C0F2000040F6AD1340F61D2740F622
:10430000552140F68D2640F6C522C0F200022063FA
:10431000C0F20003C0F20007C0F20001C0F20006C4
:104320004EF2002543F200206264C2F2000563638E
:10433000A76300234FF6FF77E16326641721C0F2DD
:10434000020084F84C3084F84E3084F84D30A36578
:10435000636584F8E93084F8663084F8653084F861
:10436000673084F86830E765276617F0EFFB28466A
:1043700018F0FEFA48F21C61C2F2010143F6C97E50
:10438000C0F2000E48F21464C1F800E0C2F2010469
:1043900044F2B10EC0F2000E48F21863C4F800E017
:1043A000C2F2010346F6950EC0F2000E48F2EC5739
:1043B000C3F800E0C2F2010743F6511EC0F2000E3E
:1043C00048F2DC50C7F800E0C2F2010044F2951E4A
:1043D000C0F2000E48F2D856C0F800E0C2F2010662
:1043E00041F2910EC0F2000E48F2FC52C6F800E015
:1043F000C2F2010245F69D4EC0F2000E48F2F451A1
:10440000C2F800E0C2F2010140F61D6EC0F2000EDB
:1044100048F2E854C1F800E0C2F2010443F6B55E88
:10442000C0F2000E48F21063C4F800E0C2F20103CB
:1044300040F6696EC0F2000E48F2F857C3F800E08B
:10444000C2F2010740F6255EC0F2000E48F2C050ED
:10445000C7F800E0C2F2010041F22107C0F20007F4
:1044600048F2F0560760C2F2010648F2D05240F618
:104470002D37C2F20102C0F2000748F2086140F68F
:104480006D303760C2F20101C0F2000048F2C8543A
:1044900048F2C45340F6AD37C2F201031060C2F2D5
:1044A0000104C0F2000740F6ED3640F62D4243F21B
:1044B00018200F60C0F20006C0F20002C0F2020035
:1044C000182126601A6017F041FB2846BDE8F84025
:1044D00018F04EBA4DF20A73C3F6234306EE103AB3
:1044E000437EC17E07EE103A837CB8EEC77A07EEB2
:1044F000903A70B4F8EEE76A27EE067A83B067EE7A
:10450000267A0022FCEEE77A8273CDED017A4273BF
:104510009DF80430027301B10373827E02B14373CC
:10452000027F02B1837390F8213090F8231007EED8
:10453000103A4DF20A73C3F6234306EE103A037C99
:10454000B8EEC77A07EE903A27EE067AF8EEE76AF9
:1045500067EE267AFCEEE77ACDED017A9DF804301D
:1045600021B1017B994238BF1946017390F822109E
:1045700021B1417B994238BF1946417390F82440DC
:1045800024B1817B8B4238BF0B468373437FC17F4D
:1045900007EE103A4DF20A73C3F6234306EE103AC3
:1045A000437CB8EEC77A07EE903A27EE067AF8EE2B
:1045B000E76A67EE267AFCEEE77ACDED017A9DF8A0
:1045C000043021B1017B994238BF19460173817FC4
:1045D00021B1417B994238BF1946417390F82010B0
:1045E00021B1857BAB4238BF2B46837390F82530D1
:1045F00090F8275007EE103A4DF20A73C3F62343A2
:1046000006EE103AC37BB8EEC77A07EE903A27EE73
:10461000067AF8EEE76A67EE267AFCEEE77ACDEDE9
:10462000017A9DF8043025B1057B9D4238BF1D46B7
:10463000057390F8265025B1457B9D4238BF1D4635
:10464000457390F8285025B1867BB34238BF334676
:10465000837322B919B914B90DB97F23837303B0D9
:1046600070BC70471D2810B50B4600F0E983024668
:1046700022D92C2800F064813FD8242800F0EE8352
:1046800040F2A880282800F0748300F2D680262803
:1046900000F0F58140F2D58248F28C34C2F2010478
:1046A00042F27501C0F2000104222720C4F89C30B8
:1046B00015F0F4F8012010BD0E2800F097833AD8C9
:1046C000062800F0A1836CD90A2800F0058300F2C7
:1046D0000781082800F07E8140F2758248F28C3410
:1046E000C2F2010442F68D41C0F200010422092009
:1046F000636215F0D3F8012010BD342800F0BD83AB
:1047000036D8302800F0638300F2D6802E2800F0DF
:10471000528140F2018248F28C34C2F2010442F22A
:10472000D551C0F2000104222F20C4F8BC3015F08E
:10473000B5F8012010BD152800F0748364D919283C
:1047400000F0FA8100F2A580172800F08A8140F27B
:10475000D18248F28C34C2F2010441F26161C0F2AC
:10476000000104221820236615F098F8012010BDDE
:10477000382800F0CE8275D8362800F0398140F212
:104780007F8248F28C34C2F2010442F63531C0F225
:10479000000104223720C4F8DC3015F07FF8012036
:1047A00010BD022800F0018240F27881042800F058
:1047B0004B8140F2BD8248F28C34C2F2010441F2D6
:1047C0005D41C0F2000104220520636115F066F826
:1047D000012010BD202800F0448240F28981222867
:1047E00000F0238140F2D48248F28C34C2F20104FA
:1047F00041F6C551C0F2000104222320C4F88C30D8
:1048000015F04CF8012010BD112800F0B18140F2E4
:104810005A81132800F0FB8040F2B88148F28C34B2
:10482000C2F2010443F2F131C0F20001042214206B
:10483000236515F033F8012010BD2A2800F0AC8064
:1048400040F2E08148F28C34C2F2010442F2253198
:10485000C0F2000104222B20C4F8AC3015F01EF881
:10486000012010BD3A2800F08880C0F072823B28F9
:1048700040F06D8248F28C34C2F2010443F6A50187
:10488000C0F200010422C4F8EC3015F007F8012052
:1048900010BD1B2863D040F28B8248F28C34C2F2E8
:1048A000010441F61111C0F2000104221C2023670B
:1048B00014F0F4FF012010BD322824D040F2928180
:1048C00048F28C34C2F2010442F68501C0F20001C4
:1048D00004223320C4F8CC3014F0E0FF012010BDD6
:1048E0000C281FD040F29E8148F28C34C2F20104A1
:1048F00042F63D71C0F2000104220D20636314F002
:10490000CDFF012010BD48F28C34C2F2010442F206
:10491000D971C0F200010422C4F8C83014F0BEFFFF
:10492000012010BD48F28C34C2F2010442F69161BC
:10493000C0F200010422236314F0B0FF012010BD77
:1049400048F28C34C2F2010442F2D131C0F20001CB
:104950000422C4F8B03014F0A1FF012010BD48F2C9
:104960008C34C2F2010441F66501C0F20001042258
:10497000E36614F093FF012010BD48F28C34C2F2BC
:10498000010443F2F971C0F200010422C4F8E830D6
:1049900014F084FF012010BD48F28C34C2F20104EF
:1049A00042F27921C0F200010422C4F8A83014F0C8
:1049B00075FF012010BD48F28C34C2F2010442F2AE
:1049C0002951C0F200010422C4F8B83014F066FF87
:1049D000012010BD48F28C34C2F2010442F6E131EC
:1049E000C0F200010422236214F058FF012010BD20
:1049F00048F28C34C2F2010442F68921C0F200016F
:104A00000422C4F8D83014F049FF012010BD48F248
:104A10008C34C2F2010443F24531C0F20001042299
:104A2000E36414F03BFF012010BD48F28C34C2F265
:104A3000010441F61951C0F200010422C4F8883083
:104A400014F02CFF012010BD48F28C34C2F2010496
:104A500041F2B131C0F20001236114F01FFF0120C7
:104A600010BD48F28C34C2F2010443F2F551C0F299
:104A700000010422E36514F011FF012010BD48F28B
:104A80008C34C2F2010441F6C971C0F20001042263
:104A9000C4F8983014F002FF012010BD002800F087
:104AA000FF80012840F0538148F28C34C2F20104A7
:104AB00041F2AD11C0F2000104220120636014F044
:104AC000EDFE012010BD0F2800F0F880102840F006
:104AD0003E8148F28C34C2F2010443F24111C0F22B
:104AE000000104221020236414F0D8FE012010BD20
:104AF0001E282FD01F2840F02A8148F28C34C2F2A1
:104B0000010441F61531C0F2000104221F20E367C1
:104B100014F0C4FE012010BD48F28C34C2F201042E
:104B200042F27D41C0F2000104222D20C4F8B430CD
:104B300014F0B4FE012010BD48F28C34C2F201041E
:104B400041F20D71C0F200010422636614F0A6FE6A
:104B5000012010BD48F28C34C2F2010441F66921F3
:104B6000C0F200010422A36714F098FE012010BDDA
:104B700048F28C34C2F2010443F2ED11C0F200019C
:104B80000422636414F08AFE012010BD48F28C34C4
:104B9000C2F2010443F29921C0F200010422122062
:104BA000A36414F07BFE012010BD48F28C34C2F2E5
:104BB000010441F25921C0F200010422A36014F063
:104BC0006DFE012010BD48F28C34C2F2010441F2A6
:104BD000B551C0F2000104220720E36114F05EFE2B
:104BE000012010BD48F28C34C2F2010442F22D7152
:104BF000C0F2000104223120C4F8C43014F04EFE8B
:104C0000012010BD48F28C34C2F2010442F2CD11F1
:104C1000C0F2000104222920C4F8A43014F03EFEA2
:104C2000012010BD48F28C34C2F2010442F6E55175
:104C3000C0F2000104220B20E36214F02FFE0120D9
:104C400010BD48F28C34C2F2010441F61D71C0F26D
:104C5000000104222520C4F8943014F01FFE012026
:104C600010BD48F28C34C2F2010441F6C131C0F2E9
:104C700000010422C4F8803014F010FE012010BDA1
:104C800048F28C34C2F2010442F6DD11C0F2000198
:104C900004223520C4F8D43014F000FE012010BDE9
:104CA00048F28C34C2F2010441F20111C0F2000159
:104CB0000422236014F0F2FD012010BD48F28C3470
:104CC000C2F2010443F29501C0F200010422E36341
:104CD00014F0E4FD012010BD48F28C34C2F201044E
:104CE00042F63951C0F200010422A36214F0D6FD4D
:104CF000012010BD48F28C34C2F2010443F2495144
:104D0000C0F2000104221620A36514F0C7FD0120A3
:104D100010BD48F28C34C2F2010443F2A161C0F22A
:104D200000010422C4F8E03014F0B8FD012010BDE9
:104D300048F28C34C2F2010441F20531C0F20001A4
:104D400004220320E36014F0A9FD012010BD00201F
:104D500010BD48F28C34C2F2010443F24D71C0F22E
:104D6000000104223920C4F8E43014F097FD01203A
:104D700010BD48F28C34C2F2010442F22111C0F29B
:104D800000010422C4F8A03014F088FD012010BDF9
:104D900048F28C34C2F2010441F66D41C0F20001C8
:104DA00004222120C4F8843014F078FD012010BDC5
:104DB00048F28C34C2F2010441F2B971C0F2000130
:104DC00004221A20A36614F069FD012010BD48F2E8
:104DD0008C34C2F2010442F28161C0F2000104226B
:104DE000C4F8C03014F05AFD012010BD48F28C34D4
:104DF000C2F2010442F6E971C0F200010422A36389
:104E000014F04CFD012010BD48F28C34C2F20104B4
:104E100041F20951C0F200010422A36114F03EFDE9
:104E2000012010BD48F28C34C2F2010443F29D41CE
:104E3000C0F200010422636514F030FD012010BDB2
:104E400048F28C34C2F2010441F6BD11C0F20001F7
:104E50000422636714F022FD012010BD48F28C3457
:104E6000C2F2010441F67161C0F200010422C4F8EB
:104E7000903014F013FD012010BD48F28C34C2F2C2
:104E8000010442F63111C0F200010422C4F8D0300E
:104E900014F004FD012010BDF8B5044616460D4679
:104EA0000846022114F03EFF3046022114F03AFF7A
:104EB00044F2B443C0F20203012253F835002272D7
:104EC00000F50071216053F8361062724FF462539E
:104ED00001F5007762F31F4300226760E260013B47
:104EE000FDD190F8003291F8002203F00103D207BF
:104EF00044BF43F00203DBB21D2DA37200F00F8408
:104F000022D92C2D00F070813FD8242D00F016847A
:104F100040F2A880282D00F0968300F2D680262D3E
:104F200000F00D8240F2F28248F28C33C2F20103AB
:104F300042F27501C0F2000104222720C3F89C4010
:104F400014F0ACFC012326E10E2D00F0BB833AD80F
:104F5000062D00F0C6836CD90A2D00F0258300F2DF
:104F60000881082D00F08F8140F2928248F28C3344
:104F7000C2F2010342F68D41C0F200010422092071
:104F80005C6214F08BFC012305E1342D00F0E68314
:104F900036D8302D00F0868300F2D7802E2D00F019
:104FA000628140F21A8248F28C33C2F2010342F26B
:104FB000D551C0F2000104222F20C3F8BC4014F0E8
:104FC0006DFC0123E7E0152D00F09A8364D9192DBB
:104FD00000F0138200F2A680172D00F0A18140F2AC
:104FE000F28248F28C33C2F2010341F26161C0F2F5
:104FF0000001042218201C6614F050FC0123CAE0B2
:10500000382D00F0EF8275D8362D00F04B8140F23C
:105010009D8248F28C33C2F2010342F63531C0F270
:10502000000104223720C3F8DC4014F037FC0123D0
:10503000B1E0022D00F01D8240F29181042D00F0BC
:10504000608140F2DF8248F28C33C2F2010341F208
:105050005D41C0F20001042205205C6114F01EFCD9
:10506000012398E0202D00F0618240F2A281222DE0
:1050700000F0378140F2F78248F28C33C2F201032C
:1050800041F6C551C0F2000104222320C3F88C4030
:1050900014F004FC01237EE0112D00F0CC8140F2DD
:1050A0007381132D00F00E8140F2D48148F28C33CD
:1050B000C2F2010343F2F131C0F2000104221420D4
:1050C0001C6514F0EBFB012365E02A2D00F0BB808A
:1050D00040F2FD8148F28C33C2F2010342F22531E5
:1050E000C0F2000104222B20C3F8AC4014F0D6FB20
:1050F000012350E03A2D00F09680C0F094823B2DC1
:1051000040F08F8248F28C33C2F2010343F6A501CE
:105110002846C0F200010422C3F8EC4014F0BEFBA4
:10512000012338E01B2D6FD040F2AD8248F28C3362
:10513000C2F2010341F61111C0F2000104221C2049
:105140001C6714F0ABFB012325E0322D2DD040F27B
:10515000AE8148F28C33C2F2010342F68501C0F2FF
:10516000000104223320C3F8CC4014F097FB012344
:1051700011E00C2D29D040F2BA8148F28C33C2F2F2
:10518000010342F63D71C0F2000104220D205C6370
:1051900014F084FB0123237430462146FFF762FAA2
:1051A000237C184420742046F8BD48F28C33C2F2A8
:1051B000010342F2D9712846C0F200010422C3F86B
:1051C000C84014F06BFB0123E5E748F28C33C2F2D0
:1051D000010342F691612846C0F2000104221C63DB
:1051E00014F05CFB0123D6E748F28C33C2F20103D2
:1051F00042F2D1312846C0F200010422C3F8B04087
:1052000014F04CFB0123C6E748F28C33C2F20103D1
:1052100041F665012846C0F200010422DC6614F064
:105220003DFB0123B7E748F28C33C2F2010343F29E
:10523000F9712846C0F200010422C3F8E84014F0D6
:105240002DFB0123A7E748F28C33C2F2010342F29F
:1052500079212846C0F200010422C3F8A84014F0C6
:105260001DFB012397E748F28C33C2F2010342F29F
:1052700029512846C0F200010422C3F8B84014F0B6
:105280000DFB012387E748F28C33C2F2010342F69B
:10529000E1312846C0F2000104221C6214F0FEFA3B
:1052A000012378E748F28C33C2F2010342F68921E8
:1052B0002846C0F200010422C3F8D84014F0EEFAE8
:1052C000012368E748F28C33C2F2010343F245310F
:1052D0002846C0F200010422DC6414F0DFFA012346
:1052E00059E748F28C33C2F2010341F619512846BE
:1052F000C0F200010422C3F8884014F0CFFA012361
:1053000049E748F28C33C2F2010341F2B131C0F2F5
:1053100000012A4628461C6114F0C0FA01233AE72E
:1053200048F28C33C2F2010343F2F5512846C0F231
:1053300000010422DC6514F0B1FA01232BE748F2E6
:105340008C33C2F2010341F6C9712846C0F2000154
:105350000422C3F8984014F0A1FA01231BE7002DA2
:1053600000F00481012D40F05C8148F28C33C2F2E0
:10537000010341F2AD11C0F20001042201205C6082
:1053800014F08CFA012306E70F2D00F0FE80102D9B
:1053900040F0478148F28C33C2F2010343F24111DD
:1053A000C0F20001042210201C6414F077FA0123DB
:1053B000F1E61E2D30D01F2D40F0338148F28C33A2
:1053C000C2F2010341F61531C0F2000104221F2090
:1053D000DC6714F063FA0123DDE648F28C33C2F295
:1053E000010342F27D41C0F2000104222D20C3F8E6
:1053F000B44014F053FA0123CDE648F28C33C2F2E4
:10540000010341F20D712846C0F2000104225C66DE
:1054100014F044FA0123BEE648F28C33C2F20103D1
:1054200041F669212846C0F2000104229C6714F06D
:1054300035FA0123AFE648F28C33C2F2010343F29E
:10544000ED112846C0F2000104225C6414F026FA33
:105450000123A0E648F28C33C2F2010343F2992102
:10546000C0F20001042212209C6414F017FA0123F8
:1054700091E648F28C33C2F2010341F259212846E9
:10548000C0F2000104229C6014F008FA012382E6B5
:1054900048F28C33C2F2010341F2B551C0F200016F
:1054A00004220720DC6114F0F9F9012373E648F2C5
:1054B0008C33C2F2010342F22D71C0F200010422CA
:1054C0003120C3F8C44014F0E9F9012363E648F23F
:1054D0008C33C2F2010342F2CD11C0F2000104226A
:1054E0002920C3F8A44014F0D9F9012353E648F267
:1054F0008C33C2F2010342F6E551C0F200010422EE
:105500000B20DC6214F0CAF9012344E648F28C3324
:10551000C2F2010341F61D71C0F2000104222520F0
:10552000C3F8944014F0BAF9012334E648F28C33FE
:10553000C2F2010341F6C1312846C0F20001042243
:10554000C3F8804014F0AAF9012324E648F28C3312
:10555000C2F2010342F6DD11C0F20001042235203F
:10556000C3F8D44014F09AF9012314E648F28C33BE
:10557000C2F2010341F201112846C0F200010422E7
:105580001C6014F08BF9012305E648F28C33C2F25B
:10559000010343F295012846C0F200010422DC63B6
:1055A00014F07CF90123F6E548F28C33C2F20103D2
:1055B00042F639512846C0F2000104229C6214F0E0
:1055C0006DF90123E7E548F28C33C2F2010343F29F
:1055D0004951C0F20001042216209C6514F05EF9C6
:1055E0000123D8E548F28C33C2F2010343F2A161F2
:1055F0002846C0F200010422C3F8E04014F04EF93E
:105600000123C8E548F28C33C2F2010341F20531AF
:10561000C0F2000104220320DC6014F03FF90123F2
:10562000B9E50023B7E548F28C33C2F2010343F237
:105630004D71C0F2000104223920C3F8E44014F097
:105640002DF90123A7E548F28C33C2F2010342F29F
:1056500021112846C0F200010422C3F8A04014F032
:105660001DF9012397E548F28C33C2F2010341F69C
:105670006D41C0F2000104222120C3F8844014F0DF
:105680000DF9012387E548F28C33C2F2010341F2A0
:10569000B971C0F2000104221A209C6614F0FEF8D1
:1056A000012378E548F28C33C2F2010342F28161B2
:1056B0002846C0F200010422C3F8C04014F0EEF8FE
:1056C000012368E548F28C33C2F2010342F6E97126
:1056D0002846C0F2000104229C6314F0DFF8012385
:1056E00059E548F28C33C2F2010341F209512846D0
:1056F000C0F2000104229C6114F0D0F801234AE5B5
:1057000048F28C33C2F2010343F29D412846C0F2B5
:10571000000104225C6514F0C1F801233BE548F266
:105720008C33C2F2010341F6BD112846C0F20001DC
:1057300004225C6714F0B2F801232CE548F28C33A4
:10574000C2F2010341F671612846C0F20001042251
:10575000C3F8904014F0A2F801231CE548F28C3302
:10576000C2F2010342F631112846C0F200010422C0
:10577000C3F8D04014F092F801230CE5F0B50746C9
:1057800043F23420A9B00E46C0F202000B2116F0FD
:10579000DDF94EF200203146C2F2000000230A2259
:1057A00017F0F8F843F24020C0F20200012116F091
:1057B000CDF9B6B100252C4643F20C600121C0F2B0
:1057C000020016F0C3F901344EF20020795DE4B214
:1057D000C2F2000000230A2217F0DCF8A642254698
:1057E000EAD84DF688644EF20020C2F20004C2F2FC
:1057F000000017F0BDF8237CBBB3BD7805F00F05A2
:105800000135AB4231D043F26C101E21C0F20200D0
:1058100016F09CF94EF2002000230A222946C2F21B
:10582000000017F0B7F843F28C100E21C0F202000E
:1058300016F08CF94EF2002000230A22217CC2F2DD
:10584000000017F0A7F843F29C100121C0F20200FB
:1058500016F07CF94EF20020C2F2000017F088F832
:1058600043F24420C0F2020006E07B78432B0ED0C6
:1058700043F26020C0F202001B2116F067F94EF2DD
:105880000020C2F2000017F073F829B0F0BD43F217
:105890007C200C21C0F2020016F058F9B9784EF2C3
:1058A0000020C1F30211C2F2000017F003F843F226
:1058B00040200121C0F2020016F048F94EF200200B
:1058C000C2F2000017F054F8072E32D0A32E0ED0EB
:1058D00043F2E8302021C0F2020016F037F94EF210
:1058E0000020C2F2000017F043F829B0F0BD43F2E7
:1058F0001C301321C0F2020097F8A14016F026F9DF
:105900004EF20020C2F2000017F032F897F8A230F1
:10591000F72B00F0048143F230301D21C0F2020069
:1059200016F014F94EF20020C2F2000017F020F831
:10593000ABE7FB78C3F38403002B6ED1BB79F72B65
:1059400040F005813A797B7940F66454C2F2010453
:1059500002F07F0203F07F0320683A717B710AF046
:10596000B5F9FA783B792068797902F0030203EB04
:10597000C213034483F830110AF09CF8FC783B7999
:1059800003EBC41404F0FF0443F2EC20C0F2020065
:10599000052116F0DBF8FB7813F07C0F06D143F2FB
:1059A000F420C0F20200092116F0D0F843F20030D2
:1059B0000B21C0F2020016F0C9F84EF200200023BD
:1059C0000A223979C2F2000016F0E4FF43F21830DF
:1059D0000321C0F2020016F0B9F84EF200207979E6
:1059E00000230A22C2F2000016F0D4FF43F20C306A
:1059F0000F21C0F2020016F0A9F84EF20020214655
:105A000000230A22C2F2000016F0C4FF4EF200206A
:105A1000C2F2000016F0ACFF37E7022B40F0A58081
:105A2000BB79F72B40F0938040F66453C2F2010338
:105A300039791B687A794AF6AB2001F07F01C3F609
:105A4000AA5007EE100A581802F07F0239717A71D5
:105A500080F88C2193F8CE4193F8CB5193F8D00184
:105A600093F8CC61C3F8885093F8CD5193F8D221C4
:105A700093F8D411C3F88C6083F89D5004F00106AC
:105A8000C4F34005C4F3800493F8CFE183F89E602B
:105A900083F89F5000F0010683F8A040C0F3400552
:105AA00093F8D14183F8A1E0C0F3800083F8A260AD
:105AB00002F0010E83F8A35083F8A40093F8D351A9
:105AC00083F8A540C1F3400001F00104C2F3400691
:105AD000C2F3800283F8A82083F8AA4083F8A6E0E6
:105AE00083F8A76083F8A95083F8AB0093F8D52119
:105AF000520607EE902AF8EEE77AC1F3800167EECE
:105B0000877A83F8AC10FDEEE77A03F18400C3EDE9
:105B1000267AFEF7DFFC3C795C34E4B234E7FB78AC
:105B200013F07F0362D139797A7942EAC1129B2A54
:105B300020D043F27430C0F20200362116F006F88D
:105B40004EF20020C2F2000016F012FF9DE643F272
:105B5000C4202621C0F2020015F0F8FF4EF200200A
:105B6000C2F2000016F004FF8FE643F28C20C0F270
:105B70000200E2E71A4607F1A0007B1D13F8011F9F
:105B80009842A2EB0102F9D165B202F07F04AC4267
:105B90003AD043F2AC30C0F20200FAF7FDFE4EF20A
:105BA0000020294600231022C2F2000016F0F2FE67
:105BB00043F2D0300321C0F2020015F0C7FF4EF2CD
:105BC0000020214600231022C2F2000016F0E2FE5F
:105BD00043F240200121C0F2020015F0B7FF4EF25F
:105BE0000020C2F2000016F0C3FE4EE643F2503031
:105BF0002121C0F2020015F0A9FF4EF20020C2F2EE
:105C0000000016F0B5FE40E6B91D01A89B2213F076
:105C100049FA40F650700DF195010A22C2F20100D6
:105C20001CF03CFE43F2D430C0F20200FAF7B4FE9E
:105C300040F65070C2F20100FAF7AEFE43F2DC30DB
:105C4000C0F20200FAF7A8FE40F66453C2F2010364
:105C500001A918680AF080F917E600BF38B50446B4
:105C60000D46FFF78BFD43F20C401021C0F20200FD
:105C700015F06CFF29462046002215F031F942F656
:105C80000070C0F202000F2115F060FF4EF20020FC
:105C9000C2F20000BDE8384016F06ABE70B540F6AA
:105CA00074750E460446C2F20105FFF767FD43F224
:105CB00020401021C0F2020015F048FFA86C0368D4
:105CC000F021DB6C984746B12644A86C14F8011B00
:105CD00003681B689847A642F7D1A86C0368F721B0
:105CE000DB6C984742F6A870C0F202000F2115F055
:105CF0002DFF4EF20020C2F20000BDE8704016F009
