:100000000000032089BE01006DBE010025BE010075
:1000100025BE010025BE010025BE010025BE010050
:1000200025BE010025BE010025BE01006DBE0100F8
:100030006DBE010025BE010041B30100B9B501004C
:100040006DBE01006DBE01006DBE01006DBE010000
:100050006DBE01006DBE01006DBE01006DBE0100F0
:100060006DBE01006DBE01006DBE01006DBE0100E0
:100070006DBE01006DBE01006DBE01006DBE0100D0
:100080006DBE01006DBE01006DBE01006DBE0100C0
:100090006DBE01006DBE01006DBE01006DBE0100B0
:1000A0009D7D0100F97E01006DBE01006DBE010065
:1000B0006DBE01006DBE01006DBE0100DDD001000E
:1000C0006DBE01003DF201006DBE010099F301001B
:1000D0006DBE0100C9F401006DBE01006DBE0100DE
:1000E0006DBE01006DBE01006DBE01006DBE010060
:1000F0006DBE01006DBE01006DBE01006DBE010050
:100100006DBE01006DBE01006DBE01006DBE01003F
:100110006DBE010011D401006DBE01006DBE010075
:100120006DBE01006DBE01006DBE01006DBE01001F
:100130006DBE01006DBE01006DBE01006DBE01000F
:100140008DB001006DBE0100F9F501006DBE01002A
:100150006DBE01006DBE01006DBE01006DBE0100EF
:100160006DBE01006DBE0100558001006DBE010035
:100170006DBE01006DBE01006DBE01006DBE0100CF
:100180006DBE0100CD4701006DBE01006DBE0100D6
:100190006DBE01006DBE010029F701006DBE0100BA
:1001A0006DBE01006DBE01006DBE01006DBE01009F
:1001B0006DBE01006DBE01006DBE01006DBE01008F
:1001C0006DBE01006DBE01006DBE01006DBE01007F
:1001D000FFFFFFFFFFFFFFFFFFFFFFFFFFFFFFFF2F
:10040000FFFFFFFFFFFFFFFFFFFFFFFFDEF9FFFF23
:1004100010B5054C237833B9044B13B10448AFF33E
:1004200000800123237010BD00F0002000000000B8
:10043000D4610200084B10B51BB108490848AFF35E
:1004400000800848036803B910BD074B002BFBD0A0
:10045000BDE81040184700BF0000000004F0002075
:10046000D4610200F4E9002000000000704700BFE2
:1004700010B54FF4097104461BF0CAFE204610BDAA
:1004800070B54FF06A522DED028B064644F2D82328
:1004900008EE902A40F6DB72C0F202034FF61A050E
:1004A00040F6DA70C4F24902C2F20005C3F64920F0
:1004B00008EE102A336000240FE007EE904AF8EEB1
:1004C000E77A77EE807A67EEA87A67EE887A27EE89
:1004D000800A1FF051FC10EE100A22F00FFC41ECD4
:1004E000100B1FF0B1FA00230022CCF2900351EC64
:1004F000100B22F057FC41EC100B1FF0B9FA51EC35
:10050000100B22F027FF0134B4F5806FB6EE000A1D
:1005100025F8020FD1D14FF06A534FF21A0508EEB9
:10052000103AC2F20005002407EE904AF8EEE77A8E
:10053000013467EE887A17EE900A22F0DFFB9FED18
:10054000140B41EC110B1FF017FD002351EC100BA5
:100550000022C3F6F07322F071FA00230022C4F2E5
:10056000B00322F01FFC22F015FF22F0C7FB41EC84
:10057000100B1FF07DFA51EC100B22F0EBFEB4F5DE
:10058000806F25F8020FCFD1BDEC028B304670BDD5
:100590000000000000000040704700BF10B54FF49D
:1005A000097104461BF034FE204610BD2DE9F04FC2
:1005B0004DF63456C2F200060A9D0B989DF8307035
:1005C000B6F800C044F2F024C0F20204C5EB000A01
:1005D000002F18BF0C466FEA0C0B0AF1200A4DF6EB
:1005E00034194DF63438043A271FA1F1040E0FFADE
:1005F0008BFB4FEAAA1AC2F20009C2F200080026D9
:1006000027E0B4F5007F02D08CB3C943C9B239F8F2
:1006100011104CEA010101EBC00080B20BEA0004AA
:10062000E143C9B2241238F8111001F58061490084
:10063000E14010EA0C0F18BFC94357F8044F09985E
:1006400009B2013604EB8131402E03444EF8041FF9
:1006500010D052F8041F1944891301F44074554412
:10066000B4F5807FC9B2A8B2CBD1C943C9B239F8B9
:100670001110D0E7BDE8F08F2DE9F04F4DF634555D
:10068000C2F2000509982E880A9D9DF82C7044F24C
:10069000F024C0F20204C0EB050E002F14BF0F4679
:1006A00027466FEA06090EF1200E4DF634184DF676
:1006B000343C3C1F0D1F0FFA89F9FC374FEAAE1E80
:1006C000C2F20008C2F2000C2AE0BBF5007F04D0A1
:1006D000BBF1000F30D0C943C9B238F81110314313
:1006E00001EBCA0A1FFA8AFA09EA0A0B6FEA0B0140
:1006F000C9B24FEA2B2B3CF8111001F5806149007B
:100700001AEA060F21FA0BF154F804AF18BFC943D7
:1007100009B20AEB8131BC421A4445F8041F0ED0DD
:10072000911301F4407B7044BBF5807F1FFA80FA7F
:10073000C9B2CAD1C943C9B238F81110D0E7BDE86F
:10074000F08F00BF2DE9F04F4DF6345083B0C2F268
:1007500000000D9EB0F800C00C9C9DF840A00F9FBB
:100760000E980E9D019344F2F02EC0F2020EC4EBDF
:10077000060B6FEA0C06BAF1000F14BF8A46F24668
:1007800033B20BF1200B4DF634194DF63438AAF183
:10079000040600686D680093A1F1040E0AF1FC0ADA
:1007A0004FEAAB1B0137C2F20009C2F2000829E090
:1007B000B0F5007F02D098B3DB43DBB239F81330D9
:1007C0004CEA030303EBC101009B89B203EA010079
:1007D000C343DBB2001238F8133003F580635B00CB
:1007E000C34011EA0C0F18BFDB4356F8041F0198F1
:1007F0001BB29B031944564502444EF8041F284679
:1008000011D01D4643193B4113449B1303F4407020
:100810005C44B0F5807FDBB2A1B2C9D1DB43DBB26F
:1008200039F81330CEE70E9A1560536003B0BDE877
:10083000F08F00BF2DE9F04F45F23C4403EB43033A
:10084000C0F2020404EBC3050646144689460FCDE8
:1008500091B00AAF0FC795E80300002387E80300B3
:10086000012704F160088DF8247007978DF8253072
:100870008DF826300AAD48E00AF1FF3101EB011195
:1008800006EB0111133121F00F0194E80140C0146F
:10089000C0F500706060BEF1000F3FD0BEF5FE7F76
:1008A0003EDA10AFBA441AF81CCCBCF1000F04D0E9
:1008B00012F1000C18BF4FF0010CC3F301123AB152
:1008C00010AF07EB020B1BF81CBCBBF1000F34D1BF
:1008D00003F0C003C02B02D11B9B0F2B41DDA3688B
:1008E000E2680190CDF808C0CDF800E03046FFF78F
:1008F000C3FE9DF81C300AF81C3CE368A26803EBB9
:100900008213E3601034A04514D055F8043B13F073
:10091000030A03F00402AFD14946B6E740F2FF1ED6
:10092000B0F5FE7FBDDB002AE7D110AB9A440AF890
:100930001C2CE2E711B0BDE8F08F013A02EB021285
:10094000E368CDF80CC006EB02120290CDF804E08B
:10095000A0680090133222F00F023046FFF726FE07
:10096000C7E71F46E268A36803971A9F0190CDF876
:1009700010C00297CDF800E03046FFF7E3FEB8E77D
:1009800000207047704700BF704700BF704700BF2E
:10099000704700BF704700BF10B504461AF0F8FA60
:1009A000204610BD10B5044623F0CAF90146204682
:1009B000BDE810401EF046BA44F2884008B5182140
:1009C000C0F202001EF03EFA41F69853C2F2010353
:1009D000FB21986C03681B68984744F2A4400F21E0
:1009E000C0F202001EF02EFA4FF60F301DF0A0FBF1
:1009F00044F2B440C0F202000F211EF023FA4EF27E
:100A0000C000C2F20000BDE808401AF0CBBE00BF33
:100A100044F2C44008B51421C0F202001EF012FADC
:100A200041F69853C2F20103FC21986C03681B68DD
:100A3000984744F2A4400F21C0F202001EF002FACF
:100A40004FF60F401DF074FB44F2B440C0F20200B8
:100A50000F211EF0F7F94EF2C000C2F20000BDE80F
:100A600008401AF09FBE00BF44F2DC4008B51D21CB
:100A7000C0F202001EF0E6F941F69853C2F20103FB
:100A8000FE21986C03681B68984744F2A4400F212C
:100A9000C0F202001EF0D6F94FF60F601DF048FBC1
:100AA00044F2B440C0F202000F211EF0CBF94EF226
:100AB000C000C2F20000BDE808401AF073BE00BFDB
:100AC00044F2FC4008B51621C0F202001EF0BAF94B
:100AD00041F2E040C2F201004FF20F6119F098F9C3
:100AE00044F214501421C0F202001EF0ABF94FF290
:100AF0000F601DF01DFB44F2B440C0F202000F2154
:100B00001EF0A0F94EF2C000C2F20000BDE808409D
:100B10001AF048BE44F22C5008B51521C0F202006C
:100B20001EF090F941F69853C2F20103FA21986C35
:100B300003681B68984744F2A4400F21C0F20200EA
:100B40001EF080F94FF60F201DF0F2FA44F2B44087
:100B5000C0F202000F211EF075F94EF2C000C2F281
:100B60000000BDE808401AF01DBE00BF38B544F2D1
:100B700044504EF2C00541F2D4441021C2F20104A7
:100B8000C2F20005C0F202001EF05CF928461AF01D
:100B900009FE20680EF02EFD20680EF037FC20685C
:100BA0000EF048FC44F258501B21C0F202001EF027
:100BB00049F941F69853C2F20103FF21986C03688A
:100BC0001B68984744F2A4400F21C0F202001EF0B7
:100BD00039F94FF60F701DF0ABFA44F2B440C0F291
:100BE00002000F211EF02EF92846BDE838401AF009
:100BF000D9BD00BF10B50446240444F2745004F477
:100C0000FE041521C0F2020044F473441EF01AF9E8
:100C100044F0020441F2E0402146C2F2010019F022
:100C2000F7F844F214501421C0F202001EF00AF941
:100C300020461DF07DFA44F2B440C0F202000F21BC
:100C40001EF000F94EF2C000C2F20000BDE81040F4
:100C50001AF0A8BD44F28C5008B51321C0F202006E
:100C60001EF0F0F841F2E040C2F201004FF60F3101
:100C700019F0CEF844F214501421C0F202001EF014
:100C8000E1F84FF60F301DF053FA44F2B440C0F2D1
:100C900002000F211EF0D6F84EF2C000C2F2000092
:100CA000BDE808401AF07EBD44F2A05008B50F21FF
:100CB000C0F202001EF0C6F841F2E040C2F20100AC
:100CC0004FF60F4119F0A4F844F214501421C0F269
:100CD00002001EF0B7F84FF60F401DF029FA44F25B
:100CE000B440C0F202000F211EF0ACF84EF2C0007A
:100CF000C2F20000BDE808401AF054BD44F2B05002
:100D000008B51821C0F202001EF09CF841F2E04044
:100D1000C2F201004FF60F6119F07AF844F2145054
:100D20001421C0F202001EF08DF84FF60F601DF086
:100D3000FFF944F2B440C0F202000F211EF082F825
:100D40004EF2C000C2F20000BDE808401AF02ABD11
:100D500044F2CC5008B51021C0F202001EF072F827
:100D600041F2E040C2F201004FF60F2119F050F8B5
:100D700044F214501421C0F202001EF063F84FF642
:100D80000F201DF0D5F944F2B440C0F202000F214B
:100D90001EF058F84EF2C000C2F20000BDE8084054
:100DA0001AF000BD38B505464EF2C00444F2E050DA
:100DB000C2F200041E21C0F202001EF043F82946D0
:100DC00000230A2220461AF0FFFC44F200600E21A4
:100DD000C0F202001EF036F84DF63853C2F200039E
:100DE0000A22197C204600231AF0EEFC44F210601F
:100DF0000121C0F202001EF025F820461AF0D2FCB4
:100E0000002038BD10B5044644F214601F21C0F222
:100E1000020004F00F041EF015F844F010044FF225
:100E2000021343EA044441F2E0402146C2F20100C9
:100E300018F0EEFF44F214501421C0F202001EF02C
:100E400001F820461DF074F944F2B440C0F20200EB
:100E50000F211DF0F7FF4EF2C000C2F20000BDE806
:100E600010401AF09FBC00BF44F2346008B5102156
:100E7000C0F202001DF0E6FF41F69853C2F20103F2
:100E8000FA21986C03681B68984744F2A4400F212C
:100E9000C0F202001DF0D6FF41F2E040C2F20100B4
:100EA0004FF60F2118F0B4FF44F21450C0F20200C4
:100EB00014211DF0C7FF4EF2C000C2F20000BDE8D1
:100EC00008401AF06FBC00BF44F2486008B5132117
:100ED000C0F202001DF0B6FF41F69853C2F20103C2
:100EE000FB21986C03681B68984744F2A4400F21CB
:100EF000C0F202001DF0A6FF41F2E040C2F2010084
:100F00004FF60F3118F084FF44F21450C0F2020083
:100F100014211DF097FF4EF2C000C2F20000BDE8A0
:100F200008401AF03FBC00BF44F25C6008B50F21D6
:100F3000C0F202001DF086FF41F69853C2F2010391
:100F4000FC21986C03681B68984744F2A4400F2169
:100F5000C0F202001DF076FF41F2E040C2F2010053
:100F60004FF60F4118F054FF44F21450C0F2020043
:100F700014211DF067FF4EF2C000C2F20000BDE870
:100F800008401AF00FBC00BF44F26C6008B518218D
:100F9000C0F202001DF056FF41F69853C2F2010361
:100FA000FE21986C03681B68984744F2A4400F2107
:100FB000C0F202001DF046FF41F2E040C2F2010023
:100FC0004FF60F6118F024FF44F21450C0F20200F3
:100FD00014211DF037FF4EF2C000C2F20000BDE840
:100FE00008401AF0DFBB00BF44F2886008B51B213F
:100FF000C0F202001DF026FF41F69853C2F2010331
:10100000F621986C0368DB6C984744F2A4400F21EA
:10101000C0F202001DF016FF4FF20F601DF088F8BD
:1010200044F2B440C0F202000F211DF00BFF4EF25B
:10103000C000C2F20000BDE808401AF0B3BB00BF18
:1010400038B544F244504EF2C00541F2D444102168
:10105000C2F20104C2F20005C0F202001DF0F2FE6D
:1010600028461AF09FFB20680EF0C4FA20680EF0A4
:10107000CDF920680EF0DEF944F2A4601621C0F22A
:1010800002001DF0DFFE41F2E040C2F201004FF627
:101090000F7118F0BDFE44F214501421C0F202008A
:1010A0001DF0D0FE4FF60F701DF042F844F2B44030
:1010B000C0F202000F211DF0C5FE2846BDE83840F1
:1010C0001AF070BB38B544F244504EF2C00541F2FC
:1010D000D4441021C2F20104C2F20005C0F20200A1
:1010E0001DF0B0FE28461AF05DFB20680EF082FA73
:1010F00020680EF08BF920680EF09CF944F2BC6079
:101100001621C0F202001DF09DFE41F69853C2F276
:101110000103FF21986C03681B68984744F2A440C0
:101120000F21C0F202001DF08DFE41F2E040C2F23C
:1011300001004FF60F7118F06BFE44F21450C0F22C
:10114000020014211DF07EFE2846BDE838401AF04A
:1011500029BB00BF44F2D46008B51621C0F20200DA
:101160001DF070FE41F69853C2F20103F621986C0F
:101170000368DB6C984744F2A4400F21C0F20200E0
:101180001DF060FE41F2E040C2F201004FF20F613B
:1011900018F03EFE44F21450C0F2020014211DF07B
:1011A00051FE4EF2C000C2F20000BDE808401AF045
:1011B000F9BA00BFF8B5064644F2EC600C46C0F23E
:1011C0000200122115461DF03DFE711EC9B20F2905
:1011D00015D841F69857C2F2010741F0A001B86C4A
:1011E00003681B689847B86C036804F07F011B68AC
:1011F0009847B86C036805F07F011B68984744F274
:1012000000700A21C0F202001DF01CFE6B1E1B02C2
:10121000240404F4FE0403F470632343310143F413
:10122000504343F00D03C9B241F2E0401943C2F20A
:10123000010018F0EDFD44F21450C0F20200142138
:101240001DF000FE4EF2C000C2F20000BDE8F84002
:101250001AF0A8BAF8B541F2D443C2F20103054628
:101260001B6801F5005644F20C700C46013D0D213F
:10127000C3F8C060C0F202001DF0E4FDE9B20F291E
:1012800015D841F69857C2F2010741F0E001B86C59
:1012900003681B689847B86C036806F07F011B68F9
:1012A0009847B86C0368C6F3C6111B68984744F2A8
:1012B000A44004F30D040F2104F50054C0F2020011
:1012C0001DF0C0FD2902230403F4FE0301F4706144
:1012D000194341F46041640404F0FE4441F00E01FE
:1012E00041F2E0402143C2F2010018F091FD44F2C6
:1012F0001450C0F2020014211DF0A4FD4EF2C000F3
:10130000C2F20000BDE8F8401AF04CBA1F2970B5CF
:101310000C46054608D84DF63853C2F2000318793A
:101320000FF050F90AF014FF44F21C700D21013D3A
:10133000C0F202001DF086FDE9B20F290FD841F678
:101340009856C2F2010641F0C001B06C03681B68F8
:101350009847B06C036804F07F011B68984744F21B
:10136000A4400F21C0F202001DF06CFD230403F421
:10137000FE03290243F4404343F00C0301F470617F
:1013800041F2E0401943C2F2010018F041FD44F27D
:101390001450C0F2020014211DF054FD4EF2C000A2
:1013A000C2F20000BDE870401AF0FCB9F0B54AF294
:1013B0003472C2F2010283B040F2206311680091DE
:1013C000C2F2010300991E681268019241F2AE4513
:1013D000C2F2010541F2AC42C2F20102891B44F2A1
:1013E0002C704EF2C004C2F20004019F2980002636
:1013F0000C21C0F2020016701F601DF023FD2B8827
:1014000020464EF6602191FBF3F11AF06DF944F29B
:101410003C700521C0F202001DF014FD2988204611
:101420001AF062F944F244700F21C0F202001DF07C
:1014300009FD20461AF0B6F903B0F0BD08B541F237
:10144000AC41C2F201014AF6AB230A780132D2B2B2
:10145000CAF6AA23A3FB02031B0903EB4303A2EB77
:10146000C30313F0FF0F0A7001D1FFF79FFF44F28F
:1014700054701021C0F202001DF0E4FC41F2E04083
:10148000C2F201004FF60F0118F0C2FC44F21450F2
:101490001421C0F202001DF0D5FC4FF60F001CF025
:1014A00047FE44F2B440C0F202000F211DF0CAFC16
:1014B0004EF2C000C2F20000BDE808401AF072B956
:1014C00008B541F2AC41C2F201014AF6AB230A78F9
:1014D0000132D2B2CAF6AA23A3FB02031B0903EB13
:1014E0004303A2EBC30313F0FF0F0A7001D1FFF710
:1014F0005DFF44F268701521C0F202001DF0A2FCED
:1015000041F69853C2F20103F821986C03681B68F6
:10151000984744F2A4400F21C0F202001DF092FC53
:101520004FF60F001CF004FE44F2B440C0F202007B
:101530000F211DF087FC4EF2C000C2F20000BDE892
:1015400008401AF02FB900BF08B541F2AC41C2F211
:1015500001014AF6AB230A780132D2B2CAF6AA23B5
:10156000A3FB02031B0903EB4303A2EBC30313F02A
:10157000FF0F0A7001D1FFF719FF44F280701021AC
:10158000C0F202001DF05EFC41F69853C2F2010366
:10159000F821986C03681B68984744F2A4400F2117
:1015A000C0F202001DF04EFC41F2E040C2F2010028
:1015B0004FF60F0118F02CFC44F21450C0F2020058
:1015C00014211DF03FFC4EF2C000C2F20000BDE845
:1015D00008401AF0E7B800BF1F2970B50C46054651
:1015E00008D84DF63853C2F2000318790EF0EAFF1E
:1015F0000AF0AEFD44F294701221013DC0F20200E7
:101600001DF020FCE9B20F290FD841F69856C2F21E
:10161000010641F0C001B06C03681B689847B06CCC
:10162000036804F07F011B68984744F2A4400F212F
:10163000C0F202001DF006FC230403F4FE0328029E
:1016400043F4404343F00C0300F4706018431CF073
:101650006FFD44F2B440C0F202000F211DF0F2FB16
:101660004EF2C000C2F20000BDE870401AF09AB815
:1016700070B5064644F2A8700C46C0F2020017216D
:1016800015461DF0DFFB711EC9B20F292BD841F69C
:101690009856C2F2010641F0A001B06C03681B68C5
:1016A0009847B06C036804F07F011B689847B06CE2
:1016B000036805F07F011B68984744F20070C0F290
:1016C00002000A211DF0BEFB44F2B440C0F2020049
:1016D0000F211DF0B7FB4EF2C000C2F20000BDE8C2
:1016E00070401AF05FB844F20070C0F202000A21A4
:1016F0001DF0A8FB002EE7D1681E0002240404F4AC
:10170000FE0400F47060204340F4504040F00D00AF
:101710001CF00EFDD8E700BF1F2938B50C46054662
:1017200008D84DF63853C2F2000318790EF04AFF7C
:101730000AF00EFD240404F4FE04013D44F2C070DE
:1017400044F440442D020D2105F47065C0F20200FE
:1017500044F00C041DF076FB2C4341F2E04021469E
:10176000C2F2010018F054FB44F214501421C0F2EC
:1017700002001DF067FB20461CF0DAFC44F2B44086
:10178000C0F202000F211DF05DFB4EF2C000C2F25C
:101790000000BDE838401AF005B800BF70B5064635
:1017A00044F2D07015460C46C0F2020012211DF022
:1017B00049FB6B1E1B02240404F4FE0403F4706353
:1017C000234343F45043340143F00D03E4B21C437C
:1017D00041F2E0402146C2F2010018F019FB44F248
:1017E0001450C0F2020014211DF02CFB16B9204643
:1017F0001CF09EFC44F2B440C0F202000F211DF028
:1018000021FB4EF2C000C2F20000BDE8704019F0AA
:10181000C9BF00BF38B541F698550446C2F201056C
:1018200044F2E4701A21C0F202001DF00BFBA86C18
:101830000368F3211B689847A86C036804F07F01D4
:10184000DB6C984744F2A4400F21C0F202001DF067
:10185000F9FA200400F4FE0040F4734040F0020066
:101860001CF066FC44F2B440C0F202000F211DF0EF
:10187000E9FA4EF2C000C2F20000BDE8384019F0AB
:1018800091BF00BF70B54DF63853C2F200030E464B
:101890001B7C1446054623B1984202D0FFF782FA1A
:1018A00038B141F2D443C2F20103314618680DF059
:1018B00077FC44F600001221C0F202001DF0C2FACB
:1018C000230603F0FE43340443F40043013D43F098
:1018D000080304F4FE042D021C4305F470652C4338
:1018E00041F2E0402146C2F2010018F091FA44F2C0
:1018F00014501421C0F202001DF0A4FA20461CF07E
:1019000017FC44F2B440C0F202000F211DF09AFA15
:101910004EF2C000C2F20000BDE8704019F042BFB4
:1019200070B54DF63853C2F200030E461B7C1446C8
:10193000054623B1984202D0FFF734FA40B141F294
:10194000D443C2F201032246186831460DF0E8F98B
:1019500044F614001121C0F202001DF073FA2306B0
:1019600003F0FE43340443F41043013D43F0090304
:1019700004F4FE042D021C4305F470652C4341F26F
:10198000E0402146C2F2010018F042FA44F214503D
:101990001421C0F202001DF055FA20461CF0C8FBCD
:1019A00044F2B440C0F202000F211DF04BFA4EF297
:1019B000C000C2F20000BDE8704019F0F3BE00BFE5
:1019C00038B541F698550446C2F2010544F62800A0
:1019D0001521C0F202001DF035FAA86C0368F3214E
:1019E0001B689847A86C036804F07F01DB6C98477C
:1019F00044F2A4400F21C0F202001DF023FA21049A
:101A000001F4FE0141F4734141F2E04041F0020172
:101A1000C2F2010018F0FCF944F21450C0F20200C6
:101A200014211DF00FFA4EF2C000C2F20000BDE812
:101A3000384019F0B7BE00BF38B541F69855044696
:101A4000C2F2010544F640002421C0F202001DF05C
:101A5000F9F9A86C0368F1211B689847A86C036822
:101A600021461B68984744F2A4400F21C0F20200AF
:101A700004F00F041DF0E6F944F010044FF20210D8
:101A800040EA04401CF054FB44F2B440C0F20200AF
:101A90000F211DF0D7F94EF2C000C2F20000BDE8E0
:101AA000384019F07FBE00BF38B541F6985504465E
:101AB000C2F2010544F668001F21C0F202001DF0C9
:101AC000C1F9A86C0368F1211B689847A86C0368EA
:101AD00021461B68984744F2A4400F21C0F202003F
:101AE00004F00F041DF0AEF944F010044FF202119F
:101AF00041F2E04041EA0441C2F2010018F088F9E5
:101B000044F21450C0F2020014211DF09BF94EF271
:101B1000C000C2F20000BDE8384019F043BE00BF6B
:101B200038B541F2D443C2F2010301F500521B68FB
:101B300005460C4644F68800C3F8C0200D2104F386
:101B40000D04C0F202001DF07DF904F500536C1E77
:101B50001A04240202F4FE0204F47064144344F4F0
:101B600060445B0403F0FE4344F00E041C4341F266
:101B7000E0402146C2F2010018F04AF944F2145044
:101B80001421C0F202001DF05DF920461CF0D0FACD
:101B900044F2B440C0F202000F211DF053F94EF29E
:101BA000C000C2F20000BDE8384019F0FBBD00BF24
:101BB000F8B541F2D443C2F2010305461B6801F5B2
:101BC000005644F698000C46013D1221C3F8C0604F
:101BD000C0F202001DF036F9E9B20F2915D841F61E
:101BE0009857C2F2010741F0E001B86C03681B6826
:101BF0009847B86C036806F07F011B689847B86C7B
:101C00000368C6F3C6111B68984744F2A44004F366
:101C10000D040F2104F50054C0F202001DF012F96A
:101C20002802230403F4FE0300F47060184340F418
:101C30006040640404F0FE4440F00E0020431CF0B9
:101C400077FA44F2B440C0F202000F211DF0FAF816
:101C50004EF2C000C2F20000BDE8F84019F0A2BD8B
:101C60004AF28853C2F2010310B41A68136850682C
:101C700019780478507A137A044201EA03011AD0E1
:101C8000937A03F0030309B143F0040343F008031C
:101C90009910082B91722AD8072B22D2032B2ED011
:101CA00011D9042B13D0062B14D1D3685DF8044B43
:101CB000023BD3607047937A03F003030029E7D017
:101CC00043F00403E4E7012B0BD0022B02D1D368CD
:101CD000013BD3605DF8044B70470D2BF7D00E2B02
:101CE000F8D1D3685DF8044B0133D36070470C2BF7
:101CF00005D0F2D8092BD8D00B2BE8D0EAE7D3686F
:101D00005DF8044B0233D360704700BF4AF288533A
:101D1000C2F2010310B49A68136850681978047805
:101D2000507A137A044201EA03011AD0937A03F03D
:101D3000030309B143F0040343F008039910082B8F
:101D400091722AD8072B22D2032B2ED011D9042B23
:101D500013D0062B14D1D3685DF8044B023BD3603B
:101D60007047937A03F003030029E7D043F004039C
:101D7000E4E7012B0BD0022B02D1D368013BD360E7
:101D80005DF8044B70470D2BF7D00E2BF8D1D368BC
:101D90005DF8044B0133D36070470C2B05D0F2D8AB
:101DA000092BD8D00B2BE8D0EAE7D3685DF8044BB9
:101DB0000233D360704700BF4AF28853C2F2010376
:101DC00010B4DA681368506819780478507A137A76
:101DD000044201EA03011AD0937A03F0030309B124
:101DE00043F0040343F008039910082B91722AD89A
:101DF000072B22D2032B2ED011D9042B13D0062B64
:101E000014D1D3685DF8044B023BD3607047937ADA
:101E100003F003030029E7D043F00403E4E7012BB8
:101E20000BD0022B02D1D368013BD3605DF8044B89
:101E300070470D2BF7D00E2BF8D1D3685DF8044B0B
:101E40000133D36070470C2B05D0F2D8092BD8D0C2
:101E50000B2BE8D0EAE7D3685DF8044B0233D3607C
:101E6000704700BF4AF28853C2F2010310B41A69E6
:101E70001368506819780478507A137A044201EA9A
:101E800003011AD0937A03F0030309B143F004036A
:101E900043F008039910082B91722AD8072B22D2FD
:101EA000032B2ED011D9042B13D0062B14D1D368B9
:101EB0005DF8044B023BD3607047937A03F0030351
:101EC0000029E7D043F00403E4E7012B0BD0022BF9
:101ED00002D1D368013BD3605DF8044B70470D2BF2
:101EE000F7D00E2BF8D1D3685DF8044B0133D360E3
:101EF00070470C2B05D0F2D8092BD8D00B2BE8D08B
:101F0000EAE7D3685DF8044B0233D360704700BF43
:101F10004AF28853C2F2010310B45A691368506838
:101F200019780478507A137A044201EA03011AD02E
:101F3000937A03F0030309B143F0040343F0080369
:101F40009910082B91722AD8072B22D2032B2ED05E
:101F500011D9042B13D0062B14D1D3685DF8044B90
:101F6000023BD3607047937A03F003030029E7D064
:101F700043F00403E4E7012B0BD0022B02D1D3681A
:101F8000013BD3605DF8044B70470D2BF7D00E2B4F
:101F9000F8D1D3685DF8044B0133D36070470C2B44
:101FA00005D0F2D8092BD8D00B2BE8D0EAE7D368BC
:101FB0005DF8044B0233D360704700BF4AF2885388
:101FC000C2F2010310B49A69136850681978047852
:101FD000507A137A044201EA03011AD0937A03F08B
:101FE000030309B143F0040343F008039910082BDD
:101FF00091722AD8072B22D2032B2ED011D9042B71
:1020000013D0062B14D1D3685DF8044B023BD36088
:102010007047937A03F003030029E7D043F00403E9
:10202000E4E7012B0BD0022B02D1D368013BD36034
:102030005DF8044B70470D2BF7D00E2BF8D1D36809
:102040005DF8044B0133D36070470C2B05D0F2D8F8
:10205000092BD8D00B2BE8D0EAE7D3685DF8044B06
:102060000233D360704700BF4AF28853C2F20103C3
:1020700010B4DA691368506819780478507A137AC2
:10208000044201EA03011AD0937A03F0030309B171
:1020900043F0040343F008039910082B91722AD8E7
:1020A000072B22D2032B2ED011D9042B13D0062BB1
:1020B00014D1D3685DF8044B023BD3607047937A28
:1020C00003F003030029E7D043F00403E4E7012B06
:1020D0000BD0022B02D1D368013BD3605DF8044BD7
:1020E00070470D2BF7D00E2BF8D1D3685DF8044B59
:1020F0000133D36070470C2B05D0F2D8092BD8D010
:102100000B2BE8D0EAE7D3685DF8044B0233D360C9
:10211000704700BF4AF28853C2F2010310B41A6A32
:102120001368506819780478507A137A044201EAE7
:1021300003011AD0937A03F0030309B143F00403B7
:1021400043F008039910082B91722AD8072B22D24A
:10215000032B2ED011D9042B13D0062B14D1D36806
:102160005DF8044B023BD3607047937A03F003039E
:102170000029E7D043F00403E4E7012B0BD0022B46
:1021800002D1D368013BD3605DF8044B70470D2B3F
:10219000F7D00E2BF8D1D3685DF8044B0133D36030
:1021A00070470C2B05D0F2D8092BD8D00B2BE8D0D8
:1021B000EAE7D3685DF8044B0233D360704700BF91
:1021C0004AF28853C2F2010310B45A6A1368506885
:1021D00019780478507A137A044201EA03011AD07C
:1021E000937A03F0030309B143F0040343F00803B7
:1021F0009910082B91722AD8072B22D2032B2ED0AC
:1022000011D9042B13D0062B14D1D3685DF8044BDD
:10221000023BD3607047937A03F003030029E7D0B1
:1022200043F00403E4E7012B0BD0022B02D1D36867
:10223000013BD3605DF8044B70470D2BF7D00E2B9C
:10224000F8D1D3685DF8044B0133D36070470C2B91
:1022500005D0F2D8092BD8D00B2BE8D0EAE7D36809
:102260005DF8044B0233D360704700BF4AF28853D5
:10227000C2F2010310B45A681368506819780478E0
:10228000507A137A044201EA03011AD0937A03F0D8
:10229000030309B143F0040343F008039910082B2A
:1022A00091722AD8072B22D2032B2ED011D9042BBE
:1022B00013D0062B14D1D3685DF8044B023BD360D6
:1022C0007047937A03F003030029E7D043F0040337
:1022D000E4E7012B0BD0022B02D1D368013BD36082
:1022E0005DF8044B70470D2BF7D00E2BF8D1D36857
:1022F0005DF8044B0133D36070470C2B05D0F2D846
:10230000092BD8D00B2BE8D0EAE7D3685DF8044B53
:102310000233D360704700BF4AF28853C2F2010310
:1023200010B4D3F8E8201368506819780478507A0C
:10233000137A044201EA03011AD0937A03F00303EB
:1023400009B143F0040343F008039910082B91727C
:102350002AD8072B22D2032B2ED011D9042B13D02D
:10236000062B14D1D3685DF8044B023BD360704751
:10237000937A03F003030029E7D043F00403E4E772
:10238000012B0BD0022B02D1D368013BD3605DF847
:10239000044B70470D2BF7D00E2BF8D1D3685DF8A6
:1023A000044B0133D36070470C2B05D0F2D8092BB6
:1023B000D8D00B2BE8D0EAE7D3685DF8044B0233A2
:1023C000D36070474AF28853C2F2010310B4D3F8C5
:1023D000EC201368506819780478507A137A044214
:1023E00001EA03011AD0937A03F0030309B143F021
:1023F000040343F008039910082B91722AD8072B85
:1024000022D2032B2ED011D9042B13D0062B14D19A
:10241000D3685DF8044B023BD3607047937A03F0B6
:1024200003030029E7D043F00403E4E7012B0BD0BA
:10243000022B02D1D368013BD3605DF8044B704797
:102440000D2BF7D00E2BF8D1D3685DF8044B013378
:10245000D36070470C2B05D0F2D8092BD8D00B2BAA
:10246000E8D0EAE7D3685DF8044B0233D3607047E5
:102470004AF28853C2F2010310B4D3F8A8201368BB
:10248000506819780478507A137A044201EA0301FB
:102490001AD0937A03F0030309B143F0040343F025
:1024A00008039910082B91722AD8072B22D2032BEC
:1024B0002ED011D9042B13D0062B14D1D3685DF87C
:1024C000044B023BD3607047937A03F00303002967
:1024D000E7D043F00403E4E7012B0BD0022B02D139
:1024E000D368013BD3605DF8044B70470D2BF7D0E8
:1024F0000E2BF8D1D3685DF8044B0133D3607047DD
:102500000C2B05D0F2D8092BD8D00B2BE8D0EAE75A
:10251000D3685DF8044B0233D36070474AF28853A6
:10252000C2F2010310B4D3F8AC20136850681978D4
:102530000478507A137A044201EA03011AD0937A9C
:1025400003F0030309B143F0040343F008039910B7
:10255000082B91722AD8072B22D2032B2ED011D907
:10256000042B13D0062B14D1D3685DF8044B023B27
:10257000D3607047937A03F003030029E7D043F058
:102580000403E4E7012B0BD0022B02D1D368013BFB
:10259000D3605DF8044B70470D2BF7D00E2BF8D1AC
:1025A000D3685DF8044B0133D36070470C2B05D022
:1025B000F2D8092BD8D00B2BE8D0EAE7D3685DF826
:1025C000044B0233D36070474AF28853C2F20103CE
:1025D00010B4D3F8B0201368506819780478507A92
:1025E000137A044201EA03011AD0937A03F0030339
:1025F00009B143F0040343F008039910082B9172CA
:102600002AD8072B22D2032B2ED011D9042B13D07A
:10261000062B14D1D3685DF8044B023BD36070479E
:10262000937A03F003030029E7D043F00403E4E7BF
:10263000012B0BD0022B02D1D368013BD3605DF894
:10264000044B70470D2BF7D00E2BF8D1D3685DF8F3
:10265000044B0133D36070470C2B05D0F2D8092B03
:10266000D8D00B2BE8D0EAE7D3685DF8044B0233EF
:10267000D36070474AF28853C2F2010310B4D3F812
:10268000B4201368506819780478507A137A044299
:1026900001EA03011AD0937A03F0030309B143F06E
:1026A000040343F008039910082B91722AD8072BD2
:1026B00022D2032B2ED011D9042B13D0062B14D1E8
:1026C000D3685DF8044B023BD3607047937A03F004
:1026D00003030029E7D043F00403E4E7012B0BD008
:1026E000022B02D1D368013BD3605DF8044B7047E5
:1026F0000D2BF7D00E2BF8D1D3685DF8044B0133C6
:10270000D36070470C2B05D0F2D8092BD8D00B2BF7
:10271000E8D0EAE7D3685DF8044B0233D360704732
:102720004AF28853C2F2010310B4D3F8B8201368F8
:10273000506819780478507A137A044201EA030148
:102740001AD0937A03F0030309B143F0040343F072
:1027500008039910082B91722AD8072B22D2032B39
:102760002ED011D9042B13D0062B14D1D3685DF8C9
:10277000044B023BD3607047937A03F003030029B4
:10278000E7D043F00403E4E7012B0BD0022B02D186
:10279000D368013BD3605DF8044B70470D2BF7D035
:1027A0000E2BF8D1D3685DF8044B0133D36070472A
:1027B0000C2B05D0F2D8092BD8D00B2BE8D0EAE7A8
:1027C000D3685DF8044B0233D36070474AF28853F4
:1027D000C2F2010310B4D3F8BC2013685068197812
:1027E0000478507A137A044201EA03011AD0937AEA
:1027F00003F0030309B143F0040343F00803991005
:10280000082B91722AD8072B22D2032B2ED011D954
:10281000042B13D0062B14D1D3685DF8044B023B74
:10282000D3607047937A03F003030029E7D043F0A5
:102830000403E4E7012B0BD0022B02D1D368013B48
:10284000D3605DF8044B70470D2BF7D00E2BF8D1F9
:10285000D3685DF8044B0133D36070470C2B05D06F
:10286000F2D8092BD8D00B2BE8D0EAE7D3685DF873
:10287000044B0233D36070474AF28853C2F201031B
:1028800010B4D3F8C0201368506819780478507ACF
:10289000137A044201EA03011AD0937A03F0030386
:1028A00009B143F0040343F008039910082B917217
:1028B0002AD8072B22D2032B2ED011D9042B13D0C8
:1028C000062B14D1D3685DF8044B023BD3607047EC
:1028D000937A03F003030029E7D043F00403E4E70D
:1028E000012B0BD0022B02D1D368013BD3605DF8E2
:1028F000044B70470D2BF7D00E2BF8D1D3685DF841
:10290000044B0133D36070470C2B05D0F2D8092B50
:10291000D8D00B2BE8D0EAE7D3685DF8044B02333C
:10292000D36070474AF28853C2F2010310B4D3F85F
:10293000C4201368506819780478507A137A0442D6
:1029400001EA03011AD0937A03F0030309B143F0BB
:10295000040343F008039910082B91722AD8072B1F
:1029600022D2032B2ED011D9042B13D0062B14D135
:10297000D3685DF8044B023BD3607047937A03F051
:1029800003030029E7D043F00403E4E7012B0BD055
:10299000022B02D1D368013BD3605DF8044B704732
:1029A0000D2BF7D00E2BF8D1D3685DF8044B013313
:1029B000D36070470C2B05D0F2D8092BD8D00B2B45
:1029C000E8D0EAE7D3685DF8044B0233D360704780
:1029D0004AF28853C2F2010310B4D3F8C820136836
:1029E000506819780478507A137A044201EA030196
:1029F0001AD0937A03F0030309B143F0040343F0C0
:102A000008039910082B91722AD8072B22D2032B86
:102A10002ED011D9042B13D0062B14D1D3685DF816
:102A2000044B023BD3607047937A03F00303002901
:102A3000E7D043F00403E4E7012B0BD0022B02D1D3
:102A4000D368013BD3605DF8044B70470D2BF7D082
:102A50000E2BF8D1D3685DF8044B0133D360704777
:102A60000C2B05D0F2D8092BD8D00B2BE8D0EAE7F5
:102A7000D3685DF8044B0233D36070474AF2885341
:102A8000C2F2010310B4D3F8CC201368506819784F
:102A90000478507A137A044201EA03011AD0937A37
:102AA00003F0030309B143F0040343F00803991052
:102AB000082B91722AD8072B22D2032B2ED011D9A2
:102AC000042B13D0062B14D1D3685DF8044B023BC2
:102AD000D3607047937A03F003030029E7D043F0F3
:102AE0000403E4E7012B0BD0022B02D1D368013B96
:102AF000D3605DF8044B70470D2BF7D00E2BF8D147
:102B0000D3685DF8044B0133D36070470C2B05D0BC
:102B1000F2D8092BD8D00B2BE8D0EAE7D3685DF8C0
:102B2000044B0233D36070474AF28853C2F2010368
:102B300010B4D3F8D0201368506819780478507A0C
:102B4000137A044201EA03011AD0937A03F00303D3
:102B500009B143F0040343F008039910082B917264
:102B60002AD8072B22D2032B2ED011D9042B13D015
:102B7000062B14D1D3685DF8044B023BD360704739
:102B8000937A03F003030029E7D043F00403E4E75A
:102B9000012B0BD0022B02D1D368013BD3605DF82F
:102BA000044B70470D2BF7D00E2BF8D1D3685DF88E
:102BB000044B0133D36070470C2B05D0F2D8092B9E
:102BC000D8D00B2BE8D0EAE7D3685DF8044B02338A
:102BD000D36070474AF28853C2F2010310B4D3F8AD
:102BE000D4201368506819780478507A137A044214
:102BF00001EA03011AD0937A03F0030309B143F009
:102C0000040343F008039910082B91722AD8072B6C
:102C100022D2032B2ED011D9042B13D0062B14D182
:102C2000D3685DF8044B023BD3607047937A03F09E
:102C300003030029E7D043F00403E4E7012B0BD0A2
:102C4000022B02D1D368013BD3605DF8044B70477F
:102C50000D2BF7D00E2BF8D1D3685DF8044B013360
:102C6000D36070470C2B05D0F2D8092BD8D00B2B92
:102C7000E8D0EAE7D3685DF8044B0233D3607047CD
:102C80004AF28853C2F2010310B4D3F8D820136873
:102C9000506819780478507A137A044201EA0301E3
:102CA0001AD0937A03F0030309B143F0040343F00D
:102CB00008039910082B91722AD8072B22D2032BD4
:102CC0002ED011D9042B13D0062B14D1D3685DF864
:102CD000044B023BD3607047937A03F0030300294F
:102CE000E7D043F00403E4E7012B0BD0022B02D121
:102CF000D368013BD3605DF8044B70470D2BF7D0D0
:102D00000E2BF8D1D3685DF8044B0133D3607047C4
:102D10000C2B05D0F2D8092BD8D00B2BE8D0EAE742
:102D2000D3685DF8044B0233D36070474AF288538E
:102D3000C2F2010310B4D3F8DC201368506819788C
:102D40000478507A137A044201EA03011AD0937A84
:102D500003F0030309B143F0040343F0080399109F
:102D6000082B91722AD8072B22D2032B2ED011D9EF
:102D7000042B13D0062B14D1D3685DF8044B023B0F
:102D8000D3607047937A03F003030029E7D043F040
:102D90000403E4E7012B0BD0022B02D1D368013BE3
:102DA000D3605DF8044B70470D2BF7D00E2BF8D194
:102DB000D3685DF8044B0133D36070470C2B05D00A
:102DC000F2D8092BD8D00B2BE8D0EAE7D3685DF80E
:102DD000044B0233D36070474AF28853C2F20103B6
:102DE00010B4D3F8E0201368506819780478507A4A
:102DF000137A044201EA03011AD0937A03F0030321
:102E000009B143F0040343F008039910082B9172B1
:102E10002AD8072B22D2032B2ED011D9042B13D062
:102E2000062B14D1D3685DF8044B023BD360704786
:102E3000937A03F003030029E7D043F00403E4E7A7
:102E4000012B0BD0022B02D1D368013BD3605DF87C
:102E5000044B70470D2BF7D00E2BF8D1D3685DF8DB
:102E6000044B0133D36070470C2B05D0F2D8092BEB
:102E7000D8D00B2BE8D0EAE7D3685DF8044B0233D7
:102E8000D36070474AF28853C2F2010310B4D3F8FA
:102E9000E4201368506819780478507A137A044251
:102EA00001EA03011AD0937A03F0030309B143F056
:102EB000040343F008039910082B91722AD8072BBA
:102EC00022D2032B2ED011D9042B13D0062B14D1D0
:102ED000D3685DF8044B023BD3607047937A03F0EC
:102EE00003030029E7D043F00403E4E7012B0BD0F0
:102EF000022B02D1D368013BD3605DF8044B7047CD
:102F00000D2BF7D00E2BF8D1D3685DF8044B0133AD
:102F1000D36070470C2B05D0F2D8092BD8D00B2BDF
:102F2000E8D0EAE7D3685DF8044B0233D36070471A
:102F30004AF28853C2F2010310B49A6A13685068C7
:102F400019780478507A137A044201EA03011AD0FE
:102F5000937A03F0030309B143F0040343F0080339
:102F60009910082B91722AD8072B22D2032B2ED02E
:102F700011D9042B13D0062B14D1D3685DF8044B60
:102F8000023BD3607047937A03F003030029E7D034
:102F900043F00403E4E7012B0BD0022B02D1D368EA
:102FA000013BD3605DF8044B70470D2BF7D00E2B1F
:102FB000F8D1D3685DF8044B0133D36070470C2B14
:102FC00005D0F2D8092BD8D00B2BE8D0EAE7D3688C
:102FD0005DF8044B0233D360704700BF4AF2885358
:102FE000C2F2010310B4DA6A1368506819780478E1
:102FF000507A137A044201EA03011AD0937A03F05B
:10300000030309B143F0040343F008039910082BAC
:1030100091722AD8072B22D2032B2ED011D9042B40
:1030200013D0062B14D1D3685DF8044B023BD36058
:103030007047937A03F003030029E7D043F00403B9
:10304000E4E7012B0BD0022B02D1D368013BD36004
:103050005DF8044B70470D2BF7D00E2BF8D1D368D9
:103060005DF8044B0133D36070470C2B05D0F2D8C8
:10307000092BD8D00B2BE8D0EAE7D3685DF8044BD6
:103080000233D360704700BF4AF28853C2F2010393
:1030900010B41A6B1368506819780478507A137A50
:1030A000044201EA03011AD0937A03F0030309B141
:1030B00043F0040343F008039910082B91722AD8B7
:1030C000072B22D2032B2ED011D9042B13D0062B81
:1030D00014D1D3685DF8044B023BD3607047937AF8
:1030E00003F003030029E7D043F00403E4E7012BD6
:1030F0000BD0022B02D1D368013BD3605DF8044BA7
:1031000070470D2BF7D00E2BF8D1D3685DF8044B28
:103110000133D36070470C2B05D0F2D8092BD8D0DF
:103120000B2BE8D0EAE7D3685DF8044B0233D36099
:10313000704700BF4AF28853C2F2010310B45A6BC1
:103140001368506819780478507A137A044201EAB7
:1031500003011AD0937A03F0030309B143F0040387
:1031600043F008039910082B91722AD8072B22D21A
:10317000032B2ED011D9042B13D0062B14D1D368D6
:103180005DF8044B023BD3607047937A03F003036E
:103190000029E7D043F00403E4E7012B0BD0022B16
:1031A00002D1D368013BD3605DF8044B70470D2B0F
:1031B000F7D00E2BF8D1D3685DF8044B0133D36000
:1031C00070470C2B05D0F2D8092BD8D00B2BE8D0A8
:1031D000EAE7D3685DF8044B0233D360704700BF61
:1031E0004AF28853C2F2010310B49A6B1368506814
:1031F00019780478507A137A044201EA03011AD04C
:10320000937A03F0030309B143F0040343F0080386
:103210009910082B91722AD8072B22D2032B2ED07B
:1032200011D9042B13D0062B14D1D3685DF8044BAD
:10323000023BD3607047937A03F003030029E7D081
:1032400043F00403E4E7012B0BD0022B02D1D36837
:10325000013BD3605DF8044B70470D2BF7D00E2B6C
:10326000F8D1D3685DF8044B0133D36070470C2B61
:1032700005D0F2D8092BD8D00B2BE8D0EAE7D368D9
:103280005DF8044B0233D360704700BF4AF28853A5
:10329000C2F2010310B4DA6B13685068197804782D
:1032A000507A137A044201EA03011AD0937A03F0A8
:1032B000030309B143F0040343F008039910082BFA
:1032C00091722AD8072B22D2032B2ED011D9042B8E
:1032D00013D0062B14D1D3685DF8044B023BD360A6
:1032E0007047937A03F003030029E7D043F0040307
:1032F000E4E7012B0BD0022B02D1D368013BD36052
:103300005DF8044B70470D2BF7D00E2BF8D1D36826
:103310005DF8044B0133D36070470C2B05D0F2D815
:10332000092BD8D00B2BE8D0EAE7D3685DF8044B23
:103330000233D360704700BF4AF28853C2F20103E0
:1033400010B41A6C1368506819780478507A137A9C
:10335000044201EA03011AD0937A03F0030309B18E
:1033600043F0040343F008039910082B91722AD804
:10337000072B22D2032B2ED011D9042B13D0062BCE
:1033800014D1D3685DF8044B023BD3607047937A45
:1033900003F003030029E7D043F00403E4E7012B23
:1033A0000BD0022B02D1D368013BD3605DF8044BF4
:1033B00070470D2BF7D00E2BF8D1D3685DF8044B76
:1033C0000133D36070470C2B05D0F2D8092BD8D02D
:1033D0000B2BE8D0EAE7D3685DF8044B0233D360E7
:1033E000704700BF4AF28853C2F2010310B45A6C0E
:1033F0001368506819780478507A137A044201EA05
:1034000003011AD0937A03F0030309B143F00403D4
:1034100043F008039910082B91722AD8072B22D267
:10342000032B2ED011D9042B13D0062B14D1D36823
:103430005DF8044B023BD3607047937A03F00303BB
:103440000029E7D043F00403E4E7012B0BD0022B63
:1034500002D1D368013BD3605DF8044B70470D2B5C
:10346000F7D00E2BF8D1D3685DF8044B0133D3604D
:1034700070470C2B05D0F2D8092BD8D00B2BE8D0F5
:10348000EAE7D3685DF8044B0233D360704700BFAE
:103490004AF28853C2F2010310B49A6C1368506860
:1034A00019780478507A137A044201EA03011AD099
:1034B000937A03F0030309B143F0040343F00803D4
:1034C0009910082B91722AD8072B22D2032B2ED0C9
:1034D00011D9042B13D0062B14D1D3685DF8044BFB
:1034E000023BD3607047937A03F003030029E7D0CF
:1034F00043F00403E4E7012B0BD0022B02D1D36885
:10350000013BD3605DF8044B70470D2BF7D00E2BB9
:10351000F8D1D3685DF8044B0133D36070470C2BAE
:1035200005D0F2D8092BD8D00B2BE8D0EAE7D36826
:103530005DF8044B0233D360704700BF4AF28853F2
:10354000C2F2010310B4DA6C136850681978047879
:10355000507A137A044201EA03011AD0937A03F0F5
:10356000030309B143F0040343F008039910082B47
:1035700091722AD8072B22D2032B2ED011D9042BDB
:1035800013D0062B14D1D3685DF8044B023BD360F3
:103590007047937A03F003030029E7D043F0040354
:1035A000E4E7012B0BD0022B02D1D368013BD3609F
:1035B0005DF8044B70470D2BF7D00E2BF8D1D36874
:1035C0005DF8044B0133D36070470C2B05D0F2D863
:1035D000092BD8D00B2BE8D0EAE7D3685DF8044B71
:1035E0000233D360704700BF4AF28853C2F201032E
:1035F00010B41A6D1368506819780478507A137AE9
:10360000044201EA03011AD0937A03F0030309B1DB
:1036100043F0040343F008039910082B91722AD851
:10362000072B22D2032B2ED011D9042B13D0062B1B
:1036300014D1D3685DF8044B023BD3607047937A92
:1036400003F003030029E7D043F00403E4E7012B70
:103650000BD0022B02D1D368013BD3605DF8044B41
:1036600070470D2BF7D00E2BF8D1D3685DF8044BC3
:103670000133D36070470C2B05D0F2D8092BD8D07A
:103680000B2BE8D0EAE7D3685DF8044B0233D36034
:10369000704700BF4AF28853C2F2010310B45A6D5A
:1036A0001368506819780478507A137A044201EA52
:1036B00003011AD0937A03F0030309B143F0040322
:1036C00043F008039910082B91722AD8072B22D2B5
:1036D000032B2ED011D9042B13D0062B14D1D36871
:1036E0005DF8044B023BD3607047937A03F0030309
:1036F0000029E7D043F00403E4E7012B0BD0022BB1
:1037000002D1D368013BD3605DF8044B70470D2BA9
:10371000F7D00E2BF8D1D3685DF8044B0133D3609A
:1037200070470C2B05D0F2D8092BD8D00B2BE8D042
:10373000EAE7D3685DF8044B0233D360704700BFFB
:103740004AF28853C2F2010310B49A6D13685068AC
:1037500019780478507A137A044201EA03011AD0E6
:10376000937A03F0030309B143F0040343F0080321
:103770009910082B91722AD8072B22D2032B2ED016
:1037800011D9042B13D0062B14D1D3685DF8044B48
:10379000023BD3607047937A03F003030029E7D01C
:1037A00043F00403E4E7012B0BD0022B02D1D368D2
:1037B000013BD3605DF8044B70470D2BF7D00E2B07
:1037C000F8D1D3685DF8044B0133D36070470C2BFC
:1037D00005D0F2D8092BD8D00B2BE8D0EAE7D36874
:1037E0005DF8044B0233D360704700BF4AF2885340
:1037F000C2F2010310B4DA6D1368506819780478C6
:10380000507A137A044201EA03011AD0937A03F042
:10381000030309B143F0040343F008039910082B94
:1038200091722AD8072B22D2032B2ED011D9042B28
:1038300013D0062B14D1D3685DF8044B023BD36040
:103840007047937A03F003030029E7D043F00403A1
:10385000E4E7012B0BD0022B02D1D368013BD360EC
:103860005DF8044B70470D2BF7D00E2BF8D1D368C1
:103870005DF8044B0133D36070470C2B05D0F2D8B0
:10388000092BD8D00B2BE8D0EAE7D3685DF8044BBE
:103890000233D360704700BF4AF28853C2F201037B
:1038A00010B41A6E1368506819780478507A137A35
:1038B000044201EA03011AD0937A03F0030309B129
:1038C00043F0040343F008039910082B91722AD89F
:1038D000072B22D2032B2ED011D9042B13D0062B69
:1038E00014D1D3685DF8044B023BD3607047937AE0
:1038F00003F003030029E7D043F00403E4E7012BBE
:103900000BD0022B02D1D368013BD3605DF8044B8E
:1039100070470D2BF7D00E2BF8D1D3685DF8044B10
:103920000133D36070470C2B05D0F2D8092BD8D0C7
:103930000B2BE8D0EAE7D3685DF8044B0233D36081
:10394000704700BF4AF28853C2F2010310B45A6EA6
:103950001368506819780478507A137A044201EA9F
:1039600003011AD0937A03F0030309B143F004036F
:1039700043F008039910082B91722AD8072B22D202
:10398000032B2ED011D9042B13D0062B14D1D368BE
:103990005DF8044B023BD3607047937A03F0030356
:1039A0000029E7D043F00403E4E7012B0BD0022BFE
:1039B00002D1D368013BD3605DF8044B70470D2BF7
:1039C000F7D00E2BF8D1D3685DF8044B0133D360E8
:1039D00070470C2B05D0F2D8092BD8D00B2BE8D090
:1039E000EAE7D3685DF8044B0233D360704700BF49
:1039F0004AF28853C2F2010310B49A6E13685068F9
:103A000019780478507A137A044201EA03011AD033
:103A1000937A03F0030309B143F0040343F008036E
:103A20009910082B91722AD8072B22D2032B2ED063
:103A300011D9042B13D0062B14D1D3685DF8044B95
:103A4000023BD3607047937A03F003030029E7D069
:103A500043F00403E4E7012B0BD0022B02D1D3681F
:103A6000013BD3605DF8044B70470D2BF7D00E2B54
:103A7000F8D1D3685DF8044B0133D36070470C2B49
:103A800005D0F2D8092BD8D00B2BE8D0EAE7D368C1
:103A90005DF8044B0233D360704700BF4AF288538D
:103AA000C2F2010310B4DA6E136850681978047812
:103AB000507A137A044201EA03011AD0937A03F090
:103AC000030309B143F0040343F008039910082BE2
:103AD00091722AD8072B22D2032B2ED011D9042B76
:103AE00013D0062B14D1D3685DF8044B023BD3608E
:103AF0007047937A03F003030029E7D043F00403EF
:103B0000E4E7012B0BD0022B02D1D368013BD36039
:103B10005DF8044B70470D2BF7D00E2BF8D1D3680E
:103B20005DF8044B0133D36070470C2B05D0F2D8FD
:103B3000092BD8D00B2BE8D0EAE7D3685DF8044B0B
:103B40000233D360704700BF4AF28853C2F20103C8
:103B500010B41A6F1368506819780478507A137A81
:103B6000044201EA03011AD0937A03F0030309B176
:103B700043F0040343F008039910082B91722AD8EC
:103B8000072B22D2032B2ED011D9042B13D0062BB6
:103B900014D1D3685DF8044B023BD3607047937A2D
:103BA00003F003030029E7D043F00403E4E7012B0B
:103BB0000BD0022B02D1D368013BD3605DF8044BDC
:103BC00070470D2BF7D00E2BF8D1D3685DF8044B5E
:103BD0000133D36070470C2B05D0F2D8092BD8D015
:103BE0000B2BE8D0EAE7D3685DF8044B0233D360CF
:103BF000704700BF4AF28853C2F2010310B45A6FF3
:103C00001368506819780478507A137A044201EAEC
:103C100003011AD0937A03F0030309B143F00403BC
:103C200043F008039910082B91722AD8072B22D24F
:103C3000032B2ED011D9042B13D0062B14D1D3680B
:103C40005DF8044B023BD3607047937A03F00303A3
:103C50000029E7D043F00403E4E7012B0BD0022B4B
:103C600002D1D368013BD3605DF8044B70470D2B44
:103C7000F7D00E2BF8D1D3685DF8044B0133D36035
:103C800070470C2B05D0F2D8092BD8D00B2BE8D0DD
:103C9000EAE7D3685DF8044B0233D360704700BF96
:103CA0004AF28853C2F2010310B49A6F1368506845
:103CB00019780478507A137A044201EA03011AD081
:103CC000937A03F0030309B143F0040343F00803BC
:103CD0009910082B91722AD8072B22D2032B2ED0B1
:103CE00011D9042B13D0062B14D1D3685DF8044BE3
:103CF000023BD3607047937A03F003030029E7D0B7
:103D000043F00403E4E7012B0BD0022B02D1D3686C
:103D1000013BD3605DF8044B70470D2BF7D00E2BA1
:103D2000F8D1D3685DF8044B0133D36070470C2B96
:103D300005D0F2D8092BD8D00B2BE8D0EAE7D3680E
:103D40005DF8044B0233D360704700BF4AF28853DA
:103D5000C2F2010310B4DA6F13685068197804785E
:103D6000507A137A044201EA03011AD0937A03F0DD
:103D7000030309B143F0040343F008039910082B2F
:103D800091722AD8072B22D2032B2ED011D9042BC3
:103D900013D0062B14D1D3685DF8044B023BD360DB
:103DA0007047937A03F003030029E7D043F004033C
:103DB000E4E7012B0BD0022B02D1D368013BD36087
:103DC0005DF8044B70470D2BF7D00E2BF8D1D3685C
:103DD0005DF8044B0133D36070470C2B05D0F2D84B
:103DE000092BD8D00B2BE8D0EAE7D3685DF8044B59
:103DF0000233D360704700BF4AF28853C2F2010316
:103E000010B4D3F880201368506819780478507A79
:103E1000137A044201EA03011AD0937A03F00303F0
:103E200009B143F0040343F008039910082B917281
:103E30002AD8072B22D2032B2ED011D9042B13D032
:103E4000062B14D1D3685DF8044B023BD360704756
:103E5000937A03F003030029E7D043F00403E4E777
:103E6000012B0BD0022B02D1D368013BD3605DF84C
:103E7000044B70470D2BF7D00E2BF8D1D3685DF8AB
:103E8000044B0133D36070470C2B05D0F2D8092BBB
:103E9000D8D00B2BE8D0EAE7D3685DF8044B0233A7
:103EA000D36070474AF28853C2F2010310B4D3F8CA
:103EB00084201368506819780478507A137A044281
:103EC00001EA03011AD0937A03F0030309B143F026
:103ED000040343F008039910082B91722AD8072B8A
:103EE00022D2032B2ED011D9042B13D0062B14D1A0
:103EF000D3685DF8044B023BD3607047937A03F0BC
:103F000003030029E7D043F00403E4E7012B0BD0BF
:103F1000022B02D1D368013BD3605DF8044B70479C
:103F20000D2BF7D00E2BF8D1D3685DF8044B01337D
:103F3000D36070470C2B05D0F2D8092BD8D00B2BAF
:103F4000E8D0EAE7D3685DF8044B0233D3607047EA
:103F50004AF28853C2F2010310B4D3F888201368E0
:103F6000506819780478507A137A044201EA030100
:103F70001AD0937A03F0030309B143F0040343F02A
:103F800008039910082B91722AD8072B22D2032BF1
:103F90002ED011D9042B13D0062B14D1D3685DF881
:103FA000044B023BD3607047937A03F0030300296C
:103FB000E7D043F00403E4E7012B0BD0022B02D13E
:103FC000D368013BD3605DF8044B70470D2BF7D0ED
:103FD0000E2BF8D1D3685DF8044B0133D3607047E2
:103FE0000C2B05D0F2D8092BD8D00B2BE8D0EAE760
:103FF000D3685DF8044B0233D36070474AF28853AC
:10400000C2F2010310B4D3F88C20136850681978F9
:104010000478507A137A044201EA03011AD0937AA1
:1040200003F0030309B143F0040343F008039910BC
:10403000082B91722AD8072B22D2032B2ED011D90C
:10404000042B13D0062B14D1D3685DF8044B023B2C
:10405000D3607047937A03F003030029E7D043F05D
:104060000403E4E7012B0BD0022B02D1D368013B00
:10407000D3605DF8044B70470D2BF7D00E2BF8D1B1
:10408000D3685DF8044B0133D36070470C2B05D027
:10409000F2D8092BD8D00B2BE8D0EAE7D3685DF82B
:1040A000044B0233D36070474AF28853C2F20103D3
:1040B00010B4D3F890201368506819780478507AB7
:1040C000137A044201EA03011AD0937A03F003033E
:1040D00009B143F0040343F008039910082B9172CF
:1040E0002AD8072B22D2032B2ED011D9042B13D080
:1040F000062B14D1D3685DF8044B023BD3607047A4
:10410000937A03F003030029E7D043F00403E4E7C4
:10411000012B0BD0022B02D1D368013BD3605DF899
:10412000044B70470D2BF7D00E2BF8D1D3685DF8F8
:10413000044B0133D36070470C2B05D0F2D8092B08
:10414000D8D00B2BE8D0EAE7D3685DF8044B0233F4
:10415000D36070474AF28853C2F2010310B4D3F817
:1041600094201368506819780478507A137A0442BE
:1041700001EA03011AD0937A03F0030309B143F073
:10418000040343F008039910082B91722AD8072BD7
:1041900022D2032B2ED011D9042B13D0062B14D1ED
:1041A000D3685DF8044B023BD3607047937A03F009
:1041B00003030029E7D043F00403E4E7012B0BD00D
:1041C000022B02D1D368013BD3605DF8044B7047EA
:1041D0000D2BF7D00E2BF8D1D3685DF8044B0133CB
:1041E000D36070470C2B05D0F2D8092BD8D00B2BFD
:1041F000E8D0EAE7D3685DF8044B0233D360704738
:104200004AF28853C2F2010310B4D3F8982013681D
:10421000506819780478507A137A044201EA03014D
:104220001AD0937A03F0030309B143F0040343F077
:1042300008039910082B91722AD8072B22D2032B3E
:104240002ED011D9042B13D0062B14D1D3685DF8CE
:10425000044B023BD3607047937A03F003030029B9
:10426000E7D043F00403E4E7012B0BD0022B02D18B
:10427000D368013BD3605DF8044B70470D2BF7D03A
:104280000E2BF8D1D3685DF8044B0133D36070472F
:104290000C2B05D0F2D8092BD8D00B2BE8D0EAE7AD
:1042A000D3685DF8044B0233D36070474AF28853F9
:1042B000C2F2010310B4D3F89C2013685068197837
:1042C0000478507A137A044201EA03011AD0937AEF
:1042D00003F0030309B143F0040343F0080399100A
:1042E000082B91722AD8072B22D2032B2ED011D95A
:1042F000042B13D0062B14D1D3685DF8044B023B7A
:10430000D3607047937A03F003030029E7D043F0AA
:104310000403E4E7012B0BD0022B02D1D368013B4D
:10432000D3605DF8044B70470D2BF7D00E2BF8D1FE
:10433000D3685DF8044B0133D36070470C2B05D074
:10434000F2D8092BD8D00B2BE8D0EAE7D3685DF878
:10435000044B0233D36070474AF28853C2F2010320
:1043600010B4D3F8A0201368506819780478507AF4
:10437000137A044201EA03011AD0937A03F003038B
:1043800009B143F0040343F008039910082B91721C
:104390002AD8072B22D2032B2ED011D9042B13D0CD
:1043A000062B14D1D3685DF8044B023BD3607047F1
:1043B000937A03F003030029E7D043F00403E4E712
:1043C000012B0BD0022B02D1D368013BD3605DF8E7
:1043D000044B70470D2BF7D00E2BF8D1D3685DF846
:1043E000044B0133D36070470C2B05D0F2D8092B56
:1043F000D8D00B2BE8D0EAE7D3685DF8044B023342
:10440000D36070474AF28853C2F2010310B4D3F864
:10441000A4201368506819780478507A137A0442FB
:1044200001EA03011AD0937A03F0030309B143F0C0
:10443000040343F008039910082B91722AD8072B24
:1044400022D2032B2ED011D9042B13D0062B14D13A
:10445000D3685DF8044B023BD3607047937A03F056
:1044600003030029E7D043F00403E4E7012B0BD05A
:10447000022B02D1D368013BD3605DF8044B704737
:104480000D2BF7D00E2BF8D1D3685DF8044B013318
:10449000D36070470C2B05D0F2D8092BD8D00B2B4A
:1044A000E8D0EAE7D3685DF8044B0233D360704785
:1044B000F8B54DF63857C2F2000704463B7C0E466D
:1044C00015467BB398422DD044F2E0501E21C0F235
:1044D00002001AF0B7FC4EF2C00000230A22214667
:1044E000C2F2000017F070F944F200600E21C0F231
:1044F00002001AF0A7FC4EF2C000397C00230A2209
:10450000C2F2000017F060F944F210600121C0F21D
:1045100002001AF097FC4EF2C000C2F2000017F041
:1045200041F907E041F2D443C2F201033146186871
:104530000AF036FE44F6AC001221013CC0F2020043
:104540001AF080FCE1B20F2915D841F69857C2F253
:10455000010741F08001B86C03681B689847B86C8C
:10456000036806F07F011B689847B86C036805F084
:104570007F011B68984744F2A4400F21C0F202005B
:104580001AF060FC2B0603F0FE43310443F40043B1
:1045900043F0080301F4FE012402194304F470649B
:1045A00041F2E0402143C2F2010015F031FC44F237
:1045B0001450C0F2020014211AF044FC4EF2C00064
:1045C000C2F20000BDE8F84017F0ECB8F8B54DF6BF
:1045D0003857C2F2000704463B7C0E4615467BB3B3
:1045E00098422DD044F2E0501E21C0F202001AF091
:1045F00029FC4EF2C00000230A222146C2F200002C
:1046000017F0E2F844F200600E21C0F202001AF046
:1046100019FC4EF2C000397C00230A22C2F20000CD
:1046200017F0D2F844F210600121C0F202001AF033
:1046300009FC4EF2C000C2F2000017F0B3F808E027
:1046400041F2D443C2F201032A46186831460AF007
:1046500067FB44F6C0001121013CC0F202001AF0D1
:10466000F1FBE1B20F2915D841F69857C2F20107C4
:1046700041F09001B86C03681B689847B86C0368F8
:1046800006F07F011B689847B86C036805F07F014E
:104690001B68984744F2A4400F21C0F202001AF0B0
:1046A000D1FB2B0603F0FE43310443F4104343F0E7
:1046B000090301F4FE012402194304F4706441F279
:1046C000E0402143C2F2010015F0A2FB44F2145075
:1046D000C0F2020014211AF0B5FB4EF2C000C2F283
:1046E0000000BDE8F84017F05DB800BFF8B54DF622
:1046F0003857C2F2000704463B7C0E4615467BB392
:1047000098422DD044F2E0501E21C0F202001AF06F
:1047100099FB4EF2C00000230A222146C2F200009B
:1047200017F052F844F200600E21C0F202001AF0B5
:1047300089FB4EF2C000397C00230A22C2F200003D
:1047400017F042F844F210600121C0F202001AF0A2
:1047500079FB4EF2C000C2F2000017F023F807E028
:1047600041F2D443C2F20103314618680AF018FD41
:1047700044F6D4001721013CC0F202001AF062FB9B
:10478000E1B20F2915D841F69857C2F2010741F05E
:104790008001B86C03681B689847B86C036806F022
:1047A0007F011B689847B86C036805F07F011B68A0
:1047B000984744F2A4400F21C0F202001AF042FBD5
:1047C0002B0603F0FE43300443F4004343F0080398
:1047D00000F4FE002402184304F47064204319F02E
:1047E000A7FC44F2B440C0F202000F211AF02AFBE9
:1047F0004EF2C000C2F20000BDE8F84016F0D2BF91
:10480000F8B54DF63857C2F2000704463B7C0E4619
:1048100015467BB398422DD044F2E0501E21C0F2E1
:1048200002001AF00FFB4EF2C00000230A222146BC
:10483000C2F2000016F0C8FF44F200600E21C0F280
:1048400002001AF0FFFA4EF2C000397C00230A225F
:10485000C2F2000016F0B8FF44F210600121C0F26D
:1048600002001AF0EFFA4EF2C000C2F2000016F099
:1048700099FF08E041F2D443C2F201032A461868C6
:1048800031460AF04DFA44F6EC001621013CC0F224
:1048900002001AF0D7FAE1B20F2915D841F698575D
:1048A000C2F2010741F09001B86C03681B68984799
:1048B000B86C036806F07F011B689847B86C036802
:1048C00005F07F011B68984744F2A4400F21C0F215
:1048D00002001AF0B7FA2B0603F0FE43300443F44B
:1048E000104343F0090300F4FE002402184304F4CB
:1048F0007064204319F01CFC44F2B440C0F2020082
:104900000F211AF09FFA4EF2C000C2F20000BDE87B
:10491000F84016F047BF00BF10B444F21044002323
:10492000C0F202044172026104600372C36041B1CB
:10493000194600E0026942F82310427A01339A4294
:10494000F8DC4AF28863C2F201031A680AB90CE083
:104950001A465369002BFBD15061002343618380C9
:10496000C38083725DF8044B70471860F5E700BFA1
:10497000F8B541F69854C2F2010447F61221A06C32
:104980000368DB69984741F68507032041F6211348
:1049900046F2097144F65D6641F6213284F86400FE
:1049A000C0F20003C0F20007C0F20001C0F200062E
:1049B000C0F2000241F2197063602760E160666135
:1049C000A261C0F2000045F6754340F6056741F26A
:1049D0009D7140F6F53640F6C1222061C0F2000319
:1049E000C0F20007C0F20001C0F20006C0F20002EF
:1049F00041F23D40E3612762A160A662E262C0F23B
:104A0000000040F6515340F6554740F6A94140F6A4
:104A1000FD4641F24102C0F200022063C0F20003F1
:104A2000C0F20007C0F20001C0F200064EF2C0055D
:104A300044F604106264C2F200056363A7630023B6
:104A40004FF6FF77E16326641721C0F2020084F875
:104A50004C3084F84E3084F84D30A365636584F89B
:104A6000E93084F8663084F8653084F8673084F87B
:104A70006830E76527661AF0E5F9284616F092FED9
:104A800013F096FB41F2E043C2F2010344F6010148
:104A900044F2ED6746F2516644F6E16441F6B13204
:104AA000C0F20001C0F20007C0F20006C0F200042C
:104AB000C0F2000241F2D950C3F86811C3F8647122
:104AC000C3F87061C3F87841C3F87C21C0F20000DC
:104AD00045F6D54141F6392741F2716641F6150494
:104AE00040F6E972C3F87401C0F20001C0F2000799
:104AF000C0F20006C0F20004C0F2000241F2C14060
:104B0000C3F88411C3F88871C3F86C61C3F890418D
:104B1000C3F89421C0F2000040F6153140F6B917F1
:104B200040F6112640F6692440F66D32C0F20002CC
:104B3000C3F89801C0F20001C0F20007C0F20006FD
:104B4000C0F2000444F61C10C3F89C11C3F8A07115
:104B5000C3F8A461C3F8A841C3F8AC211D21C0F279
:104B600002001AF06FF9284616F01CFE4AF62811CA
:104B7000C2F2010144F2CD5EC0F2000E4AF62014EA
:104B8000C1F800E0C2F2010444F2B14EC0F2000EDE
:104B90004AF62413C4F800E0C2F2010346F23D5E77
:104BA000C0F2000E4AF6F807C3F800E0C2F20107AF
:104BB00044F6797EC0F2000E4AF6E800C7F800E03D
:104BC000C2F2010041F2552EC0F2000E4AF6E40690
:104BD000C0F800E0C2F2010641F20D3EC0F2000E44
:104BE0004AF60812C6F800E0C2F2010245F6595E24
:104BF000C0F2000E4AF60011C2F800E0C2F2010154
:104C000041F6A92EC0F2000E4AF6F404C1F800E005
:104C1000C2F2010441F2B51EC0F2000E4AF61C13A6
:104C2000C4F800E0C2F2010341F6C11EC0F2000E5A
:104C30004AF60417C3F800E0C2F2010741F2551E1C
:104C4000C0F2000E4AF6CC00C7F800E0C2F2010044
:104C500041F24957C0F200074AF6FC060760C2F26B
:104C600001064AF6DC0240F66967C2F20102C0F2B0
:104C700000074AF6141140F6C9603760C2F201011C
:104C8000C0F200004AF6D4044AF6D00340F6297771
:104C9000C2F201031060C2F20104C0F2000740F644
:104CA000897641F2C50244F63C100F60C0F200065E
:104CB000C0F20002C0F20200182126601A601AF049
:104CC000C1F82846BDE8F84016F06CBD4DF20A73F5
:104CD000C3F6234306EE103A437EC17E07EE103A38
:104CE000837CB8EEC77A07EE903A70B4F8EEE76AC4
:104CF00027EE067A83B067EE267A0022FCEEE77A8A
:104D00008273CDED017A42739DF80430027301B1D4
:104D10000373827E02B14373027F02B1837390F802
:104D2000213090F8231007EE103A4DF20A73C3F6C3
:104D3000234306EE103A037CB8EEC77A07EE903AAA
:104D400027EE067AF8EEE76A67EE267AFCEEE77A57
:104D5000CDED017A9DF8043021B1017B994238BF35
:104D60001946017390F8221021B1417B994238BF56
:104D70001946417390F8244024B1817B8B4238BF9F
:104D80000B468373437FC17F07EE103A4DF20A73DF
:104D9000C3F6234306EE103A437CB8EEC77A07EE1B
:104DA000903A27EE067AF8EEE76A67EE267AFCEE8E
:104DB000E77ACDED017A9DF8043021B1017B99426B
:104DC00038BF19460173817F21B1417B994238BFB9
:104DD0001946417390F8201021B1857BAB4238BF52
:104DE0002B46837390F8253090F8275007EE103A41
:104DF0004DF20A73C3F6234306EE103AC37BB8EEB6
:104E0000C77A07EE903A27EE067AF8EEE76A67EE81
:104E1000267AFCEEE77ACDED017A9DF8043025B1D3
:104E2000057B9D4238BF1D46057390F8265025B17D
:104E3000457B9D4238BF1D46457390F8285025B1EB
:104E4000867BB34238BF3346837322B919B914B98C
:104E50000DB97F23837303B070BC704738B541F23E
:104E6000D443C2F201030C461B680546240483F8B0
:104E7000CF1003F1C00004F4FE04013DFFF726FF4C
:104E800044F4504444F658102D020D2105F4706589
:104E9000C0F2020044F00D0419F0D4FF2C4341F29B
:104EA000E0402146C2F2010014F0B2FF44F2145077
:104EB0001421C0F2020019F0C5FF204619F038F99C
:104EC00044F2B440C0F202000F2119F0BBFF4EF2D1
:104ED000C000C2F20000BDE8384016F063BC00BF5D
:104EE00041F2D443C2F2010370B51B68054683F852
:104EF000CF1003F1C0000C46FFF7E8FE44F668103F
:104F00001221013DC0F2020019F09CFFE9B20F2905
:104F10000FD841F69856C2F2010641F0D001B06CAC
:104F200003681B689847B06C036804F07F011B6836
:104F3000984744F2A4400F21C0F2020019F082FF0A
:104F4000230403F4FE03280243F4504343F00D030B
:104F500000F47060184319F0EBF844F2B440C0F26A
:104F600002000F2119F06EFF4EF2C000C2F20000E5
:104F7000BDE8704016F016BC41F2D443C2F2010302
:104F800070B51B68054683F8CF1003F1C0000C46CE
:104F9000FFF79CFE44F67C100D21013DC0F202009B
:104FA00019F050FFE9B20F290FD841F69856C2F216
:104FB000010641F0D001B06C03681B689847B06CE3
:104FC000036804F07F011B68984744F2A4400F2156
:104FD000C0F2020019F036FF230403F4FE03290295
:104FE00043F4504343F00D0301F4706141F2E0409B
:104FF0001943C2F2010014F00BFF44F21450C0F246
:105000000200142119F01EFF4EF2C000C2F200008F
:10501000BDE8704016F0C6BB10B4036841681A784A
:105020000C78417A037A0C4202EA03021AD0837A9E
:1050300003F003030AB143F0040343F008039A109A
:10504000082B82722AD8072B22D2032B2ED011D9FB
:10505000042B13D0062B14D1C3685DF8044B023B1C
:10506000C3607047837A03F00303002AE7D043F05C
:105070000403E4E7012B0BD0022B02D1C368013BF0
:10508000C3605DF8044B70470D2BF7D00E2BF8D1A1
:10509000C3685DF8044B0133C36070470C2B05D027
:1050A000F2D8092BD8D00B2BE8D0EAE7C3685DF81B
:1050B000044B0233C36070471D2810B50B4600F047
:1050C000E983024622D92C2800F064813FD82428A5
:1050D00000F0EE8340F2A880282800F0748300F2EC
:1050E000D680262800F0F58140F2D5824AF2885415
:1050F000C2F2010444F2AD21C0F2000104222720D3
:10510000C4F89C3017F0B6F8012010BD0E2800F04E
:1051100097833AD8062800F0A1836CD90A2800F0BA
:10512000058300F20781082800F07E8140F2758235
:105130004AF28854C2F2010442F2C111C0F20001E5
:1051400004220920636217F095F8012010BD34286D
:1051500000F0BD8336D8302800F0638300F2D6809B
:105160002E2800F0528140F201824AF28854C2F2A5
:10517000010442F2CD71C0F2000104222F20C4F8D4
:10518000BC3017F077F8012010BD152800F07483AB
:1051900064D9192800F0FA8100F2A580172800F0E0
:1051A0008A8140F2D1824AF28854C2F2010443F665
:1051B0009901C0F2000104221820236617F05AF862
:1051C000012010BD382800F0CE8275D8362800F0B6
:1051D000398140F27F824AF28854C2F2010442F6D9
:1051E0002D51C0F2000104223720C4F8DC3017F042
:1051F00041F8012010BD022800F0018240F27881C0
:10520000042800F04B8140F2BD824AF28854C2F279
:10521000010441F61171C0F200010422052063610E
:1052200017F028F8012010BD202800F0448240F239
:105230008981222800F0238140F2D4824AF28854E6
:10524000C2F2010443F6FD71C0F2000104222320E2
:10525000C4F88C3017F00EF8012010BD112800F0B2
:10526000B18140F25A81132800F0FB8040F2B881EE
:105270004AF28854C2F2010443F2E951C0F200013B
:1052800004221420236516F0F5FF012010BD2A2802
:1052900000F0AC8040F2E0814AF28854C2F201048E
:1052A00042F21D51C0F2000104222B20C4F8AC30A0
:1052B00016F0E0FF012010BD3A2800F08880C0F011
:1052C00072823B2840F06D824AF28854C2F2010497
:1052D00042F2C531C0F200010422C4F8EC3016F0ED
:1052E000C9FF012010BD1B2863D040F28B824AF217
:1052F0008854C2F2010443F64931C0F2000104228D
:105300001C20236716F0B6FF012010BD322824D0E0
:1053100040F292814AF28854C2F2010442F67D21A1
:10532000C0F2000104223320C4F8CC3016F0A2FFF2
:10533000012010BD0C281FD040F29E814AF28854F3
:10534000C2F2010443F23511C0F2000104220D2023
:10535000636316F08FFF012010BD4AF28854C2F239
:10536000010442F6D111C0F200010422C4F8C83091
:1053700016F080FF012010BD4AF28854C2F20104E9
:1053800043F28901C0F200010422236316F072FF88
:10539000012010BD4AF28854C2F2010442F2C95100
:1053A000C0F200010422C4F8B03016F063FF0120FF
:1053B00010BD4AF28854C2F2010443F69D21C0F2A6
:1053C00000010422E36616F055FF012010BD4AF2E9
:1053D0008854C2F2010442F21931C0F200010422E1
:1053E000C4F8E83016F046FF012010BD4AF2885498
:1053F000C2F2010442F27141C0F200010422C4F879
:10540000A83016F037FF012010BD4AF28854C2F2CE
:10541000010442F22171C0F200010422C4F8B83044
:1054200016F028FF012010BD4AF28854C2F2010490
:1054300042F21511C0F200010422236216F01AFF95
:10544000012010BD4AF28854C2F2010442F68141A3
:10545000C0F200010422C4F8D83016F00BFF01207E
:1054600010BD4AF28854C2F2010443F23D51C0F229
:1054700000010422E36416F0FDFE012010BD4AF293
:105480008854C2F2010443F65171C0F200010422B3
:10549000C4F8883016F0EEFE012010BD4AF28854A0
:1054A000C2F2010441F66561C0F20001236116F009
:1054B000E1FE012010BD4AF28854C2F2010443F219
:1054C000ED71C0F200010422E36516F0D3FE012065
:1054D00010BD4AF28854C2F2010444F20121C0F224
:1054E00000010422C4F8983016F0C4FE012010BD5B
:1054F000002800F0FF80012840F053814AF28854D0
:10550000C2F2010442F26D21C0F200010422012026
:10551000636016F0AFFE012010BD0F2800F0F88088
:10552000102840F03E814AF28854C2F2010443F24E
:105530003931C0F2000104221020236416F09AFED3
:10554000012010BD1E282FD01F2840F02A814AF2CA
:105550008854C2F2010443F64D51C0F20001042206
:105560001F20E36716F086FE012010BD4AF2885422
:10557000C2F2010442F27561C0F2000104222D2042
:10558000C4F8B43016F076FE012010BD4AF28854FB
:10559000C2F2010443F64511C0F200010422636621
:1055A00016F068FE012010BD4AF28854C2F20104D0
:1055B00043F6A141C0F200010422A36716F05AFE8F
:1055C000012010BD4AF28854C2F2010443F2E531D1
:1055D000C0F200010422636416F04CFE012010BDED
:1055E0004AF28854C2F2010443F29141C0F2000130
:1055F00004221220A36416F03DFE012010BD4AF2E1
:105600008854C2F2010441F60D51C0F20001042297
:10561000A36016F02FFE012010BD4AF28854C2F29A
:10562000010442F26901C0F2000104220720E36193
:1056300016F020FE012010BD4AF28854C2F2010487
:1056400042F62511C0F2000104223120C4F8C43012
:1056500016F010FE012010BD4AF28854C2F2010477
:1056600044F20541C0F2000104222920C4F8A4300C
:1056700016F000FE012010BD4AF28854C2F2010467
:1056800042F6DD71C0F2000104220B20E36216F045
:10569000F1FD012010BD4AF28854C2F2010444F227
:1056A0005511C0F2000104222520C4F8943016F0F0
:1056B000E1FD012010BD4AF28854C2F2010443F614
:1056C000F951C0F200010422C4F8803016F0D2FD76
:1056D000012010BD4AF28854C2F2010442F6D531CD
:1056E000C0F2000104223520C4F8D43016F0C2FD07
:1056F000012010BD4AF28854C2F2010441F6614112
:10570000C0F200010422236016F0B4FD012010BD98
:105710004AF28854C2F2010443F28D21C0F2000122
:105720000422E36316F0A6FD012010BD4AF288545E
:10573000C2F2010442F63171C0F200010422A362F8
:1057400016F098FD012010BD4AF28854C2F20104FF
:1057500043F24171C0F2000104221620A36516F045
:1057600089FD012010BD4AF28854C2F2010442F6BC
:10577000D951C0F200010422C4F8E03016F07AFDDD
:10578000012010BD4AF28854C2F2010441F6B95119
:10579000C0F2000104220320E36016F06BFD01203B
:1057A00010BD002010BD4AF28854C2F2010442F636
:1057B0008561C0F2000104223920C4F8E43016F0FB
:1057C00059FD012010BD4AF28854C2F2010444F28E
:1057D0005931C0F200010422C4F8A03016F04AFD8D
:1057E000012010BD4AF28854C2F2010443F6A561BB
:1057F000C0F2000104222120C4F8843016F03AFDE2
:10580000012010BD4AF28854C2F2010443F6F1119E
:10581000C0F2000104221A20A36616F02BFD01201D
:1058200010BD4AF28854C2F2010442F67901C0F276
:1058300000010422C4F8C03016F01CFD012010BD88
:105840004AF28854C2F2010443F2E111C0F20001AD
:105850000422A36316F00EFD012010BD4AF2885405
:10586000C2F2010441F6BD71C0F200010422A3613D
:1058700016F000FD012010BD4AF28854C2F2010466
:1058800043F29561C0F200010422636516F0F2FC58
:10589000012010BD4AF28854C2F2010443F6F531EA
:1058A000C0F200010422636716F0E4FC012010BD81
:1058B0004AF28854C2F2010444F2A901C0F2000184
:1058C0000422C4F8903016F0D5FC012010BD4AF235
:1058D0008854C2F2010442F62931C0F200010422C8
:1058E000C4F8D03016F0C6FC012010BDF8B504464F
:1058F00015460E460846022116F034FF28460221BE
:1059000016F030FF45F68423C0F20203012253F85B
:105910003600227200F50071216053F83510627272
:105920004DF2C04301F5007762F31F430022676028
:10593000E260013BFDD190F8003291F8002203F0C3
:105940000103D20744BF43F00203DBB2A372214636
:105950003046FFF7B1FB214620742846FFF7ACFB29
:10596000237C184420742046F8BD00BFF8B50646D5
:1059700044F68C100F46C0F202000B2119F062FAB7
:105980004EF2C0003946C2F2000000230A2215F090
:105990001BFF44F69810C0F20200012119F052FAE0
:1059A000B7B100252C4644F6BC400121C0F20200EC
:1059B00019F048FA01344EF2C000715DE4B2C2F24F
:1059C000000000230A2215F0FFFEA7422546EAD870
:1059D0004EF2C000C2F2000015F0E4FE4DF638535E
:1059E000C2F200031B7C73B1B07800F00F000130ED
:1059F000834208D0FBF7D6F928B944F69C10C0F2D0
:105A000002001B2107E07378432B0ED044F6B81038
:105A1000C0F202001B2119F015FA4EF2C000C2F2CA
:105A20000000BDE8F84015F0BDBE44F6D4100C21CE
:105A3000C0F2020019F006FAB1784EF2C000C1F3CC
:105A40000211C2F2000015F04FFE44F69810012139
:105A5000C0F2020019F0F6F94EF2C000C2F20000E6
:105A600015F0A0FE072F05D044F66C20C0F202000E
:105A70002021D0E7F378C3F38403002B00F0C88023
:105A8000022B40F0F180B379F72B40F0C48041F253
:105A9000D443C2F2010331791B6872794AF6AB2014
:105AA00001F07F01C3F6AA5007EE100A581802F061
:105AB0007F023171727180F8C82193F80A4293F81D
:105AC000075293F80C0293F80872C3F8C45093F885
:105AD000095293F80E2293F81012C3F8C87083F895
:105AE000D95004F00107C4F34005C4F3800493F8CF
:105AF0000BE283F8DA7083F8DB5000F0010783F8DB
:105B0000DC40C0F3400593F80D4283F8DDE0C0F3BC
:105B1000800083F8DE7002F0010E83F8DF5083F816
:105B2000E00093F80F5283F8E140C1F3400001F028
:105B30000104C2F34007C2F3800283F8E42083F833
:105B4000E64083F8E2E083F8E37083F8E55083F8F9
:105B5000E70093F81122520607EE902AF8EEE77A52
:105B6000C1F3800167EE877A83F8E810FDEEE77AEB
:105B700003F1C000C3ED357AFFF7A8F834795C343F
:105B8000E4B244F6B420C0F20200FAF70BFFF37857
:105B900013F07C0F05D144F64420C0F20200FAF75E
:105BA00001FF44F65020C0F20200FAF7FBFE4EF26D
:105BB000C00000230A223179C2F2000015F004FE71
:105BC00044F668200321C0F2020019F03BF94EF2BE
:105BD000C000717900230A22C2F2000015F0F4FD22
:105BE00044F65C200F21C0F2020019F02BF94EF2AE
:105BF000C00021460023C2F200000A2215F0E4FD95
:105C00004EF2C000C2F20000BDE8F84015F0CABD77
:105C1000B379F72B05D044F61C20C0F202002621F0
:105C2000F9E63279737941F2D444C2F2010402F008
:105C30007F0203F07F0320683271737109F0DAFC90
:105C4000F27833792068717902F0030203EBC21312
:105C5000034483F86C1109F0C1FBF478337903EB4A
:105C6000C41404F0FF048CE744F6E410C0F2020010
:105C70003621D0E638B504460D46FFF777FE44F6E8
:105C800090201021C0F2020019F0DCF841F2E0404F
:105C900000232A462146C2F2010014F0F7F844F22C
:105CA00014501421C0F2020019F0CCF82946204605
:105CB000002218F091FA44F2B440C0F202000F2121
:105CC00019F0C0F84EF2C000C2F20000BDE8384042
:105CD00015F068BD2DE9F04141F698550F46804614
:105CE000C2F20105FFF742FE44F6A4201521C0F2DE
:105CF000020019F0A7F8A86C0368F021DB6C984744
