:100000000000032035B8010019B80100D1B7010084
:10001000D1B70100D1B70100D1B70100D1B70100BC
:10002000D1B70100D1B70100D1B7010019B8010063
:1000300019B80100D1B70100CDE8010045EB01007E
:1000400019B8010019B8010019B8010019B8010068
:1000500019B8010019B8010019B8010019B8010058
:1000600019B8010019B8010019B8010019B8010048
:1000700019B8010019B8010019B8010019B8010038
:1000800019B8010019B8010019B8010019B8010028
:1000900019B8010019B8010019B8010019B8010018
:1000A000398501009586010019B8010019B80100D1
:1000B00019B8010019B8010019B8010019FF0100B1
:1000C00019B801007500020019B80100D101020041
:1000D00019B801000103020019B8010019B80100A4
:1000E00019B8010019B8010019B8010019B80100C8
:1000F00019B8010019B8010019B8010019B80100B8
:1001000019B8010019B8010019B8010019B80100A7
:1001100019B80100F1C3010019B8010019B80100B4
:1001200019B8010019B8010019B8010019B8010087
:1001300019B8010019B8010019B8010019B8010077
:1001400019E6010019B801003104020019B80100D4
:1001500019B8010019B8010019B8010019B8010057
:1001600019B8010019B80100F187010019B80100A0
:1001700019B8010019B8010019B8010019B8010037
:1001800019B8010019B8010019B8010019B8010027
:1001900019B8010019B801006105020019B8010081
:1001A00019B8010019B8010019B8010019B8010007
:1001B00019B8010019B8010019B8010019B80100F7
:1001C00019B8010019B8010019B8010019B80100E7
:1001D000FFFFFFFFFFFFFFFFFFFFFFFFFFFFFFFF2F
:10040000FFFFFFFFFFFFFFFFFFFFFFFFDEF9FFFF23
:1004100010B5054C237833B9044B13B10448AFF33E
:1004200000800123237010BD00F0002000000000B8
:100430005C720200084B10B51BB108490848AFF3C5
:1004400000800848036803B910BD074B002BFBD0A0
:10045000BDE81040184700BF0000000004F0002075
:100460005C72020034EC002000000000704700BF06
:1004700010B54FF4097104461EF0CAFD204610BDA8
:1004800070B54FF06A522DED028B064645F21813F7
:1004900008EE902A40F6DB72C0F202034FF61A050E
:1004A00040F6DA70C4F24902C2F20005C3F64920F0
:1004B00008EE102A336000240FE007EE904AF8EEB1
:1004C000E77A77EE807A67EEA87A67EE887A27EE89
:1004D000800A20F079FB10EE100A23F037FB41EC84
:1004E000100B20F0D9F900230022CCF2900351EC3C
:1004F000100B23F07FFB41EC100B20F0E1F951ECE5
:10050000100B23F04FFE0134B4F5806FB6EE000AF5
:1005100025F8020FD1D14FF06A534FF21A0508EEB9
:10052000103AC2F20005002407EE904AF8EEE77A8E
:10053000013467EE887A17EE900A23F007FB9FEDEF
:10054000140B41EC110B20F03FFC002351EC100B7D
:100550000022C3F6F07323F099F900230022C4F2BD
:10056000B00323F047FB23F03DFE23F0EFFA41EC0C
:10057000100B20F0A5F951EC100B23F013FEB4F58D
:10058000806F25F8020FCFD1BDEC028B304670BDD5
:100590000000000000000040704700BF10B54FF49D
:1005A000097104461EF034FD204610BD2DE9F04FC0
:1005B0004DF6BC66C2F200060A9D0B989DF830709D
:1005C000B6F800C045F23014C0F20204C5EB000AD0
:1005D000002F18BF0C466FEA0C0B0AF1200A4DF6EB
:1005E000BC294DF6BC48043A271FA1F1040E0FFAAE
:1005F0008BFB4FEAAA1AC2F20009C2F200080026D9
:1006000027E0B4F5007F02D08CB3C943C9B239F8F2
:1006100011104CEA010101EBC00080B20BEA0004AA
:10062000E143C9B2241238F8111001F58061490084
:10063000E14010EA0C0F18BFC94357F8044F09985E
:1006400009B2013604EB8131402E03444EF8041FF9
:1006500010D052F8041F1944891301F44074554412
:10066000B4F5807FC9B2A8B2CBD1C943C9B239F8B9
:100670001110D0E7BDE8F08F2DE9F04F4DF6BC65C5
:10068000C2F2000509982E880A9D9DF82C7045F24B
:100690003014C0F20204C0EB050E002F14BF0F4649
:1006A00027466FEA06090EF1200E4DF6BC284DF6DE
:1006B000BC4C3C1F0D1F0FFA89F9FC374FEAAE1EE8
:1006C000C2F20008C2F2000C2AE0BBF5007F04D0A1
:1006D000BBF1000F30D0C943C9B238F81110314313
:1006E00001EBCA0A1FFA8AFA09EA0A0B6FEA0B0140
:1006F000C9B24FEA2B2B3CF8111001F5806149007B
:100700001AEA060F21FA0BF154F804AF18BFC943D7
:1007100009B20AEB8131BC421A4445F8041F0ED0DD
:10072000911301F4407B7044BBF5807F1FFA80FA7F
:10073000C9B2CAD1C943C9B238F81110D0E7BDE86F
:10074000F08F00BF2DE9F04F4DF6BC6083B0C2F2D0
:1007500000000D9EB0F800C00C9C9DF840A00F9FBB
:100760000E980E9D019345F2301EC0F2020EC4EBAE
:10077000060B6FEA0C06BAF1000F14BF8A46F24668
:1007800033B20BF1200B4DF6BC294DF6BC48AAF153
:10079000040600686D680093A1F1040E0AF1FC0ADA
:1007A0004FEAAB1B0137C2F20009C2F2000829E090
:1007B000B0F5007F02D098B3DB43DBB239F81330D9
:1007C0004CEA030303EBC101009B89B203EA010079
:1007D000C343DBB2001238F8133003F580635B00CB
:1007E000C34011EA0C0F18BFDB4356F8041F0198F1
:1007F0001BB29B031944564502444EF8041F284679
:1008000011D01D4643193B4113449B1303F4407020
:100810005C44B0F5807FDBB2A1B2C9D1DB43DBB26F
:1008200039F81330CEE70E9A1560536003B0BDE877
:10083000F08F00BF2DE9F04F46F2A84403EB4303CD
:10084000C0F2020404EBC3050646144689460FCDE8
:1008500091B00AAF0FC795E80300002387E80300B3
:10086000012704F160088DF8247007978DF8253072
:100870008DF826300AAD48E00AF1FF3101EB011195
:1008800006EB0111133121F00F0194E80140C0146F
:10089000C0F500706060BEF1000F3FD0BEF5FE7F76
:1008A0003EDA10AFBA441AF81CCCBCF1000F04D0E9
:1008B00012F1000C18BF4FF0010CC3F301123AB152
:1008C00010AF07EB020B1BF81CBCBBF1000F34D1BF
:1008D00003F0C003C02B02D11B9B0F2B41DDA3688B
:1008E000E2680190CDF808C0CDF800E03046FFF78F
:1008F000C3FE9DF81C300AF81C3CE368A26803EBB9
:100900008213E3601034A04514D055F8043B13F073
:10091000030A03F00402AFD14946B6E740F2FF1ED6
:10092000B0F5FE7FBDDB002AE7D110AB9A440AF890
:100930001C2CE2E711B0BDE8F08F013A02EB021285
:10094000E368CDF80CC006EB02120290CDF804E08B
:10095000A0680090133222F00F023046FFF726FE07
:10096000C7E71F46E268A36803971A9F0190CDF876
:1009700010C00297CDF800E03046FFF7E3FEB8E77D
:1009800000207047704700BF704700BF704700BF2E
:10099000704700BF704700BF10B504461DF0BEFD94
:1009A000204610BD10B5044624F0EAF80146204662
:1009B000BDE810401DF0A8BA10B5044624F0E0F8D8
:1009C000014620461DF0A0FA04464EF24020C2F235
:1009D00000001EF0ADF9204410BD00BF45F2C82054
:1009E00008B51621C0F202001DF08EFA41F2C05087
:1009F000C2F201004FF20F6119F0DAFD45F2E0207A
:100A00001421C0F202001DF07FFA4FF20F601CF0BB
:100A1000F1FB45F2F820C0F202000F211DF074FA3C
:100A20004EF24020C2F20000BDE808401EF080B93E
:100A300045F2083008B51521C0F202001DF064FA35
:100A400041F67863C2F20103FA21986C03681B68CF
:100A5000984745F220300F21C0F202001DF054FAF1
:100A60004FF60F201CF0C6FB45F2F820C0F2020042
:100A70000F211DF049FA4EF24020C2F20000BDE8FD
:100A800008401EF055B900BF45F2303008B51821B6
:100A9000C0F202001DF038FA41F67863C2F2010399
:100AA000FB21986C03681B68984745F220300F21A2
:100AB000C0F202001DF028FA4FF60F301CF09AFB2E
:100AC00045F2F820C0F202000F211DF01DFA4EF28F
:100AD0004020C2F20000BDE808401EF029B900BF66
:100AE00045F24C3008B51421C0F202001DF00CFA9A
:100AF00041F67863C2F20103FC21986C03681B681D
:100B0000984745F220300F21C0F202001DF0FCF999
:100B10004FF60F401CF06EFB45F2F820C0F20200C9
:100B20000F211DF0F1F94EF24020C2F20000BDE8A5
:100B300008401EF0FDB800BF45F2643008B51D2125
:100B4000C0F202001DF0E0F941F67863C2F2010341
:100B5000FE21986C03681B68984745F220300F21EE
:100B6000C0F202001DF0D0F94FF60F601CF042FBFE
:100B700045F2F820C0F202000F211DF0C5F94EF237
:100B80004020C2F20000BDE808401EF0D1B800BF0E
:100B900038B545F284304EF2402541F29054102190
:100BA000C2F20104C2F20005C0F202001DF0ACF96D
:100BB00028461EF0BDF820680EF056FF20680EF0A3
:100BC0005FFE20680EF070FE45F298301B21C0F2E7
:100BD00002001DF099F941F67863C2F20103FF218A
:100BE000986C03681B68984745F220300F21C0F2CB
:100BF00002001DF089F94FF60F701CF0FBFA45F268
:100C0000F820C0F202000F211DF07EF92846BDE851
:100C100038401EF08DB800BF10B50446240445F2DC
:100C2000B43004F4FE041521C0F2020044F473440D
:100C30001DF06AF944F0020441F2C0502146C2F2AC
:100C4000010019F0B5FC45F2E0201421C0F20200C9
:100C50001DF05AF920461CF0CDFA45F2F820C0F2FA
:100C600002000F211DF050F94EF24020C2F20000A8
:100C7000BDE810401EF05CB845F2CC3008B510213C
:100C8000C0F202001DF040F941F2C050C2F2010072
:100C90004FF60F2119F08CFC45F2E0201421C0F230
:100CA00002001DF031F94FF60F201CF0A3FA45F2B7
:100CB000F820C0F202000F211DF026F94EF240206C
:100CC000C2F20000BDE808401EF032B845F2E03044
:100CD00008B51321C0F202001DF016F941F2C05010
:100CE000C2F201004FF60F3119F062FC45F2E0202C
:100CF0001421C0F202001DF007F94FF60F301CF06E
:100D000079FA45F2F820C0F202000F211DF0FCF83C
:100D10004EF24020C2F20000BDE808401EF008B8C4
:100D200045F2F43008B50F21C0F202001DF0ECF8D6
:100D300041F2C050C2F201004FF60F4119F038FCE9
:100D400045F2E0201421C0F202001DF0DDF84FF65C
:100D50000F401CF04FFA45F2F820C0F202000F21BC
:100D60001DF0D2F84EF24020C2F20000BDE808406B
:100D70001DF0DEBF45F2044008B51821C0F20200A4
:100D80001DF0C2F841F2C050C2F201004FF60F61EF
:100D900019F00EFC45F2E0201421C0F202001DF013
:100DA000B3F84FF60F601CF025FA45F2F820C0F2B8
:100DB00002000F211DF0A8F84EF24020C2F2000000
:100DC000BDE808401DF0B4BF38B505464EF24024DA
:100DD00045F22040C2F200041E21C0F202001DF0C4
:100DE00093F8294600230A2220461DF0B3FF45F25E
:100DF00040400E21C0F202001DF086F84DF6C0639F
:100E0000C2F200030A22197C204600231DF0A2FF33
:100E100045F250400121C0F202001DF075F8204655
:100E20001DF086FF002038BD45F2544008B518215A
:100E3000C0F202001DF068F841F67863C2F20103C7
:100E4000FE21986C03681B68984745F220300F21FB
:100E5000C0F202001DF058F841F2C050C2F2010089
:100E60004FF60F6119F0A4FB45F2E020C0F202003A
:100E700014211DF049F84EF24020C2F20000BDE8F6
:100E800008401DF055BF00BF45F2704008B50F2166
:100E9000C0F202001DF038F841F67863C2F2010397
:100EA000FC21986C03681B68984745F220300F219D
:100EB000C0F202001DF028F841F2C050C2F2010059
:100EC0004FF60F4119F074FB45F2E020C0F202002A
:100ED00014211DF019F84EF24020C2F20000BDE8C6
:100EE00008401DF025BF00BF45F2804008B51B211A
:100EF000C0F202001DF008F841F67863C2F2010367
:100F0000F621986C0368DB6C984745F220300F217E
:100F1000C0F202001CF0F8FF4FF20F601CF06AF9FB
:100F200045F2F820C0F202000F211CF0EDFF4EF256
:100F30004020C2F20000BDE808401DF0F9BE00BF2D
:100F400045F29C4008B51021C0F202001CF0DCFF05
:100F500041F67863C2F20103FA21986C03681B68BA
:100F6000984745F220300F21C0F202001CF0CCFF60
:100F700041F2C050C2F201004FF60F2119F018FBE8
:100F800045F2E020C0F2020014211CF0BDFF4EF239
:100F90004020C2F20000BDE808401DF0C9BE00BFFD
:100FA00045F2B04008B51321C0F202001CF0ACFFBE
:100FB00041F67863C2F20103FB21986C03681B6859
:100FC000984745F220300F21C0F202001CF09CFF30
:100FD00041F2C050C2F201004FF60F3119F0E8FAA9
:100FE00045F2E020C0F2020014211CF08DFF4EF209
:100FF0004020C2F20000BDE808401DF099BE00BFCD
:1010000038B545F284304EF2402541F2905410211B
:10101000C2F20104C2F20005C0F202001CF074FF2B
:1010200028461DF085FE20680EF01EFD20680EF09B
:1010300027FC20680EF038FC45F2C4401621C0F2AF
:1010400002001CF061FF41F2C050C2F201004FF6F5
:101050000F7119F0ADFA45F2E0201421C0F2020040
:101060001CF052FF4FF60F701CF0C4F845F2F82048
:10107000C0F202000F211CF047FF2846BDE83840AF
:101080001DF056BE10B5044645F2DC401F21C0F2EB
:10109000020004F00F041CF037FF44F010044FF27C
:1010A000021343EA044441F2C0502146C2F2010057
:1010B00019F07EFA45F2E0201421C0F202001CF083
:1010C00023FF20461CF096F845F2F820C0F20200FB
:1010D0000F211CF019FF4EF24020C2F20000BDE8C3
:1010E00010401DF025BE00BF45F2FC4008B516219A
:1010F000C0F202001CF008FF41F67863C2F201035F
:10110000F621986C0368DB6C984745F220300F217C
:10111000C0F202001CF0F8FE41F2C050C2F2010021
:101120004FF20F6119F044FA45F2E020C0F20200DC
:1011300014211CF0E9FE4EF24020C2F20000BDE88E
:1011400008401DF0F5BD00BF38B545F284304EF2C1
:10115000402541F290541021C2F20104C2F2000570
:10116000C0F202001CF0D0FE28461DF0E1FD206810
:101170000EF07AFC20680EF083FB20680EF094FBE2
:1011800045F214501621C0F202001CF0BDFE41F6DB
:101190007863C2F20103FF21986C03681B689847CB
:1011A00045F220300F21C0F202001CF0ADFE41F2EA
:1011B000C050C2F201004FF60F7119F0F9F945F273
:1011C000E020C0F2020014211CF09EFE2846BDE87B
:1011D00038401DF0ADBD00BFF8B5064645F22C50B5
:1011E0000C46C0F20200122115461CF08DFE711E45
:1011F000C9B20F2915D841F67867C2F2010741F04C
:10120000A001B86C03681B689847B86C036804F0C9
:101210007F011B689847B86C036805F07F011B6865
:10122000984745F240500A21C0F202001CF06CFEC3
:101230006B1E1B02240404F4FE0403F470632343B6
:10124000310143F4504343F00D03C9B241F2C050A1
:101250001943C2F2010019F0ABF945F2E020C0F2E7
:10126000020014211CF050FE4EF24020C2F2000099
:10127000BDE8F8401DF05CBDF8B54DF6C063C2F2A4
:1012800000030E461B7C1446054623B1984202D04B
:10129000FFF79AFD38B141F29053C2F20103314693
:1012A00018680EF0B7F945F24C501221013DC0F21A
:1012B00002001CF029FEE9B20F2915D841F6786723
:1012C000C2F2010741F08001B86C03681B689847BF
:1012D000B86C036806F07F011B689847B86C036818
:1012E00004F07F011B68984745F220300F21C0F2BF
:1012F00002001CF009FE230603F0FE43310443F410
:10130000004301F4FE012D0243F008030B4341F2B8
:10131000C05005F470611943C2F2010019F048F998
:1013200045F2E020C0F2020014211CF0EDFD4EF267
:101330004020C2F20000BDE8F8401DF0F9BC00BF3B
:101340001F2970B50C46054608D84DF6C063C2F299
:10135000000318790FF070FB0BF0DAF845F26050DB
:101360000D21013DC0F202001CF0CEFDE9B20F29B3
:101370000FD841F67866C2F2010641F0C001B06CA8
:1013800003681B689847B06C036804F07F011B6812
:10139000984745F220300F21C0F202001CF0B4FD46
:1013A000230403F4FE03290243F4404343F00C03F7
:1013B00001F4706141F2C0501943C2F2010019F00A
:1013C000F7F845F2E020C0F2020014211CF09CFD69
:1013D0004EF24020C2F20000BDE870401DF0A8BCF3
:1013E000F8B54DF6C063C2F200030E461B7C1446EE
:1013F000054623B1984202D0FFF7E6FC40B141F226
:101400009053C2F201032246186831460DF0C2FE25
:1014100045F270501121013DC0F202001CF074FD34
:10142000E9B20F2915D841F67867C2F2010741F0F9
:101430009001B86C03681B689847B86C036806F0A5
:101440007F011B689847B86C036804F07F011B6834
:10145000984745F220300F21C0F202001CF054FDE5
:10146000230603F0FE43310443F4104301F4FE016C
:101470002D0243F009030B4341F2C05005F47061A3
:101480001943C2F2010019F093F845F2E020C0F2CE
:10149000020014211CF038FD4EF24020C2F2000080
:1014A000BDE8F8401DF044BCF8B541F29053C2F2DB
:1014B000010305461B6801F5005645F284500C46B1
:1014C000013D0D21C3F8C060C0F202001CF01CFDFC
:1014D000E9B20F2915D841F67867C2F2010741F049
:1014E000E001B86C03681B689847B86C036806F0A5
:1014F0007F011B689847B86C0368C6F3C6111B6868
:10150000984745F2203004F30D040F2104F50054F0
:10151000C0F202001CF0F8FC2902230403F4FE03CD
:1015200001F47061194341F46041640404F0FE4425
:1015300041F00E0141F2C0502143C2F2010019F006
:1015400037F845F2E020C0F2020014211CF0DCFC68
:101550004EF24020C2F20000BDE8F8401DF0E8BBAA
:10156000F0B54AF28C62C2F2010283B040F27063BD
:1015700011680091C2F2010300991E68126801927D
:1015800041F28855C2F2010541F25452C2F2010201
:10159000891B45F294504EF24024C2F20004019F90
:1015A000298000260C21C0F2020016701F601CF07A
:1015B000ABFC2B8820464EF6602191FBF3F11DF029
:1015C00059FB45F2A4500521C0F202001CF09CFC1E
:1015D000298820461DF04EFB45F2AC500F21C0F289
:1015E00002001CF091FC20461DF0A2FB03B0F0BDF0
:1015F00008B541F25451C2F201014AF6AB230A7810
:101600000132D2B2CAF6AA23A3FB02031B0903EBE1
:101610004303A2EBC30313F0FF0F0A7001D1FFF7DE
:101620009FFF45F2BC501021C0F202001CF06CFC80
:1016300041F2C050C2F201004FF60F0118F0B8FF9E
:1016400045F2E0201421C0F202001CF05DFC4FF6D0
:101650000F001BF0CFFD45F2F820C0F202000F2171
:101660001CF052FC4EF24020C2F20000BDE80840DF
:101670001DF05EBB08B541F25451C2F201014AF6B9
:10168000AB230A780132D2B2CAF6AA23A3FB020323
:101690001B0903EB4303A2EBC30313F0FF0F0A7014
:1016A00001D1FFF75DFF45F2D0501521C0F20200D5
:1016B0001CF02AFC41F67863C2F20103F821986C11
:1016C00003681B68984745F220300F21C0F20200E2
:1016D0001CF01AFC4FF60F001BF08CFD45F2F820B1
:1016E000C0F202000F211CF00FFC4EF24020C2F2AB
:1016F0000000BDE808401DF01BBB00BF08B541F26B
:101700005451C2F201014AF6AB230A780132D2B237
:10171000CAF6AA23A3FB02031B0903EB4303A2EBB4
:10172000C30313F0FF0F0A7001D1FFF719FF45F251
:10173000E8501021C0F202001CF0E6FB41F678638D
:10174000C2F20103F821986C03681B68984745F2C0
:1017500020300F21C0F202001CF0D6FB41F2C05035
:10176000C2F201004FF60F0118F022FF45F2E0200F
:10177000C0F2020014211CF0C7FB4EF24020C2F25E
:101780000000BDE808401DF0D3BA00BF1F2970B5A6
:101790000C46054608D84DF6C063C2F2000318791E
:1017A0000FF04AF90AF0B4FE45F2FC501221013D57
:1017B000C0F202001CF0A8FBE9B20F290FD841F6D5
:1017C0007866C2F2010641F0C001B06C03681B6884
:1017D0009847B06C036804F07F011B68984745F296
:1017E00020300F21C0F202001CF08EFB230403F412
:1017F000FE03280243F4404343F00C0300F47060FE
:1018000018431BF0F7FC45F2F820C0F202000F214C
:101810001CF07AFB4EF24020C2F20000BDE870409E
:101820001DF086BA70B5064645F210600C46C0F24F
:101830000200172115461CF067FB711EC9B20F2963
:101840002BD841F67866C2F2010641F0A001B06CD7
:1018500003681B689847B06C036804F07F011B683D
:101860009847B06C036805F07F011B68984745F204
:101870004050C0F202000A211CF046FB45F2F8205D
:10188000C0F202000F211CF03FFB4EF24020C2F2DA
:101890000000BDE870401DF04BBA45F24050C0F268
:1018A00002000A211CF030FB002EE7D1681E000266
:1018B000240404F4FE0400F47060204340F450401B
:1018C00040F00D001BF096FCD8E700BF1F2938B58B
:1018D0000C46054608D84DF6C063C2F200031879DD
:1018E0000FF0AAF80AF014FE240404F4FE04013DEB
:1018F00045F2286044F440442D020D2105F4706542
:10190000C0F2020044F00C041CF0FEFA2C4341F239
:10191000C0502146C2F2010018F04AFE45F2E02014
:101920001421C0F202001CF0EFFA20461BF062FC0A
:1019300045F2F820C0F202000F211CF0E5FA4EF249
:101940004020C2F20000BDE838401DF0F1B900BFF0
:1019500070B5064645F2386015460C46C0F20200E6
:1019600012211CF0D1FA6B1E1B02240404F4FE04A5
:1019700003F47063234343F45043340143F00D03F5
:10198000E4B21C4341F2C0502146C2F2010018F0FB
:101990000FFE45F2E020C0F2020014211CF0B4FA60
:1019A00016B920461BF026FC45F2F820C0F20200D2
:1019B0000F211CF0A9FA4EF24020C2F20000BDE84F
:1019C00070401DF0B5B900BFF8B54DF6C063C2F266
:1019D00000030E461B7C1446054623B1984202D0F4
:1019E000FFF7F2F938B141F29053C2F201033146E8
:1019F00018680DF00FFE45F24C601721013DC0F252
:101A000002001CF081FAE9B20F2915D841F6786777
:101A1000C2F2010741F08001B86C03681B68984767
:101A2000B86C036806F07F011B689847B86C0368C0
:101A300004F07F011B68984745F220300F21C0F267
:101A400002001CF061FA230603F0FE43310443F464
:101A5000004301F4FE01280243F008030B4300F4A5
:101A6000706018431BF0C6FB45F2F820C0F202007C
:101A70000F211CF049FA4EF24020C2F20000BDE8EE
:101A8000F8401DF055B900BF38B541F678650446F9
:101A9000C2F2010545F264601A21C0F202001CF096
:101AA00033FAA86C0368F3211B689847A86C036895
:101AB00004F07F01DB6C984745F220300F21C0F223
:101AC00002001CF021FA200400F4FE0040F47340F0
:101AD00040F002001BF08EFB45F2F820C0F202003D
:101AE0000F211CF011FA4EF24020C2F20000BDE8B6
:101AF00038401DF01DB900BFF8B54DF6C063C2F205
:101B000000030E461B7C1446054623B1984202D0C2
:101B1000FFF75AF940B141F29053C2F20103224655
:101B2000186831460DF036FB45F280601621013D04
:101B3000C0F202001CF0E8F9E9B20F2915D841F60D
:101B40007867C2F2010741F09001B86C03681B6826
:101B50009847B86C036806F07F011B689847B86C1B
:101B6000036804F07F011B68984745F220300F217D
:101B7000C0F202001CF0C8F9230603F0FE43310452
:101B800043F4104301F4FE01280243F009030B4320
:101B900000F4706018431BF02DFB45F2F820C0F2F2
:101BA00002000F211CF0B0F94EF24020C2F20000FA
:101BB000BDE8F8401DF0BCB838B541F6786504467C
:101BC000C2F2010545F298602421C0F202001CF027
:101BD0009BF9A86C0368F1211B689847A86C0368FF
:101BE00021461B68984745F220300F21C0F20200C1
:101BF00004F00F041CF088F944F010044FF20210B6
:101C000040EA04401BF0F6FA45F2F820C0F2020068
:101C10000F211CF079F94EF24020C2F20000BDE81D
:101C200038401DF085B800BF70B54DF6C063C2F2F4
:101C300000030E461B7C1446054623B1984202D091
:101C4000FFF7C2F840B141F29053C2F201032246BD
:101C5000186831460DF09EFA45F2C0601121C0F2BD
:101C600002001CF051F9230603F0FE43340443F450
:101C70001043013D43F0090304F4FE042D021C430C
:101C800005F470652C4341F2C0502146C2F20100B8
:101C900018F08EFC45F2E0201421C0F202001CF086
:101CA00033F920461BF0A6FA45F2F820C0F20200F4
:101CB0000F211CF029F94EF24020C2F20000BDE8CD
:101CC00070401DF035B800BF70B54DF6C063C2F26C
:101CD00000030E461B7C1446054623B1984202D0F1
:101CE000FFF772F838B141F29053C2F20103314666
:101CF00018680DF08FFC45F2D4601221C0F202008A
:101D00001CF002F9230603F0FE43340443F40043BD
:101D1000013D43F0080304F4FE042D021C4305F4C6
:101D200070652C4341F2C0502146C2F2010018F008
:101D30003FFC45F2E0201421C0F202001CF0E4F860
:101D400020461BF057FA45F2F820C0F202000F219E
:101D50001CF0DAF84EF24020C2F20000BDE87040FC
:101D60001CF0E6BF38B541F678650446C2F20105BD
:101D700045F2E8601521C0F202001CF0C5F8A86C1D
:101D80000368F3211B689847A86C036804F07F017F
:101D9000DB6C984745F220300F21C0F202001CF0A6
:101DA000B3F8210401F4FE0141F4734141F2C05043
:101DB00041F00201C2F2010018F0FAFB45F2E02006
:101DC000C0F2020014211CF09FF84EF24020C2F233
:101DD0000000BDE838401CF0ABBF00BF38B541F68D
:101DE00078650446C2F2010545F200701F21C0F279
:101DF00002001CF089F8A86C0368F1211B68984761
:101E0000A86C036821461B68984745F220300F21D3
:101E1000C0F2020004F00F041CF076F844F0100445
:101E20004FF2021141F2C05041EA0441C2F20100F6
:101E300018F0BEFB45F2E020C0F2020014211CF0B5
:101E400063F84EF24020C2F20000BDE838401CF0BA
:101E50006FBF00BF38B541F29053C2F2010301F5E4
:101E600000521B6805460C4645F22070C3F8C0209E
:101E70000D2104F30D04C0F202001CF045F804F536
:101E800000536C1E1A04240202F4FE0204F470646F
:101E9000144344F460445B0403F0FE4344F00E0436
:101EA0001C4341F2C0502146C2F2010018F080FBF1
:101EB00045F2E0201421C0F202001CF025F8204673
:101EC0001BF098F945F2F820C0F202000F211CF037
:101ED0001BF84EF24020C2F20000BDE838401CF072
:101EE00027BF00BFF8B541F29053C2F20103054687
:101EF0001B6801F5005645F230700C46013D122179
:101F0000C3F8C060C0F202001BF0FEFFE9B20F2967
:101F100015D841F67867C2F2010741F0E001B86CCC
:101F200003681B689847B86C036806F07F011B685C
:101F30009847B86C0368C6F3C6111B68984745F20A
:101F4000203004F30D040F2104F50054C0F2020008
:101F50001BF0DAFF2802230403F4FE0300F4706090
:101F6000184340F46040640404F0FE4440F00E0066
:101F700020431BF03FF945F2F820C0F202000F2188
:101F80001BF0C2FF4EF24020C2F20000BDE8F84054
:101F90001CF0CEBE4AF28853C2F2010310B4D3F84B
:101FA000C8201368506819780478507A137A04426C
:101FB00001EA03011AD0937A03F0030309B143F055
:101FC000040343F008039910082B91722AD8072BB9
:101FD00022D2032B2ED011D9042B13D0062B14D1CF
:101FE000D3685DF8044B023BD3607047937A03F0EB
:101FF00003030029E7D043F00403E4E7012B0BD0EF
:10200000022B02D1D368013BD3605DF8044B7047CB
:102010000D2BF7D00E2BF8D1D3685DF8044B0133AC
:10202000D36070470C2B05D0F2D8092BD8D00B2BDE
:10203000E8D0EAE7D3685DF8044B0233D360704719
:102040004AF28853C2F2010310B4D3F8CC201368CB
:10205000506819780478507A137A044201EA03012F
:102060001AD0937A03F0030309B143F0040343F059
:1020700008039910082B91722AD8072B22D2032B20
:102080002ED011D9042B13D0062B14D1D3685DF8B0
:10209000044B023BD3607047937A03F0030300299B
:1020A000E7D043F00403E4E7012B0BD0022B02D16D
:1020B000D368013BD3605DF8044B70470D2BF7D01C
:1020C0000E2BF8D1D3685DF8044B0133D360704711
:1020D0000C2B05D0F2D8092BD8D00B2BE8D0EAE78F
:1020E000D3685DF8044B0233D36070474AF28853DB
:1020F000C2F2010310B4D3F8D020136850681978E5
:102100000478507A137A044201EA03011AD0937AD0
:1021100003F0030309B143F0040343F008039910EB
:10212000082B91722AD8072B22D2032B2ED011D93B
:10213000042B13D0062B14D1D3685DF8044B023B5B
:10214000D3607047937A03F003030029E7D043F08C
:102150000403E4E7012B0BD0022B02D1D368013B2F
:10216000D3605DF8044B70470D2BF7D00E2BF8D1E0
:10217000D3685DF8044B0133D36070470C2B05D056
:10218000F2D8092BD8D00B2BE8D0EAE7D3685DF85A
:10219000044B0233D36070474AF28853C2F2010302
:1021A00010B4D3F8D4201368506819780478507AA2
:1021B000137A044201EA03011AD0937A03F003036D
:1021C00009B143F0040343F008039910082B9172FE
:1021D0002AD8072B22D2032B2ED011D9042B13D0AF
:1021E000062B14D1D3685DF8044B023BD3607047D3
:1021F000937A03F003030029E7D043F00403E4E7F4
:10220000012B0BD0022B02D1D368013BD3605DF8C8
:10221000044B70470D2BF7D00E2BF8D1D3685DF827
:10222000044B0133D36070470C2B05D0F2D8092B37
:10223000D8D00B2BE8D0EAE7D3685DF8044B023323
:10224000D36070474AF28853C2F2010310B4D3F846
:10225000D8201368506819780478507A137A0442A9
:1022600001EA03011AD0937A03F0030309B143F0A2
:10227000040343F008039910082B91722AD8072B06
:1022800022D2032B2ED011D9042B13D0062B14D11C
:10229000D3685DF8044B023BD3607047937A03F038
:1022A00003030029E7D043F00403E4E7012B0BD03C
:1022B000022B02D1D368013BD3605DF8044B704719
:1022C0000D2BF7D00E2BF8D1D3685DF8044B0133FA
:1022D000D36070470C2B05D0F2D8092BD8D00B2B2C
:1022E000E8D0EAE7D3685DF8044B0233D360704767
:1022F0004AF28853C2F2010310B4D3F8DC20136809
:10230000506819780478507A137A044201EA03017C
:102310001AD0937A03F0030309B143F0040343F0A6
:1023200008039910082B91722AD8072B22D2032B6D
:102330002ED011D9042B13D0062B14D1D3685DF8FD
:10234000044B023BD3607047937A03F003030029E8
:10235000E7D043F00403E4E7012B0BD0022B02D1BA
:10236000D368013BD3605DF8044B70470D2BF7D069
:102370000E2BF8D1D3685DF8044B0133D36070475E
:102380000C2B05D0F2D8092BD8D00B2BE8D0EAE7DC
:10239000D3685DF8044B0233D36070474AF2885328
:1023A000C2F2010310B4D3F8E02013685068197822
:1023B0000478507A137A044201EA03011AD0937A1E
:1023C00003F0030309B143F0040343F00803991039
:1023D000082B91722AD8072B22D2032B2ED011D989
:1023E000042B13D0062B14D1D3685DF8044B023BA9
:1023F000D3607047937A03F003030029E7D043F0DA
:102400000403E4E7012B0BD0022B02D1D368013B7C
:10241000D3605DF8044B70470D2BF7D00E2BF8D12D
:10242000D3685DF8044B0133D36070470C2B05D0A3
:10243000F2D8092BD8D00B2BE8D0EAE7D3685DF8A7
:10244000044B0233D36070474AF28853C2F201034F
:1024500010B4D3F8E4201368506819780478507ADF
:10246000137A044201EA03011AD0937A03F00303BA
:1024700009B143F0040343F008039910082B91724B
:102480002AD8072B22D2032B2ED011D9042B13D0FC
:10249000062B14D1D3685DF8044B023BD360704720
:1024A000937A03F003030029E7D043F00403E4E741
:1024B000012B0BD0022B02D1D368013BD3605DF816
:1024C000044B70470D2BF7D00E2BF8D1D3685DF875
:1024D000044B0133D36070470C2B05D0F2D8092B85
:1024E000D8D00B2BE8D0EAE7D3685DF8044B023371
:1024F000D36070474AF28853C2F2010310B4D3F894
:1025000088201368506819780478507A137A044246
:1025100001EA03011AD0937A03F0030309B143F0EF
:10252000040343F008039910082B91722AD8072B53
:1025300022D2032B2ED011D9042B13D0062B14D169
:10254000D3685DF8044B023BD3607047937A03F085
:1025500003030029E7D043F00403E4E7012B0BD089
:10256000022B02D1D368013BD3605DF8044B704766
:102570000D2BF7D00E2BF8D1D3685DF8044B013347
:10258000D36070470C2B05D0F2D8092BD8D00B2B79
:10259000E8D0EAE7D3685DF8044B0233D3607047B4
:1025A0004AF28853C2F2010310B4D3F88C201368A6
:1025B000506819780478507A137A044201EA0301CA
:1025C0001AD0937A03F0030309B143F0040343F0F4
:1025D00008039910082B91722AD8072B22D2032BBB
:1025E0002ED011D9042B13D0062B14D1D3685DF84B
:1025F000044B023BD3607047937A03F00303002936
:10260000E7D043F00403E4E7012B0BD0022B02D107
:10261000D368013BD3605DF8044B70470D2BF7D0B6
:102620000E2BF8D1D3685DF8044B0133D3607047AB
:102630000C2B05D0F2D8092BD8D00B2BE8D0EAE729
:10264000D3685DF8044B0233D36070474AF2885375
:10265000C2F2010310B4D3F89020136850681978BF
:102660000478507A137A044201EA03011AD0937A6B
:1026700003F0030309B143F0040343F00803991086
:10268000082B91722AD8072B22D2032B2ED011D9D6
:10269000042B13D0062B14D1D3685DF8044B023BF6
:1026A000D3607047937A03F003030029E7D043F027
:1026B0000403E4E7012B0BD0022B02D1D368013BCA
:1026C000D3605DF8044B70470D2BF7D00E2BF8D17B
:1026D000D3685DF8044B0133D36070470C2B05D0F1
:1026E000F2D8092BD8D00B2BE8D0EAE7D3685DF8F5
:1026F000044B0233D36070474AF28853C2F201039D
:1027000010B4D3F894201368506819780478507A7C
:10271000137A044201EA03011AD0937A03F0030307
:1027200009B143F0040343F008039910082B917298
:102730002AD8072B22D2032B2ED011D9042B13D049
:10274000062B14D1D3685DF8044B023BD36070476D
:10275000937A03F003030029E7D043F00403E4E78E
:10276000012B0BD0022B02D1D368013BD3605DF863
:10277000044B70470D2BF7D00E2BF8D1D3685DF8C2
:10278000044B0133D36070470C2B05D0F2D8092BD2
:10279000D8D00B2BE8D0EAE7D3685DF8044B0233BE
:1027A000D36070474AF28853C2F2010310B4D3F8E1
:1027B00098201368506819780478507A137A044284
:1027C00001EA03011AD0937A03F0030309B143F03D
:1027D000040343F008039910082B91722AD8072BA1
:1027E00022D2032B2ED011D9042B13D0062B14D1B7
:1027F000D3685DF8044B023BD3607047937A03F0D3
:1028000003030029E7D043F00403E4E7012B0BD0D6
:10281000022B02D1D368013BD3605DF8044B7047B3
:102820000D2BF7D00E2BF8D1D3685DF8044B013394
:10283000D36070470C2B05D0F2D8092BD8D00B2BC6
:10284000E8D0EAE7D3685DF8044B0233D360704701
:102850004AF28853C2F2010310B4D3F89C201368E3
:10286000506819780478507A137A044201EA030117
:102870001AD0937A03F0030309B143F0040343F041
:1028800008039910082B91722AD8072B22D2032B08
:102890002ED011D9042B13D0062B14D1D3685DF898
:1028A000044B023BD3607047937A03F00303002983
:1028B000E7D043F00403E4E7012B0BD0022B02D155
:1028C000D368013BD3605DF8044B70470D2BF7D004
:1028D0000E2BF8D1D3685DF8044B0133D3607047F9
:1028E0000C2B05D0F2D8092BD8D00B2BE8D0EAE777
:1028F000D3685DF8044B0233D36070474AF28853C3
:10290000C2F2010310B4D3F8A020136850681978FC
:102910000478507A137A044201EA03011AD0937AB8
:1029200003F0030309B143F0040343F008039910D3
:10293000082B91722AD8072B22D2032B2ED011D923
:10294000042B13D0062B14D1D3685DF8044B023B43
:10295000D3607047937A03F003030029E7D043F074
:102960000403E4E7012B0BD0022B02D1D368013B17
:10297000D3605DF8044B70470D2BF7D00E2BF8D1C8
:10298000D3685DF8044B0133D36070470C2B05D03E
:10299000F2D8092BD8D00B2BE8D0EAE7D3685DF842
:1029A000044B0233D36070474AF28853C2F20103EA
:1029B00010B4D3F8A4201368506819780478507ABA
:1029C000137A044201EA03011AD0937A03F0030355
:1029D00009B143F0040343F008039910082B9172E6
:1029E0002AD8072B22D2032B2ED011D9042B13D097
:1029F000062B14D1D3685DF8044B023BD3607047BB
:102A0000937A03F003030029E7D043F00403E4E7DB
:102A1000012B0BD0022B02D1D368013BD3605DF8B0
:102A2000044B70470D2BF7D00E2BF8D1D3685DF80F
:102A3000044B0133D36070470C2B05D0F2D8092B1F
:102A4000D8D00B2BE8D0EAE7D3685DF8044B02330B
:102A5000D36070474AF28853C2F2010310B4D3F82E
:102A6000A8201368506819780478507A137A0442C1
:102A700001EA03011AD0937A03F0030309B143F08A
:102A8000040343F008039910082B91722AD8072BEE
:102A900022D2032B2ED011D9042B13D0062B14D104
:102AA000D3685DF8044B023BD3607047937A03F020
:102AB00003030029E7D043F00403E4E7012B0BD024
:102AC000022B02D1D368013BD3605DF8044B704701
:102AD0000D2BF7D00E2BF8D1D3685DF8044B0133E2
:102AE000D36070470C2B05D0F2D8092BD8D00B2B14
:102AF000E8D0EAE7D3685DF8044B0233D36070474F
:102B00004AF28853C2F2010310B4D3F8AC20136820
:102B1000506819780478507A137A044201EA030164
:102B20001AD0937A03F0030309B143F0040343F08E
:102B300008039910082B91722AD8072B22D2032B55
:102B40002ED011D9042B13D0062B14D1D3685DF8E5
:102B5000044B023BD3607047937A03F003030029D0
:102B6000E7D043F00403E4E7012B0BD0022B02D1A2
:102B7000D368013BD3605DF8044B70470D2BF7D051
:102B80000E2BF8D1D3685DF8044B0133D360704746
:102B90000C2B05D0F2D8092BD8D00B2BE8D0EAE7C4
:102BA000D3685DF8044B0233D36070474AF2885310
:102BB000C2F2010310B4D3F8B0201368506819783A
:102BC0000478507A137A044201EA03011AD0937A06
:102BD00003F0030309B143F0040343F00803991021
:102BE000082B91722AD8072B22D2032B2ED011D971
:102BF000042B13D0062B14D1D3685DF8044B023B91
:102C0000D3607047937A03F003030029E7D043F0C1
:102C10000403E4E7012B0BD0022B02D1D368013B64
:102C2000D3605DF8044B70470D2BF7D00E2BF8D115
:102C3000D3685DF8044B0133D36070470C2B05D08B
:102C4000F2D8092BD8D00B2BE8D0EAE7D3685DF88F
:102C5000044B0233D36070474AF28853C2F2010337
:102C600010B4D3F8B4201368506819780478507AF7
:102C7000137A044201EA03011AD0937A03F00303A2
:102C800009B143F0040343F008039910082B917233
:102C90002AD8072B22D2032B2ED011D9042B13D0E4
:102CA000062B14D1D3685DF8044B023BD360704708
:102CB000937A03F003030029E7D043F00403E4E729
:102CC000012B0BD0022B02D1D368013BD3605DF8FE
:102CD000044B70470D2BF7D00E2BF8D1D3685DF85D
:102CE000044B0133D36070470C2B05D0F2D8092B6D
:102CF000D8D00B2BE8D0EAE7D3685DF8044B023359
:102D0000D36070474AF28853C2F2010310B4D3F87B
:102D1000B8201368506819780478507A137A0442FE
:102D200001EA03011AD0937A03F0030309B143F0D7
:102D3000040343F008039910082B91722AD8072B3B
:102D400022D2032B2ED011D9042B13D0062B14D151
:102D5000D3685DF8044B023BD3607047937A03F06D
:102D600003030029E7D043F00403E4E7012B0BD071
:102D7000022B02D1D368013BD3605DF8044B70474E
:102D80000D2BF7D00E2BF8D1D3685DF8044B01332F
:102D9000D36070470C2B05D0F2D8092BD8D00B2B61
:102DA000E8D0EAE7D3685DF8044B0233D36070479C
:102DB0004AF28853C2F2010310B4D3F8BC2013685E
:102DC000506819780478507A137A044201EA0301B2
:102DD0001AD0937A03F0030309B143F0040343F0DC
:102DE00008039910082B91722AD8072B22D2032BA3
:102DF0002ED011D9042B13D0062B14D1D3685DF833
:102E0000044B023BD3607047937A03F0030300291D
:102E1000E7D043F00403E4E7012B0BD0022B02D1EF
:102E2000D368013BD3605DF8044B70470D2BF7D09E
:102E30000E2BF8D1D3685DF8044B0133D360704793
:102E40000C2B05D0F2D8092BD8D00B2BE8D0EAE711
:102E5000D3685DF8044B0233D36070474AF288535D
:102E6000C2F2010310B4D3F8C02013685068197877
:102E70000478507A137A044201EA03011AD0937A53
:102E800003F0030309B143F0040343F0080399106E
:102E9000082B91722AD8072B22D2032B2ED011D9BE
:102EA000042B13D0062B14D1D3685DF8044B023BDE
:102EB000D3607047937A03F003030029E7D043F00F
:102EC0000403E4E7012B0BD0022B02D1D368013BB2
:102ED000D3605DF8044B70470D2BF7D00E2BF8D163
:102EE000D3685DF8044B0133D36070470C2B05D0D9
:102EF000F2D8092BD8D00B2BE8D0EAE7D3685DF8DD
:102F0000044B0233D36070474AF28853C2F2010384
:102F100010B4D3F8C4201368506819780478507A34
:102F2000137A044201EA03011AD0937A03F00303EF
:102F300009B143F0040343F008039910082B917280
:102F40002AD8072B22D2032B2ED011D9042B13D031
:102F5000062B14D1D3685DF8044B023BD360704755
:102F6000937A03F003030029E7D043F00403E4E776
:102F7000012B0BD0022B02D1D368013BD3605DF84B
:102F8000044B70470D2BF7D00E2BF8D1D3685DF8AA
:102F9000044B0133D36070470C2B05D0F2D8092BBA
:102FA000D8D00B2BE8D0EAE7D3685DF8044B0233A6
:102FB000D36070474AF28853C2F2010310B49A6892
:102FC0001368506819780478507A137A044201EA39
:102FD00003011AD0937A03F0030309B143F0040309
:102FE00043F008039910082B91722AD8072B22D29C
:102FF000032B2ED011D9042B13D0062B14D1D36858
:103000005DF8044B023BD3607047937A03F00303EF
:103010000029E7D043F00403E4E7012B0BD0022B97
:1030200002D1D368013BD3605DF8044B70470D2B90
:10303000F7D00E2BF8D1D3685DF8044B0133D36081
:1030400070470C2B05D0F2D8092BD8D00B2BE8D029
:10305000EAE7D3685DF8044B0233D360704700BFE2
:103060004AF28853C2F2010310B4DA681368506858
:1030700019780478507A137A044201EA03011AD0CD
:10308000937A03F0030309B143F0040343F0080308
:103090009910082B91722AD8072B22D2032B2ED0FD
:1030A00011D9042B13D0062B14D1D3685DF8044B2F
:1030B000023BD3607047937A03F003030029E7D003
:1030C00043F00403E4E7012B0BD0022B02D1D368B9
:1030D000013BD3605DF8044B70470D2BF7D00E2BEE
:1030E000F8D1D3685DF8044B0133D36070470C2BE3
:1030F00005D0F2D8092BD8D00B2BE8D0EAE7D3685B
:103100005DF8044B0233D360704700BF4AF2885326
:10311000C2F2010310B41A69136850681978047870
:10312000507A137A044201EA03011AD0937A03F029
:10313000030309B143F0040343F008039910082B7B
:1031400091722AD8072B22D2032B2ED011D9042B0F
:1031500013D0062B14D1D3685DF8044B023BD36027
:103160007047937A03F003030029E7D043F0040388
:10317000E4E7012B0BD0022B02D1D368013BD360D3
:103180005DF8044B70470D2BF7D00E2BF8D1D368A8
:103190005DF8044B0133D36070470C2B05D0F2D897
:1031A000092BD8D00B2BE8D0EAE7D3685DF8044BA5
:1031B0000233D360704700BF4AF28853C2F2010362
:1031C00010B45A691368506819780478507A137AE1
:1031D000044201EA03011AD0937A03F0030309B110
:1031E00043F0040343F008039910082B91722AD886
:1031F000072B22D2032B2ED011D9042B13D0062B50
:1032000014D1D3685DF8044B023BD3607047937AC6
:1032100003F003030029E7D043F00403E4E7012BA4
:103220000BD0022B02D1D368013BD3605DF8044B75
:1032300070470D2BF7D00E2BF8D1D3685DF8044BF7
:103240000133D36070470C2B05D0F2D8092BD8D0AE
:103250000B2BE8D0EAE7D3685DF8044B0233D36068
:10326000704700BF4AF28853C2F2010310B49A6952
:103270001368506819780478507A137A044201EA86
:1032800003011AD0937A03F0030309B143F0040356
:1032900043F008039910082B91722AD8072B22D2E9
:1032A000032B2ED011D9042B13D0062B14D1D368A5
:1032B0005DF8044B023BD3607047937A03F003033D
:1032C0000029E7D043F00403E4E7012B0BD0022BE5
:1032D00002D1D368013BD3605DF8044B70470D2BDE
:1032E000F7D00E2BF8D1D3685DF8044B0133D360CF
:1032F00070470C2B05D0F2D8092BD8D00B2BE8D077
:10330000EAE7D3685DF8044B0233D360704700BF2F
:103310004AF28853C2F2010310B4DA6913685068A4
:1033200019780478507A137A044201EA03011AD01A
:10333000937A03F0030309B143F0040343F0080355
:103340009910082B91722AD8072B22D2032B2ED04A
:1033500011D9042B13D0062B14D1D3685DF8044B7C
:10336000023BD3607047937A03F003030029E7D050
:1033700043F00403E4E7012B0BD0022B02D1D36806
:10338000013BD3605DF8044B70470D2BF7D00E2B3B
:10339000F8D1D3685DF8044B0133D36070470C2B30
:1033A00005D0F2D8092BD8D00B2BE8D0EAE7D368A8
:1033B0005DF8044B0233D360704700BF4AF2885374
:1033C000C2F2010310B41A6A1368506819780478BD
:1033D000507A137A044201EA03011AD0937A03F077
:1033E000030309B143F0040343F008039910082BC9
:1033F00091722AD8072B22D2032B2ED011D9042B5D
:1034000013D0062B14D1D3685DF8044B023BD36074
:103410007047937A03F003030029E7D043F00403D5
:10342000E4E7012B0BD0022B02D1D368013BD36020
:103430005DF8044B70470D2BF7D00E2BF8D1D368F5
:103440005DF8044B0133D36070470C2B05D0F2D8E4
:10345000092BD8D00B2BE8D0EAE7D3685DF8044BF2
:103460000233D360704700BF4AF28853C2F20103AF
:1034700010B45A6A1368506819780478507A137A2D
:10348000044201EA03011AD0937A03F0030309B15D
:1034900043F0040343F008039910082B91722AD8D3
:1034A000072B22D2032B2ED011D9042B13D0062B9D
:1034B00014D1D3685DF8044B023BD3607047937A14
:1034C00003F003030029E7D043F00403E4E7012BF2
:1034D0000BD0022B02D1D368013BD3605DF8044BC3
:1034E00070470D2BF7D00E2BF8D1D3685DF8044B45
:1034F0000133D36070470C2B05D0F2D8092BD8D0FC
:103500000B2BE8D0EAE7D3685DF8044B0233D360B5
:10351000704700BF4AF28853C2F2010310B49A6A9E
:103520001368506819780478507A137A044201EAD3
:1035300003011AD0937A03F0030309B143F00403A3
:1035400043F008039910082B91722AD8072B22D236
:10355000032B2ED011D9042B13D0062B14D1D368F2
:103560005DF8044B023BD3607047937A03F003038A
:103570000029E7D043F00403E4E7012B0BD0022B32
:1035800002D1D368013BD3605DF8044B70470D2B2B
:10359000F7D00E2BF8D1D3685DF8044B0133D3601C
:1035A00070470C2B05D0F2D8092BD8D00B2BE8D0C4
:1035B000EAE7D3685DF8044B0233D360704700BF7D
:1035C0004AF28853C2F2010310B4DA6A13685068F1
:1035D00019780478507A137A044201EA03011AD068
:1035E000937A03F0030309B143F0040343F00803A3
:1035F0009910082B91722AD8072B22D2032B2ED098
:1036000011D9042B13D0062B14D1D3685DF8044BC9
:10361000023BD3607047937A03F003030029E7D09D
:1036200043F00403E4E7012B0BD0022B02D1D36853
:10363000013BD3605DF8044B70470D2BF7D00E2B88
:10364000F8D1D3685DF8044B0133D36070470C2B7D
:1036500005D0F2D8092BD8D00B2BE8D0EAE7D368F5
:103660005DF8044B0233D360704700BF4AF28853C1
:10367000C2F2010310B41A6B136850681978047809
:10368000507A137A044201EA03011AD0937A03F0C4
:10369000030309B143F0040343F008039910082B16
:1036A00091722AD8072B22D2032B2ED011D9042BAA
:1036B00013D0062B14D1D3685DF8044B023BD360C2
:1036C0007047937A03F003030029E7D043F0040323
:1036D000E4E7012B0BD0022B02D1D368013BD3606E
:1036E0005DF8044B70470D2BF7D00E2BF8D1D36843
:1036F0005DF8044B0133D36070470C2B05D0F2D832
:10370000092BD8D00B2BE8D0EAE7D3685DF8044B3F
:103710000233D360704700BF4AF28853C2F20103FC
:1037200010B45A6B1368506819780478507A137A79
:10373000044201EA03011AD0937A03F0030309B1AA
:1037400043F0040343F008039910082B91722AD820
:10375000072B22D2032B2ED011D9042B13D0062BEA
:1037600014D1D3685DF8044B023BD3607047937A61
:1037700003F003030029E7D043F00403E4E7012B3F
:103780000BD0022B02D1D368013BD3605DF8044B10
:1037900070470D2BF7D00E2BF8D1D3685DF8044B92
:1037A0000133D36070470C2B05D0F2D8092BD8D049
:1037B0000B2BE8D0EAE7D3685DF8044B0233D36003
:1037C000704700BF4AF28853C2F2010310B49A6BEB
:1037D0001368506819780478507A137A044201EA21
:1037E00003011AD0937A03F0030309B143F00403F1
:1037F00043F008039910082B91722AD8072B22D284
:10380000032B2ED011D9042B13D0062B14D1D3683F
:103810005DF8044B023BD3607047937A03F00303D7
:103820000029E7D043F00403E4E7012B0BD0022B7F
:1038300002D1D368013BD3605DF8044B70470D2B78
:10384000F7D00E2BF8D1D3685DF8044B0133D36069
:1038500070470C2B05D0F2D8092BD8D00B2BE8D011
:10386000EAE7D3685DF8044B0233D360704700BFCA
:103870004AF28853C2F2010310B4DA6B136850683D
:1038800019780478507A137A044201EA03011AD0B5
:10389000937A03F0030309B143F0040343F00803F0
:1038A0009910082B91722AD8072B22D2032B2ED0E5
:1038B00011D9042B13D0062B14D1D3685DF8044B17
:1038C000023BD3607047937A03F003030029E7D0EB
:1038D00043F00403E4E7012B0BD0022B02D1D368A1
:1038E000013BD3605DF8044B70470D2BF7D00E2BD6
:1038F000F8D1D3685DF8044B0133D36070470C2BCB
:1039000005D0F2D8092BD8D00B2BE8D0EAE7D36842
:103910005DF8044B0233D360704700BF4AF288530E
:10392000C2F2010310B41A6C136850681978047855
:10393000507A137A044201EA03011AD0937A03F011
:10394000030309B143F0040343F008039910082B63
:1039500091722AD8072B22D2032B2ED011D9042BF7
:1039600013D0062B14D1D3685DF8044B023BD3600F
:103970007047937A03F003030029E7D043F0040370
:10398000E4E7012B0BD0022B02D1D368013BD360BB
:103990005DF8044B70470D2BF7D00E2BF8D1D36890
:1039A0005DF8044B0133D36070470C2B05D0F2D87F
:1039B000092BD8D00B2BE8D0EAE7D3685DF8044B8D
:1039C0000233D360704700BF4AF28853C2F201034A
:1039D00010B45A6C1368506819780478507A137AC6
:1039E000044201EA03011AD0937A03F0030309B1F8
:1039F00043F0040343F008039910082B91722AD86E
:103A0000072B22D2032B2ED011D9042B13D0062B37
:103A100014D1D3685DF8044B023BD3607047937AAE
:103A200003F003030029E7D043F00403E4E7012B8C
:103A30000BD0022B02D1D368013BD3605DF8044B5D
:103A400070470D2BF7D00E2BF8D1D3685DF8044BDF
:103A50000133D36070470C2B05D0F2D8092BD8D096
:103A60000B2BE8D0EAE7D3685DF8044B0233D36050
:103A7000704700BF4AF28853C2F2010310B49A6C37
:103A80001368506819780478507A137A044201EA6E
:103A900003011AD0937A03F0030309B143F004033E
:103AA00043F008039910082B91722AD8072B22D2D1
:103AB000032B2ED011D9042B13D0062B14D1D3688D
:103AC0005DF8044B023BD3607047937A03F0030325
:103AD0000029E7D043F00403E4E7012B0BD0022BCD
:103AE00002D1D368013BD3605DF8044B70470D2BC6
:103AF000F7D00E2BF8D1D3685DF8044B0133D360B7
:103B000070470C2B05D0F2D8092BD8D00B2BE8D05E
:103B1000EAE7D3685DF8044B0233D360704700BF17
:103B20004AF28853C2F2010310B4DA6C1368506889
:103B300019780478507A137A044201EA03011AD002
:103B4000937A03F0030309B143F0040343F008033D
:103B50009910082B91722AD8072B22D2032B2ED032
:103B600011D9042B13D0062B14D1D3685DF8044B64
:103B7000023BD3607047937A03F003030029E7D038
:103B800043F00403E4E7012B0BD0022B02D1D368EE
:103B9000013BD3605DF8044B70470D2BF7D00E2B23
:103BA000F8D1D3685DF8044B0133D36070470C2B18
:103BB00005D0F2D8092BD8D00B2BE8D0EAE7D36890
:103BC0005DF8044B0233D360704700BF4AF288535C
:103BD000C2F2010310B41A6D1368506819780478A2
:103BE000507A137A044201EA03011AD0937A03F05F
:103BF000030309B143F0040343F008039910082BB1
:103C000091722AD8072B22D2032B2ED011D9042B44
:103C100013D0062B14D1D3685DF8044B023BD3605C
:103C20007047937A03F003030029E7D043F00403BD
:103C3000E4E7012B0BD0022B02D1D368013BD36008
:103C40005DF8044B70470D2BF7D00E2BF8D1D368DD
:103C50005DF8044B0133D36070470C2B05D0F2D8CC
:103C6000092BD8D00B2BE8D0EAE7D3685DF8044BDA
:103C70000233D360704700BF4AF28853C2F2010397
:103C800010B45A6D1368506819780478507A137A12
:103C9000044201EA03011AD0937A03F0030309B145
:103CA00043F0040343F008039910082B91722AD8BB
:103CB000072B22D2032B2ED011D9042B13D0062B85
:103CC00014D1D3685DF8044B023BD3607047937AFC
:103CD00003F003030029E7D043F00403E4E7012BDA
:103CE0000BD0022B02D1D368013BD3605DF8044BAB
:103CF00070470D2BF7D00E2BF8D1D3685DF8044B2D
:103D00000133D36070470C2B05D0F2D8092BD8D0E3
:103D10000B2BE8D0EAE7D3685DF8044B0233D3609D
:103D2000704700BF4AF28853C2F2010310B49A6D83
:103D30001368506819780478507A137A044201EABB
:103D400003011AD0937A03F0030309B143F004038B
:103D500043F008039910082B91722AD8072B22D21E
:103D6000032B2ED011D9042B13D0062B14D1D368DA
:103D70005DF8044B023BD3607047937A03F0030372
:103D80000029E7D043F00403E4E7012B0BD0022B1A
:103D900002D1D368013BD3605DF8044B70470D2B13
:103DA000F7D00E2BF8D1D3685DF8044B0133D36004
:103DB00070470C2B05D0F2D8092BD8D00B2BE8D0AC
:103DC000EAE7D3685DF8044B0233D360704700BF65
:103DD0004AF28853C2F2010310B4DA6D13685068D6
:103DE00019780478507A137A044201EA03011AD050
:103DF000937A03F0030309B143F0040343F008038B
:103E00009910082B91722AD8072B22D2032B2ED07F
:103E100011D9042B13D0062B14D1D3685DF8044BB1
:103E2000023BD3607047937A03F003030029E7D085
:103E300043F00403E4E7012B0BD0022B02D1D3683B
:103E4000013BD3605DF8044B70470D2BF7D00E2B70
:103E5000F8D1D3685DF8044B0133D36070470C2B65
:103E600005D0F2D8092BD8D00B2BE8D0EAE7D368DD
:103E70005DF8044B0233D360704700BF4AF28853A9
:103E8000C2F2010310B41A6E1368506819780478EE
:103E9000507A137A044201EA03011AD0937A03F0AC
:103EA000030309B143F0040343F008039910082BFE
:103EB00091722AD8072B22D2032B2ED011D9042B92
:103EC00013D0062B14D1D3685DF8044B023BD360AA
:103ED0007047937A03F003030029E7D043F004030B
:103EE000E4E7012B0BD0022B02D1D368013BD36056
:103EF0005DF8044B70470D2BF7D00E2BF8D1D3682B
:103F00005DF8044B0133D36070470C2B05D0F2D819
:103F1000092BD8D00B2BE8D0EAE7D3685DF8044B27
:103F20000233D360704700BF4AF28853C2F20103E4
:103F300010B45A6E1368506819780478507A137A5E
:103F4000044201EA03011AD0937A03F0030309B192
:103F500043F0040343F008039910082B91722AD808
:103F6000072B22D2032B2ED011D9042B13D0062BD2
:103F700014D1D3685DF8044B023BD3607047937A49
:103F800003F003030029E7D043F00403E4E7012B27
:103F90000BD0022B02D1D368013BD3605DF8044BF8
:103FA00070470D2BF7D00E2BF8D1D3685DF8044B7A
:103FB0000133D36070470C2B05D0F2D8092BD8D031
:103FC0000B2BE8D0EAE7D3685DF8044B0233D360EB
:103FD000704700BF4AF28853C2F2010310B49A6ED0
:103FE0001368506819780478507A137A044201EA09
:103FF00003011AD0937A03F0030309B143F00403D9
:1040000043F008039910082B91722AD8072B22D26B
:10401000032B2ED011D9042B13D0062B14D1D36827
:104020005DF8044B023BD3607047937A03F00303BF
:104030000029E7D043F00403E4E7012B0BD0022B67
:1040400002D1D368013BD3605DF8044B70470D2B60
:10405000F7D00E2BF8D1D3685DF8044B0133D36051
:1040600070470C2B05D0F2D8092BD8D00B2BE8D0F9
:10407000EAE7D3685DF8044B0233D360704700BFB2
:104080004AF28853C2F2010310B4DA6E1368506822
:1040900019780478507A137A044201EA03011AD09D
:1040A000937A03F0030309B143F0040343F00803D8
:1040B0009910082B91722AD8072B22D2032B2ED0CD
:1040C00011D9042B13D0062B14D1D3685DF8044BFF
:1040D000023BD3607047937A03F003030029E7D0D3
:1040E00043F00403E4E7012B0BD0022B02D1D36889
:1040F000013BD3605DF8044B70470D2BF7D00E2BBE
:10410000F8D1D3685DF8044B0133D36070470C2BB2
:1041100005D0F2D8092BD8D00B2BE8D0EAE7D3682A
:104120005DF8044B0233D360704700BF4AF28853F6
:10413000C2F2010310B41A6F13685068197804783A
:10414000507A137A044201EA03011AD0937A03F0F9
:10415000030309B143F0040343F008039910082B4B
:1041600091722AD8072B22D2032B2ED011D9042BDF
:1041700013D0062B14D1D3685DF8044B023BD360F7
:104180007047937A03F003030029E7D043F0040358
:10419000E4E7012B0BD0022B02D1D368013BD360A3
:1041A0005DF8044B70470D2BF7D00E2BF8D1D36878
:1041B0005DF8044B0133D36070470C2B05D0F2D867
:1041C000092BD8D00B2BE8D0EAE7D3685DF8044B75
:1041D0000233D360704700BF4AF28853C2F2010332
:1041E00010B45A6F1368506819780478507A137AAB
:1041F000044201EA03011AD0937A03F0030309B1E0
:1042000043F0040343F008039910082B91722AD855
:10421000072B22D2032B2ED011D9042B13D0062B1F
:1042200014D1D3685DF8044B023BD3607047937A96
:1042300003F003030029E7D043F00403E4E7012B74
:104240000BD0022B02D1D368013BD3605DF8044B45
:1042500070470D2BF7D00E2BF8D1D3685DF8044BC7
:104260000133D36070470C2B05D0F2D8092BD8D07E
:104270000B2BE8D0EAE7D3685DF8044B0233D36038
:10428000704700BF4AF28853C2F2010310B49A6F1C
:104290001368506819780478507A137A044201EA56
:1042A00003011AD0937A03F0030309B143F0040326
:1042B00043F008039910082B91722AD8072B22D2B9
:1042C000032B2ED011D9042B13D0062B14D1D36875
:1042D0005DF8044B023BD3607047937A03F003030D
:1042E0000029E7D043F00403E4E7012B0BD0022BB5
:1042F00002D1D368013BD3605DF8044B70470D2BAE
:10430000F7D00E2BF8D1D3685DF8044B0133D3609E
:1043100070470C2B05D0F2D8092BD8D00B2BE8D046
:10432000EAE7D3685DF8044B0233D360704700BFFF
:104330004AF28853C2F2010310B4DA6F136850686E
:1043400019780478507A137A044201EA03011AD0EA
:10435000937A03F0030309B143F0040343F0080325
:104360009910082B91722AD8072B22D2032B2ED01A
:1043700011D9042B13D0062B14D1D3685DF8044B4C
:10438000023BD3607047937A03F003030029E7D020
:1043900043F00403E4E7012B0BD0022B02D1D368D6
:1043A000013BD3605DF8044B70470D2BF7D00E2B0B
:1043B000F8D1D3685DF8044B0133D36070470C2B00
:1043C00005D0F2D8092BD8D00B2BE8D0EAE7D36878
:1043D0005DF8044B0233D360704700BF4AF2885344
:1043E000C2F2010310B4D3F8802013685068197822
:1043F0000478507A137A044201EA03011AD0937ABE
:1044000003F0030309B143F0040343F008039910D8
:10441000082B91722AD8072B22D2032B2ED011D928
:10442000042B13D0062B14D1D3685DF8044B023B48
:10443000D3607047937A03F003030029E7D043F079
:104440000403E4E7012B0BD0022B02D1D368013B1C
:10445000D3605DF8044B70470D2BF7D00E2BF8D1CD
:10446000D3685DF8044B0133D36070470C2B05D043
:10447000F2D8092BD8D00B2BE8D0EAE7D3685DF847
:10448000044B0233D36070474AF28853C2F20103EF
:1044900010B4D3F884201368506819780478507ADF
:1044A000137A044201EA03011AD0937A03F003035A
:1044B00009B143F0040343F008039910082B9172EB
:1044C0002AD8072B22D2032B2ED011D9042B13D09C
:1044D000062B14D1D3685DF8044B023BD3607047C0
:1044E000937A03F003030029E7D043F00403E4E7E1
:1044F000012B0BD0022B02D1D368013BD3605DF8B6
:10450000044B70470D2BF7D00E2BF8D1D3685DF814
:10451000044B0133D36070470C2B05D0F2D8092B24
:10452000D8D00B2BE8D0EAE7D3685DF8044B023310
:10453000D36070474AF28853C2F2010310B4D3F833
:10454000E8201368506819780478507A137A044286
:1045500001EA03011AD0937A03F0030309B143F08F
:10456000040343F008039910082B91722AD8072BF3
:1045700022D2032B2ED011D9042B13D0062B14D109
:10458000D3685DF8044B023BD3607047937A03F025
:1045900003030029E7D043F00403E4E7012B0BD029
:1045A000022B02D1D368013BD3605DF8044B704706
:1045B0000D2BF7D00E2BF8D1D3685DF8044B0133E7
:1045C000D36070470C2B05D0F2D8092BD8D00B2B19
:1045D000E8D0EAE7D3685DF8044B0233D360704754
:1045E0004AF28853C2F2010310B4D3F8EC201368E6
:1045F000506819780478507A137A044201EA03016A
:104600001AD0937A03F0030309B143F0040343F093
:1046100008039910082B91722AD8072B22D2032B5A
:104620002ED011D9042B13D0062B14D1D3685DF8EA
:10463000044B023BD3607047937A03F003030029D5
:10464000E7D043F00403E4E7012B0BD0022B02D1A7
:10465000D368013BD3605DF8044B70470D2BF7D056
:104660000E2BF8D1D3685DF8044B0133D36070474B
:104670000C2B05D0F2D8092BD8D00B2BE8D0EAE7C9
:10468000D3685DF8044B0233D36070474AF2885315
:10469000C2F2010310B41A681368506819780478DC
:1046A000507A137A044201EA03011AD0937A03F094
:1046B000030309B143F0040343F008039910082BE6
:1046C00091722AD8072B22D2032B2ED011D9042B7A
:1046D00013D0062B14D1D3685DF8044B023BD36092
:1046E0007047937A03F003030029E7D043F00403F3
:1046F000E4E7012B0BD0022B02D1D368013BD3603E
:104700005DF8044B70470D2BF7D00E2BF8D1D36812
:104710005DF8044B0133D36070470C2B05D0F2D801
:10472000092BD8D00B2BE8D0EAE7D3685DF8044B0F
:104730000233D360704700BF4AF28853C2F20103CC
:1047400010B45A681368506819780478507A137A4C
:10475000044201EA03011AD0937A03F0030309B17A
:1047600043F0040343F008039910082B91722AD8F0
:10477000072B22D2032B2ED011D9042B13D0062BBA
:1047800014D1D3685DF8044B023BD3607047937A31
:1047900003F003030029E7D043F00403E4E7012B0F
:1047A0000BD0022B02D1D368013BD3605DF8044BE0
:1047B00070470D2BF7D00E2BF8D1D3685DF8044B62
:1047C0000133D36070470C2B05D0F2D8092BD8D019
:1047D0000B2BE8D0EAE7D3685DF8044B0233D360D3
:1047E000704700BF10B445F250240023C0F2020409
:1047F0004172026104600372C36041B1194600E076
:10480000026942F82310427A01339A42F8DC4AF6F0
:104810003003C2F201031A680AB90CE01A46536960
:10482000002BFBD15061002343618380C3808372DE
:104830005DF8044B70471860F5E700BFF8B541F626
:104840007864C2F2010447F61221A06C0368DB69A8
:10485000984741F6C947032041F6294346F249717A
:1048600044F6295641F6556284F86400C0F200030C
:10487000C0F20007C0F20001C0F20006C0F2000260
:1048800041F6CD0063602760E1606661A261C0F21D
:10489000000045F6594341F2850741F6511140F6B3
:1048A000194640F6DD122061C0F20003C0F2000795
:1048B000C0F20001C0F20006C0F2000241F2F15065
:1048C000E3612762A160A662E262C0F2000040F6E6
:1048D000794340F6CD4740F6215140F6755641F2F6
:1048E0000102C0F200022063C0F20003C0F2000720
:1048F000C0F20001C0F200064EF2402545F24470BD
:104900006264C2F200056363A76300234FF6FF777A
:10491000E16326641721C0F2020084F84C3084F869
:104920004E3084F84D30A365636584F8E93084F82F
:10493000663084F8653084F8673084F86830E7655D
:10494000276619F0E1FA28461AF0F2F913F0FEFF93
:1049500041F2C053C2F2010341F6F92141F6C917F1
:1049600046F2916644F6AD5441F6E562C0F20001AC
:10497000C0F20007C0F20006C0F20004C0F200025C
:1049800041F28D70C3F86811C3F86471C3F87061A7
:10499000C3F87841C3F87C21C0F2000045F6B94164
:1049A00041F6B93741F6250641F6892440F6E96219
:1049B000C3F87401C0F20001C0F20007C0F20006A3
:1049C000C0F20004C0F2000241F27560C3F8841125
:1049D000C3F88871C3F86C61C3F89041C3F894219F
:1049E000C0F2000040F6312140F6892740F6E1266A
:1049F00040F6393440F69132C0F20002C3F8980113
:104A0000C0F20001C0F20007C0F20006C0F20004CC
:104A100045F25C70C3F89C11C3F8A071C3F8A4619F
:104A2000C3F8A841C3F8AC211D21C0F2020019F05F
:104A30006BFA28461AF07CF94AF61801C2F2010115
:104A400041F2E13EC0F2000E4AF61004C1F800E067
:104A5000C2F2010441F2792EC0F2000E4AF61403AC
:104A6000C4F800E0C2F2010346F27D5EC0F2000E1F
:104A70004AF2E877C3F800E0C2F2010744F6456E57
:104A8000C0F2000E4AF2D870C7F800E0C2F201008E
:104A900041F2A94EC0F2000E4AF2D476C0F800E00E
:104AA000C2F2010641F2413EC0F2000E4AF2F87233
:104AB000C6F800E0C2F2010245F63D5EC0F2000E0B
:104AC0004AF2F071C2F800E0C2F2010141F6DD5E87
:104AD000C0F2000E4AF2E474C1F800E0C2F2010430
:104AE00041F2D91EC0F2000E4AF60C03C4F800E0F1
:104AF000C2F2010341F6655EC0F2000E4AF2F4779D
:104B0000C3F800E0C2F2010741F2E90EC0F2000E64
:104B10004AF2BC70C7F800E0C2F2010041F2FD6742
:104B2000C0F200074AF2EC760760C2F201064AF2D0
:104B3000CC7240F64177C2F20102C0F200074AF699
:104B4000040140F6A1703760C2F20101C0F200001A
:104B50004AF2C4744AF2C07340F68967C2F2010394
:104B60001060C2F20104C0F2000740F6296641F26B
:104B7000491245F27C700F60C0F20006C0F20002DC
:104B8000C0F20200182126601A6019F0BDF928460B
:104B9000BDE8F8401AF0CCB84DF20A73C3F62343CF
:104BA00006EE103A437EC17E07EE103A837CB8EEE3
:104BB000C77A07EE903A70B4F8EEE76A27EE067A05
:104BC00083B067EE267A0022FCEEE77A8273CDEDA1
:104BD000017A42739DF80430027301B10373827E3F
:104BE00002B14373027F02B1837390F8213090F8D1
:104BF000231007EE103A4DF20A73C3F6234306EE74
:104C0000103A037CB8EEC77A07EE903A27EE067AA0
:104C1000F8EEE76A67EE267AFCEEE77ACDED017AE8
:104C20009DF8043021B1017B994238BF19460173C8
:104C300090F8221021B1417B994238BF1946417347
:104C400090F8244024B1817B8B4238BF0B4683739C
:104C5000437FC17F07EE103A4DF20A73C3F6234338
:104C600006EE103A437CB8EEC77A07EE903A27EE8C
:104C7000067AF8EEE76A67EE267AFCEEE77ACDED83
:104C8000017A9DF8043021B1017B994238BF194661
:104C90000173817F21B1417B994238BF194641732D
:104CA00090F8201021B1857BAB4238BF2B4683732F
:104CB00090F8253090F8275007EE103A4DF20A731D
:104CC000C3F6234306EE103AC37BB8EEC77A07EE6D
:104CD000903A27EE067AF8EEE76A67EE267AFCEE5F
:104CE000E77ACDED017A9DF8043025B1057B9D4230
:104CF00038BF1D46057390F8265025B1457B9D426F
:104D000038BF1D46457390F8285025B1867BB342C5
:104D100038BF3346837322B919B914B90DB97F234B
:104D2000837303B070BC704738B541F29053C2F240
:104D300001030C461B680546240483F8CF1003F1D9
:104D4000C00004F4FE04013DFFF726FF44F4504484
:104D500045F298702D020D2105F47065C0F2020035
:104D600044F00D0419F0D0F82C4341F2C050214614
:104D7000C2F2010015F01CFC45F2E0201421C0F243
:104D8000020019F0C1F8204618F034FA45F2F82074
:104D9000C0F202000F2119F0B7F84EF24020C2F223
:104DA0000000BDE8384019F0C3BF00BF41F2905386
:104DB000C2F2010370B51B68054683F8CF1003F1FA
:104DC000C0000C46FFF7E8FE45F2A8701221013D35
:104DD000C0F2020019F098F8E9B20F290FD841F695
:104DE0007866C2F2010641F0D001B06C03681B681E
:104DF0009847B06C036804F07F011B68984745F240
:104E000020300F21C0F2020019F07EF8230403F4D1
:104E1000FE03280243F4504343F00D0300F4706096
:104E2000184318F0E7F945F2F820C0F202000F210C
:104E300019F06AF84EF24020C2F20000BDE870405E
:104E400019F076BF41F29053C2F2010370B51B68AE
:104E5000054683F8CF1003F1C0000C46FFF79CFE17
:104E600045F2BC700D21013DC0F2020019F04CF872
:104E7000E9B20F290FD841F67866C2F2010641F077
:104E8000D001B06C03681B689847B06C036804F0ED
:104E90007F011B68984745F220300F21C0F20200C5
:104EA00019F032F8230403F4FE03290243F45043BB
:104EB00043F00D0301F4706141F2C0501943C2F296
:104EC000010015F075FB45F2E020C0F2020014214C
:104ED00019F01AF84EF24020C2F20000BDE870400E
:104EE00019F026BF10B4036841681A780C78417A2B
:104EF000037A0C4202EA03021AD0837A03F0030316
:104F00000AB143F0040343F008039A10082B82729D
:104F10002AD8072B22D2032B2ED011D9042B13D041
:104F2000062B14D1C3685DF8044B023BC360704785
:104F3000837A03F00303002AE7D043F00403E4E795
:104F4000012B0BD0022B02D1C368013BC3605DF87B
:104F5000044B70470D2BF7D00E2BF8D1C3685DF8CA
:104F6000044B0133C36070470C2B05D0F2D8092BDA
:104F7000D8D00B2BE8D0EAE7C3685DF8044B0233C6
:104F8000C36070471D2810B50B4600F0E983024648
:104F900022D92C2800F064813FD8242800F0EE8329
:104FA00040F2A880282800F0748300F2D6802628DA
:104FB00000F0F58140F2D5824AF28854C2F2010431
:104FC00042F65101C0F2000104222720C4F89C30AF
:104FD00016F0FCFD012010BD0E2800F097833AD892
:104FE000062800F0A1836CD90A2800F0058300F29E
:104FF0000781082800F07E8140F275824AF28854C9
:10500000C2F2010443F26941C0F200010422092006
:10501000636216F0DBFD012010BD342800F0BD8373
:1050200036D8302800F0638300F2D6802E2800F0B6
:10503000528140F201824AF28854C2F2010442F6DF
:10504000B151C0F2000104222F20C4F8BC3016F088
:10505000BDFD012010BD152800F0748364D9192806
:1050600000F0FA8100F2A580172800F08A8140F252
:10507000D1824AF28854C2F2010443F67D61C0F243
:10508000000104221820236616F0A0FD012010BDA7
:10509000382800F0CE8275D8362800F0398140F2E9
:1050A0007F824AF28854C2F2010442F2F121C0F236
:1050B000000104223720C4F8DC3016F087FD0120FF
:1050C00010BD022800F0018240F27881042800F02F
:1050D0004B8140F2BD824AF28854C2F2010443F28D
:1050E000B911C0F2000104220520636116F06EFDC3
:1050F000012010BD202800F0448240F2898122283E
:1051000000F0238140F2D4824AF28854C2F20104B2
:1051100042F2A151C0F2000104222320C4F88C30D5
:1051200016F054FD012010BD112800F0B18140F2AD
:105130005A81132800F0FB8040F2B8814AF288546B
:10514000C2F2010443F6CD31C0F200010422142062
:10515000236516F03BFD012010BD2A2800F0AC802D
:1051600040F2E0814AF28854C2F2010442F6013171
:10517000C0F2000104222B20C4F8AC3016F026FD4A
:10518000012010BD3A2800F08880C0F072823B28D0
:1051900040F06D824AF28854C2F2010444F2E151B7
:1051A000C0F200010422C4F8EC3016F00FFD01201B
:1051B00010BD1B2863D040F28B824AF28854C2F2A1
:1051C000010444F22D11C0F2000104221C202367C7
:1051D00016F0FCFC012010BD322824D040F2928150
:1051E0004AF28854C2F2010442F24101C0F20001C5
:1051F00004223320C4F8CC3016F0E8FC012010BDA6
:105200000C281FD040F29E814AF28854C2F2010459
:1052100043F21971C0F2000104220D20636316F0FD
:10522000D5FC012010BD4AF28854C2F2010441F6B7
:105230009571C0F200010422C4F8C83016F0C6FC13
:10524000012010BD4AF28854C2F2010443F26D619C
:10525000C0F200010422236316F0B8FC012010BD47
:105260004AF28854C2F2010442F6AD31C0F20001A4
:105270000422C4F8B03016F0A9FC012010BD4AF297
:105280008854C2F2010444F28101C0F200010422F8
:10529000E36616F09BFC012010BD4AF28854C2F26E
:1052A000010444F23551C0F200010422C4F8E83090
:1052B00016F08CFC012010BD4AF28854C2F20104A1
:1052C00042F65521C0F200010422C4F8A83016F0BD
:1052D0007DFC012010BD4AF28854C2F2010442F65E
:1052E0000551C0F200010422C4F8B83016F06EFC7B
:1052F000012010BD4AF28854C2F2010443F2BD31CC
:10530000C0F200010422236216F060FC012010BDEF
:105310004AF28854C2F2010442F24521C0F200016F
:105320000422C4F8D83016F051FC012010BD4AF216
:105330008854C2F2010443F62131C0F20001042274
:10534000E36416F043FC012010BD4AF28854C2F217
:10535000010442F2F541C0F200010422C4F8883091
:1053600016F034FC012010BD4AF28854C2F2010448
:1053700043F20D11C0F20001236116F027FC012059
:1053800010BD4AF28854C2F2010443F6D151C0F272
:1053900000010422E36516F019FC012010BD4AF259
:1053A0008854C2F2010442F2A571C0F20001042245
:1053B000C4F8983016F00AFC012010BD002800F057
:1053C000FF80012840F053814AF28854C2F2010460
:1053D00044F23971C0F2000104220120636016F02A
:1053E000F5FB012010BD0F2800F0F880102840F0D8
:1053F0003E814AF28854C2F2010443F61D11C0F204
:10540000000104221020236416F0E0FB012010BDEF
:105410001E282FD01F2840F02A814AF28854C2F259
:10542000010444F23131C0F2000104221F20E3677D
:1054300016F0CCFB012010BD4AF28854C2F20104E0
:1054400042F65941C0F2000104222D20C4F8B430C4
:1054500016F0BCFB012010BD4AF28854C2F20104D0
:1054600043F62971C0F200010422636616F0AEFB18
:10547000012010BD4AF28854C2F2010444F2852191
:10548000C0F200010422A36716F0A0FB012010BDAA
:105490004AF28854C2F2010443F6C911C0F2000175
:1054A0000422636416F092FB012010BD4AF2885476
:1054B000C2F2010443F67521C0F200010422122059
:1054C000A36416F083FB012010BD4AF28854C2F297
:1054D000010442F6B571C0F200010422A36016F087
:1054E00075FB012010BD4AF28854C2F2010443F258
:1054F0001131C0F2000104220720E36116F066FBBF
:10550000012010BD4AF28854C2F2010442F609712A
:10551000C0F2000104223120C4F8C43016F056FB5A
:10552000012010BD4AF28854C2F2010442F6A911CA
:10553000C0F2000104222920C4F8A43016F046FB72
:10554000012010BD4AF28854C2F2010443F2C15155
:10555000C0F2000104220B20E36216F037FB0120A9
:1055600010BD4AF28854C2F2010442F2F961C0F25D
:10557000000104222520C4F8943016F027FB0120F6
:1055800010BD4AF28854C2F2010444F2DD31C0F287
:1055900000010422C4F8803016F018FB012010BD71
:1055A0004AF28854C2F2010442F29911C0F2000199
:1055B00004223520C4F8D43016F008FB012010BDB9
:1055C0004AF28854C2F2010444F28D61C0F2000133
:1055D0000422236016F0FAFA012010BD4AF2885422
:1055E000C2F2010443F67101C0F200010422E36338
:1055F00016F0ECFA012010BD4AF28854C2F2010400
:1056000043F21551C0F200010422A36216F0DEFA43
:10561000012010BD4AF28854C2F2010443F625511C
:10562000C0F2000104221620A36516F0CFFA012073
:1056300010BD4AF28854C2F2010442F29D31C0F218
:1056400000010422C4F8E03016F0C0FA012010BDB9
:105650004AF28854C2F2010443F26101C0F200012F
:1056600004220320E36016F0B1FA012010BD0020EF
:1056700010BD4AF28854C2F2010442F24941C0F21C
:10568000000104223920C4F8E43016F09FFA01200A
:1056900010BD4AF28854C2F2010442F6FD01C0F284
:1056A00000010422C4F8A03016F090FA012010BDC9
:1056B0004AF28854C2F2010444F28941C0F2000166
:1056C00004222120C4F8843016F080FA012010BD95
:1056D0004AF28854C2F2010443F6D571C0F20001C7
:1056E00004221A20A36616F071FA012010BD4AF2B6
:1056F0008854C2F2010442F65D61C0F20001042246
:10570000C4F8C03016F062FA012010BD4AF2885485
:10571000C2F2010443F2C571C0F200010422A36386
:1057200016F054FA012010BD4AF28854C2F2010466
:1057300043F26521C0F200010422A36116F046FA8B
:10574000012010BD4AF28854C2F2010443F67941A7
:10575000C0F200010422636516F038FA012010BD82
:105760004AF28854C2F2010444F2D911C0F2000195
:105770000422636716F02AFA012010BD4AF2885409
:10578000C2F2010442F24D61C0F200010422C4F8E9
:10579000903016F01BFA012010BD4AF28854C2F274
:1057A000010442F2ED01C0F200010422C4F8D0303D
:1057B00016F00CFA012010BDF8B5044615460E4649
:1057C0000846022116F07AFC2846022116F076FCE3
:1057D00046F68C23C0F20203012253F836002272EF
:1057E00000F50071216053F8351062724DF2C0432C
:1057F00001F5007762F31F4300226760E260013B1E
:10580000FDD190F8003291F8002203F00103D20795
:1058100044BF43F00203DBB2A37221463046FFF7D8
:10582000B1FB214620742846FFF7ACFB237C1844CB
:1058300020742046F8BD00BFF0B5074645F2CC7095
:10584000A9B00E46C0F202000B2118F05DFB4EF22B
:1058500040203146C2F2000000230A2219F07AFAF1
:1058600045F2D870C0F20200012118F04DFBB6B12C
:1058700000252C4645F6C8300121C0F2020018F080
:1058800043FB01344EF24020795DE4B2C2F20000E5
:1058900000230A2219F05EFAA6422546EAD84EF203
:1058A0004020C2F2000019F043FA4DF6C063C2F284
:1058B00000031B7C6BB1B87800F00F00013083420D
:1058C00007D0FBF781FA20B945F2DC70C0F2020084
:1058D00006E07B78432B0ED045F2F870C0F2020050
:1058E0001B2118F011FB4EF24020C2F2000019F00B
:1058F0001FFA29B0F0BD45F614000C21C0F20200D9
:1059000018F002FBB9784EF24020C1F30211C2F246
:10591000000019F0AFF945F2D8700121C0F2020081
:1059200018F0F2FA4EF24020C2F2000019F000FA2C
:10593000072E1DD0A32E07D045F67810C0F2020026
:10594000FBF73AF829B0F0BD45F6AC00C0F2020012
:1059500097F8A140FBF730F897F8A230F72B00F04A
:10596000F88045F6C000C0F20200FBF725F8C0E75A
:10597000FB78C3F38403002B69D1BB79F72B40F08C
:10598000F9803A797B7941F29054C2F2010402F035
:105990007F0203F07F0320683A717B710AF064F89C
:1059A000FA783B792068797902F0030203EBC2139D
:1059B000034483F86C1109F04BFFFC783B7903EB4F
:1059C000C41404F0FF0445F6C010C0F20200FAF758
:1059D000E9FFFB7813F07C0F05D145F68400C0F297
:1059E0000200FAF7DFFF45F69000C0F20200FAF776
:1059F000D9FF4EF24020397900230A22C2F200007A
:105A000019F0A8F945F6A800C0F20200FAF7CAFF9B
:105A10004EF24020797900230A22C2F2000019F0E8
:105A200099F945F69C00C0F20200FAF7BBFF4EF26E
:105A30004020214600230A22C2F2000019F08AF910
:105A40004EF24020C2F2000019F072F951E7022B29
:105A500040F09780BB79F72B40F08C8041F2905357
:105A6000C2F2010339791B687A794AF6AB2001F05A
:105A70007F01C3F6AA5007EE100A581802F07F0201
:105A800039717A7180F8C82193F80A4293F8075265
:105A900093F80C0293F80862C3F8C45093F80952C3
:105AA00093F80E2293F81012C3F8C86083F8D95007
:105AB00004F00106C4F34005C4F3800493F80BE23C
:105AC00083F8DA6083F8DB5000F0010683F8DC40ED
:105AD000C0F3400593F80D4283F8DDE0C0F3800089
:105AE00083F8DE6002F0010E83F8DF5083F8E000F7
:105AF00093F80F5283F8E140C1F3400001F0010434
:105B0000C2F34006C2F3800283F8E42083F8E64043
:105B100083F8E2E083F8E36083F8E55083F8E70078
:105B200093F81122520607EE902AF8EEE77AC1F3B5
:105B3000800167EE877A83F8E810FDEEE77A03F1DB
:105B4000C000C3ED357AFFF727F83C795C34E4B246
:105B500039E7FB7813F07F034ED139797A7942EA3D
:105B6000C1129B2A14D045F60410C0F20200FAF7C5
:105B700023FFBEE645F65C00C0F20200FAF71CFF08
:105B8000B7E645F62400C0F20200FAF715FFB0E6CA
:105B90001A4607F1A0007B1D13F8011F9842A2EBE3
:105BA0000102F9D165B202F07F04AC422BD045F678
:105BB0003C10C0F20200FAF7F5FE4EF240202946F2
:105BC00000231022C2F2000019F0C4F845F660105C
:105BD000C0F20200FAF7E6FE4EF240202146002312
:105BE0001022C2F2000019F0B5F845F2D870C0F2E8
:105BF0000200FAF7E1FE7CE645F6E000C0F20200A2
:105C0000FAF7DAFE75E6B91D01A89B2215F00EFC25
:105C100041F654600DF195010A22C2F201001FF015
:105C20001DF845F66410C0F20200FAF7BBFE41F61B
:105C30005460C2F20100FAF7B5FE45F66C10C0F2EE
:105C40000200FAF7AFFE41F29053C2F2010301A93C
:105C500018680AF089F84CE638B504460D46FFF797
:105C6000EBFD45F69C101021C0F2020018F04CF933
:105C700041F2C05000232A462146C2F2010014F02E
:105C8000D5FC45F2E0201421C0F2020018F03CF9E6
:105C900029462046002217F001FB45F2F820C0F209
:105CA00002000F2118F030F94EF24020C2F200003D
:105CB000BDE8384019F03CB82DE9F04141F678656F
:105CC0000F468046C2F20105FFF7B6FD45F6B0105B
:105CD0001521C0F2020018F017F9A86C0368F02132
:105CE000DB6C984757B1444608EB0706A86C14F8DC
:105CF000011B03681B689847A642F7D1A86C03688C
