:10000000000003208DC4010071C4010029C4010057
:1000100029C4010029C4010029C4010029C4010028
:1000200029C4010029C4010029C4010071C40100D0
:1000300071C4010029C4010045B90100BDBB010024
:1000400071C4010071C4010071C4010071C40100D8
:1000500071C4010071C4010071C4010071C40100C8
:1000600071C4010071C4010071C4010071C40100B8
:1000700071C4010071C4010071C4010071C40100A8
:1000800071C4010071C4010071C4010071C4010098
:1000900071C4010071C4010071C4010071C4010088
:1000A00081830100DD84010071C4010071C401007D
:1000B00071C4010071C4010071C40100E1D60100E6
:1000C00071C40100CDFE010071C4010029000200CD
:1000D00071C401005901020071C4010071C4010022
:1000E00071C4010071C4010071C4010071C4010038
:1000F00071C4010071C4010071C4010071C4010028
:1001000071C4010071C4010071C4010071C4010017
:1001100071C4010091DF010071C4010071C40100CC
:1001200071C4010071C4010071C4010071C40100F7
:1001300071C4010071C4010071C4010071C40100E7
:1001400091B6010071C401008902020071C401006E
:1001500071C4010071C4010071C4010071C40100C7
:1001600071C4010071C401003986010071C401002D
:1001700071C4010071C4010071C4010071C40100A7
:1001800071C40100994D010071C4010071C40100E6
:1001900071C4010071C40100B903020071C40100FF
:1001A00071C4010071C4010071C4010071C4010077
:1001B00071C4010071C4010071C4010071C4010067
:1001C00071C4010071C4010071C4010071C4010057
:1001D000FFFFFFFFFFFFFFFFFFFFFFFFFFFFFFFF2F
:10040000FFFFFFFFFFFFFFFFFFFFFFFFDEF9FFFF23
:1004100010B5054C237833B9044B13B10448AFF33E
:1004200000800123237010BD00F0002000000000B8
:10043000E46F0200084B10B51BB108490848AFF340
:1004400000800848036803B910BD074B002BFBD0A0
:10045000BDE81040184700BF0000000004F0002075
:10046000E46F020034EC002000000000704700BF81
:1004700010B54FF4097104461CF0CCF9204610BDAC
:1004800070B54FF06A522DED028B064644F6587354
:1004900008EE902A40F6DB72C0F202034FF61A050E
:1004A00040F6DA70C4F24902C2F20005C3F64920F0
:1004B00008EE102A336000240FE007EE904AF8EEB1
:1004C000E77A77EE807A67EEA87A67EE887A27EE89
:1004D000800A20F099FA10EE100A23F057FA41EC46
:1004E000100B20F0F9F800230022CCF2900351EC1D
:1004F000100B23F09FFA41EC100B20F001F951ECA6
:10050000100B23F06FFD0134B4F5806FB6EE000AD6
:1005100025F8020FD1D14FF06A534FF21A0508EEB9
:10052000103AC2F20005002407EE904AF8EEE77A8E
:10053000013467EE887A17EE900A23F027FA9FEDD0
:10054000140B41EC110B20F05FFB002351EC100B5E
:100550000022C3F6F07323F0B9F800230022C4F29E
:10056000B00323F067FA23F05DFD23F00FFA41ECAE
:10057000100B20F0C5F851EC100B23F033FDB4F54F
:10058000806F25F8020FCFD1BDEC028B304670BDD5
:100590000000000000000040704700BF10B54FF49D
:1005A000097104461CF036F9204610BD2DE9F04FC4
:1005B0004DF6A466C2F200060A9D0B989DF83070B5
:1005C000B6F800C044F67074C0F20204C5EB000A2D
:1005D000002F18BF0C466FEA0C0B0AF1200A4DF6EB
:1005E000A4294DF6A448043A271FA1F1040E0FFADE
:1005F0008BFB4FEAAA1AC2F20009C2F200080026D9
:1006000027E0B4F5007F02D08CB3C943C9B239F8F2
:1006100011104CEA010101EBC00080B20BEA0004AA
:10062000E143C9B2241238F8111001F58061490084
:10063000E14010EA0C0F18BFC94357F8044F09985E
:1006400009B2013604EB8131402E03444EF8041FF9
:1006500010D052F8041F1944891301F44074554412
:10066000B4F5807FC9B2A8B2CBD1C943C9B239F8B9
:100670001110D0E7BDE8F08F2DE9F04F4DF6A465DD
:10068000C2F2000509982E880A9D9DF82C7044F648
:100690007074C0F20204C0EB050E002F14BF0F46A9
:1006A00027466FEA06090EF1200E4DF6A4284DF6F6
:1006B000A44C3C1F0D1F0FFA89F9FC374FEAAE1E00
:1006C000C2F20008C2F2000C2AE0BBF5007F04D0A1
:1006D000BBF1000F30D0C943C9B238F81110314313
:1006E00001EBCA0A1FFA8AFA09EA0A0B6FEA0B0140
:1006F000C9B24FEA2B2B3CF8111001F5806149007B
:100700001AEA060F21FA0BF154F804AF18BFC943D7
:1007100009B20AEB8131BC421A4445F8041F0ED0DD
:10072000911301F4407B7044BBF5807F1FFA80FA7F
:10073000C9B2CAD1C943C9B238F81110D0E7BDE86F
:10074000F08F00BF2DE9F04F4DF6A46083B0C2F2E8
:1007500000000D9EB0F800C00C9C9DF840A00F9FBB
:100760000E980E9D019344F6707EC0F2020EC4EB0B
:10077000060B6FEA0C06BAF1000F14BF8A46F24668
:1007800033B20BF1200B4DF6A4294DF6A448AAF183
:10079000040600686D680093A1F1040E0AF1FC0ADA
:1007A0004FEAAB1B0137C2F20009C2F2000829E090
:1007B000B0F5007F02D098B3DB43DBB239F81330D9
:1007C0004CEA030303EBC101009B89B203EA010079
:1007D000C343DBB2001238F8133003F580635B00CB
:1007E000C34011EA0C0F18BFDB4356F8041F0198F1
:1007F0001BB29B031944564502444EF8041F284679
:1008000011D01D4643193B4113449B1303F4407020
:100810005C44B0F5807FDBB2A1B2C9D1DB43DBB26F
:1008200039F81330CEE70E9A1560536003B0BDE877
:10083000F08F00BF2DE9F04F46F2302403EB430365
:10084000C0F2020404EBC3050646144689460FCDE8
:1008500091B00AAF0FC795E80300002387E80300B3
:10086000012704F160088DF8247007978DF8253072
:100870008DF826300AAD48E00AF1FF3101EB011195
:1008800006EB0111133121F00F0194E80140C0146F
:10089000C0F500706060BEF1000F3FD0BEF5FE7F76
:1008A0003EDA10AFBA441AF81CCCBCF1000F04D0E9
:1008B00012F1000C18BF4FF0010CC3F301123AB152
:1008C00010AF07EB020B1BF81CBCBBF1000F34D1BF
:1008D00003F0C003C02B02D11B9B0F2B41DDA3688B
:1008E000E2680190CDF808C0CDF800E03046FFF78F
:1008F000C3FE9DF81C300AF81C3CE368A26803EBB9
:100900008213E3601034A04514D055F8043B13F073
:10091000030A03F00402AFD14946B6E740F2FF1ED6
:10092000B0F5FE7FBDDB002AE7D110AB9A440AF890
:100930001C2CE2E711B0BDE8F08F013A02EB021285
:10094000E368CDF80CC006EB02120290CDF804E08B
:10095000A0680090133222F00F023046FFF726FE07
:10096000C7E71F46E268A36803971A9F0190CDF876
:1009700010C00297CDF800E03046FFF7E3FEB8E77D
:1009800000207047704700BF704700BF704700BF2E
:10099000704700BF704700BF10B504461AF0FAFD5B
:1009A000204610BD10B5044624F00AF80146204642
:1009B000BDE810401FF08EB810B5044624F000F8D2
:1009C000014620461FF086F804464EF24020C2F24F
:1009D00000001BF0E9F9204410BD00BF45F20810EB
:1009E00008B51621C0F202001FF074F841F2C050A1
:1009F000C2F201004FF20F6119F0FCFC45F2201029
:100A00001421C0F202001FF065F84FF20F601EF0D3
:100A1000D7F945F23810C0F202000F211FF05AF842
:100A20004EF24020C2F20000BDE808401BF0BCB905
:100A300045F2481008B51521C0F202001FF04AF82F
:100A400041F67863C2F20103FA21986C03681B68CF
:100A5000984745F260100F21C0F202001FF03AF8EB
:100A60004FF60F201EF0ACF945F23810C0F202002C
:100A70000F211FF02FF84EF24020C2F20000BDE817
:100A800008401BF091B900BF45F2701008B518215D
:100A9000C0F202001FF01EF841F67863C2F20103B3
:100AA000FB21986C03681B68984745F260100F2182
:100AB000C0F202001FF00EF84FF60F301EF080F962
:100AC00045F23810C0F202000F211FF003F84EF279
:100AD0004020C2F20000BDE808401BF065B900BF2D
:100AE00045F28C1008B51421C0F202001EF0F2FF8E
:100AF00041F67863C2F20103FC21986C03681B681D
:100B0000984745F260100F21C0F202001EF0E2FF8C
:100B10004FF60F401EF054F945F23810C0F20200B3
:100B20000F211EF0D7FF4EF24020C2F20000BDE8B8
:100B300008401BF039B900BF45F2A41008B51D21CB
:100B4000C0F202001EF0C6FF41F67863C2F2010354
:100B5000FE21986C03681B68984745F260100F21CE
:100B6000C0F202001EF0B6FF4FF60F601EF028F92B
:100B700045F23810C0F202000F211EF0ABFF4EF21A
:100B80004020C2F20000BDE808401BF00DB900BFD4
:100B900038B545F2C4104EF2402541F29054102170
:100BA000C2F20104C2F20005C0F202001EF092FF80
:100BB00028461BF0F9F820680EF0A2FE20680EF01F
:100BC000ABFD20680EF0BCFD45F2D8101B21C0F231
:100BD00002001EF07FFF41F67863C2F20103FF219D
:100BE000986C03681B68984745F260100F21C0F2AB
:100BF00002001EF06FFF4FF60F701EF0E1F845F295
:100C00003810C0F202000F211EF064FF2846BDE834
:100C100038401BF0C9B800BF10B50446240445F2A3
:100C2000F41004F4FE041521C0F2020044F47344ED
:100C30001EF050FF44F0020441F2C0502146C2F2BF
:100C4000010019F0D7FB45F220101421C0F2020078
:100C50001EF040FF20461EF0B3F845F23810C0F2F7
:100C600002000F211EF036FF4EF24020C2F20000BB
:100C7000BDE810401BF098B845F20C2008B51021D3
:100C8000C0F202001EF026FF41F2C050C2F2010085
:100C90004FF60F2119F0AEFB45F220101421C0F2DF
:100CA00002001EF017FF4FF60F201EF089F845F2E4
:100CB0003810C0F202000F211EF00CFF4EF240204F
:100CC000C2F20000BDE808401BF06EB845F22020DB
:100CD00008B50F21C0F202001EF0FCFE41F2C05028
:100CE000C2F201004FF60F4119F084FB45F22010CB
:100CF0001421C0F202001EF0EDFE4FF60F401EF070
:100D00005FF845F23810C0F202000F211EF0E2FE3B
:100D10004EF24020C2F20000BDE808401BF044B88B
:100D200045F2302008B51321C0F202001EF0D2FEB9
:100D300041F2C050C2F201004FF60F3119F05AFBD8
:100D400045F220101421C0F202001EF0C3FE4FF63F
:100D50000F301EF035F845F23810C0F202000F21B6
:100D60001EF0B8FE4EF24020C2F20000BDE808407E
:100D70001BF01AB845F2442008B51821C0F2020051
:100D80001EF0A8FE41F2C050C2F201004FF60F6102
:100D900019F030FB45F220101421C0F202001EF0C1
:100DA00099FE4FF60F601EF00BF845F23810C0F2B6
:100DB00002000F211EF08EFE4EF24020C2F2000013
:100DC000BDE808401AF0F0BF38B505464EF24024A1
:100DD00045F26020C2F200041E21C0F202001EF0A3
:100DE00079FE294600230A2220461AF0EFFF45F239
:100DF00080200E21C0F202001EF06CFE4DF6A863AA
:100E0000C2F200030A22197C204600231AF0DEFFFA
:100E100045F290200121C0F202001EF05BFE204648
:100E20001AF0C2FF002038BD38B545F2C4104EF2AA
:100E3000402541F290541021C2F20104C2F2000593
:100E4000C0F202001EF046FE28461AF0ADFF2068F0
:100E50000EF056FD20680EF05FFC20680EF070FC6E
:100E600045F294201621C0F202001EF033FE41F23A
:100E7000C050C2F201004FF60F7119F0BBFA45F2F3
:100E800020101421C0F202001EF024FE4FF60F7055
:100E90001DF096FF45F23810C0F202000F211EF03F
:100EA00019FE2846BDE838401AF07EBF45F2AC2056
:100EB00008B51B21C0F202001EF00CFE41F678635B
:100EC000C2F20103F621986C0368DB6C984745F287
:100ED00060100F21C0F202001EF0FCFD4FF20F6007
:100EE0001DF06EFF45F23810C0F202000F211EF017
:100EF000F1FD4EF24020C2F20000BDE808401AF0B9
:100F000053BF00BF10B5044645F2C8201F21C0F2F0
:100F1000020004F00F041EF0DDFD44F010044FF257
:100F2000021343EA044441F2C0502146C2F20100D8
:100F300019F060FA45F220101421C0F202001EF0F0
:100F4000C9FD20461DF03CFF45F23810C0F20200FA
:100F50000F211EF0BFFD4EF24020C2F20000BDE89E
:100F600010401AF021BF00BF45F2E82008B5182153
:100F7000C0F202001EF0AEFD41F67863C2F201033A
:100F8000FE21986C03681B68984745F260100F219A
:100F9000C0F202001EF09EFD41F2C050C2F20100FC
:100FA0004FF60F6119F026FA45F22010C0F2020048
:100FB00014211EF08FFD4EF24020C2F20000BDE869
:100FC00008401AF0F1BE00BF45F2043008B50F2109
:100FD000C0F202001EF07EFD41F67863C2F201030A
:100FE000FC21986C03681B68984745F260100F213C
:100FF000C0F202001EF06EFD41F2C050C2F20100CC
:101000004FF60F4119F0F6F945F22010C0F2020038
:1010100014211EF05FFD4EF24020C2F20000BDE838
:1010200008401AF0C1BE00BF45F2143008B51021C7
:10103000C0F202001EF04EFD41F67863C2F20103D9
:10104000FA21986C03681B68984745F260100F21DD
:10105000C0F202001EF03EFD41F2C050C2F201009B
:101060004FF60F2119F0C6F945F22010C0F2020028
:1010700014211EF02FFD4EF24020C2F20000BDE808
:1010800008401AF091BE00BF45F2283008B5132180
:10109000C0F202001EF01EFD41F67863C2F20103A9
:1010A000FB21986C03681B68984745F260100F217C
:1010B000C0F202001EF00EFD41F2C050C2F201006B
:1010C0004FF60F3119F096F945F22010C0F20200E8
:1010D00014211EF0FFFC4EF24020C2F20000BDE8D9
:1010E00008401AF061BE00BF38B545F2C4104EF298
:1010F000402541F290541021C2F20104C2F20005D1
:10110000C0F202001EF0E6FC28461AF04DFE2068F0
:101110000EF0F6FB20680EF0FFFA20680EF010FBD0
:1011200045F23C301621C0F202001EF0D3FC41F61D
:101130007863C2F20103FF21986C03681B6898472B
:1011400045F260100F21C0F202001EF0C3FC41F214
:10115000C050C2F201004FF60F7119F04BF945F281
:101160002010C0F2020014211EF0B4FC2846BDE895
:1011700038401AF019BE00BF45F2543008B51621A8
:10118000C0F202001EF0A6FC41F67863C2F2010331
:10119000F621986C0368DB6C984745F260100F21CC
:1011A000C0F202001EF096FC41F2C050C2F20100F3
:1011B0004FF20F6119F01EF945F22010C0F2020043
:1011C00014211EF087FC4EF24020C2F20000BDE860
:1011D00008401AF0E9BD00BFF8B5064645F26C308C
:1011E0000C46C0F20200122115461EF073FC711E5F
:1011F000C9B20F2915D841F67867C2F2010741F04C
:10120000A001B86C03681B689847B86C036804F0C9
:101210007F011B689847B86C036805F07F011B6865
:10122000984745F280300A21C0F202001EF052FCBD
:101230006B1E1B02240404F4FE0403F470632343B6
:10124000310143F4504343F00D03C9B241F2C050A1
:101250001943C2F2010019F0CDF845F22010C0F296
:10126000020014211EF036FC4EF24020C2F20000B3
:10127000BDE8F8401AF098BD1F2970B50C46054628
:1012800008D84DF6A863C2F2000318790FF020FBCE
:101290000BF08AF845F28C300D21013DC0F20200BE
:1012A0001EF018FCE9B20F290FD841F67866C2F299
:1012B000010641F0C001B06C03681B689847B06C30
:1012C000036804F07F011B68984745F260100F2106
:1012D000C0F202001EF0FEFB230403F4FE03290209
:1012E00043F4404343F00C0301F4706141F2C050F9
:1012F0001943C2F2010019F07DF845F22010C0F246
:10130000020014211EF0E6FB4EF24020C2F2000063
:10131000BDE870401AF048BDF8B54DF6A863C2F2BA
:1013200000030E461B7C1446054623B1984202D0AA
:10133000FFF74AFD38B141F29053C2F20103314642
:1013400018680EF0B3F845F29C301221013DC0F24E
:1013500002001EF0BFFBE9B20F2915D841F67867ED
:10136000C2F2010741F08001B86C03681B6898471E
:10137000B86C036806F07F011B689847B86C036877
:1013800004F07F011B68984745F260100F21C0F2FE
:1013900002001EF09FFB230603F0FE43310443F4DA
:1013A000004301F4FE012D0243F008030B4341F218
:1013B000C05005F470611943C2F2010019F01AF827
:1013C00045F22010C0F2020014211EF083FB4EF201
:1013D0004020C2F20000BDE8F8401AF0E5BC00BFB2
:1013E000F8B54DF6A863C2F200030E461B7C144606
:1013F000054623B1984202D0FFF7E6FC40B141F226
:101400009053C2F201032246186831460DF00EFED9
:1014100045F2B0301121013DC0F202001EF05AFB2E
:10142000E9B20F2915D841F67867C2F2010741F0F9
:101430009001B86C03681B689847B86C036806F0A5
:101440007F011B689847B86C036804F07F011B6834
:10145000984745F260100F21C0F202001EF03AFBDF
:10146000230603F0FE43310443F4104301F4FE016C
:101470002D0243F009030B4341F2C05005F47061A3
:101480001943C2F2010018F0B5FF45F22010C0F276
:10149000020014211EF01EFB4EF24020C2F200009A
:1014A000BDE8F8401AF080BCF8B541F29053C2F2A2
:1014B000010305461B6801F5005645F2C4300C4691
:1014C000013D0D21C3F8C060C0F202001EF002FB16
:1014D000E9B20F2915D841F67867C2F2010741F049
:1014E000E001B86C03681B689847B86C036806F0A5
:1014F0007F011B689847B86C0368C6F3C6111B6868
:10150000984745F2601004F30D040F2104F50054D0
:10151000C0F202001EF0DEFA2902230403F4FE03E7
:1015200001F47061194341F46041640404F0FE4425
:1015300041F00E0141F2C0502143C2F2010018F007
:1015400059FF45F22010C0F2020014211EF0C2FA29
:101550004EF24020C2F20000BDE8F8401AF024BC70
:10156000F0B54AF23472C2F2010283B040F2706305
:1015700011680091C2F2010300991E68126801927D
:1015800041F28855C2F2010541F25452C2F2010201
:10159000891B45F2D4304EF24024C2F20004019F70
:1015A000298000260C21C0F2020016701F601EF078
:1015B00091FA2B8820464EF6602191FBF3F11AF048
:1015C00095FB45F2E4300521C0F202001EF082FADC
:1015D000298820461AF08AFB45F2EC300F21C0F230
:1015E00002001EF077FA20461AF0DEFB03B0F0BDD1
:1015F00008B541F25451C2F201014AF6AB230A7810
:101600000132D2B2CAF6AA23A3FB02031B0903EBE1
:101610004303A2EBC30313F0FF0F0A7001D1FFF7DE
:101620009FFF45F2FC301021C0F202001EF052FA7A
:1016300041F2C050C2F201004FF60F0118F0DAFE7D
:1016400045F220101421C0F202001EF043FA4FF6BA
:101650000F001DF0B5FB45F23810C0F202000F215B
:101660001EF038FA4EF24020C2F20000BDE80840F9
:101670001AF09ABB08B541F25451C2F201014AF680
:10168000AB230A780132D2B2CAF6AA23A3FB020323
:101690001B0903EB4303A2EBC30313F0FF0F0A7014
:1016A00001D1FFF75DFF45F210401521C0F20200A5
:1016B0001EF010FA41F67863C2F20103F821986C2B
:1016C00003681B68984745F260100F21C0F20200C2
:1016D0001EF000FA4FF60F001DF072FB45F23810B5
:1016E000C0F202000F211EF0F5F94EF24020C2F2C6
:1016F0000000BDE808401AF057BB00BF08B541F232
:101700005451C2F201014AF6AB230A780132D2B237
:10171000CAF6AA23A3FB02031B0903EB4303A2EBB4
:10172000C30313F0FF0F0A7001D1FFF719FF45F251
:1017300028401021C0F202001EF0CCF941F6786377
:10174000C2F20103F821986C03681B68984745F2C0
:1017500060100F21C0F202001EF0BCF941F2C0502F
:10176000C2F201004FF60F0118F044FE45F22010BE
:10177000C0F2020014211EF0ADF94EF24020C2F278
:101780000000BDE808401AF00FBB00BF1F2970B56C
:101790000C46054608D84DF6A863C2F20003187936
:1017A0000FF096F80AF000FE45F23C401221013D90
:1017B000C0F202001EF08EF9E9B20F290FD841F6EF
:1017C0007866C2F2010641F0C001B06C03681B6884
:1017D0009847B06C036804F07F011B68984745F296
:1017E00060100F21C0F202001EF074F9230403F40C
:1017F000FE03280243F4404343F00C0300F47060FE
:1018000018431DF0DDFA45F23810C0F202000F2136
:101810001EF060F94EF24020C2F20000BDE87040B8
:101820001AF0C2BA1F2938B50C46054608D84DF63D
:10183000A863C2F2000318790FF04AF80AF0B4FD69
:10184000240404F4FE04013D45F2504044F44044B5
:101850002D020D2105F47065C0F2020044F00C0465
:101860001EF038F92C4341F2C0502146C2F201006B
:1018700018F0C0FD45F220101421C0F202001EF045
:1018800029F920461DF09CFA45F23810C0F20200FA
:101890000F211EF01FF94EF24020C2F20000BDE8F9
:1018A00038401AF081BA00BF70B5064645F2604074
:1018B0000C46C0F20200172115461EF00BF9711EEE
:1018C000C9B20F292BD841F67866C2F2010641F061
:1018D000A001B06C03681B689847B06C036804F003
:1018E0007F011B689847B06C036805F07F011B6897
:1018F000984745F28030C0F202000A211EF0EAF853
:1019000045F23810C0F202000F211EF0E3F84EF24B
:101910004020C2F20000BDE870401AF045BA45F21E
:101920008030C0F202000A211EF0D4F8002EE7D168
:10193000681E0002240404F4FE0400F470602043D6
:1019400040F4504040F00D001DF03AFAD8E700BFD7
:1019500070B5064645F2784015460C46C0F20200C6
:1019600012211EF0B7F86B1E1B02240404F4FE04BF
:1019700003F47063234343F45043340143F00D03F5
:10198000E4B21C4341F2C0502146C2F2010018F0FB
:1019900031FD45F22010C0F2020014211EF09AF829
:1019A00016B920461DF00CFA45F23810C0F20200BC
:1019B0000F211EF08FF84EF24020C2F20000BDE869
:1019C00070401AF0F1B900BF38B541F678650446A9
:1019D000C2F2010545F28C401A21C0F202001EF04D
:1019E00079F8A86C0368F3211B689847A86C036812
:1019F00004F07F01DB6C984745F260100F21C0F2C4
:101A000002001EF067F8200400F4FE0040F473406A
:101A100040F002001DF0D4F945F23810C0F2020087
:101A20000F211EF057F84EF24020C2F20000BDE830
:101A300038401AF0B9B900BFF8B54DF6A863C2F244
:101A400000030E461B7C1446054623B1984202D083
:101A5000FFF7BAF938B141F29053C2F201033146AF
:101A600018680DF023FD45F2A8401721013DC0F292
:101A700002001EF02FF8E9B20F2915D841F6786759
:101A8000C2F2010741F08001B86C03681B689847F7
:101A9000B86C036806F07F011B689847B86C036850
:101AA00004F07F011B68984745F260100F21C0F2D7
:101AB00002001EF00FF8230603F0FE43310443F446
:101AC000004301F4FE01280243F008030B4300F435
:101AD000706018431DF074F945F23810C0F202002E
:101AE0000F211DF0F7FF4EF24020C2F20000BDE8CA
:101AF000F8401AF059B900BFF8B54DF6A863C2F224
:101B000000030E461B7C1446054623B1984202D0C2
:101B1000FFF75AF940B141F29053C2F20103224655
:101B2000186831460DF082FA45F2C0401621013D99
:101B3000C0F202001DF0CEFFE9B20F2915D841F620
:101B40007867C2F2010741F09001B86C03681B6826
:101B50009847B86C036806F07F011B689847B86C1B
:101B6000036804F07F011B68984745F260100F215D
:101B7000C0F202001DF0AEFF230603F0FE43310465
:101B800043F4104301F4FE01280243F009030B4320
:101B900000F4706018431DF013F945F23810C0F2DC
:101BA00002000F211DF096FF4EF24020C2F200000D
:101BB000BDE8F8401AF0F8B870B54DF6A863C2F267
:101BC00000030E461B7C1446054623B1984202D002
:101BD000FFF7FAF840B141F29053C2F201032246F6
:101BE000186831460DF022FA45F2D8401121C0F2B2
:101BF00002001DF06FFF230603F0FE43340443F49C
:101C00001043013D43F0090304F4FE042D021C437C
:101C100005F470652C4341F2C0502146C2F2010028
:101C200018F0E8FB45F220101421C0F202001DF06C
:101C300051FF20461DF0C4F845F23810C0F20200F2
:101C40000F211DF047FF4EF24020C2F20000BDE818
:101C500070401AF0A9B800BF38B541F6786504465F
:101C6000C2F2010545F2EC402421C0F202001DF051
:101C700031FFA86C0368F1211B689847A86C0368C2
:101C800021461B68984745F260100F21C0F2020000
:101C900004F00F041DF01EFF44F010044FF2021078
:101CA00040EA04401DF08CF845F23810C0F2020002
:101CB0000F211DF00FFF4EF24020C2F20000BDE8E0
:101CC00038401AF071B800BF70B54DF6A863C2F283
:101CD00000030E461B7C1446054623B1984202D0F1
:101CE000FFF772F838B141F29053C2F20103314666
:101CF00018680DF0DBFB45F214501221C0F202000F
:101D00001DF0E8FE230603F0FE43340443F40043D1
:101D1000013D43F0080304F4FE042D021C4305F4C6
:101D200070652C4341F2C0502146C2F2010018F008
:101D300061FB45F220101421C0F202001DF0CAFE22
:101D400020461DF03DF845F23810C0F202000F2188
:101D50001DF0C0FE4EF24020C2F20000BDE870400F
:101D60001AF022B838B541F678650446C2F201058A
:101D700045F228501521C0F202001DF0ABFEA86C00
:101D80000368F3211B689847A86C036804F07F017F
:101D9000DB6C984745F260100F21C0F202001DF085
:101DA00099FE210401F4FE0141F4734141F2C05057
:101DB00041F00201C2F2010018F01CFB45F22010B4
:101DC000C0F2020014211DF085FE4EF24020C2F246
:101DD0000000BDE8384019F0E7BF00BF38B541F654
:101DE00078650446C2F2010545F240501F21C0F259
:101DF00002001DF06FFEA86C0368F1211B68984774
:101E0000A86C036821461B68984745F260100F21B3
:101E1000C0F2020004F00F041DF05CFE44F0100458
:101E20004FF2021141F2C05041EA0441C2F20100F6
:101E300018F0E0FA45F22010C0F2020014211DF063
:101E400049FE4EF24020C2F20000BDE8384019F0D1
:101E5000ABBF00BF38B541F29053C2F2010301F5A8
:101E600000521B6805460C4645F26050C3F8C0207E
:101E70000D2104F30D04C0F202001DF02BFE04F549
:101E800000536C1E1A04240202F4FE0204F470646F
:101E9000144344F460445B0403F0FE4344F00E0436
:101EA0001C4341F2C0502146C2F2010018F0A2FAD0
:101EB00045F220101421C0F202001DF00BFE204656
:101EC0001CF07EFF45F23810C0F202000F211DF019
:101ED00001FE4EF24020C2F20000BDE8384019F089
:101EE00063BF00BFF8B541F29053C2F2010305464B
:101EF0001B6801F5005645F270500C46013D122159
:101F0000C3F8C060C0F202001DF0E4FDE9B20F2981
:101F100015D841F67867C2F2010741F0E001B86CCC
:101F200003681B689847B86C036806F07F011B685C
:101F30009847B86C0368C6F3C6111B68984745F20A
:101F4000601004F30D040F2104F50054C0F20200E8
:101F50001DF0C0FD2802230403F4FE0300F47060AA
:101F6000184340F46040640404F0FE4440F00E0066
:101F700020431CF025FF45F23810C0F202000F216B
:101F80001DF0A8FD4EF24020C2F20000BDE8F8406E
:101F900019F00ABF4AF28853C2F2010310B4D3F811
:101FA000E0201368506819780478507A137A044254
:101FB00001EA03011AD0937A03F0030309B143F055
:101FC000040343F008039910082B91722AD8072BB9
:101FD00022D2032B2ED011D9042B13D0062B14D1CF
:101FE000D3685DF8044B023BD3607047937A03F0EB
:101FF00003030029E7D043F00403E4E7012B0BD0EF
:10200000022B02D1D368013BD3605DF8044B7047CB
:102010000D2BF7D00E2BF8D1D3685DF8044B0133AC
:10202000D36070470C2B05D0F2D8092BD8D00B2BDE
:10203000E8D0EAE7D3685DF8044B0233D360704719
:102040004AF28853C2F2010310B4D3F8E8201368AF
:10205000506819780478507A137A044201EA03012F
:102060001AD0937A03F0030309B143F0040343F059
:1020700008039910082B91722AD8072B22D2032B20
:102080002ED011D9042B13D0062B14D1D3685DF8B0
:10209000044B023BD3607047937A03F0030300299B
:1020A000E7D043F00403E4E7012B0BD0022B02D16D
:1020B000D368013BD3605DF8044B70470D2BF7D01C
:1020C0000E2BF8D1D3685DF8044B0133D360704711
:1020D0000C2B05D0F2D8092BD8D00B2BE8D0EAE78F
:1020E000D3685DF8044B0233D36070474AF28853DB
:1020F000C2F2010310B4D3F8EC20136850681978C9
:102100000478507A137A044201EA03011AD0937AD0
:1021100003F0030309B143F0040343F008039910EB
:10212000082B91722AD8072B22D2032B2ED011D93B
:10213000042B13D0062B14D1D3685DF8044B023B5B
:10214000D3607047937A03F003030029E7D043F08C
:102150000403E4E7012B0BD0022B02D1D368013B2F
:10216000D3605DF8044B70470D2BF7D00E2BF8D1E0
:10217000D3685DF8044B0133D36070470C2B05D056
:10218000F2D8092BD8D00B2BE8D0EAE7D3685DF85A
:10219000044B0233D36070474AF28853C2F2010302
:1021A00010B4D3F8E4201368506819780478507A92
:1021B000137A044201EA03011AD0937A03F003036D
:1021C00009B143F0040343F008039910082B9172FE
:1021D0002AD8072B22D2032B2ED011D9042B13D0AF
:1021E000062B14D1D3685DF8044B023BD3607047D3
:1021F000937A03F003030029E7D043F00403E4E7F4
:10220000012B0BD0022B02D1D368013BD3605DF8C8
:10221000044B70470D2BF7D00E2BF8D1D3685DF827
:10222000044B0133D36070470C2B05D0F2D8092B37
:10223000D8D00B2BE8D0EAE7D3685DF8044B023323
:10224000D36070474AF28853C2F2010310B41A6A8D
:102250001368506819780478507A137A044201EAB6
:1022600003011AD0937A03F0030309B143F0040386
:1022700043F008039910082B91722AD8072B22D219
:10228000032B2ED011D9042B13D0062B14D1D368D5
:102290005DF8044B023BD3607047937A03F003036D
:1022A0000029E7D043F00403E4E7012B0BD0022B15
:1022B00002D1D368013BD3605DF8044B70470D2B0E
:1022C000F7D00E2BF8D1D3685DF8044B0133D360FF
:1022D00070470C2B05D0F2D8092BD8D00B2BE8D0A7
:1022E000EAE7D3685DF8044B0233D360704700BF60
:1022F0004AF28853C2F2010310B45A6A1368506854
:1023000019780478507A137A044201EA03011AD04A
:10231000937A03F0030309B143F0040343F0080385
:102320009910082B91722AD8072B22D2032B2ED07A
:1023300011D9042B13D0062B14D1D3685DF8044BAC
:10234000023BD3607047937A03F003030029E7D080
:1023500043F00403E4E7012B0BD0022B02D1D36836
:10236000013BD3605DF8044B70470D2BF7D00E2B6B
:10237000F8D1D3685DF8044B0133D36070470C2B60
:1023800005D0F2D8092BD8D00B2BE8D0EAE7D368D8
:102390005DF8044B0233D360704700BF4AF28853A4
:1023A000C2F2010310B49A6A13685068197804786D
:1023B000507A137A044201EA03011AD0937A03F0A7
:1023C000030309B143F0040343F008039910082BF9
:1023D00091722AD8072B22D2032B2ED011D9042B8D
:1023E00013D0062B14D1D3685DF8044B023BD360A5
:1023F0007047937A03F003030029E7D043F0040306
:10240000E4E7012B0BD0022B02D1D368013BD36050
:102410005DF8044B70470D2BF7D00E2BF8D1D36825
:102420005DF8044B0133D36070470C2B05D0F2D814
:10243000092BD8D00B2BE8D0EAE7D3685DF8044B22
:102440000233D360704700BF4AF28853C2F20103DF
:1024500010B4DA6A1368506819780478507A137ADD
:10246000044201EA03011AD0937A03F0030309B18D
:1024700043F0040343F008039910082B91722AD803
:10248000072B22D2032B2ED011D9042B13D0062BCD
:1024900014D1D3685DF8044B023BD3607047937A44
:1024A00003F003030029E7D043F00403E4E7012B22
:1024B0000BD0022B02D1D368013BD3605DF8044BF3
:1024C00070470D2BF7D00E2BF8D1D3685DF8044B75
:1024D0000133D36070470C2B05D0F2D8092BD8D02C
:1024E0000B2BE8D0EAE7D3685DF8044B0233D360E6
:1024F000704700BF4AF28853C2F2010310B41A6B4E
:102500001368506819780478507A137A044201EA03
:1025100003011AD0937A03F0030309B143F00403D3
:1025200043F008039910082B91722AD8072B22D266
:10253000032B2ED011D9042B13D0062B14D1D36822
:102540005DF8044B023BD3607047937A03F00303BA
:102550000029E7D043F00403E4E7012B0BD0022B62
:1025600002D1D368013BD3605DF8044B70470D2B5B
:10257000F7D00E2BF8D1D3685DF8044B0133D3604C
:1025800070470C2B05D0F2D8092BD8D00B2BE8D0F4
:10259000EAE7D3685DF8044B0233D360704700BFAD
:1025A0004AF28853C2F2010310B45A6B13685068A0
:1025B00019780478507A137A044201EA03011AD098
:1025C000937A03F0030309B143F0040343F00803D3
:1025D0009910082B91722AD8072B22D2032B2ED0C8
:1025E00011D9042B13D0062B14D1D3685DF8044BFA
:1025F000023BD3607047937A03F003030029E7D0CE
:1026000043F00403E4E7012B0BD0022B02D1D36883
:10261000013BD3605DF8044B70470D2BF7D00E2BB8
:10262000F8D1D3685DF8044B0133D36070470C2BAD
:1026300005D0F2D8092BD8D00B2BE8D0EAE7D36825
:102640005DF8044B0233D360704700BF4AF28853F1
:10265000C2F2010310B49A6B1368506819780478B9
:10266000507A137A044201EA03011AD0937A03F0F4
:10267000030309B143F0040343F008039910082B46
:1026800091722AD8072B22D2032B2ED011D9042BDA
:1026900013D0062B14D1D3685DF8044B023BD360F2
:1026A0007047937A03F003030029E7D043F0040353
:1026B000E4E7012B0BD0022B02D1D368013BD3609E
:1026C0005DF8044B70470D2BF7D00E2BF8D1D36873
:1026D0005DF8044B0133D36070470C2B05D0F2D862
:1026E000092BD8D00B2BE8D0EAE7D3685DF8044B70
:1026F0000233D360704700BF4AF28853C2F201032D
:1027000010B4DA6B1368506819780478507A137A29
:10271000044201EA03011AD0937A03F0030309B1DA
:1027200043F0040343F008039910082B91722AD850
:10273000072B22D2032B2ED011D9042B13D0062B1A
:1027400014D1D3685DF8044B023BD3607047937A91
:1027500003F003030029E7D043F00403E4E7012B6F
:102760000BD0022B02D1D368013BD3605DF8044B40
:1027700070470D2BF7D00E2BF8D1D3685DF8044BC2
:102780000133D36070470C2B05D0F2D8092BD8D079
:102790000B2BE8D0EAE7D3685DF8044B0233D36033
:1027A000704700BF4AF28853C2F2010310B41A6C9A
:1027B0001368506819780478507A137A044201EA51
:1027C00003011AD0937A03F0030309B143F0040321
:1027D00043F008039910082B91722AD8072B22D2B4
:1027E000032B2ED011D9042B13D0062B14D1D36870
:1027F0005DF8044B023BD3607047937A03F0030308
:102800000029E7D043F00403E4E7012B0BD0022BAF
:1028100002D1D368013BD3605DF8044B70470D2BA8
:10282000F7D00E2BF8D1D3685DF8044B0133D36099
:1028300070470C2B05D0F2D8092BD8D00B2BE8D041
:10284000EAE7D3685DF8044B0233D360704700BFFA
:102850004AF28853C2F2010310B45A6C13685068EC
:1028600019780478507A137A044201EA03011AD0E5
:10287000937A03F0030309B143F0040343F0080320
:102880009910082B91722AD8072B22D2032B2ED015
:1028900011D9042B13D0062B14D1D3685DF8044B47
:1028A000023BD3607047937A03F003030029E7D01B
:1028B00043F00403E4E7012B0BD0022B02D1D368D1
:1028C000013BD3605DF8044B70470D2BF7D00E2B06
:1028D000F8D1D3685DF8044B0133D36070470C2BFB
:1028E00005D0F2D8092BD8D00B2BE8D0EAE7D36873
:1028F0005DF8044B0233D360704700BF4AF288533F
:10290000C2F2010310B49A6C136850681978047805
:10291000507A137A044201EA03011AD0937A03F041
:10292000030309B143F0040343F008039910082B93
:1029300091722AD8072B22D2032B2ED011D9042B27
:1029400013D0062B14D1D3685DF8044B023BD3603F
:102950007047937A03F003030029E7D043F00403A0
:10296000E4E7012B0BD0022B02D1D368013BD360EB
:102970005DF8044B70470D2BF7D00E2BF8D1D368C0
:102980005DF8044B0133D36070470C2B05D0F2D8AF
:10299000092BD8D00B2BE8D0EAE7D3685DF8044BBD
:1029A0000233D360704700BF4AF28853C2F201037A
:1029B00010B4DA6C1368506819780478507A137A76
:1029C000044201EA03011AD0937A03F0030309B128
:1029D00043F0040343F008039910082B91722AD89E
:1029E000072B22D2032B2ED011D9042B13D0062B68
:1029F00014D1D3685DF8044B023BD3607047937ADF
:102A000003F003030029E7D043F00403E4E7012BBC
:102A10000BD0022B02D1D368013BD3605DF8044B8D
:102A200070470D2BF7D00E2BF8D1D3685DF8044B0F
:102A30000133D36070470C2B05D0F2D8092BD8D0C6
:102A40000B2BE8D0EAE7D3685DF8044B0233D36080
:102A5000704700BF4AF28853C2F2010310B41A6DE6
:102A60001368506819780478507A137A044201EA9E
:102A700003011AD0937A03F0030309B143F004036E
:102A800043F008039910082B91722AD8072B22D201
:102A9000032B2ED011D9042B13D0062B14D1D368BD
:102AA0005DF8044B023BD3607047937A03F0030355
:102AB0000029E7D043F00403E4E7012B0BD0022BFD
:102AC00002D1D368013BD3605DF8044B70470D2BF6
:102AD000F7D00E2BF8D1D3685DF8044B0133D360E7
:102AE00070470C2B05D0F2D8092BD8D00B2BE8D08F
:102AF000EAE7D3685DF8044B0233D360704700BF48
:102B00004AF28853C2F2010310B45A6D1368506838
:102B100019780478507A137A044201EA03011AD032
:102B2000937A03F0030309B143F0040343F008036D
:102B30009910082B91722AD8072B22D2032B2ED062
:102B400011D9042B13D0062B14D1D3685DF8044B94
:102B5000023BD3607047937A03F003030029E7D068
:102B600043F00403E4E7012B0BD0022B02D1D3681E
:102B7000013BD3605DF8044B70470D2BF7D00E2B53
:102B8000F8D1D3685DF8044B0133D36070470C2B48
:102B900005D0F2D8092BD8D00B2BE8D0EAE7D368C0
:102BA0005DF8044B0233D360704700BF4AF288538C
:102BB000C2F2010310B49A6D136850681978047852
:102BC000507A137A044201EA03011AD0937A03F08F
:102BD000030309B143F0040343F008039910082BE1
:102BE00091722AD8072B22D2032B2ED011D9042B75
:102BF00013D0062B14D1D3685DF8044B023BD3608D
:102C00007047937A03F003030029E7D043F00403ED
:102C1000E4E7012B0BD0022B02D1D368013BD36038
:102C20005DF8044B70470D2BF7D00E2BF8D1D3680D
:102C30005DF8044B0133D36070470C2B05D0F2D8FC
:102C4000092BD8D00B2BE8D0EAE7D3685DF8044B0A
:102C50000233D360704700BF4AF28853C2F20103C7
:102C600010B4DA6D1368506819780478507A137AC2
:102C7000044201EA03011AD0937A03F0030309B175
:102C800043F0040343F008039910082B91722AD8EB
:102C9000072B22D2032B2ED011D9042B13D0062BB5
:102CA00014D1D3685DF8044B023BD3607047937A2C
:102CB00003F003030029E7D043F00403E4E7012B0A
:102CC0000BD0022B02D1D368013BD3605DF8044BDB
:102CD00070470D2BF7D00E2BF8D1D3685DF8044B5D
:102CE0000133D36070470C2B05D0F2D8092BD8D014
:102CF0000B2BE8D0EAE7D3685DF8044B0233D360CE
:102D0000704700BF4AF28853C2F2010310B41A6838
:102D10001368506819780478507A137A044201EAEB
:102D200003011AD0937A03F0030309B143F00403BB
:102D300043F008039910082B91722AD8072B22D24E
:102D4000032B2ED011D9042B13D0062B14D1D3680A
:102D50005DF8044B023BD3607047937A03F00303A2
:102D60000029E7D043F00403E4E7012B0BD0022B4A
:102D700002D1D368013BD3605DF8044B70470D2B43
:102D8000F7D00E2BF8D1D3685DF8044B0133D36034
:102D900070470C2B05D0F2D8092BD8D00B2BE8D0DC
:102DA000EAE7D3685DF8044B0233D360704700BF95
:102DB0004AF28853C2F2010310B45A68136850688B
:102DC00019780478507A137A044201EA03011AD080
:102DD000937A03F0030309B143F0040343F00803BB
:102DE0009910082B91722AD8072B22D2032B2ED0B0
:102DF00011D9042B13D0062B14D1D3685DF8044BE2
:102E0000023BD3607047937A03F003030029E7D0B5
:102E100043F00403E4E7012B0BD0022B02D1D3686B
:102E2000013BD3605DF8044B70470D2BF7D00E2BA0
:102E3000F8D1D3685DF8044B0133D36070470C2B95
:102E400005D0F2D8092BD8D00B2BE8D0EAE7D3680D
:102E50005DF8044B0233D360704700BF4AF28853D9
:102E6000C2F2010310B49A681368506819780478A4
:102E7000507A137A044201EA03011AD0937A03F0DC
:102E8000030309B143F0040343F008039910082B2E
:102E900091722AD8072B22D2032B2ED011D9042BC2
:102EA00013D0062B14D1D3685DF8044B023BD360DA
:102EB0007047937A03F003030029E7D043F004033B
:102EC000E4E7012B0BD0022B02D1D368013BD36086
:102ED0005DF8044B70470D2BF7D00E2BF8D1D3685B
:102EE0005DF8044B0133D36070470C2B05D0F2D84A
:102EF000092BD8D00B2BE8D0EAE7D3685DF8044B58
:102F00000233D360704700BF4AF28853C2F2010314
:102F100010B4DA681368506819780478507A137A14
:102F2000044201EA03011AD0937A03F0030309B1C2
:102F300043F0040343F008039910082B91722AD838
:102F4000072B22D2032B2ED011D9042B13D0062B02
:102F500014D1D3685DF8044B023BD3607047937A79
:102F600003F003030029E7D043F00403E4E7012B57
:102F70000BD0022B02D1D368013BD3605DF8044B28
:102F800070470D2BF7D00E2BF8D1D3685DF8044BAA
:102F90000133D36070470C2B05D0F2D8092BD8D061
:102FA0000B2BE8D0EAE7D3685DF8044B0233D3601B
:102FB000704700BF4AF28853C2F2010310B41A6985
:102FC0001368506819780478507A137A044201EA39
:102FD00003011AD0937A03F0030309B143F0040309
:102FE00043F008039910082B91722AD8072B22D29C
:102FF000032B2ED011D9042B13D0062B14D1D36858
:103000005DF8044B023BD3607047937A03F00303EF
:103010000029E7D043F00403E4E7012B0BD0022B97
:1030200002D1D368013BD3605DF8044B70470D2B90
:10303000F7D00E2BF8D1D3685DF8044B0133D36081
:1030400070470C2B05D0F2D8092BD8D00B2BE8D029
:10305000EAE7D3685DF8044B0233D360704700BFE2
:103060004AF28853C2F2010310B45A6913685068D7
:1030700019780478507A137A044201EA03011AD0CD
:10308000937A03F0030309B143F0040343F0080308
:103090009910082B91722AD8072B22D2032B2ED0FD
:1030A00011D9042B13D0062B14D1D3685DF8044B2F
:1030B000023BD3607047937A03F003030029E7D003
:1030C00043F00403E4E7012B0BD0022B02D1D368B9
:1030D000013BD3605DF8044B70470D2BF7D00E2BEE
:1030E000F8D1D3685DF8044B0133D36070470C2BE3
:1030F00005D0F2D8092BD8D00B2BE8D0EAE7D3685B
:103100005DF8044B0233D360704700BF4AF2885326
:10311000C2F2010310B49A691368506819780478F0
:10312000507A137A044201EA03011AD0937A03F029
:10313000030309B143F0040343F008039910082B7B
:1031400091722AD8072B22D2032B2ED011D9042B0F
:1031500013D0062B14D1D3685DF8044B023BD36027
:103160007047937A03F003030029E7D043F0040388
:10317000E4E7012B0BD0022B02D1D368013BD360D3
:103180005DF8044B70470D2BF7D00E2BF8D1D368A8
:103190005DF8044B0133D36070470C2B05D0F2D897
:1031A000092BD8D00B2BE8D0EAE7D3685DF8044BA5
:1031B0000233D360704700BF4AF28853C2F2010362
:1031C00010B4DA691368506819780478507A137A61
:1031D000044201EA03011AD0937A03F0030309B110
:1031E00043F0040343F008039910082B91722AD886
:1031F000072B22D2032B2ED011D9042B13D0062B50
:1032000014D1D3685DF8044B023BD3607047937AC6
:1032100003F003030029E7D043F00403E4E7012BA4
:103220000BD0022B02D1D368013BD3605DF8044B75
:1032300070470D2BF7D00E2BF8D1D3685DF8044BF7
:103240000133D36070470C2B05D0F2D8092BD8D0AE
:103250000B2BE8D0EAE7D3685DF8044B0233D36068
:10326000704700BF4AF28853C2F2010310B41A6ECD
:103270001368506819780478507A137A044201EA86
:1032800003011AD0937A03F0030309B143F0040356
:1032900043F008039910082B91722AD8072B22D2E9
:1032A000032B2ED011D9042B13D0062B14D1D368A5
:1032B0005DF8044B023BD3607047937A03F003033D
:1032C0000029E7D043F00403E4E7012B0BD0022BE5
:1032D00002D1D368013BD3605DF8044B70470D2BDE
:1032E000F7D00E2BF8D1D3685DF8044B0133D360CF
:1032F00070470C2B05D0F2D8092BD8D00B2BE8D077
:10330000EAE7D3685DF8044B0233D360704700BF2F
:103310004AF28853C2F2010310B45A6E136850681F
:1033200019780478507A137A044201EA03011AD01A
:10333000937A03F0030309B143F0040343F0080355
:103340009910082B91722AD8072B22D2032B2ED04A
:1033500011D9042B13D0062B14D1D3685DF8044B7C
:10336000023BD3607047937A03F003030029E7D050
:1033700043F00403E4E7012B0BD0022B02D1D36806
:10338000013BD3605DF8044B70470D2BF7D00E2B3B
:10339000F8D1D3685DF8044B0133D36070470C2B30
:1033A00005D0F2D8092BD8D00B2BE8D0EAE7D368A8
:1033B0005DF8044B0233D360704700BF4AF2885374
:1033C000C2F2010310B49A6E136850681978047839
:1033D000507A137A044201EA03011AD0937A03F077
:1033E000030309B143F0040343F008039910082BC9
:1033F00091722AD8072B22D2032B2ED011D9042B5D
:1034000013D0062B14D1D3685DF8044B023BD36074
:103410007047937A03F003030029E7D043F00403D5
:10342000E4E7012B0BD0022B02D1D368013BD36020
:103430005DF8044B70470D2BF7D00E2BF8D1D368F5
:103440005DF8044B0133D36070470C2B05D0F2D8E4
:10345000092BD8D00B2BE8D0EAE7D3685DF8044BF2
:103460000233D360704700BF4AF28853C2F20103AF
:1034700010B4DA6E1368506819780478507A137AA9
:10348000044201EA03011AD0937A03F0030309B15D
:1034900043F0040343F008039910082B91722AD8D3
:1034A000072B22D2032B2ED011D9042B13D0062B9D
:1034B00014D1D3685DF8044B023BD3607047937A14
:1034C00003F003030029E7D043F00403E4E7012BF2
:1034D0000BD0022B02D1D368013BD3605DF8044BC3
:1034E00070470D2BF7D00E2BF8D1D3685DF8044B45
:1034F0000133D36070470C2B05D0F2D8092BD8D0FC
:103500000B2BE8D0EAE7D3685DF8044B0233D360B5
:10351000704700BF4AF28853C2F2010310B41A6F19
:103520001368506819780478507A137A044201EAD3
:1035300003011AD0937A03F0030309B143F00403A3
:1035400043F008039910082B91722AD8072B22D236
:10355000032B2ED011D9042B13D0062B14D1D368F2
:103560005DF8044B023BD3607047937A03F003038A
:103570000029E7D043F00403E4E7012B0BD0022B32
:1035800002D1D368013BD3605DF8044B70470D2B2B
:10359000F7D00E2BF8D1D3685DF8044B0133D3601C
:1035A00070470C2B05D0F2D8092BD8D00B2BE8D0C4
:1035B000EAE7D3685DF8044B0233D360704700BF7D
:1035C0004AF28853C2F2010310B45A6F136850686C
:1035D00019780478507A137A044201EA03011AD068
:1035E000937A03F0030309B143F0040343F00803A3
:1035F0009910082B91722AD8072B22D2032B2ED098
:1036000011D9042B13D0062B14D1D3685DF8044BC9
:10361000023BD3607047937A03F003030029E7D09D
:1036200043F00403E4E7012B0BD0022B02D1D36853
:10363000013BD3605DF8044B70470D2BF7D00E2B88
:10364000F8D1D3685DF8044B0133D36070470C2B7D
:1036500005D0F2D8092BD8D00B2BE8D0EAE7D368F5
:103660005DF8044B0233D360704700BF4AF28853C1
:10367000C2F2010310B49A6F136850681978047885
:10368000507A137A044201EA03011AD0937A03F0C4
:10369000030309B143F0040343F008039910082B16
:1036A00091722AD8072B22D2032B2ED011D9042BAA
:1036B00013D0062B14D1D3685DF8044B023BD360C2
:1036C0007047937A03F003030029E7D043F0040323
:1036D000E4E7012B0BD0022B02D1D368013BD3606E
:1036E0005DF8044B70470D2BF7D00E2BF8D1D36843
:1036F0005DF8044B0133D36070470C2B05D0F2D832
:10370000092BD8D00B2BE8D0EAE7D3685DF8044B3F
:103710000233D360704700BF4AF28853C2F20103FC
:1037200010B4DA6F1368506819780478507A137AF5
:10373000044201EA03011AD0937A03F0030309B1AA
:1037400043F0040343F008039910082B91722AD820
:10375000072B22D2032B2ED011D9042B13D0062BEA
:1037600014D1D3685DF8044B023BD3607047937A61
:1037700003F003030029E7D043F00403E4E7012B3F
:103780000BD0022B02D1D368013BD3605DF8044B10
:1037900070470D2BF7D00E2BF8D1D3685DF8044B92
:1037A0000133D36070470C2B05D0F2D8092BD8D049
:1037B0000B2BE8D0EAE7D3685DF8044B0233D36003
:1037C000704700BF4AF28853C2F2010310B4D3F825
:1037D00080201368506819780478507A137A04426C
:1037E00001EA03011AD0937A03F0030309B143F00D
:1037F000040343F008039910082B91722AD8072B71
:1038000022D2032B2ED011D9042B13D0062B14D186
:10381000D3685DF8044B023BD3607047937A03F0A2
:1038200003030029E7D043F00403E4E7012B0BD0A6
:10383000022B02D1D368013BD3605DF8044B704783
:103840000D2BF7D00E2BF8D1D3685DF8044B013364
:10385000D36070470C2B05D0F2D8092BD8D00B2B96
:10386000E8D0EAE7D3685DF8044B0233D3607047D1
:103870004AF28853C2F2010310B4D3F884201368CB
:10388000506819780478507A137A044201EA0301E7
:103890001AD0937A03F0030309B143F0040343F011
:1038A00008039910082B91722AD8072B22D2032BD8
:1038B0002ED011D9042B13D0062B14D1D3685DF868
:1038C000044B023BD3607047937A03F00303002953
:1038D000E7D043F00403E4E7012B0BD0022B02D125
:1038E000D368013BD3605DF8044B70470D2BF7D0D4
:1038F0000E2BF8D1D3685DF8044B0133D3607047C9
:103900000C2B05D0F2D8092BD8D00B2BE8D0EAE746
:10391000D3685DF8044B0233D36070474AF2885392
:10392000C2F2010310B4D3F88820136850681978E4
:103930000478507A137A044201EA03011AD0937A88
:1039400003F0030309B143F0040343F008039910A3
:10395000082B91722AD8072B22D2032B2ED011D9F3
:10396000042B13D0062B14D1D3685DF8044B023B13
:10397000D3607047937A03F003030029E7D043F044
:103980000403E4E7012B0BD0022B02D1D368013BE7
:10399000D3605DF8044B70470D2BF7D00E2BF8D198
:1039A000D3685DF8044B0133D36070470C2B05D00E
:1039B000F2D8092BD8D00B2BE8D0EAE7D3685DF812
:1039C000044B0233D36070474AF28853C2F20103BA
:1039D00010B4D3F88C201368506819780478507AA2
:1039E000137A044201EA03011AD0937A03F0030325
:1039F00009B143F0040343F008039910082B9172B6
:103A00002AD8072B22D2032B2ED011D9042B13D066
:103A1000062B14D1D3685DF8044B023BD36070478A
:103A2000937A03F003030029E7D043F00403E4E7AB
:103A3000012B0BD0022B02D1D368013BD3605DF880
:103A4000044B70470D2BF7D00E2BF8D1D3685DF8DF
:103A5000044B0133D36070470C2B05D0F2D8092BEF
:103A6000D8D00B2BE8D0EAE7D3685DF8044B0233DB
:103A7000D36070474AF28853C2F2010310B4D3F8FE
:103A800090201368506819780478507A137A0442A9
:103A900001EA03011AD0937A03F0030309B143F05A
:103AA000040343F008039910082B91722AD8072BBE
:103AB00022D2032B2ED011D9042B13D0062B14D1D4
:103AC000D3685DF8044B023BD3607047937A03F0F0
:103AD00003030029E7D043F00403E4E7012B0BD0F4
:103AE000022B02D1D368013BD3605DF8044B7047D1
:103AF0000D2BF7D00E2BF8D1D3685DF8044B0133B2
:103B0000D36070470C2B05D0F2D8092BD8D00B2BE3
:103B1000E8D0EAE7D3685DF8044B0233D36070471E
:103B20004AF28853C2F2010310B4D3F89420136808
:103B3000506819780478507A137A044201EA030134
:103B40001AD0937A03F0030309B143F0040343F05E
:103B500008039910082B91722AD8072B22D2032B25
:103B60002ED011D9042B13D0062B14D1D3685DF8B5
:103B7000044B023BD3607047937A03F003030029A0
:103B8000E7D043F00403E4E7012B0BD0022B02D172
:103B9000D368013BD3605DF8044B70470D2BF7D021
:103BA0000E2BF8D1D3685DF8044B0133D360704716
:103BB0000C2B05D0F2D8092BD8D00B2BE8D0EAE794
:103BC000D3685DF8044B0233D36070474AF28853E0
:103BD000C2F2010310B4D3F8982013685068197822
:103BE0000478507A137A044201EA03011AD0937AD6
:103BF00003F0030309B143F0040343F008039910F1
:103C0000082B91722AD8072B22D2032B2ED011D940
:103C1000042B13D0062B14D1D3685DF8044B023B60
:103C2000D3607047937A03F003030029E7D043F091
:103C30000403E4E7012B0BD0022B02D1D368013B34
:103C4000D3605DF8044B70470D2BF7D00E2BF8D1E5
:103C5000D3685DF8044B0133D36070470C2B05D05B
:103C6000F2D8092BD8D00B2BE8D0EAE7D3685DF85F
:103C7000044B0233D36070474AF28853C2F2010307
:103C800010B4D3F89C201368506819780478507ADF
:103C9000137A044201EA03011AD0937A03F0030372
:103CA00009B143F0040343F008039910082B917203
:103CB0002AD8072B22D2032B2ED011D9042B13D0B4
:103CC000062B14D1D3685DF8044B023BD3607047D8
:103CD000937A03F003030029E7D043F00403E4E7F9
:103CE000012B0BD0022B02D1D368013BD3605DF8CE
:103CF000044B70470D2BF7D00E2BF8D1D3685DF82D
:103D0000044B0133D36070470C2B05D0F2D8092B3C
:103D1000D8D00B2BE8D0EAE7D3685DF8044B023328
:103D2000D36070474AF28853C2F2010310B4D3F84B
:103D3000A0201368506819780478507A137A0442E6
:103D400001EA03011AD0937A03F0030309B143F0A7
:103D5000040343F008039910082B91722AD8072B0B
:103D600022D2032B2ED011D9042B13D0062B14D121
:103D7000D3685DF8044B023BD3607047937A03F03D
:103D800003030029E7D043F00403E4E7012B0BD041
:103D9000022B02D1D368013BD3605DF8044B70471E
:103DA0000D2BF7D00E2BF8D1D3685DF8044B0133FF
:103DB000D36070470C2B05D0F2D8092BD8D00B2B31
:103DC000E8D0EAE7D3685DF8044B0233D36070476C
:103DD0004AF28853C2F2010310B4D3F8A420136846
:103DE000506819780478507A137A044201EA030182
:103DF0001AD0937A03F0030309B143F0040343F0AC
:103E000008039910082B91722AD8072B22D2032B72
:103E10002ED011D9042B13D0062B14D1D3685DF802
:103E2000044B023BD3607047937A03F003030029ED
:103E3000E7D043F00403E4E7012B0BD0022B02D1BF
:103E4000D368013BD3605DF8044B70470D2BF7D06E
:103E50000E2BF8D1D3685DF8044B0133D360704763
:103E60000C2B05D0F2D8092BD8D00B2BE8D0EAE7E1
:103E7000D3685DF8044B0233D36070474AF288532D
:103E8000C2F2010310B4D3F8A8201368506819785F
:103E90000478507A137A044201EA03011AD0937A23
:103EA00003F0030309B143F0040343F0080399103E
:103EB000082B91722AD8072B22D2032B2ED011D98E
:103EC000042B13D0062B14D1D3685DF8044B023BAE
:103ED000D3607047937A03F003030029E7D043F0DF
:103EE0000403E4E7012B0BD0022B02D1D368013B82
:103EF000D3605DF8044B70470D2BF7D00E2BF8D133
:103F0000D3685DF8044B0133D36070470C2B05D0A8
:103F1000F2D8092BD8D00B2BE8D0EAE7D3685DF8AC
:103F2000044B0233D36070474AF28853C2F2010354
:103F300010B4D3F8AC201368506819780478507A1C
:103F4000137A044201EA03011AD0937A03F00303BF
:103F500009B143F0040343F008039910082B917250
:103F60002AD8072B22D2032B2ED011D9042B13D001
:103F7000062B14D1D3685DF8044B023BD360704725
:103F8000937A03F003030029E7D043F00403E4E746
:103F9000012B0BD0022B02D1D368013BD3605DF81B
:103FA000044B70470D2BF7D00E2BF8D1D3685DF87A
:103FB000044B0133D36070470C2B05D0F2D8092B8A
:103FC000D8D00B2BE8D0EAE7D3685DF8044B023376
:103FD000D36070474AF28853C2F2010310B4D3F899
:103FE000B0201368506819780478507A137A044224
:103FF00001EA03011AD0937A03F0030309B143F0F5
:10400000040343F008039910082B91722AD8072B58
:1040100022D2032B2ED011D9042B13D0062B14D16E
:10402000D3685DF8044B023BD3607047937A03F08A
:1040300003030029E7D043F00403E4E7012B0BD08E
:10404000022B02D1D368013BD3605DF8044B70476B
:104050000D2BF7D00E2BF8D1D3685DF8044B01334C
:10406000D36070470C2B05D0F2D8092BD8D00B2B7E
:10407000E8D0EAE7D3685DF8044B0233D3607047B9
:104080004AF28853C2F2010310B4D3F8B420136883
:10409000506819780478507A137A044201EA0301CF
:1040A0001AD0937A03F0030309B143F0040343F0F9
:1040B00008039910082B91722AD8072B22D2032BC0
:1040C0002ED011D9042B13D0062B14D1D3685DF850
:1040D000044B023BD3607047937A03F0030300293B
:1040E000E7D043F00403E4E7012B0BD0022B02D10D
:1040F000D368013BD3605DF8044B70470D2BF7D0BC
:104100000E2BF8D1D3685DF8044B0133D3607047B0
:104110000C2B05D0F2D8092BD8D00B2BE8D0EAE72E
:10412000D3685DF8044B0233D36070474AF288537A
:10413000C2F2010310B4D3F8B8201368506819789C
:104140000478507A137A044201EA03011AD0937A70
:1041500003F0030309B143F0040343F0080399108B
:10416000082B91722AD8072B22D2032B2ED011D9DB
:10417000042B13D0062B14D1D3685DF8044B023BFB
:10418000D3607047937A03F003030029E7D043F02C
:104190000403E4E7012B0BD0022B02D1D368013BCF
:1041A000D3605DF8044B70470D2BF7D00E2BF8D180
:1041B000D3685DF8044B0133D36070470C2B05D0F6
:1041C000F2D8092BD8D00B2BE8D0EAE7D3685DF8FA
:1041D000044B0233D36070474AF28853C2F20103A2
:1041E00010B4D3F8BC201368506819780478507A5A
:1041F000137A044201EA03011AD0937A03F003030D
:1042000009B143F0040343F008039910082B91729D
:104210002AD8072B22D2032B2ED011D9042B13D04E
:10422000062B14D1D3685DF8044B023BD360704772
:10423000937A03F003030029E7D043F00403E4E793
:10424000012B0BD0022B02D1D368013BD3605DF868
:10425000044B70470D2BF7D00E2BF8D1D3685DF8C7
:10426000044B0133D36070470C2B05D0F2D8092BD7
:10427000D8D00B2BE8D0EAE7D3685DF8044B0233C3
:10428000D36070474AF28853C2F2010310B4D3F8E6
:10429000C0201368506819780478507A137A044261
:1042A00001EA03011AD0937A03F0030309B143F042
:1042B000040343F008039910082B91722AD8072BA6
:1042C00022D2032B2ED011D9042B13D0062B14D1BC
:1042D000D3685DF8044B023BD3607047937A03F0D8
:1042E00003030029E7D043F00403E4E7012B0BD0DC
:1042F000022B02D1D368013BD3605DF8044B7047B9
:104300000D2BF7D00E2BF8D1D3685DF8044B013399
:10431000D36070470C2B05D0F2D8092BD8D00B2BCB
:10432000E8D0EAE7D3685DF8044B0233D360704706
:104330004AF28853C2F2010310B4D3F8C4201368C0
:10434000506819780478507A137A044201EA03011C
:104350001AD0937A03F0030309B143F0040343F046
:1043600008039910082B91722AD8072B22D2032B0D
:104370002ED011D9042B13D0062B14D1D3685DF89D
:10438000044B023BD3607047937A03F00303002988
:10439000E7D043F00403E4E7012B0BD0022B02D15A
:1043A000D368013BD3605DF8044B70470D2BF7D009
:1043B0000E2BF8D1D3685DF8044B0133D3607047FE
:1043C0000C2B05D0F2D8092BD8D00B2BE8D0EAE77C
:1043D000D3685DF8044B0233D36070474AF28853C8
:1043E000C2F2010310B4D3F8C820136850681978DA
:1043F0000478507A137A044201EA03011AD0937ABE
:1044000003F0030309B143F0040343F008039910D8
:10441000082B91722AD8072B22D2032B2ED011D928
:10442000042B13D0062B14D1D3685DF8044B023B48
:10443000D3607047937A03F003030029E7D043F079
:104440000403E4E7012B0BD0022B02D1D368013B1C
:10445000D3605DF8044B70470D2BF7D00E2BF8D1CD
:10446000D3685DF8044B0133D36070470C2B05D043
:10447000F2D8092BD8D00B2BE8D0EAE7D3685DF847
:10448000044B0233D36070474AF28853C2F20103EF
:1044900010B4D3F8CC201368506819780478507A97
:1044A000137A044201EA03011AD0937A03F003035A
:1044B00009B143F0040343F008039910082B9172EB
:1044C0002AD8072B22D2032B2ED011D9042B13D09C
:1044D000062B14D1D3685DF8044B023BD3607047C0
:1044E000937A03F003030029E7D043F00403E4E7E1
:1044F000012B0BD0022B02D1D368013BD3605DF8B6
:10450000044B70470D2BF7D00E2BF8D1D3685DF814
:10451000044B0133D36070470C2B05D0F2D8092B24
:10452000D8D00B2BE8D0EAE7D3685DF8044B023310
:10453000D36070474AF28853C2F2010310B4D3F833
:10454000D0201368506819780478507A137A04429E
:1045500001EA03011AD0937A03F0030309B143F08F
:10456000040343F008039910082B91722AD8072BF3
:1045700022D2032B2ED011D9042B13D0062B14D109
:10458000D3685DF8044B023BD3607047937A03F025
:1045900003030029E7D043F00403E4E7012B0BD029
:1045A000022B02D1D368013BD3605DF8044B704706
:1045B0000D2BF7D00E2BF8D1D3685DF8044B0133E7
:1045C000D36070470C2B05D0F2D8092BD8D00B2B19
:1045D000E8D0EAE7D3685DF8044B0233D360704754
:1045E0004AF28853C2F2010310B4D3F8D4201368FE
:1045F000506819780478507A137A044201EA03016A
:104600001AD0937A03F0030309B143F0040343F093
:1046100008039910082B91722AD8072B22D2032B5A
:104620002ED011D9042B13D0062B14D1D3685DF8EA
:10463000044B023BD3607047937A03F003030029D5
:10464000E7D043F00403E4E7012B0BD0022B02D1A7
:10465000D368013BD3605DF8044B70470D2BF7D056
:104660000E2BF8D1D3685DF8044B0133D36070474B
:104670000C2B05D0F2D8092BD8D00B2BE8D0EAE7C9
:10468000D3685DF8044B0233D36070474AF2885315
:10469000C2F2010310B4D3F8D82013685068197817
:1046A0000478507A137A044201EA03011AD0937A0B
:1046B00003F0030309B143F0040343F00803991026
:1046C000082B91722AD8072B22D2032B2ED011D976
:1046D000042B13D0062B14D1D3685DF8044B023B96
:1046E000D3607047937A03F003030029E7D043F0C7
:1046F0000403E4E7012B0BD0022B02D1D368013B6A
:10470000D3605DF8044B70470D2BF7D00E2BF8D11A
:10471000D3685DF8044B0133D36070470C2B05D090
:10472000F2D8092BD8D00B2BE8D0EAE7D3685DF894
:10473000044B0233D36070474AF28853C2F201033C
:1047400010B4D3F8DC201368506819780478507AD4
:10475000137A044201EA03011AD0937A03F00303A7
:1047600009B143F0040343F008039910082B917238
:104770002AD8072B22D2032B2ED011D9042B13D0E9
:10478000062B14D1D3685DF8044B023BD36070470D
:10479000937A03F003030029E7D043F00403E4E72E
:1047A000012B0BD0022B02D1D368013BD3605DF803
:1047B000044B70470D2BF7D00E2BF8D1D3685DF862
:1047C000044B0133D36070470C2B05D0F2D8092B72
:1047D000D8D00B2BE8D0EAE7D3685DF8044B02335E
:1047E000D360704710B445F290040023C0F2020475
:1047F0004172026104600372C36041B1194600E076
:10480000026942F82310427A01339A42F8DC4AF2F4
:104810008863C2F201031A680AB90CE01A465369A8
:10482000002BFBD15061002343618380C3808372DE
:104830005DF8044B70471860F5E700BFF8B541F626
:104840007864C2F2010447F61221A06C0368DB69A8
:10485000984741F6C947032041F6B93346F2E5517E
:1048600044F6295641F6556284F86400C0F200030C
:10487000C0F20007C0F20001C0F20006C0F2000260
:1048800041F6250063602760E1606661A261C0F2C5
:10489000000045F6453340F6057741F6511140F6E4
:1048A000194640F6DD122061C0F20003C0F2000795
:1048B000C0F20001C0F20006C0F2000241F2F15065
:1048C000E3612762A160A662E262C0F2000040F6E6
:1048D000794340F6215740F6CD4140F6755640F6F3
:1048E0002962C0F200022063C0F20003C0F2000798
:1048F000C0F20001C0F200064EF2402545F284509D
:104900006264C2F200056363A76300234FF6FF777A
:10491000E16326641721C0F2020084F84C3084F869
:104920004E3084F84D30A365636584F8E93084F82F
:10493000663084F8653084F8673084F86830E7655D
:1049400027661BF0C7F8284617F02EFA13F022FF4F
:1049500041F2C053C2F2010341F6F92141F6392771
:1049600046F22D5644F6AD5441F6E562C0F2000120
:10497000C0F20007C0F20006C0F20004C0F200025C
:1049800041F28D70C3F86811C3F86471C3F87061A7
:10499000C3F87841C3F87C21C0F2000045F6A53188
:1049A00041F6594741F6A90641F6C91440F6AD62F1
:1049B000C3F87401C0F20001C0F20007C0F20006A3
:1049C000C0F20004C0F2000241F27560C3F8841125
:1049D000C3F88871C3F86C61C3F89041C3F894219F
:1049E000C0F2000040F6312140F6892740F6E1266A
:1049F00040F6393440F69132C0F20002C3F8980113
:104A0000C0F20001C0F20007C0F20006C0F20004CC
:104A100045F29C50C3F89C11C3F8A071C3F8A4617F
:104A2000C3F8A841C3F8AC211D21C0F202001BF05D
:104A300051F8284617F0B8F94AF68811C2F2010178
:104A400041F2E13EC0F2000E4AF68014C1F800E0E7
:104A5000C2F2010441F2193EC0F2000E4AF684137C
:104A6000C4F800E0C2F2010346F26D4EC0F2000E3F
:104A70004AF65817C3F800E0C2F2010744F6456E43
:104A8000C0F2000E4AF64810C7F800E0C2F201007A
:104A900041F2A94EC0F2000E4AF64416C0F800E0FA
:104AA000C2F2010641F2792EC0F2000E4AF66812F7
:104AB000C6F800E0C2F2010245F6294EC0F2000E2F
:104AC0004AF66011C2F800E0C2F2010141F6DD5E73
:104AD000C0F2000E4AF65414C1F800E0C2F201041C
:104AE00041F2D91EC0F2000E4AF67C13C4F800E071
:104AF000C2F2010341F6655EC0F2000E4AF6641789
:104B0000C3F800E0C2F2010741F2791EC0F2000EC4
:104B10004AF62C10C7F800E0C2F2010041F2FD672E
:104B2000C0F200074AF65C160760C2F201064AF6B8
:104B30003C1241F22907C2F20102C0F200074AF614
:104B4000741141F289003760C2F20101C0F2000025
:104B50004AF634144AF6301340F6C977C2F201031C
:104B60001060C2F20104C0F2000740F6697641F21B
:104B7000E90245F2BC500F60C0F20006C0F200022C
:104B8000C0F20200182126601A601AF0A3FF28461E
:104B9000BDE8F84017F008B94DF20A73C3F6234395
:104BA00006EE103A437EC17E07EE103A837CB8EEE3
:104BB000C77A07EE903A70B4F8EEE76A27EE067A05
:104BC00083B067EE267A0022FCEEE77A8273CDEDA1
:104BD000017A42739DF80430027301B10373827E3F
:104BE00002B14373027F02B1837390F8213090F8D1
:104BF000231007EE103A4DF20A73C3F6234306EE74
:104C0000103A037CB8EEC77A07EE903A27EE067AA0
:104C1000F8EEE76A67EE267AFCEEE77ACDED017AE8
:104C20009DF8043021B1017B994238BF19460173C8
:104C300090F8221021B1417B994238BF1946417347
:104C400090F8244024B1817B8B4238BF0B4683739C
:104C5000437FC17F07EE103A4DF20A73C3F6234338
:104C600006EE103A437CB8EEC77A07EE903A27EE8C
:104C7000067AF8EEE76A67EE267AFCEEE77ACDED83
:104C8000017A9DF8043021B1017B994238BF194661
:104C90000173817F21B1417B994238BF194641732D
:104CA00090F8201021B1857BAB4238BF2B4683732F
:104CB00090F8253090F8275007EE103A4DF20A731D
:104CC000C3F6234306EE103AC37BB8EEC77A07EE6D
:104CD000903A27EE067AF8EEE76A67EE267AFCEE5F
:104CE000E77ACDED017A9DF8043025B1057B9D4230
:104CF00038BF1D46057390F8265025B1457B9D426F
:104D000038BF1D46457390F8285025B1867BB342C5
:104D100038BF3346837322B919B914B90DB97F234B
:104D2000837303B070BC704738B541F29053C2F240
:104D300001030C461B680546240483F8CF1003F1D9
:104D4000C00004F4FE04013DFFF726FF44F4504484
:104D500045F2D8502D020D2105F47065C0F2020015
:104D600044F00D041AF0B6FE2C4341F2C050214627
:104D7000C2F2010015F03EFB45F220101421C0F2F2
:104D800002001AF0A7FE20461AF01AF845F2381071
:104D9000C0F202000F211AF09DFE4EF24020C2F236
:104DA0000000BDE8384016F0FFBF00BF41F290534D
:104DB000C2F2010370B51B68054683F8CF1003F1FA
:104DC000C0000C46FFF7E8FE45F2E8501221013D15
:104DD000C0F202001AF07EFEE9B20F290FD841F6A8
:104DE0007866C2F2010641F0D001B06C03681B681E
:104DF0009847B06C036804F07F011B68984745F240
:104E000060100F21C0F202001AF064FE230403F4C4
:104E1000FE03280243F4504343F00D0300F4706096
:104E2000184319F0CDFF45F23810C0F202000F21EF
:104E30001AF050FE4EF24020C2F20000BDE8704071
:104E400016F0B2BF41F29053C2F2010370B51B6875
:104E5000054683F8CF1003F1C0000C46FFF79CFE17
:104E600045F2FC500D21013DC0F202001AF032FE65
:104E7000E9B20F290FD841F67866C2F2010641F077
:104E8000D001B06C03681B689847B06C036804F0ED
:104E90007F011B68984745F260100F21C0F20200A5
:104EA0001AF018FE230403F4FE03290243F45043CE
:104EB00043F00D0301F4706141F2C0501943C2F296
:104EC000010015F097FA45F22010C0F202001421FB
:104ED0001AF000FE4EF24020C2F20000BDE8704021
:104EE00016F062BF10B4036841681A780C78417AF2
:104EF000037A0C4202EA03021AD0837A03F0030316
:104F00000AB143F0040343F008039A10082B82729D
:104F10002AD8072B22D2032B2ED011D9042B13D041
:104F2000062B14D1C3685DF8044B023BC360704785
:104F3000837A03F00303002AE7D043F00403E4E795
:104F4000012B0BD0022B02D1C368013BC3605DF87B
:104F5000044B70470D2BF7D00E2BF8D1C3685DF8CA
:104F6000044B0133C36070470C2B05D0F2D8092BDA
:104F7000D8D00B2BE8D0EAE7C3685DF8044B0233C6
:104F8000C36070471D2810B50B4600F0E983024648
:104F900022D92C2800F064813FD8242800F0EE8329
:104FA00040F2A880282800F0748300F2D6802628DA
:104FB00000F0F58140F2D5824AF28854C2F2010431
:104FC00043F67941C0F2000104222720C4F89C3046
:104FD00017F052FC012010BD0E2800F097833AD83C
:104FE000062800F0A1836CD90A2800F0058300F29E
:104FF0000781082800F07E8140F275824AF28854C9
:10500000C2F2010442F2F121C0F20001042209209F
:10501000636217F031FC012010BD342800F0BD831D
:1050200036D8302800F0638300F2D6802E2800F0B6
:10503000528140F201824AF28854C2F2010444F2E1
:10504000D911C0F2000104222F20C4F8BC3017F09F
:1050500013FC012010BD152800F0748364D91928B1
:1050600000F0FA8100F2A580172800F08A8140F252
:10507000D1824AF28854C2F2010443F26521C0F29F
:10508000000104221820236617F0F6FB012010BD52
:10509000382800F0CE8275D8362800F0398140F2E9
:1050A0007F824AF28854C2F2010444F23971C0F29C
:1050B000000104223720C4F8DC3017F0DDFB0120AA
:1050C00010BD022800F0018240F27881042800F02F
:1050D0004B8140F2BD824AF28854C2F2010443F28D
:1050E0006101C0F2000104220520636117F0C4FBD6
:1050F000012010BD202800F0448240F2898122283E
:1051000000F0238140F2D4824AF28854C2F20104B2
:1051100043F6C911C0F2000104222320C4F88C30E8
:1051200017F0AAFB012010BD112800F0B18140F258
:105130005A81132800F0FB8040F2B8814AF288546B
:10514000C2F2010442F65521C0F2000104221420EB
:10515000236517F091FB012010BD2A2800F0AC80D8
:1051600040F2E0814AF28854C2F2010443F6297108
:10517000C0F2000104222B20C4F8AC3017F07CFBF5
:10518000012010BD3A2800F08880C0F072823B28D0
:1051900040F06D824AF28854C2F2010442F2ED01FD
:1051A000C0F200010422C4F8EC3017F065FB0120C6
:1051B00010BD1B2863D040F28B824AF28854C2F2A1
:1051C000010443F21551C0F2000104221C202367A0
:1051D00017F052FB012010BD322824D040F29281FA
:1051E0004AF28854C2F2010444F28941C0F200013B
:1051F00004223320C4F8CC3017F03EFB012010BD50
:105200000C281FD040F29E814AF28854C2F2010459
:1052100042F2A151C0F2000104220D20636317F095
:105220002BFB012010BD4AF28854C2F2010444F263
:10523000DD31C0F200010422C4F8C83017F01CFBB5
:10524000012010BD4AF28854C2F2010442F2F54135
:10525000C0F200010422236317F00EFB012010BDF1
:105260004AF28854C2F2010443F6D571C0F200013B
:105270000422C4F8B03017F0FFFA012010BD4AF242
:105280008854C2F2010443F26941C0F200010422D1
:10529000E36617F0F1FA012010BD4AF28854C2F219
:1052A000010442F24101C0F200010422C4F8E830D6
:1052B00017F0E2FA012010BD4AF28854C2F201044C
:1052C00043F67D61C0F200010422C4F8A83017F053
:1052D000D3FA012010BD4AF28854C2F2010444F20C
:1052E0002D11C0F200010422C4F8B83017F0C4FA3E
:1052F000012010BD4AF28854C2F2010442F2452155
:10530000C0F200010422236217F0B6FA012010BD9A
:105310004AF28854C2F2010444F28D61C0F20001E5
:105320000422C4F8D83017F0A7FA012010BD4AF2C1
:105330008854C2F2010442F6A911C0F2000104220D
:10534000E36417F099FA012010BD4AF28854C2F2C2
:10535000010443F61D11C0F200010422C4F8883094
:1053600017F08AFA012010BD4AF28854C2F20104F3
:1053700042F6B571C0F20001236117F07DFA0120F9
:1053800010BD4AF28854C2F2010442F65941C0F2FB
:1053900000010422E36517F06FFA012010BD4AF204
:1053A0008854C2F2010443F6CD31C0F20001042258
:1053B000C4F8983017F060FA012010BD002800F002
:1053C000FF80012840F053814AF28854C2F2010460
:1053D00042F6B151C0F2000104220120636017F0CF
:1053E0004BFA012010BD0F2800F0F880102840F083
:1053F0003E814AF28854C2F2010442F2A571C0F221
:10540000000104221020236417F036FA012010BD99
:105410001E282FD01F2840F02A814AF28854C2F259
:10542000010443F21971C0F2000104221F20E36756
:1054300017F022FA012010BD4AF28854C2F201048A
:1054400044F28101C0F2000104222D20C4F8B430DE
:1054500017F012FA012010BD4AF28854C2F201047A
:1054600043F21131C0F200010422636617F004FA1E
:10547000012010BD4AF28854C2F2010443F26D616A
:10548000C0F200010422A36717F0F6F9012010BD55
:105490004AF28854C2F2010442F65101C0F20001FE
:1054A0000422636417F0E8F9012010BD4AF2885421
:1054B000C2F2010442F6FD01C0F2000104221220F2
:1054C000A36417F0D9F9012010BD4AF28854C2F242
:1054D000010442F65D61C0F200010422A36017F0EE
:1054E000CBF9012010BD4AF28854C2F2010443F204
:1054F000B911C0F2000104220720E36117F0BCF9E2
:10550000012010BD4AF28854C2F2010444F2313144
:10551000C0F2000104223120C4F8C43017F0ACF905
:10552000012010BD4AF28854C2F2010443F6D15161
:10553000C0F2000104222920C4F8A43017F09CF91D
:10554000012010BD4AF28854C2F2010442F24941DE
:10555000C0F2000104220B20E36217F08DF9012054
:1055600010BD4AF28854C2F2010443F62131C0F260
:10557000000104222520C4F8943017F07DF90120A1
:1055800010BD4AF28854C2F2010443F2C571C0F260
:1055900000010422C4F8803017F06EF9012010BD1C
:1055A0004AF28854C2F2010444F2E151C0F200010F
:1055B00004223520C4F8D43017F05EF9012010BD64
:1055C0004AF28854C2F2010442F60551C0F20001C9
:1055D0000422236017F050F9012010BD4AF28854CC
:1055E000C2F2010442F2F961C0F200010422E36355
:1055F00017F042F9012010BD4AF28854C2F20104AA
:1056000042F29D31C0F200010422A36217F034F986
:10561000012010BD4AF28854C2F2010442F6AD31B5
:10562000C0F2000104221620A36517F025F901201D
:1056300010BD4AF28854C2F2010441F69571C0F2DD
:1056400000010422C4F8E03017F016F9012010BD63
:105650004AF28854C2F2010442F60971C0F2000114
:1056600004220320E36017F007F9012010BD002099
:1056700010BD4AF28854C2F2010442F29911C0F2FC
:10568000000104223920C4F8E43017F0F5F80120B5
:1056900010BD4AF28854C2F2010443F62551C0F20B
:1056A00000010422C4F8A03017F0E6F8012010BD74
:1056B0004AF28854C2F2010443F67101C0F20001BB
:1056C00004222120C4F8843017F0D6F8012010BD40
:1056D0004AF28854C2F2010443F2BD31C0F2000123
:1056E00004221A20A36617F0C7F8012010BD4AF261
:1056F0008854C2F2010444F28521C0F20001042260
:10570000C4F8C03017F0B8F8012010BD4AF2885430
:10571000C2F2010442F24D61C0F200010422A3630F
:1057200017F0AAF8012010BD4AF28854C2F2010411
:1057300043F20D11C0F200010422A36117F09CF89E
:10574000012010BD4AF28854C2F2010442F6013130
:10575000C0F200010422636517F08EF8012010BD2D
:105760004AF28854C2F2010443F2C151C0F200016E
:105770000422636717F080F8012010BD4AF28854B4
:10578000C2F2010443F67521C0F200010422C4F8FC
:10579000903017F071F8012010BD4AF28854C2F21F
:1057A000010444F23551C0F200010422C4F8D030A3
:1057B00017F062F8012010BDF8B5044615460E46F4
:1057C0000846022117F0D0FA2846022117F0CCFA39
:1057D00046F68403C0F20203012253F83600227217
:1057E00000F50071216053F8351062724DF2C0432C
:1057F00001F5007762F31F4300226760E260013B1E
:10580000FDD190F8003291F8002203F00103D20795
:1058100044BF43F00203DBB2A37221463046FFF7D8
:10582000B1FB214620742846FFF7ACFB237C1844CB
:1058300020742046F8BD00BFF8B5064645F20C605E
:105840000F46C0F202000B211AF044F94EF240203C
:105850003946C2F2000000230A2216F0B7FA45F2D8
:105860001860C0F2020001211AF034F9B7B1002526
:105870002C4645F63C100121C0F202001AF02AF92C
:1058800001344EF24020715DE4B2C2F20000002308
:105890000A2216F09BFAA7422546EAD84EF240208B
:1058A000C2F2000016F080FA4DF6A863C2F20003BF
:1058B0001B7C73B1B07800F00F000130834208D038
:1058C000FBF782FA28B945F21C60C0F202001B21E6
:1058D00007E07378432B0ED045F23860C0F2020027
:1058E0001B211AF0F7F84EF24020C2F20000BDE88A
:1058F000F84016F059BA45F254600C21C0F202008B
:105900001AF0E8F8B1784EF24020C1F30211C2F269
:10591000000016F0EBF945F218600121C0F2020018
:105920001AF0D8F84EF24020C2F2000016F03CFA0D
:10593000072F05D045F2EC60C0F202002021D0E72D
:10594000F378C3F38403002B00F0C680022B40F0F1
:10595000F180B379F72B40F0C28041F29053C2F24C
:10596000010331791B6872794AF6AB2001F07F019F
:10597000C3F6AA5007EE100A581802F07F023171E0
:10598000727180F8C82193F80A4293F8075293F88D
:105990000C0293F80872C3F8C45093F8095293F8B4
:1059A0000E2293F81012C3F8C87083F8D95004F08F
:1059B0000107C4F34005C4F3800493F80BE283F8B5
:1059C000DA7083F8DB5000F0010783F8DC40C0F3A5
:1059D000400593F80D4283F8DDE0C0F3800083F8C2
:1059E000DE7002F0010E83F8DF5083F8E00093F8D8
:1059F0000F5283F8E140C1F3400001F00104C2F30B
:105A00004007C2F3800283F8E42083F8E64083F87D
:105A1000E2E083F8E37083F8E55083F8E70093F859
:105A20001122520607EE902AF8EEE77AC1F38001C0
:105A300067EE877A83F8E810FDEEE77A03F1C0009D
:105A4000C3ED357AFFF7A8F834795C34E4B245F257
:105A50003470C0F20200FAF7A5FFF37813F07C0F60
:105A600005D145F2C460C0F20200FAF79BFF45F28F
:105A7000D060C0F20200FAF795FF4EF24020317973
:105A800000230A22C2F2000016F0A0F945F2E860F5
:105A9000C0F20200FAF786FF4EF24020717900232F
:105AA0000A22C2F2000016F091F945F2DC60C0F261
:105AB0000200FAF777FF4EF2402021460023C2F29F
:105AC00000000A2216F082F94EF24020C2F20000D5
:105AD000BDE8F84016F068B9B379F72B07D045F266
:105AE0009C60C0F20200BDE8F840FAF765BF327969
:105AF000737941F29054C2F2010402F07F0203F084
:105B00007F0320683271737109F0FAFEF2783379FD
:105B10002068717902F0030203EBC213034483F897
:105B20006C1109F0E1FDF478337903EBC41404F04F
:105B3000FF048CE745F26460C0F20200BDE8F84063
:105B4000FAF73ABF38B504460D46FFF775FE45F241
:105B500010701021C0F2020019F0BCFF41F2C050D9
:105B600000232A462146C2F2010014F081FC45F2CE
:105B700020101421C0F2020019F0ACFF2946204683
:105B8000002219F071F945F23810C0F202000F211D
:105B900019F0A0FF4EF24020C2F20000BDE83840EC
:105BA00016F002B92DE9F04141F678650F468046BE
:105BB000C2F20105FFF740FE45F224701521C0F244
:105BC000020019F087FFA86C0368F021DB6C98478E
:105BD00057B1444608EB0706A86C14F8011B03688C
:105BE0001B689847A642F7D1A86C0368F721DB6CC5
:105BF000984745F260100F21C0F2020019F06AFFC9
:105C000039464046002219F02FF945F23810C0F20B
:105C100002000F2119F05EFF4EF24020C2F2000098
:105C2000BDE8F04116F0C0B82DE9F04141F67865C5
:105C30000F468046C2F20105FFF7FEFD45F23C70BB
:105C40001021C0F2020019F045FFA86C0368F02192
:105C5000DB6C984757B1444608EB0706A86C14F86C
:105C6000011B03681B689847A642F7D1A86C03681C
:105C7000F721DB6C984745F260100F21C0F202005B
:105C800019F028FF41F2C0503A464146C2F20100E5
:105C9000002314F0EDFB45F22010C0F202001421A5
:105CA00019F018FF4EF24020C2F20000BDE8F041AA
:105CB00016F07AB8FFFFFFFF38B545F2507010EECE
:105CC000105A4DF6A8642DED048BC2F20004142185
:105CD000C0F20200B0EE608AC4ED030A84ED020A4D
:105CE00019F0F8FE28461DF051FE41EC100B4EF263
:105CF00040200A21C2F2000016F0A8F845F26870B0
